{
	"MTP/StorageFactory.sol": {
		"StorageFactory": {
			"abi": [
				{
					"anonymous": false,
					"inputs": [
						{
							"indexed": true,
							"internalType": "address",
							"name": "hospital",
							"type": "address"
						},
						{
							"indexed": false,
							"internalType": "address",
							"name": "contractAddress",
							"type": "address"
						}
					],
					"name": "EHRStorageCreated",
					"type": "event"
				},
				{
					"inputs": [],
					"name": "createEHRStorageContract",
					"outputs": [],
					"stateMutability": "nonpayable",
					"type": "function"
				},
				{
					"inputs": [
						{
							"internalType": "address",
							"name": "",
							"type": "address"
						}
					],
					"name": "hospitalStorageContracts",
					"outputs": [
						{
							"internalType": "contract EHRStorage",
							"name": "",
							"type": "address"
						}
					],
					"stateMutability": "view",
					"type": "function"
				},
				{
					"inputs": [],
					"name": "sfGetAllEHRs",
					"outputs": [
						{
							"components": [
								{
									"internalType": "string",
									"name": "ipfsHash",
									"type": "string"
								},
								{
									"internalType": "uint256",
									"name": "timestamp",
									"type": "uint256"
								},
								{
									"internalType": "bool",
									"name": "verified",
									"type": "bool"
								}
							],
							"internalType": "struct EHRStorage.EHRMetadata[]",
							"name": "",
							"type": "tuple[]"
						}
					],
					"stateMutability": "view",
					"type": "function"
				},
				{
					"inputs": [
						{
							"internalType": "uint256",
							"name": "index",
							"type": "uint256"
						}
					],
					"name": "sfGetEHR",
					"outputs": [
						{
							"internalType": "string",
							"name": "",
							"type": "string"
						},
						{
							"internalType": "uint256",
							"name": "",
							"type": "uint256"
						},
						{
							"internalType": "bool",
							"name": "",
							"type": "bool"
						}
					],
					"stateMutability": "view",
					"type": "function"
				},
				{
					"inputs": [
						{
							"internalType": "string",
							"name": "_ipfsHash",
							"type": "string"
						}
					],
					"name": "sfStoreEHR",
					"outputs": [],
					"stateMutability": "nonpayable",
					"type": "function"
				}
			],
			"devdoc": {
				"kind": "dev",
				"methods": {},
				"version": 1
			},
			"evm": {
				"assembly": "    /* \"MTP/StorageFactory.sol\":112:1860  contract StorageFactory {... */\n  mstore(0x40, 0x80)\n  callvalue\n  dup1\n  iszero\n  tag_1\n  jumpi\n  0x00\n  dup1\n  revert\ntag_1:\n  pop\n  dataSize(sub_0)\n  dup1\n  dataOffset(sub_0)\n  0x00\n  codecopy\n  0x00\n  return\nstop\n\nsub_0: assembly {\n        /* \"MTP/StorageFactory.sol\":112:1860  contract StorageFactory {... */\n      mstore(0x40, 0x80)\n      callvalue\n      dup1\n      iszero\n      tag_1\n      jumpi\n      0x00\n      dup1\n      revert\n    tag_1:\n      pop\n      jumpi(tag_2, lt(calldatasize, 0x04))\n      shr(0xe0, calldataload(0x00))\n      dup1\n      0x0544c1dd\n      eq\n      tag_3\n      jumpi\n      dup1\n      0x25d1c9fa\n      eq\n      tag_4\n      jumpi\n      dup1\n      0x44d89c51\n      eq\n      tag_5\n      jumpi\n      dup1\n      0x57b4a12f\n      eq\n      tag_6\n      jumpi\n      dup1\n      0xc104aa5f\n      eq\n      tag_7\n      jumpi\n    tag_2:\n      0x00\n      dup1\n      revert\n        /* \"MTP/StorageFactory.sol\":803:1089  function sfStoreEHR(string memory _ipfsHash) public {... */\n    tag_3:\n      tag_8\n      0x04\n      dup1\n      calldatasize\n      sub\n      dup2\n      add\n      swap1\n      tag_9\n      swap2\n      swap1\n      tag_10\n      jump\t// in\n    tag_9:\n      tag_11\n      jump\t// in\n    tag_8:\n      stop\n        /* \"MTP/StorageFactory.sol\":353:732  function createEHRStorageContract() public {... */\n    tag_4:\n      tag_12\n      tag_13\n      jump\t// in\n    tag_12:\n      stop\n        /* \"MTP/StorageFactory.sol\":1163:1482  function sfGetEHR(uint256 index) public view returns (string memory, uint256, bool) {... */\n    tag_5:\n      tag_14\n      0x04\n      dup1\n      calldatasize\n      sub\n      dup2\n      add\n      swap1\n      tag_15\n      swap2\n      swap1\n      tag_16\n      jump\t// in\n    tag_15:\n      tag_17\n      jump\t// in\n    tag_14:\n      mload(0x40)\n      tag_18\n      swap4\n      swap3\n      swap2\n      swap1\n      tag_19\n      jump\t// in\n    tag_18:\n      mload(0x40)\n      dup1\n      swap2\n      sub\n      swap1\n      return\n        /* \"MTP/StorageFactory.sol\":1535:1857  function sfGetAllEHRs() public view returns (EHRStorage.EHRMetadata[] memory) {... */\n    tag_6:\n      tag_20\n      tag_21\n      jump\t// in\n    tag_20:\n      mload(0x40)\n      tag_22\n      swap2\n      swap1\n      tag_23\n      jump\t// in\n    tag_22:\n      mload(0x40)\n      dup1\n      swap2\n      sub\n      swap1\n      return\n        /* \"MTP/StorageFactory.sol\":143:205  mapping(address => EHRStorage) public hospitalStorageContracts */\n    tag_7:\n      tag_24\n      0x04\n      dup1\n      calldatasize\n      sub\n      dup2\n      add\n      swap1\n      tag_25\n      swap2\n      swap1\n      tag_26\n      jump\t// in\n    tag_25:\n      tag_27\n      jump\t// in\n    tag_24:\n      mload(0x40)\n      tag_28\n      swap2\n      swap1\n      tag_29\n      jump\t// in\n    tag_28:\n      mload(0x40)\n      dup1\n      swap2\n      sub\n      swap1\n      return\n        /* \"MTP/StorageFactory.sol\":803:1089  function sfStoreEHR(string memory _ipfsHash) public {... */\n    tag_11:\n        /* \"MTP/StorageFactory.sol\":931:932  0 */\n      0x00\n        /* \"MTP/StorageFactory.sol\":874:933  address(hospitalStorageContracts[msg.sender]) != address(0) */\n      0xffffffffffffffffffffffffffffffffffffffff\n      and\n        /* \"MTP/StorageFactory.sol\":882:906  hospitalStorageContracts */\n      0x00\n        /* \"MTP/StorageFactory.sol\":882:918  hospitalStorageContracts[msg.sender] */\n      dup1\n        /* \"MTP/StorageFactory.sol\":907:917  msg.sender */\n      caller\n        /* \"MTP/StorageFactory.sol\":882:918  hospitalStorageContracts[msg.sender] */\n      0xffffffffffffffffffffffffffffffffffffffff\n      and\n      0xffffffffffffffffffffffffffffffffffffffff\n      and\n      dup2\n      mstore\n      0x20\n      add\n      swap1\n      dup2\n      mstore\n      0x20\n      add\n      0x00\n      keccak256\n      0x00\n      swap1\n      sload\n      swap1\n      0x0100\n      exp\n      swap1\n      div\n      0xffffffffffffffffffffffffffffffffffffffff\n      and\n        /* \"MTP/StorageFactory.sol\":874:933  address(hospitalStorageContracts[msg.sender]) != address(0) */\n      0xffffffffffffffffffffffffffffffffffffffff\n      and\n      sub\n        /* \"MTP/StorageFactory.sol\":866:963  require(address(hospitalStorageContracts[msg.sender]) != address(0), \"No storage contract found\") */\n      tag_31\n      jumpi\n      mload(0x40)\n      0x08c379a000000000000000000000000000000000000000000000000000000000\n      dup2\n      mstore\n      0x04\n      add\n      tag_32\n      swap1\n      tag_33\n      jump\t// in\n    tag_32:\n      mload(0x40)\n      dup1\n      swap2\n      sub\n      swap1\n      revert\n    tag_31:\n        /* \"MTP/StorageFactory.sol\":976:999  EHRStorage myEHRStorage */\n      0x00\n        /* \"MTP/StorageFactory.sol\":1002:1026  hospitalStorageContracts */\n      dup1\n        /* \"MTP/StorageFactory.sol\":1002:1038  hospitalStorageContracts[msg.sender] */\n      0x00\n        /* \"MTP/StorageFactory.sol\":1027:1037  msg.sender */\n      caller\n        /* \"MTP/StorageFactory.sol\":1002:1038  hospitalStorageContracts[msg.sender] */\n      0xffffffffffffffffffffffffffffffffffffffff\n      and\n      0xffffffffffffffffffffffffffffffffffffffff\n      and\n      dup2\n      mstore\n      0x20\n      add\n      swap1\n      dup2\n      mstore\n      0x20\n      add\n      0x00\n      keccak256\n      0x00\n      swap1\n      sload\n      swap1\n      0x0100\n      exp\n      swap1\n      div\n      0xffffffffffffffffffffffffffffffffffffffff\n      and\n        /* \"MTP/StorageFactory.sol\":976:1038  EHRStorage myEHRStorage = hospitalStorageContracts[msg.sender] */\n      swap1\n      pop\n        /* \"MTP/StorageFactory.sol\":1049:1061  myEHRStorage */\n      dup1\n        /* \"MTP/StorageFactory.sol\":1049:1070  myEHRStorage.storeEHR */\n      0xffffffffffffffffffffffffffffffffffffffff\n      and\n      0x75db1a2d\n        /* \"MTP/StorageFactory.sol\":1071:1080  _ipfsHash */\n      dup4\n        /* \"MTP/StorageFactory.sol\":1049:1081  myEHRStorage.storeEHR(_ipfsHash) */\n      mload(0x40)\n      dup3\n      0xffffffff\n      and\n      0xe0\n      shl\n      dup2\n      mstore\n      0x04\n      add\n      tag_34\n      swap2\n      swap1\n      tag_35\n      jump\t// in\n    tag_34:\n      0x00\n      mload(0x40)\n      dup1\n      dup4\n      sub\n      dup2\n      0x00\n      dup8\n      dup1\n      extcodesize\n      iszero\n      dup1\n      iszero\n      tag_36\n      jumpi\n      0x00\n      dup1\n      revert\n    tag_36:\n      pop\n      gas\n      call\n      iszero\n      dup1\n      iszero\n      tag_38\n      jumpi\n      returndatasize\n      0x00\n      dup1\n      returndatacopy\n      revert(0x00, returndatasize)\n    tag_38:\n      pop\n      pop\n      pop\n      pop\n        /* \"MTP/StorageFactory.sol\":855:1089  {... */\n      pop\n        /* \"MTP/StorageFactory.sol\":803:1089  function sfStoreEHR(string memory _ipfsHash) public {... */\n      pop\n      jump\t// out\n        /* \"MTP/StorageFactory.sol\":353:732  function createEHRStorageContract() public {... */\n    tag_13:\n        /* \"MTP/StorageFactory.sol\":472:473  0 */\n      0x00\n        /* \"MTP/StorageFactory.sol\":415:474  address(hospitalStorageContracts[msg.sender]) == address(0) */\n      0xffffffffffffffffffffffffffffffffffffffff\n      and\n        /* \"MTP/StorageFactory.sol\":423:447  hospitalStorageContracts */\n      0x00\n        /* \"MTP/StorageFactory.sol\":423:459  hospitalStorageContracts[msg.sender] */\n      dup1\n        /* \"MTP/StorageFactory.sol\":448:458  msg.sender */\n      caller\n        /* \"MTP/StorageFactory.sol\":423:459  hospitalStorageContracts[msg.sender] */\n      0xffffffffffffffffffffffffffffffffffffffff\n      and\n      0xffffffffffffffffffffffffffffffffffffffff\n      and\n      dup2\n      mstore\n      0x20\n      add\n      swap1\n      dup2\n      mstore\n      0x20\n      add\n      0x00\n      keccak256\n      0x00\n      swap1\n      sload\n      swap1\n      0x0100\n      exp\n      swap1\n      div\n      0xffffffffffffffffffffffffffffffffffffffff\n      and\n        /* \"MTP/StorageFactory.sol\":415:474  address(hospitalStorageContracts[msg.sender]) == address(0) */\n      0xffffffffffffffffffffffffffffffffffffffff\n      and\n      eq\n        /* \"MTP/StorageFactory.sol\":407:510  require(address(hospitalStorageContracts[msg.sender]) == address(0), \"Storage contract already exists\") */\n      tag_40\n      jumpi\n      mload(0x40)\n      0x08c379a000000000000000000000000000000000000000000000000000000000\n      dup2\n      mstore\n      0x04\n      add\n      tag_41\n      swap1\n      tag_42\n      jump\t// in\n    tag_41:\n      mload(0x40)\n      dup1\n      swap2\n      sub\n      swap1\n      revert\n    tag_40:\n        /* \"MTP/StorageFactory.sol\":523:555  EHRStorage newEHRStorageContract */\n      0x00\n        /* \"MTP/StorageFactory.sol\":558:574  new EHRStorage() */\n      mload(0x40)\n      tag_43\n      swap1\n      tag_44\n      jump\t// in\n    tag_43:\n      mload(0x40)\n      dup1\n      swap2\n      sub\n      swap1\n      0x00\n      create\n      dup1\n      iszero\n      dup1\n      iszero\n      tag_45\n      jumpi\n      returndatasize\n      0x00\n      dup1\n      returndatacopy\n      revert(0x00, returndatasize)\n    tag_45:\n      pop\n        /* \"MTP/StorageFactory.sol\":523:574  EHRStorage newEHRStorageContract = new EHRStorage() */\n      swap1\n      pop\n        /* \"MTP/StorageFactory.sol\":624:645  newEHRStorageContract */\n      dup1\n        /* \"MTP/StorageFactory.sol\":585:609  hospitalStorageContracts */\n      0x00\n        /* \"MTP/StorageFactory.sol\":585:621  hospitalStorageContracts[msg.sender] */\n      dup1\n        /* \"MTP/StorageFactory.sol\":610:620  msg.sender */\n      caller\n        /* \"MTP/StorageFactory.sol\":585:621  hospitalStorageContracts[msg.sender] */\n      0xffffffffffffffffffffffffffffffffffffffff\n      and\n      0xffffffffffffffffffffffffffffffffffffffff\n      and\n      dup2\n      mstore\n      0x20\n      add\n      swap1\n      dup2\n      mstore\n      0x20\n      add\n      0x00\n      keccak256\n      0x00\n        /* \"MTP/StorageFactory.sol\":585:645  hospitalStorageContracts[msg.sender] = newEHRStorageContract */\n      0x0100\n      exp\n      dup2\n      sload\n      dup2\n      0xffffffffffffffffffffffffffffffffffffffff\n      mul\n      not\n      and\n      swap1\n      dup4\n      0xffffffffffffffffffffffffffffffffffffffff\n      and\n      mul\n      or\n      swap1\n      sstore\n      pop\n        /* \"MTP/StorageFactory.sol\":681:691  msg.sender */\n      caller\n        /* \"MTP/StorageFactory.sol\":663:724  EHRStorageCreated(msg.sender, address(newEHRStorageContract)) */\n      0xffffffffffffffffffffffffffffffffffffffff\n      and\n      0xf214ef8cbf1c2523144b02809b5eff4d47a8ebdecc42b1a458d380cbd9dfd068\n        /* \"MTP/StorageFactory.sol\":701:722  newEHRStorageContract */\n      dup3\n        /* \"MTP/StorageFactory.sol\":663:724  EHRStorageCreated(msg.sender, address(newEHRStorageContract)) */\n      mload(0x40)\n      tag_46\n      swap2\n      swap1\n      tag_47\n      jump\t// in\n    tag_46:\n      mload(0x40)\n      dup1\n      swap2\n      sub\n      swap1\n      log2\n        /* \"MTP/StorageFactory.sol\":396:732  {... */\n      pop\n        /* \"MTP/StorageFactory.sol\":353:732  function createEHRStorageContract() public {... */\n      jump\t// out\n        /* \"MTP/StorageFactory.sol\":1163:1482  function sfGetEHR(uint256 index) public view returns (string memory, uint256, bool) {... */\n    tag_17:\n        /* \"MTP/StorageFactory.sol\":1217:1230  string memory */\n      0x60\n        /* \"MTP/StorageFactory.sol\":1232:1239  uint256 */\n      0x00\n        /* \"MTP/StorageFactory.sol\":1241:1245  bool */\n      dup1\n        /* \"MTP/StorageFactory.sol\":1323:1324  0 */\n      0x00\n        /* \"MTP/StorageFactory.sol\":1266:1325  address(hospitalStorageContracts[msg.sender]) != address(0) */\n      0xffffffffffffffffffffffffffffffffffffffff\n      and\n        /* \"MTP/StorageFactory.sol\":1274:1298  hospitalStorageContracts */\n      0x00\n        /* \"MTP/StorageFactory.sol\":1274:1310  hospitalStorageContracts[msg.sender] */\n      dup1\n        /* \"MTP/StorageFactory.sol\":1299:1309  msg.sender */\n      caller\n        /* \"MTP/StorageFactory.sol\":1274:1310  hospitalStorageContracts[msg.sender] */\n      0xffffffffffffffffffffffffffffffffffffffff\n      and\n      0xffffffffffffffffffffffffffffffffffffffff\n      and\n      dup2\n      mstore\n      0x20\n      add\n      swap1\n      dup2\n      mstore\n      0x20\n      add\n      0x00\n      keccak256\n      0x00\n      swap1\n      sload\n      swap1\n      0x0100\n      exp\n      swap1\n      div\n      0xffffffffffffffffffffffffffffffffffffffff\n      and\n        /* \"MTP/StorageFactory.sol\":1266:1325  address(hospitalStorageContracts[msg.sender]) != address(0) */\n      0xffffffffffffffffffffffffffffffffffffffff\n      and\n      sub\n        /* \"MTP/StorageFactory.sol\":1258:1355  require(address(hospitalStorageContracts[msg.sender]) != address(0), \"No storage contract found\") */\n      tag_49\n      jumpi\n      mload(0x40)\n      0x08c379a000000000000000000000000000000000000000000000000000000000\n      dup2\n      mstore\n      0x04\n      add\n      tag_50\n      swap1\n      tag_33\n      jump\t// in\n    tag_50:\n      mload(0x40)\n      dup1\n      swap2\n      sub\n      swap1\n      revert\n    tag_49:\n        /* \"MTP/StorageFactory.sol\":1368:1391  EHRStorage myEHRStorage */\n      0x00\n        /* \"MTP/StorageFactory.sol\":1394:1418  hospitalStorageContracts */\n      dup1\n        /* \"MTP/StorageFactory.sol\":1394:1430  hospitalStorageContracts[msg.sender] */\n      0x00\n        /* \"MTP/StorageFactory.sol\":1419:1429  msg.sender */\n      caller\n        /* \"MTP/StorageFactory.sol\":1394:1430  hospitalStorageContracts[msg.sender] */\n      0xffffffffffffffffffffffffffffffffffffffff\n      and\n      0xffffffffffffffffffffffffffffffffffffffff\n      and\n      dup2\n      mstore\n      0x20\n      add\n      swap1\n      dup2\n      mstore\n      0x20\n      add\n      0x00\n      keccak256\n      0x00\n      swap1\n      sload\n      swap1\n      0x0100\n      exp\n      swap1\n      div\n      0xffffffffffffffffffffffffffffffffffffffff\n      and\n        /* \"MTP/StorageFactory.sol\":1368:1430  EHRStorage myEHRStorage = hospitalStorageContracts[msg.sender] */\n      swap1\n      pop\n        /* \"MTP/StorageFactory.sol\":1448:1460  myEHRStorage */\n      dup1\n        /* \"MTP/StorageFactory.sol\":1448:1467  myEHRStorage.getEHR */\n      0xffffffffffffffffffffffffffffffffffffffff\n      and\n      0xa127dfbd\n        /* \"MTP/StorageFactory.sol\":1468:1473  index */\n      dup7\n        /* \"MTP/StorageFactory.sol\":1448:1474  myEHRStorage.getEHR(index) */\n      mload(0x40)\n      dup3\n      0xffffffff\n      and\n      0xe0\n      shl\n      dup2\n      mstore\n      0x04\n      add\n      tag_51\n      swap2\n      swap1\n      tag_52\n      jump\t// in\n    tag_51:\n      0x00\n      mload(0x40)\n      dup1\n      dup4\n      sub\n      dup2\n      dup7\n      gas\n      staticcall\n      iszero\n      dup1\n      iszero\n      tag_54\n      jumpi\n      returndatasize\n      0x00\n      dup1\n      returndatacopy\n      revert(0x00, returndatasize)\n    tag_54:\n      pop\n      pop\n      pop\n      pop\n      mload(0x40)\n      returndatasize\n      0x00\n      dup3\n      returndatacopy\n      returndatasize\n      not(0x1f)\n      0x1f\n      dup3\n      add\n      and\n      dup3\n      add\n      dup1\n      0x40\n      mstore\n      pop\n      dup2\n      add\n      swap1\n      tag_55\n      swap2\n      swap1\n      tag_56\n      jump\t// in\n    tag_55:\n        /* \"MTP/StorageFactory.sol\":1441:1474  return myEHRStorage.getEHR(index) */\n      swap4\n      pop\n      swap4\n      pop\n      swap4\n      pop\n      pop\n        /* \"MTP/StorageFactory.sol\":1163:1482  function sfGetEHR(uint256 index) public view returns (string memory, uint256, bool) {... */\n      swap2\n      swap4\n      swap1\n      swap3\n      pop\n      jump\t// out\n        /* \"MTP/StorageFactory.sol\":1535:1857  function sfGetAllEHRs() public view returns (EHRStorage.EHRMetadata[] memory) {... */\n    tag_21:\n        /* \"MTP/StorageFactory.sol\":1580:1611  EHRStorage.EHRMetadata[] memory */\n      0x60\n        /* \"MTP/StorageFactory.sol\":1689:1690  0 */\n      0x00\n        /* \"MTP/StorageFactory.sol\":1632:1691  address(hospitalStorageContracts[msg.sender]) != address(0) */\n      0xffffffffffffffffffffffffffffffffffffffff\n      and\n        /* \"MTP/StorageFactory.sol\":1640:1664  hospitalStorageContracts */\n      0x00\n        /* \"MTP/StorageFactory.sol\":1640:1676  hospitalStorageContracts[msg.sender] */\n      dup1\n        /* \"MTP/StorageFactory.sol\":1665:1675  msg.sender */\n      caller\n        /* \"MTP/StorageFactory.sol\":1640:1676  hospitalStorageContracts[msg.sender] */\n      0xffffffffffffffffffffffffffffffffffffffff\n      and\n      0xffffffffffffffffffffffffffffffffffffffff\n      and\n      dup2\n      mstore\n      0x20\n      add\n      swap1\n      dup2\n      mstore\n      0x20\n      add\n      0x00\n      keccak256\n      0x00\n      swap1\n      sload\n      swap1\n      0x0100\n      exp\n      swap1\n      div\n      0xffffffffffffffffffffffffffffffffffffffff\n      and\n        /* \"MTP/StorageFactory.sol\":1632:1691  address(hospitalStorageContracts[msg.sender]) != address(0) */\n      0xffffffffffffffffffffffffffffffffffffffff\n      and\n      sub\n        /* \"MTP/StorageFactory.sol\":1624:1721  require(address(hospitalStorageContracts[msg.sender]) != address(0), \"No storage contract found\") */\n      tag_58\n      jumpi\n      mload(0x40)\n      0x08c379a000000000000000000000000000000000000000000000000000000000\n      dup2\n      mstore\n      0x04\n      add\n      tag_59\n      swap1\n      tag_33\n      jump\t// in\n    tag_59:\n      mload(0x40)\n      dup1\n      swap2\n      sub\n      swap1\n      revert\n    tag_58:\n        /* \"MTP/StorageFactory.sol\":1734:1757  EHRStorage myEHRStorage */\n      0x00\n        /* \"MTP/StorageFactory.sol\":1760:1784  hospitalStorageContracts */\n      dup1\n        /* \"MTP/StorageFactory.sol\":1760:1796  hospitalStorageContracts[msg.sender] */\n      0x00\n        /* \"MTP/StorageFactory.sol\":1785:1795  msg.sender */\n      caller\n        /* \"MTP/StorageFactory.sol\":1760:1796  hospitalStorageContracts[msg.sender] */\n      0xffffffffffffffffffffffffffffffffffffffff\n      and\n      0xffffffffffffffffffffffffffffffffffffffff\n      and\n      dup2\n      mstore\n      0x20\n      add\n      swap1\n      dup2\n      mstore\n      0x20\n      add\n      0x00\n      keccak256\n      0x00\n      swap1\n      sload\n      swap1\n      0x0100\n      exp\n      swap1\n      div\n      0xffffffffffffffffffffffffffffffffffffffff\n      and\n        /* \"MTP/StorageFactory.sol\":1734:1796  EHRStorage myEHRStorage = hospitalStorageContracts[msg.sender] */\n      swap1\n      pop\n        /* \"MTP/StorageFactory.sol\":1814:1826  myEHRStorage */\n      dup1\n        /* \"MTP/StorageFactory.sol\":1814:1837  myEHRStorage.getAllEHRs */\n      0xffffffffffffffffffffffffffffffffffffffff\n      and\n      0x98089910\n        /* \"MTP/StorageFactory.sol\":1838:1848  msg.sender */\n      caller\n        /* \"MTP/StorageFactory.sol\":1814:1849  myEHRStorage.getAllEHRs(msg.sender) */\n      mload(0x40)\n      dup3\n      0xffffffff\n      and\n      0xe0\n      shl\n      dup2\n      mstore\n      0x04\n      add\n      tag_60\n      swap2\n      swap1\n      tag_47\n      jump\t// in\n    tag_60:\n      0x00\n      mload(0x40)\n      dup1\n      dup4\n      sub\n      dup2\n      dup7\n      gas\n      staticcall\n      iszero\n      dup1\n      iszero\n      tag_62\n      jumpi\n      returndatasize\n      0x00\n      dup1\n      returndatacopy\n      revert(0x00, returndatasize)\n    tag_62:\n      pop\n      pop\n      pop\n      pop\n      mload(0x40)\n      returndatasize\n      0x00\n      dup3\n      returndatacopy\n      returndatasize\n      not(0x1f)\n      0x1f\n      dup3\n      add\n      and\n      dup3\n      add\n      dup1\n      0x40\n      mstore\n      pop\n      dup2\n      add\n      swap1\n      tag_63\n      swap2\n      swap1\n      tag_64\n      jump\t// in\n    tag_63:\n        /* \"MTP/StorageFactory.sol\":1807:1849  return myEHRStorage.getAllEHRs(msg.sender) */\n      swap2\n      pop\n      pop\n        /* \"MTP/StorageFactory.sol\":1535:1857  function sfGetAllEHRs() public view returns (EHRStorage.EHRMetadata[] memory) {... */\n      swap1\n      jump\t// out\n        /* \"MTP/StorageFactory.sol\":143:205  mapping(address => EHRStorage) public hospitalStorageContracts */\n    tag_27:\n      mstore(0x20, 0x00)\n      dup1\n      0x00\n      mstore\n      keccak256(0x00, 0x40)\n      0x00\n      swap2\n      pop\n      sload\n      swap1\n      0x0100\n      exp\n      swap1\n      div\n      0xffffffffffffffffffffffffffffffffffffffff\n      and\n      dup2\n      jump\t// out\n    tag_44:\n      dataSize(sub_0)\n      dup1\n      dataOffset(sub_0)\n      dup4\n      codecopy\n      add\n      swap1\n      jump\t// out\n        /* \"#utility.yul\":7:82   */\n    tag_65:\n        /* \"#utility.yul\":40:46   */\n      0x00\n        /* \"#utility.yul\":73:75   */\n      0x40\n        /* \"#utility.yul\":67:76   */\n      mload\n        /* \"#utility.yul\":57:76   */\n      swap1\n      pop\n        /* \"#utility.yul\":7:82   */\n      swap1\n      jump\t// out\n        /* \"#utility.yul\":88:205   */\n    tag_66:\n        /* \"#utility.yul\":197:198   */\n      0x00\n        /* \"#utility.yul\":194:195   */\n      dup1\n        /* \"#utility.yul\":187:199   */\n      revert\n        /* \"#utility.yul\":211:328   */\n    tag_67:\n        /* \"#utility.yul\":320:321   */\n      0x00\n        /* \"#utility.yul\":317:318   */\n      dup1\n        /* \"#utility.yul\":310:322   */\n      revert\n        /* \"#utility.yul\":334:451   */\n    tag_68:\n        /* \"#utility.yul\":443:444   */\n      0x00\n        /* \"#utility.yul\":440:441   */\n      dup1\n        /* \"#utility.yul\":433:445   */\n      revert\n        /* \"#utility.yul\":457:574   */\n    tag_69:\n        /* \"#utility.yul\":566:567   */\n      0x00\n        /* \"#utility.yul\":563:564   */\n      dup1\n        /* \"#utility.yul\":556:568   */\n      revert\n        /* \"#utility.yul\":580:682   */\n    tag_70:\n        /* \"#utility.yul\":621:627   */\n      0x00\n        /* \"#utility.yul\":672:674   */\n      0x1f\n        /* \"#utility.yul\":668:675   */\n      not\n        /* \"#utility.yul\":663:665   */\n      0x1f\n        /* \"#utility.yul\":656:661   */\n      dup4\n        /* \"#utility.yul\":652:666   */\n      add\n        /* \"#utility.yul\":648:676   */\n      and\n        /* \"#utility.yul\":638:676   */\n      swap1\n      pop\n        /* \"#utility.yul\":580:682   */\n      swap2\n      swap1\n      pop\n      jump\t// out\n        /* \"#utility.yul\":688:868   */\n    tag_71:\n        /* \"#utility.yul\":736:813   */\n      0x4e487b7100000000000000000000000000000000000000000000000000000000\n        /* \"#utility.yul\":733:734   */\n      0x00\n        /* \"#utility.yul\":726:814   */\n      mstore\n        /* \"#utility.yul\":833:837   */\n      0x41\n        /* \"#utility.yul\":830:831   */\n      0x04\n        /* \"#utility.yul\":823:838   */\n      mstore\n        /* \"#utility.yul\":857:861   */\n      0x24\n        /* \"#utility.yul\":854:855   */\n      0x00\n        /* \"#utility.yul\":847:862   */\n      revert\n        /* \"#utility.yul\":874:1155   */\n    tag_72:\n        /* \"#utility.yul\":957:984   */\n      tag_134\n        /* \"#utility.yul\":979:983   */\n      dup3\n        /* \"#utility.yul\":957:984   */\n      tag_70\n      jump\t// in\n    tag_134:\n        /* \"#utility.yul\":949:955   */\n      dup2\n        /* \"#utility.yul\":945:985   */\n      add\n        /* \"#utility.yul\":1087:1093   */\n      dup2\n        /* \"#utility.yul\":1075:1085   */\n      dup2\n        /* \"#utility.yul\":1072:1094   */\n      lt\n        /* \"#utility.yul\":1051:1069   */\n      0xffffffffffffffff\n        /* \"#utility.yul\":1039:1049   */\n      dup3\n        /* \"#utility.yul\":1036:1070   */\n      gt\n        /* \"#utility.yul\":1033:1095   */\n      or\n        /* \"#utility.yul\":1030:1118   */\n      iszero\n      tag_135\n      jumpi\n        /* \"#utility.yul\":1098:1116   */\n      tag_136\n      tag_71\n      jump\t// in\n    tag_136:\n        /* \"#utility.yul\":1030:1118   */\n    tag_135:\n        /* \"#utility.yul\":1138:1148   */\n      dup1\n        /* \"#utility.yul\":1134:1136   */\n      0x40\n        /* \"#utility.yul\":1127:1149   */\n      mstore\n        /* \"#utility.yul\":917:1155   */\n      pop\n        /* \"#utility.yul\":874:1155   */\n      pop\n      pop\n      jump\t// out\n        /* \"#utility.yul\":1161:1290   */\n    tag_73:\n        /* \"#utility.yul\":1195:1201   */\n      0x00\n        /* \"#utility.yul\":1222:1242   */\n      tag_138\n      tag_65\n      jump\t// in\n    tag_138:\n        /* \"#utility.yul\":1212:1242   */\n      swap1\n      pop\n        /* \"#utility.yul\":1251:1284   */\n      tag_139\n        /* \"#utility.yul\":1279:1283   */\n      dup3\n        /* \"#utility.yul\":1271:1277   */\n      dup3\n        /* \"#utility.yul\":1251:1284   */\n      tag_72\n      jump\t// in\n    tag_139:\n        /* \"#utility.yul\":1161:1290   */\n      swap2\n      swap1\n      pop\n      jump\t// out\n        /* \"#utility.yul\":1296:1604   */\n    tag_74:\n        /* \"#utility.yul\":1358:1362   */\n      0x00\n        /* \"#utility.yul\":1448:1466   */\n      0xffffffffffffffff\n        /* \"#utility.yul\":1440:1446   */\n      dup3\n        /* \"#utility.yul\":1437:1467   */\n      gt\n        /* \"#utility.yul\":1434:1490   */\n      iszero\n      tag_141\n      jumpi\n        /* \"#utility.yul\":1470:1488   */\n      tag_142\n      tag_71\n      jump\t// in\n    tag_142:\n        /* \"#utility.yul\":1434:1490   */\n    tag_141:\n        /* \"#utility.yul\":1508:1537   */\n      tag_143\n        /* \"#utility.yul\":1530:1536   */\n      dup3\n        /* \"#utility.yul\":1508:1537   */\n      tag_70\n      jump\t// in\n    tag_143:\n        /* \"#utility.yul\":1500:1537   */\n      swap1\n      pop\n        /* \"#utility.yul\":1592:1596   */\n      0x20\n        /* \"#utility.yul\":1586:1590   */\n      dup2\n        /* \"#utility.yul\":1582:1597   */\n      add\n        /* \"#utility.yul\":1574:1597   */\n      swap1\n      pop\n        /* \"#utility.yul\":1296:1604   */\n      swap2\n      swap1\n      pop\n      jump\t// out\n        /* \"#utility.yul\":1610:1758   */\n    tag_75:\n        /* \"#utility.yul\":1708:1714   */\n      dup3\n        /* \"#utility.yul\":1703:1706   */\n      dup2\n        /* \"#utility.yul\":1698:1701   */\n      dup4\n        /* \"#utility.yul\":1685:1715   */\n      calldatacopy\n        /* \"#utility.yul\":1749:1750   */\n      0x00\n        /* \"#utility.yul\":1740:1746   */\n      dup4\n        /* \"#utility.yul\":1735:1738   */\n      dup4\n        /* \"#utility.yul\":1731:1747   */\n      add\n        /* \"#utility.yul\":1724:1751   */\n      mstore\n        /* \"#utility.yul\":1610:1758   */\n      pop\n      pop\n      pop\n      jump\t// out\n        /* \"#utility.yul\":1764:2189   */\n    tag_76:\n        /* \"#utility.yul\":1842:1847   */\n      0x00\n        /* \"#utility.yul\":1867:1933   */\n      tag_146\n        /* \"#utility.yul\":1883:1932   */\n      tag_147\n        /* \"#utility.yul\":1925:1931   */\n      dup5\n        /* \"#utility.yul\":1883:1932   */\n      tag_74\n      jump\t// in\n    tag_147:\n        /* \"#utility.yul\":1867:1933   */\n      tag_73\n      jump\t// in\n    tag_146:\n        /* \"#utility.yul\":1858:1933   */\n      swap1\n      pop\n        /* \"#utility.yul\":1956:1962   */\n      dup3\n        /* \"#utility.yul\":1949:1954   */\n      dup2\n        /* \"#utility.yul\":1942:1963   */\n      mstore\n        /* \"#utility.yul\":1994:1998   */\n      0x20\n        /* \"#utility.yul\":1987:1992   */\n      dup2\n        /* \"#utility.yul\":1983:1999   */\n      add\n        /* \"#utility.yul\":2032:2035   */\n      dup5\n        /* \"#utility.yul\":2023:2029   */\n      dup5\n        /* \"#utility.yul\":2018:2021   */\n      dup5\n        /* \"#utility.yul\":2014:2030   */\n      add\n        /* \"#utility.yul\":2011:2036   */\n      gt\n        /* \"#utility.yul\":2008:2120   */\n      iszero\n      tag_148\n      jumpi\n        /* \"#utility.yul\":2039:2118   */\n      tag_149\n      tag_69\n      jump\t// in\n    tag_149:\n        /* \"#utility.yul\":2008:2120   */\n    tag_148:\n        /* \"#utility.yul\":2129:2183   */\n      tag_150\n        /* \"#utility.yul\":2176:2182   */\n      dup5\n        /* \"#utility.yul\":2171:2174   */\n      dup3\n        /* \"#utility.yul\":2166:2169   */\n      dup6\n        /* \"#utility.yul\":2129:2183   */\n      tag_75\n      jump\t// in\n    tag_150:\n        /* \"#utility.yul\":1848:2189   */\n      pop\n        /* \"#utility.yul\":1764:2189   */\n      swap4\n      swap3\n      pop\n      pop\n      pop\n      jump\t// out\n        /* \"#utility.yul\":2209:2549   */\n    tag_77:\n        /* \"#utility.yul\":2265:2270   */\n      0x00\n        /* \"#utility.yul\":2314:2317   */\n      dup3\n        /* \"#utility.yul\":2307:2311   */\n      0x1f\n        /* \"#utility.yul\":2299:2305   */\n      dup4\n        /* \"#utility.yul\":2295:2312   */\n      add\n        /* \"#utility.yul\":2291:2318   */\n      slt\n        /* \"#utility.yul\":2281:2403   */\n      tag_152\n      jumpi\n        /* \"#utility.yul\":2322:2401   */\n      tag_153\n      tag_68\n      jump\t// in\n    tag_153:\n        /* \"#utility.yul\":2281:2403   */\n    tag_152:\n        /* \"#utility.yul\":2439:2445   */\n      dup2\n        /* \"#utility.yul\":2426:2446   */\n      calldataload\n        /* \"#utility.yul\":2464:2543   */\n      tag_154\n        /* \"#utility.yul\":2539:2542   */\n      dup5\n        /* \"#utility.yul\":2531:2537   */\n      dup3\n        /* \"#utility.yul\":2524:2528   */\n      0x20\n        /* \"#utility.yul\":2516:2522   */\n      dup7\n        /* \"#utility.yul\":2512:2529   */\n      add\n        /* \"#utility.yul\":2464:2543   */\n      tag_76\n      jump\t// in\n    tag_154:\n        /* \"#utility.yul\":2455:2543   */\n      swap2\n      pop\n        /* \"#utility.yul\":2271:2549   */\n      pop\n        /* \"#utility.yul\":2209:2549   */\n      swap3\n      swap2\n      pop\n      pop\n      jump\t// out\n        /* \"#utility.yul\":2555:3064   */\n    tag_10:\n        /* \"#utility.yul\":2624:2630   */\n      0x00\n        /* \"#utility.yul\":2673:2675   */\n      0x20\n        /* \"#utility.yul\":2661:2670   */\n      dup3\n        /* \"#utility.yul\":2652:2659   */\n      dup5\n        /* \"#utility.yul\":2648:2671   */\n      sub\n        /* \"#utility.yul\":2644:2676   */\n      slt\n        /* \"#utility.yul\":2641:2760   */\n      iszero\n      tag_156\n      jumpi\n        /* \"#utility.yul\":2679:2758   */\n      tag_157\n      tag_66\n      jump\t// in\n    tag_157:\n        /* \"#utility.yul\":2641:2760   */\n    tag_156:\n        /* \"#utility.yul\":2827:2828   */\n      0x00\n        /* \"#utility.yul\":2816:2825   */\n      dup3\n        /* \"#utility.yul\":2812:2829   */\n      add\n        /* \"#utility.yul\":2799:2830   */\n      calldataload\n        /* \"#utility.yul\":2857:2875   */\n      0xffffffffffffffff\n        /* \"#utility.yul\":2849:2855   */\n      dup2\n        /* \"#utility.yul\":2846:2876   */\n      gt\n        /* \"#utility.yul\":2843:2960   */\n      iszero\n      tag_158\n      jumpi\n        /* \"#utility.yul\":2879:2958   */\n      tag_159\n      tag_67\n      jump\t// in\n    tag_159:\n        /* \"#utility.yul\":2843:2960   */\n    tag_158:\n        /* \"#utility.yul\":2984:3047   */\n      tag_160\n        /* \"#utility.yul\":3039:3046   */\n      dup5\n        /* \"#utility.yul\":3030:3036   */\n      dup3\n        /* \"#utility.yul\":3019:3028   */\n      dup6\n        /* \"#utility.yul\":3015:3037   */\n      add\n        /* \"#utility.yul\":2984:3047   */\n      tag_77\n      jump\t// in\n    tag_160:\n        /* \"#utility.yul\":2974:3047   */\n      swap2\n      pop\n        /* \"#utility.yul\":2770:3057   */\n      pop\n        /* \"#utility.yul\":2555:3064   */\n      swap3\n      swap2\n      pop\n      pop\n      jump\t// out\n        /* \"#utility.yul\":3070:3147   */\n    tag_78:\n        /* \"#utility.yul\":3107:3114   */\n      0x00\n        /* \"#utility.yul\":3136:3141   */\n      dup2\n        /* \"#utility.yul\":3125:3141   */\n      swap1\n      pop\n        /* \"#utility.yul\":3070:3147   */\n      swap2\n      swap1\n      pop\n      jump\t// out\n        /* \"#utility.yul\":3153:3275   */\n    tag_79:\n        /* \"#utility.yul\":3226:3250   */\n      tag_163\n        /* \"#utility.yul\":3244:3249   */\n      dup2\n        /* \"#utility.yul\":3226:3250   */\n      tag_78\n      jump\t// in\n    tag_163:\n        /* \"#utility.yul\":3219:3224   */\n      dup2\n        /* \"#utility.yul\":3216:3251   */\n      eq\n        /* \"#utility.yul\":3206:3269   */\n      tag_164\n      jumpi\n        /* \"#utility.yul\":3265:3266   */\n      0x00\n        /* \"#utility.yul\":3262:3263   */\n      dup1\n        /* \"#utility.yul\":3255:3267   */\n      revert\n        /* \"#utility.yul\":3206:3269   */\n    tag_164:\n        /* \"#utility.yul\":3153:3275   */\n      pop\n      jump\t// out\n        /* \"#utility.yul\":3281:3420   */\n    tag_80:\n        /* \"#utility.yul\":3327:3332   */\n      0x00\n        /* \"#utility.yul\":3365:3371   */\n      dup2\n        /* \"#utility.yul\":3352:3372   */\n      calldataload\n        /* \"#utility.yul\":3343:3372   */\n      swap1\n      pop\n        /* \"#utility.yul\":3381:3414   */\n      tag_166\n        /* \"#utility.yul\":3408:3413   */\n      dup2\n        /* \"#utility.yul\":3381:3414   */\n      tag_79\n      jump\t// in\n    tag_166:\n        /* \"#utility.yul\":3281:3420   */\n      swap3\n      swap2\n      pop\n      pop\n      jump\t// out\n        /* \"#utility.yul\":3426:3755   */\n    tag_16:\n        /* \"#utility.yul\":3485:3491   */\n      0x00\n        /* \"#utility.yul\":3534:3536   */\n      0x20\n        /* \"#utility.yul\":3522:3531   */\n      dup3\n        /* \"#utility.yul\":3513:3520   */\n      dup5\n        /* \"#utility.yul\":3509:3532   */\n      sub\n        /* \"#utility.yul\":3505:3537   */\n      slt\n        /* \"#utility.yul\":3502:3621   */\n      iszero\n      tag_168\n      jumpi\n        /* \"#utility.yul\":3540:3619   */\n      tag_169\n      tag_66\n      jump\t// in\n    tag_169:\n        /* \"#utility.yul\":3502:3621   */\n    tag_168:\n        /* \"#utility.yul\":3660:3661   */\n      0x00\n        /* \"#utility.yul\":3685:3738   */\n      tag_170\n        /* \"#utility.yul\":3730:3737   */\n      dup5\n        /* \"#utility.yul\":3721:3727   */\n      dup3\n        /* \"#utility.yul\":3710:3719   */\n      dup6\n        /* \"#utility.yul\":3706:3728   */\n      add\n        /* \"#utility.yul\":3685:3738   */\n      tag_80\n      jump\t// in\n    tag_170:\n        /* \"#utility.yul\":3675:3738   */\n      swap2\n      pop\n        /* \"#utility.yul\":3631:3748   */\n      pop\n        /* \"#utility.yul\":3426:3755   */\n      swap3\n      swap2\n      pop\n      pop\n      jump\t// out\n        /* \"#utility.yul\":3761:3860   */\n    tag_81:\n        /* \"#utility.yul\":3813:3819   */\n      0x00\n        /* \"#utility.yul\":3847:3852   */\n      dup2\n        /* \"#utility.yul\":3841:3853   */\n      mload\n        /* \"#utility.yul\":3831:3853   */\n      swap1\n      pop\n        /* \"#utility.yul\":3761:3860   */\n      swap2\n      swap1\n      pop\n      jump\t// out\n        /* \"#utility.yul\":3866:4035   */\n    tag_82:\n        /* \"#utility.yul\":3950:3961   */\n      0x00\n        /* \"#utility.yul\":3984:3990   */\n      dup3\n        /* \"#utility.yul\":3979:3982   */\n      dup3\n        /* \"#utility.yul\":3972:3991   */\n      mstore\n        /* \"#utility.yul\":4024:4028   */\n      0x20\n        /* \"#utility.yul\":4019:4022   */\n      dup3\n        /* \"#utility.yul\":4015:4029   */\n      add\n        /* \"#utility.yul\":4000:4029   */\n      swap1\n      pop\n        /* \"#utility.yul\":3866:4035   */\n      swap3\n      swap2\n      pop\n      pop\n      jump\t// out\n        /* \"#utility.yul\":4041:4180   */\n    tag_83:\n        /* \"#utility.yul\":4130:4136   */\n      dup3\n        /* \"#utility.yul\":4125:4128   */\n      dup2\n        /* \"#utility.yul\":4120:4123   */\n      dup4\n        /* \"#utility.yul\":4114:4137   */\n      mcopy\n        /* \"#utility.yul\":4171:4172   */\n      0x00\n        /* \"#utility.yul\":4162:4168   */\n      dup4\n        /* \"#utility.yul\":4157:4160   */\n      dup4\n        /* \"#utility.yul\":4153:4169   */\n      add\n        /* \"#utility.yul\":4146:4173   */\n      mstore\n        /* \"#utility.yul\":4041:4180   */\n      pop\n      pop\n      pop\n      jump\t// out\n        /* \"#utility.yul\":4186:4563   */\n    tag_84:\n        /* \"#utility.yul\":4274:4277   */\n      0x00\n        /* \"#utility.yul\":4302:4341   */\n      tag_175\n        /* \"#utility.yul\":4335:4340   */\n      dup3\n        /* \"#utility.yul\":4302:4341   */\n      tag_81\n      jump\t// in\n    tag_175:\n        /* \"#utility.yul\":4357:4428   */\n      tag_176\n        /* \"#utility.yul\":4421:4427   */\n      dup2\n        /* \"#utility.yul\":4416:4419   */\n      dup6\n        /* \"#utility.yul\":4357:4428   */\n      tag_82\n      jump\t// in\n    tag_176:\n        /* \"#utility.yul\":4350:4428   */\n      swap4\n      pop\n        /* \"#utility.yul\":4437:4502   */\n      tag_177\n        /* \"#utility.yul\":4495:4501   */\n      dup2\n        /* \"#utility.yul\":4490:4493   */\n      dup6\n        /* \"#utility.yul\":4483:4487   */\n      0x20\n        /* \"#utility.yul\":4476:4481   */\n      dup7\n        /* \"#utility.yul\":4472:4488   */\n      add\n        /* \"#utility.yul\":4437:4502   */\n      tag_83\n      jump\t// in\n    tag_177:\n        /* \"#utility.yul\":4527:4556   */\n      tag_178\n        /* \"#utility.yul\":4549:4555   */\n      dup2\n        /* \"#utility.yul\":4527:4556   */\n      tag_70\n      jump\t// in\n    tag_178:\n        /* \"#utility.yul\":4522:4525   */\n      dup5\n        /* \"#utility.yul\":4518:4557   */\n      add\n        /* \"#utility.yul\":4511:4557   */\n      swap2\n      pop\n        /* \"#utility.yul\":4278:4563   */\n      pop\n        /* \"#utility.yul\":4186:4563   */\n      swap3\n      swap2\n      pop\n      pop\n      jump\t// out\n        /* \"#utility.yul\":4569:4687   */\n    tag_85:\n        /* \"#utility.yul\":4656:4680   */\n      tag_180\n        /* \"#utility.yul\":4674:4679   */\n      dup2\n        /* \"#utility.yul\":4656:4680   */\n      tag_78\n      jump\t// in\n    tag_180:\n        /* \"#utility.yul\":4651:4654   */\n      dup3\n        /* \"#utility.yul\":4644:4681   */\n      mstore\n        /* \"#utility.yul\":4569:4687   */\n      pop\n      pop\n      jump\t// out\n        /* \"#utility.yul\":4693:4783   */\n    tag_86:\n        /* \"#utility.yul\":4727:4734   */\n      0x00\n        /* \"#utility.yul\":4770:4775   */\n      dup2\n        /* \"#utility.yul\":4763:4776   */\n      iszero\n        /* \"#utility.yul\":4756:4777   */\n      iszero\n        /* \"#utility.yul\":4745:4777   */\n      swap1\n      pop\n        /* \"#utility.yul\":4693:4783   */\n      swap2\n      swap1\n      pop\n      jump\t// out\n        /* \"#utility.yul\":4789:4898   */\n    tag_87:\n        /* \"#utility.yul\":4870:4891   */\n      tag_183\n        /* \"#utility.yul\":4885:4890   */\n      dup2\n        /* \"#utility.yul\":4870:4891   */\n      tag_86\n      jump\t// in\n    tag_183:\n        /* \"#utility.yul\":4865:4868   */\n      dup3\n        /* \"#utility.yul\":4858:4892   */\n      mstore\n        /* \"#utility.yul\":4789:4898   */\n      pop\n      pop\n      jump\t// out\n        /* \"#utility.yul\":4904:5425   */\n    tag_19:\n        /* \"#utility.yul\":5067:5071   */\n      0x00\n        /* \"#utility.yul\":5105:5107   */\n      0x60\n        /* \"#utility.yul\":5094:5103   */\n      dup3\n        /* \"#utility.yul\":5090:5108   */\n      add\n        /* \"#utility.yul\":5082:5108   */\n      swap1\n      pop\n        /* \"#utility.yul\":5154:5163   */\n      dup2\n        /* \"#utility.yul\":5148:5152   */\n      dup2\n        /* \"#utility.yul\":5144:5164   */\n      sub\n        /* \"#utility.yul\":5140:5141   */\n      0x00\n        /* \"#utility.yul\":5129:5138   */\n      dup4\n        /* \"#utility.yul\":5125:5142   */\n      add\n        /* \"#utility.yul\":5118:5165   */\n      mstore\n        /* \"#utility.yul\":5182:5260   */\n      tag_185\n        /* \"#utility.yul\":5255:5259   */\n      dup2\n        /* \"#utility.yul\":5246:5252   */\n      dup7\n        /* \"#utility.yul\":5182:5260   */\n      tag_84\n      jump\t// in\n    tag_185:\n        /* \"#utility.yul\":5174:5260   */\n      swap1\n      pop\n        /* \"#utility.yul\":5270:5342   */\n      tag_186\n        /* \"#utility.yul\":5338:5340   */\n      0x20\n        /* \"#utility.yul\":5327:5336   */\n      dup4\n        /* \"#utility.yul\":5323:5341   */\n      add\n        /* \"#utility.yul\":5314:5320   */\n      dup6\n        /* \"#utility.yul\":5270:5342   */\n      tag_85\n      jump\t// in\n    tag_186:\n        /* \"#utility.yul\":5352:5418   */\n      tag_187\n        /* \"#utility.yul\":5414:5416   */\n      0x40\n        /* \"#utility.yul\":5403:5412   */\n      dup4\n        /* \"#utility.yul\":5399:5417   */\n      add\n        /* \"#utility.yul\":5390:5396   */\n      dup5\n        /* \"#utility.yul\":5352:5418   */\n      tag_87\n      jump\t// in\n    tag_187:\n        /* \"#utility.yul\":4904:5425   */\n      swap5\n      swap4\n      pop\n      pop\n      pop\n      pop\n      jump\t// out\n        /* \"#utility.yul\":5431:5571   */\n    tag_88:\n        /* \"#utility.yul\":5524:5530   */\n      0x00\n        /* \"#utility.yul\":5558:5563   */\n      dup2\n        /* \"#utility.yul\":5552:5564   */\n      mload\n        /* \"#utility.yul\":5542:5564   */\n      swap1\n      pop\n        /* \"#utility.yul\":5431:5571   */\n      swap2\n      swap1\n      pop\n      jump\t// out\n        /* \"#utility.yul\":5577:5787   */\n    tag_89:\n        /* \"#utility.yul\":5702:5713   */\n      0x00\n        /* \"#utility.yul\":5736:5742   */\n      dup3\n        /* \"#utility.yul\":5731:5734   */\n      dup3\n        /* \"#utility.yul\":5724:5743   */\n      mstore\n        /* \"#utility.yul\":5776:5780   */\n      0x20\n        /* \"#utility.yul\":5771:5774   */\n      dup3\n        /* \"#utility.yul\":5767:5781   */\n      add\n        /* \"#utility.yul\":5752:5781   */\n      swap1\n      pop\n        /* \"#utility.yul\":5577:5787   */\n      swap3\n      swap2\n      pop\n      pop\n      jump\t// out\n        /* \"#utility.yul\":5793:5951   */\n    tag_90:\n        /* \"#utility.yul\":5886:5890   */\n      0x00\n        /* \"#utility.yul\":5909:5912   */\n      dup2\n        /* \"#utility.yul\":5901:5912   */\n      swap1\n      pop\n        /* \"#utility.yul\":5939:5943   */\n      0x20\n        /* \"#utility.yul\":5934:5937   */\n      dup3\n        /* \"#utility.yul\":5930:5944   */\n      add\n        /* \"#utility.yul\":5922:5944   */\n      swap1\n      pop\n        /* \"#utility.yul\":5793:5951   */\n      swap2\n      swap1\n      pop\n      jump\t// out\n        /* \"#utility.yul\":5957:6116   */\n    tag_91:\n        /* \"#utility.yul\":6031:6042   */\n      0x00\n        /* \"#utility.yul\":6065:6071   */\n      dup3\n        /* \"#utility.yul\":6060:6063   */\n      dup3\n        /* \"#utility.yul\":6053:6072   */\n      mstore\n        /* \"#utility.yul\":6105:6109   */\n      0x20\n        /* \"#utility.yul\":6100:6103   */\n      dup3\n        /* \"#utility.yul\":6096:6110   */\n      add\n        /* \"#utility.yul\":6081:6110   */\n      swap1\n      pop\n        /* \"#utility.yul\":5957:6116   */\n      swap3\n      swap2\n      pop\n      pop\n      jump\t// out\n        /* \"#utility.yul\":6122:6479   */\n    tag_92:\n        /* \"#utility.yul\":6200:6203   */\n      0x00\n        /* \"#utility.yul\":6228:6267   */\n      tag_193\n        /* \"#utility.yul\":6261:6266   */\n      dup3\n        /* \"#utility.yul\":6228:6267   */\n      tag_81\n      jump\t// in\n    tag_193:\n        /* \"#utility.yul\":6283:6344   */\n      tag_194\n        /* \"#utility.yul\":6337:6343   */\n      dup2\n        /* \"#utility.yul\":6332:6335   */\n      dup6\n        /* \"#utility.yul\":6283:6344   */\n      tag_91\n      jump\t// in\n    tag_194:\n        /* \"#utility.yul\":6276:6344   */\n      swap4\n      pop\n        /* \"#utility.yul\":6353:6418   */\n      tag_195\n        /* \"#utility.yul\":6411:6417   */\n      dup2\n        /* \"#utility.yul\":6406:6409   */\n      dup6\n        /* \"#utility.yul\":6399:6403   */\n      0x20\n        /* \"#utility.yul\":6392:6397   */\n      dup7\n        /* \"#utility.yul\":6388:6404   */\n      add\n        /* \"#utility.yul\":6353:6418   */\n      tag_83\n      jump\t// in\n    tag_195:\n        /* \"#utility.yul\":6443:6472   */\n      tag_196\n        /* \"#utility.yul\":6465:6471   */\n      dup2\n        /* \"#utility.yul\":6443:6472   */\n      tag_70\n      jump\t// in\n    tag_196:\n        /* \"#utility.yul\":6438:6441   */\n      dup5\n        /* \"#utility.yul\":6434:6473   */\n      add\n        /* \"#utility.yul\":6427:6473   */\n      swap2\n      pop\n        /* \"#utility.yul\":6204:6479   */\n      pop\n        /* \"#utility.yul\":6122:6479   */\n      swap3\n      swap2\n      pop\n      pop\n      jump\t// out\n        /* \"#utility.yul\":6485:6593   */\n    tag_93:\n        /* \"#utility.yul\":6562:6586   */\n      tag_198\n        /* \"#utility.yul\":6580:6585   */\n      dup2\n        /* \"#utility.yul\":6562:6586   */\n      tag_78\n      jump\t// in\n    tag_198:\n        /* \"#utility.yul\":6557:6560   */\n      dup3\n        /* \"#utility.yul\":6550:6587   */\n      mstore\n        /* \"#utility.yul\":6485:6593   */\n      pop\n      pop\n      jump\t// out\n        /* \"#utility.yul\":6599:6698   */\n    tag_94:\n        /* \"#utility.yul\":6670:6691   */\n      tag_200\n        /* \"#utility.yul\":6685:6690   */\n      dup2\n        /* \"#utility.yul\":6670:6691   */\n      tag_86\n      jump\t// in\n    tag_200:\n        /* \"#utility.yul\":6665:6668   */\n      dup3\n        /* \"#utility.yul\":6658:6692   */\n      mstore\n        /* \"#utility.yul\":6599:6698   */\n      pop\n      pop\n      jump\t// out\n        /* \"#utility.yul\":6774:7553   */\n    tag_95:\n        /* \"#utility.yul\":6885:6888   */\n      0x00\n        /* \"#utility.yul\":6921:6925   */\n      0x60\n        /* \"#utility.yul\":6916:6919   */\n      dup4\n        /* \"#utility.yul\":6912:6926   */\n      add\n        /* \"#utility.yul\":7012:7016   */\n      0x00\n        /* \"#utility.yul\":7005:7010   */\n      dup4\n        /* \"#utility.yul\":7001:7017   */\n      add\n        /* \"#utility.yul\":6995:7018   */\n      mload\n        /* \"#utility.yul\":7065:7068   */\n      dup5\n        /* \"#utility.yul\":7059:7063   */\n      dup3\n        /* \"#utility.yul\":7055:7069   */\n      sub\n        /* \"#utility.yul\":7048:7052   */\n      0x00\n        /* \"#utility.yul\":7043:7046   */\n      dup7\n        /* \"#utility.yul\":7039:7053   */\n      add\n        /* \"#utility.yul\":7032:7070   */\n      mstore\n        /* \"#utility.yul\":7091:7164   */\n      tag_202\n        /* \"#utility.yul\":7159:7163   */\n      dup3\n        /* \"#utility.yul\":7145:7157   */\n      dup3\n        /* \"#utility.yul\":7091:7164   */\n      tag_92\n      jump\t// in\n    tag_202:\n        /* \"#utility.yul\":7083:7164   */\n      swap2\n      pop\n        /* \"#utility.yul\":6936:7175   */\n      pop\n        /* \"#utility.yul\":7262:7266   */\n      0x20\n        /* \"#utility.yul\":7255:7260   */\n      dup4\n        /* \"#utility.yul\":7251:7267   */\n      add\n        /* \"#utility.yul\":7245:7268   */\n      mload\n        /* \"#utility.yul\":7281:7344   */\n      tag_203\n        /* \"#utility.yul\":7338:7342   */\n      0x20\n        /* \"#utility.yul\":7333:7336   */\n      dup7\n        /* \"#utility.yul\":7329:7343   */\n      add\n        /* \"#utility.yul\":7315:7327   */\n      dup3\n        /* \"#utility.yul\":7281:7344   */\n      tag_93\n      jump\t// in\n    tag_203:\n        /* \"#utility.yul\":7185:7354   */\n      pop\n        /* \"#utility.yul\":7440:7444   */\n      0x40\n        /* \"#utility.yul\":7433:7438   */\n      dup4\n        /* \"#utility.yul\":7429:7445   */\n      add\n        /* \"#utility.yul\":7423:7446   */\n      mload\n        /* \"#utility.yul\":7459:7516   */\n      tag_204\n        /* \"#utility.yul\":7510:7514   */\n      0x40\n        /* \"#utility.yul\":7505:7508   */\n      dup7\n        /* \"#utility.yul\":7501:7515   */\n      add\n        /* \"#utility.yul\":7487:7499   */\n      dup3\n        /* \"#utility.yul\":7459:7516   */\n      tag_94\n      jump\t// in\n    tag_204:\n        /* \"#utility.yul\":7364:7526   */\n      pop\n        /* \"#utility.yul\":7543:7547   */\n      dup1\n        /* \"#utility.yul\":7536:7547   */\n      swap2\n      pop\n        /* \"#utility.yul\":6890:7553   */\n      pop\n        /* \"#utility.yul\":6774:7553   */\n      swap3\n      swap2\n      pop\n      pop\n      jump\t// out\n        /* \"#utility.yul\":7559:7819   */\n    tag_96:\n        /* \"#utility.yul\":7680:7690   */\n      0x00\n        /* \"#utility.yul\":7715:7813   */\n      tag_206\n        /* \"#utility.yul\":7809:7812   */\n      dup4\n        /* \"#utility.yul\":7801:7807   */\n      dup4\n        /* \"#utility.yul\":7715:7813   */\n      tag_95\n      jump\t// in\n    tag_206:\n        /* \"#utility.yul\":7701:7813   */\n      swap1\n      pop\n        /* \"#utility.yul\":7559:7819   */\n      swap3\n      swap2\n      pop\n      pop\n      jump\t// out\n        /* \"#utility.yul\":7825:7964   */\n    tag_97:\n        /* \"#utility.yul\":7921:7925   */\n      0x00\n        /* \"#utility.yul\":7953:7957   */\n      0x20\n        /* \"#utility.yul\":7948:7951   */\n      dup3\n        /* \"#utility.yul\":7944:7958   */\n      add\n        /* \"#utility.yul\":7936:7958   */\n      swap1\n      pop\n        /* \"#utility.yul\":7825:7964   */\n      swap2\n      swap1\n      pop\n      jump\t// out\n        /* \"#utility.yul\":8044:9163   */\n    tag_98:\n        /* \"#utility.yul\":8215:8218   */\n      0x00\n        /* \"#utility.yul\":8244:8324   */\n      tag_209\n        /* \"#utility.yul\":8318:8323   */\n      dup3\n        /* \"#utility.yul\":8244:8324   */\n      tag_88\n      jump\t// in\n    tag_209:\n        /* \"#utility.yul\":8340:8452   */\n      tag_210\n        /* \"#utility.yul\":8445:8451   */\n      dup2\n        /* \"#utility.yul\":8440:8443   */\n      dup6\n        /* \"#utility.yul\":8340:8452   */\n      tag_89\n      jump\t// in\n    tag_210:\n        /* \"#utility.yul\":8333:8452   */\n      swap4\n      pop\n        /* \"#utility.yul\":8478:8481   */\n      dup4\n        /* \"#utility.yul\":8523:8527   */\n      0x20\n        /* \"#utility.yul\":8515:8521   */\n      dup3\n        /* \"#utility.yul\":8511:8528   */\n      mul\n        /* \"#utility.yul\":8506:8509   */\n      dup6\n        /* \"#utility.yul\":8502:8529   */\n      add\n        /* \"#utility.yul\":8553:8635   */\n      tag_211\n        /* \"#utility.yul\":8629:8634   */\n      dup6\n        /* \"#utility.yul\":8553:8635   */\n      tag_90\n      jump\t// in\n    tag_211:\n        /* \"#utility.yul\":8658:8665   */\n      dup1\n        /* \"#utility.yul\":8689:8690   */\n      0x00\n        /* \"#utility.yul\":8674:9118   */\n    tag_212:\n        /* \"#utility.yul\":8699:8705   */\n      dup6\n        /* \"#utility.yul\":8696:8697   */\n      dup2\n        /* \"#utility.yul\":8693:8706   */\n      lt\n        /* \"#utility.yul\":8674:9118   */\n      iszero\n      tag_214\n      jumpi\n        /* \"#utility.yul\":8770:8779   */\n      dup5\n        /* \"#utility.yul\":8764:8768   */\n      dup5\n        /* \"#utility.yul\":8760:8780   */\n      sub\n        /* \"#utility.yul\":8755:8758   */\n      dup10\n        /* \"#utility.yul\":8748:8781   */\n      mstore\n        /* \"#utility.yul\":8821:8827   */\n      dup2\n        /* \"#utility.yul\":8815:8828   */\n      mload\n        /* \"#utility.yul\":8849:8965   */\n      tag_215\n        /* \"#utility.yul\":8960:8964   */\n      dup6\n        /* \"#utility.yul\":8945:8958   */\n      dup3\n        /* \"#utility.yul\":8849:8965   */\n      tag_96\n      jump\t// in\n    tag_215:\n        /* \"#utility.yul\":8841:8965   */\n      swap5\n      pop\n        /* \"#utility.yul\":8988:9074   */\n      tag_216\n        /* \"#utility.yul\":9067:9073   */\n      dup4\n        /* \"#utility.yul\":8988:9074   */\n      tag_97\n      jump\t// in\n    tag_216:\n        /* \"#utility.yul\":8978:9074   */\n      swap3\n      pop\n        /* \"#utility.yul\":9103:9107   */\n      0x20\n        /* \"#utility.yul\":9098:9101   */\n      dup11\n        /* \"#utility.yul\":9094:9108   */\n      add\n        /* \"#utility.yul\":9087:9108   */\n      swap10\n      pop\n        /* \"#utility.yul\":8734:9118   */\n      pop\n        /* \"#utility.yul\":8721:8722   */\n      0x01\n        /* \"#utility.yul\":8718:8719   */\n      dup2\n        /* \"#utility.yul\":8714:8723   */\n      add\n        /* \"#utility.yul\":8709:8723   */\n      swap1\n      pop\n        /* \"#utility.yul\":8674:9118   */\n      jump(tag_212)\n    tag_214:\n        /* \"#utility.yul\":8678:8692   */\n      pop\n        /* \"#utility.yul\":9134:9138   */\n      dup3\n        /* \"#utility.yul\":9127:9138   */\n      swap8\n      pop\n        /* \"#utility.yul\":9154:9157   */\n      dup8\n        /* \"#utility.yul\":9147:9157   */\n      swap6\n      pop\n        /* \"#utility.yul\":8220:9163   */\n      pop\n      pop\n      pop\n      pop\n      pop\n        /* \"#utility.yul\":8044:9163   */\n      swap3\n      swap2\n      pop\n      pop\n      jump\t// out\n        /* \"#utility.yul\":9169:9646   */\n    tag_23:\n        /* \"#utility.yul\":9364:9368   */\n      0x00\n        /* \"#utility.yul\":9402:9404   */\n      0x20\n        /* \"#utility.yul\":9391:9400   */\n      dup3\n        /* \"#utility.yul\":9387:9405   */\n      add\n        /* \"#utility.yul\":9379:9405   */\n      swap1\n      pop\n        /* \"#utility.yul\":9451:9460   */\n      dup2\n        /* \"#utility.yul\":9445:9449   */\n      dup2\n        /* \"#utility.yul\":9441:9461   */\n      sub\n        /* \"#utility.yul\":9437:9438   */\n      0x00\n        /* \"#utility.yul\":9426:9435   */\n      dup4\n        /* \"#utility.yul\":9422:9439   */\n      add\n        /* \"#utility.yul\":9415:9462   */\n      mstore\n        /* \"#utility.yul\":9479:9639   */\n      tag_218\n        /* \"#utility.yul\":9634:9638   */\n      dup2\n        /* \"#utility.yul\":9625:9631   */\n      dup5\n        /* \"#utility.yul\":9479:9639   */\n      tag_98\n      jump\t// in\n    tag_218:\n        /* \"#utility.yul\":9471:9639   */\n      swap1\n      pop\n        /* \"#utility.yul\":9169:9646   */\n      swap3\n      swap2\n      pop\n      pop\n      jump\t// out\n        /* \"#utility.yul\":9652:9778   */\n    tag_99:\n        /* \"#utility.yul\":9689:9696   */\n      0x00\n        /* \"#utility.yul\":9729:9771   */\n      0xffffffffffffffffffffffffffffffffffffffff\n        /* \"#utility.yul\":9722:9727   */\n      dup3\n        /* \"#utility.yul\":9718:9772   */\n      and\n        /* \"#utility.yul\":9707:9772   */\n      swap1\n      pop\n        /* \"#utility.yul\":9652:9778   */\n      swap2\n      swap1\n      pop\n      jump\t// out\n        /* \"#utility.yul\":9784:9880   */\n    tag_100:\n        /* \"#utility.yul\":9821:9828   */\n      0x00\n        /* \"#utility.yul\":9850:9874   */\n      tag_221\n        /* \"#utility.yul\":9868:9873   */\n      dup3\n        /* \"#utility.yul\":9850:9874   */\n      tag_99\n      jump\t// in\n    tag_221:\n        /* \"#utility.yul\":9839:9874   */\n      swap1\n      pop\n        /* \"#utility.yul\":9784:9880   */\n      swap2\n      swap1\n      pop\n      jump\t// out\n        /* \"#utility.yul\":9886:10008   */\n    tag_101:\n        /* \"#utility.yul\":9959:9983   */\n      tag_223\n        /* \"#utility.yul\":9977:9982   */\n      dup2\n        /* \"#utility.yul\":9959:9983   */\n      tag_100\n      jump\t// in\n    tag_223:\n        /* \"#utility.yul\":9952:9957   */\n      dup2\n        /* \"#utility.yul\":9949:9984   */\n      eq\n        /* \"#utility.yul\":9939:10002   */\n      tag_224\n      jumpi\n        /* \"#utility.yul\":9998:9999   */\n      0x00\n        /* \"#utility.yul\":9995:9996   */\n      dup1\n        /* \"#utility.yul\":9988:10000   */\n      revert\n        /* \"#utility.yul\":9939:10002   */\n    tag_224:\n        /* \"#utility.yul\":9886:10008   */\n      pop\n      jump\t// out\n        /* \"#utility.yul\":10014:10153   */\n    tag_102:\n        /* \"#utility.yul\":10060:10065   */\n      0x00\n        /* \"#utility.yul\":10098:10104   */\n      dup2\n        /* \"#utility.yul\":10085:10105   */\n      calldataload\n        /* \"#utility.yul\":10076:10105   */\n      swap1\n      pop\n        /* \"#utility.yul\":10114:10147   */\n      tag_226\n        /* \"#utility.yul\":10141:10146   */\n      dup2\n        /* \"#utility.yul\":10114:10147   */\n      tag_101\n      jump\t// in\n    tag_226:\n        /* \"#utility.yul\":10014:10153   */\n      swap3\n      swap2\n      pop\n      pop\n      jump\t// out\n        /* \"#utility.yul\":10159:10488   */\n    tag_26:\n        /* \"#utility.yul\":10218:10224   */\n      0x00\n        /* \"#utility.yul\":10267:10269   */\n      0x20\n        /* \"#utility.yul\":10255:10264   */\n      dup3\n        /* \"#utility.yul\":10246:10253   */\n      dup5\n        /* \"#utility.yul\":10242:10265   */\n      sub\n        /* \"#utility.yul\":10238:10270   */\n      slt\n        /* \"#utility.yul\":10235:10354   */\n      iszero\n      tag_228\n      jumpi\n        /* \"#utility.yul\":10273:10352   */\n      tag_229\n      tag_66\n      jump\t// in\n    tag_229:\n        /* \"#utility.yul\":10235:10354   */\n    tag_228:\n        /* \"#utility.yul\":10393:10394   */\n      0x00\n        /* \"#utility.yul\":10418:10471   */\n      tag_230\n        /* \"#utility.yul\":10463:10470   */\n      dup5\n        /* \"#utility.yul\":10454:10460   */\n      dup3\n        /* \"#utility.yul\":10443:10452   */\n      dup6\n        /* \"#utility.yul\":10439:10461   */\n      add\n        /* \"#utility.yul\":10418:10471   */\n      tag_102\n      jump\t// in\n    tag_230:\n        /* \"#utility.yul\":10408:10471   */\n      swap2\n      pop\n        /* \"#utility.yul\":10364:10481   */\n      pop\n        /* \"#utility.yul\":10159:10488   */\n      swap3\n      swap2\n      pop\n      pop\n      jump\t// out\n        /* \"#utility.yul\":10494:10554   */\n    tag_103:\n        /* \"#utility.yul\":10522:10525   */\n      0x00\n        /* \"#utility.yul\":10543:10548   */\n      dup2\n        /* \"#utility.yul\":10536:10548   */\n      swap1\n      pop\n        /* \"#utility.yul\":10494:10554   */\n      swap2\n      swap1\n      pop\n      jump\t// out\n        /* \"#utility.yul\":10560:10702   */\n    tag_104:\n        /* \"#utility.yul\":10610:10619   */\n      0x00\n        /* \"#utility.yul\":10643:10696   */\n      tag_233\n        /* \"#utility.yul\":10661:10695   */\n      tag_234\n        /* \"#utility.yul\":10670:10694   */\n      tag_235\n        /* \"#utility.yul\":10688:10693   */\n      dup5\n        /* \"#utility.yul\":10670:10694   */\n      tag_99\n      jump\t// in\n    tag_235:\n        /* \"#utility.yul\":10661:10695   */\n      tag_103\n      jump\t// in\n    tag_234:\n        /* \"#utility.yul\":10643:10696   */\n      tag_99\n      jump\t// in\n    tag_233:\n        /* \"#utility.yul\":10630:10696   */\n      swap1\n      pop\n        /* \"#utility.yul\":10560:10702   */\n      swap2\n      swap1\n      pop\n      jump\t// out\n        /* \"#utility.yul\":10708:10834   */\n    tag_105:\n        /* \"#utility.yul\":10758:10767   */\n      0x00\n        /* \"#utility.yul\":10791:10828   */\n      tag_237\n        /* \"#utility.yul\":10822:10827   */\n      dup3\n        /* \"#utility.yul\":10791:10828   */\n      tag_104\n      jump\t// in\n    tag_237:\n        /* \"#utility.yul\":10778:10828   */\n      swap1\n      pop\n        /* \"#utility.yul\":10708:10834   */\n      swap2\n      swap1\n      pop\n      jump\t// out\n        /* \"#utility.yul\":10840:10984   */\n    tag_106:\n        /* \"#utility.yul\":10908:10917   */\n      0x00\n        /* \"#utility.yul\":10941:10978   */\n      tag_239\n        /* \"#utility.yul\":10972:10977   */\n      dup3\n        /* \"#utility.yul\":10941:10978   */\n      tag_105\n      jump\t// in\n    tag_239:\n        /* \"#utility.yul\":10928:10978   */\n      swap1\n      pop\n        /* \"#utility.yul\":10840:10984   */\n      swap2\n      swap1\n      pop\n      jump\t// out\n        /* \"#utility.yul\":10990:11157   */\n    tag_107:\n        /* \"#utility.yul\":11095:11150   */\n      tag_241\n        /* \"#utility.yul\":11144:11149   */\n      dup2\n        /* \"#utility.yul\":11095:11150   */\n      tag_106\n      jump\t// in\n    tag_241:\n        /* \"#utility.yul\":11090:11093   */\n      dup3\n        /* \"#utility.yul\":11083:11151   */\n      mstore\n        /* \"#utility.yul\":10990:11157   */\n      pop\n      pop\n      jump\t// out\n        /* \"#utility.yul\":11163:11421   */\n    tag_29:\n        /* \"#utility.yul\":11274:11278   */\n      0x00\n        /* \"#utility.yul\":11312:11314   */\n      0x20\n        /* \"#utility.yul\":11301:11310   */\n      dup3\n        /* \"#utility.yul\":11297:11315   */\n      add\n        /* \"#utility.yul\":11289:11315   */\n      swap1\n      pop\n        /* \"#utility.yul\":11325:11414   */\n      tag_243\n        /* \"#utility.yul\":11411:11412   */\n      0x00\n        /* \"#utility.yul\":11400:11409   */\n      dup4\n        /* \"#utility.yul\":11396:11413   */\n      add\n        /* \"#utility.yul\":11387:11393   */\n      dup5\n        /* \"#utility.yul\":11325:11414   */\n      tag_107\n      jump\t// in\n    tag_243:\n        /* \"#utility.yul\":11163:11421   */\n      swap3\n      swap2\n      pop\n      pop\n      jump\t// out\n        /* \"#utility.yul\":11427:11602   */\n    tag_108:\n        /* \"#utility.yul\":11567:11594   */\n      0x4e6f2073746f7261676520636f6e747261637420666f756e6400000000000000\n        /* \"#utility.yul\":11563:11564   */\n      0x00\n        /* \"#utility.yul\":11555:11561   */\n      dup3\n        /* \"#utility.yul\":11551:11565   */\n      add\n        /* \"#utility.yul\":11544:11595   */\n      mstore\n        /* \"#utility.yul\":11427:11602   */\n      pop\n      jump\t// out\n        /* \"#utility.yul\":11608:11974   */\n    tag_109:\n        /* \"#utility.yul\":11750:11753   */\n      0x00\n        /* \"#utility.yul\":11771:11838   */\n      tag_246\n        /* \"#utility.yul\":11835:11837   */\n      0x19\n        /* \"#utility.yul\":11830:11833   */\n      dup4\n        /* \"#utility.yul\":11771:11838   */\n      tag_82\n      jump\t// in\n    tag_246:\n        /* \"#utility.yul\":11764:11838   */\n      swap2\n      pop\n        /* \"#utility.yul\":11847:11940   */\n      tag_247\n        /* \"#utility.yul\":11936:11939   */\n      dup3\n        /* \"#utility.yul\":11847:11940   */\n      tag_108\n      jump\t// in\n    tag_247:\n        /* \"#utility.yul\":11965:11967   */\n      0x20\n        /* \"#utility.yul\":11960:11963   */\n      dup3\n        /* \"#utility.yul\":11956:11968   */\n      add\n        /* \"#utility.yul\":11949:11968   */\n      swap1\n      pop\n        /* \"#utility.yul\":11608:11974   */\n      swap2\n      swap1\n      pop\n      jump\t// out\n        /* \"#utility.yul\":11980:12399   */\n    tag_33:\n        /* \"#utility.yul\":12146:12150   */\n      0x00\n        /* \"#utility.yul\":12184:12186   */\n      0x20\n        /* \"#utility.yul\":12173:12182   */\n      dup3\n        /* \"#utility.yul\":12169:12187   */\n      add\n        /* \"#utility.yul\":12161:12187   */\n      swap1\n      pop\n        /* \"#utility.yul\":12233:12242   */\n      dup2\n        /* \"#utility.yul\":12227:12231   */\n      dup2\n        /* \"#utility.yul\":12223:12243   */\n      sub\n        /* \"#utility.yul\":12219:12220   */\n      0x00\n        /* \"#utility.yul\":12208:12217   */\n      dup4\n        /* \"#utility.yul\":12204:12221   */\n      add\n        /* \"#utility.yul\":12197:12244   */\n      mstore\n        /* \"#utility.yul\":12261:12392   */\n      tag_249\n        /* \"#utility.yul\":12387:12391   */\n      dup2\n        /* \"#utility.yul\":12261:12392   */\n      tag_109\n      jump\t// in\n    tag_249:\n        /* \"#utility.yul\":12253:12392   */\n      swap1\n      pop\n        /* \"#utility.yul\":11980:12399   */\n      swap2\n      swap1\n      pop\n      jump\t// out\n        /* \"#utility.yul\":12405:12718   */\n    tag_35:\n        /* \"#utility.yul\":12518:12522   */\n      0x00\n        /* \"#utility.yul\":12556:12558   */\n      0x20\n        /* \"#utility.yul\":12545:12554   */\n      dup3\n        /* \"#utility.yul\":12541:12559   */\n      add\n        /* \"#utility.yul\":12533:12559   */\n      swap1\n      pop\n        /* \"#utility.yul\":12605:12614   */\n      dup2\n        /* \"#utility.yul\":12599:12603   */\n      dup2\n        /* \"#utility.yul\":12595:12615   */\n      sub\n        /* \"#utility.yul\":12591:12592   */\n      0x00\n        /* \"#utility.yul\":12580:12589   */\n      dup4\n        /* \"#utility.yul\":12576:12593   */\n      add\n        /* \"#utility.yul\":12569:12616   */\n      mstore\n        /* \"#utility.yul\":12633:12711   */\n      tag_251\n        /* \"#utility.yul\":12706:12710   */\n      dup2\n        /* \"#utility.yul\":12697:12703   */\n      dup5\n        /* \"#utility.yul\":12633:12711   */\n      tag_84\n      jump\t// in\n    tag_251:\n        /* \"#utility.yul\":12625:12711   */\n      swap1\n      pop\n        /* \"#utility.yul\":12405:12718   */\n      swap3\n      swap2\n      pop\n      pop\n      jump\t// out\n        /* \"#utility.yul\":12724:12905   */\n    tag_110:\n        /* \"#utility.yul\":12864:12897   */\n      0x53746f7261676520636f6e747261637420616c72656164792065786973747300\n        /* \"#utility.yul\":12860:12861   */\n      0x00\n        /* \"#utility.yul\":12852:12858   */\n      dup3\n        /* \"#utility.yul\":12848:12862   */\n      add\n        /* \"#utility.yul\":12841:12898   */\n      mstore\n        /* \"#utility.yul\":12724:12905   */\n      pop\n      jump\t// out\n        /* \"#utility.yul\":12911:13277   */\n    tag_111:\n        /* \"#utility.yul\":13053:13056   */\n      0x00\n        /* \"#utility.yul\":13074:13141   */\n      tag_254\n        /* \"#utility.yul\":13138:13140   */\n      0x1f\n        /* \"#utility.yul\":13133:13136   */\n      dup4\n        /* \"#utility.yul\":13074:13141   */\n      tag_82\n      jump\t// in\n    tag_254:\n        /* \"#utility.yul\":13067:13141   */\n      swap2\n      pop\n        /* \"#utility.yul\":13150:13243   */\n      tag_255\n        /* \"#utility.yul\":13239:13242   */\n      dup3\n        /* \"#utility.yul\":13150:13243   */\n      tag_110\n      jump\t// in\n    tag_255:\n        /* \"#utility.yul\":13268:13270   */\n      0x20\n        /* \"#utility.yul\":13263:13266   */\n      dup3\n        /* \"#utility.yul\":13259:13271   */\n      add\n        /* \"#utility.yul\":13252:13271   */\n      swap1\n      pop\n        /* \"#utility.yul\":12911:13277   */\n      swap2\n      swap1\n      pop\n      jump\t// out\n        /* \"#utility.yul\":13283:13702   */\n    tag_42:\n        /* \"#utility.yul\":13449:13453   */\n      0x00\n        /* \"#utility.yul\":13487:13489   */\n      0x20\n        /* \"#utility.yul\":13476:13485   */\n      dup3\n        /* \"#utility.yul\":13472:13490   */\n      add\n        /* \"#utility.yul\":13464:13490   */\n      swap1\n      pop\n        /* \"#utility.yul\":13536:13545   */\n      dup2\n        /* \"#utility.yul\":13530:13534   */\n      dup2\n        /* \"#utility.yul\":13526:13546   */\n      sub\n        /* \"#utility.yul\":13522:13523   */\n      0x00\n        /* \"#utility.yul\":13511:13520   */\n      dup4\n        /* \"#utility.yul\":13507:13524   */\n      add\n        /* \"#utility.yul\":13500:13547   */\n      mstore\n        /* \"#utility.yul\":13564:13695   */\n      tag_257\n        /* \"#utility.yul\":13690:13694   */\n      dup2\n        /* \"#utility.yul\":13564:13695   */\n      tag_111\n      jump\t// in\n    tag_257:\n        /* \"#utility.yul\":13556:13695   */\n      swap1\n      pop\n        /* \"#utility.yul\":13283:13702   */\n      swap2\n      swap1\n      pop\n      jump\t// out\n        /* \"#utility.yul\":13708:13826   */\n    tag_112:\n        /* \"#utility.yul\":13795:13819   */\n      tag_259\n        /* \"#utility.yul\":13813:13818   */\n      dup2\n        /* \"#utility.yul\":13795:13819   */\n      tag_100\n      jump\t// in\n    tag_259:\n        /* \"#utility.yul\":13790:13793   */\n      dup3\n        /* \"#utility.yul\":13783:13820   */\n      mstore\n        /* \"#utility.yul\":13708:13826   */\n      pop\n      pop\n      jump\t// out\n        /* \"#utility.yul\":13832:14054   */\n    tag_47:\n        /* \"#utility.yul\":13925:13929   */\n      0x00\n        /* \"#utility.yul\":13963:13965   */\n      0x20\n        /* \"#utility.yul\":13952:13961   */\n      dup3\n        /* \"#utility.yul\":13948:13966   */\n      add\n        /* \"#utility.yul\":13940:13966   */\n      swap1\n      pop\n        /* \"#utility.yul\":13976:14047   */\n      tag_261\n        /* \"#utility.yul\":14044:14045   */\n      0x00\n        /* \"#utility.yul\":14033:14042   */\n      dup4\n        /* \"#utility.yul\":14029:14046   */\n      add\n        /* \"#utility.yul\":14020:14026   */\n      dup5\n        /* \"#utility.yul\":13976:14047   */\n      tag_112\n      jump\t// in\n    tag_261:\n        /* \"#utility.yul\":13832:14054   */\n      swap3\n      swap2\n      pop\n      pop\n      jump\t// out\n        /* \"#utility.yul\":14060:14282   */\n    tag_52:\n        /* \"#utility.yul\":14153:14157   */\n      0x00\n        /* \"#utility.yul\":14191:14193   */\n      0x20\n        /* \"#utility.yul\":14180:14189   */\n      dup3\n        /* \"#utility.yul\":14176:14194   */\n      add\n        /* \"#utility.yul\":14168:14194   */\n      swap1\n      pop\n        /* \"#utility.yul\":14204:14275   */\n      tag_263\n        /* \"#utility.yul\":14272:14273   */\n      0x00\n        /* \"#utility.yul\":14261:14270   */\n      dup4\n        /* \"#utility.yul\":14257:14274   */\n      add\n        /* \"#utility.yul\":14248:14254   */\n      dup5\n        /* \"#utility.yul\":14204:14275   */\n      tag_85\n      jump\t// in\n    tag_263:\n        /* \"#utility.yul\":14060:14282   */\n      swap3\n      swap2\n      pop\n      pop\n      jump\t// out\n        /* \"#utility.yul\":14288:14722   */\n    tag_113:\n        /* \"#utility.yul\":14377:14382   */\n      0x00\n        /* \"#utility.yul\":14402:14468   */\n      tag_265\n        /* \"#utility.yul\":14418:14467   */\n      tag_266\n        /* \"#utility.yul\":14460:14466   */\n      dup5\n        /* \"#utility.yul\":14418:14467   */\n      tag_74\n      jump\t// in\n    tag_266:\n        /* \"#utility.yul\":14402:14468   */\n      tag_73\n      jump\t// in\n    tag_265:\n        /* \"#utility.yul\":14393:14468   */\n      swap1\n      pop\n        /* \"#utility.yul\":14491:14497   */\n      dup3\n        /* \"#utility.yul\":14484:14489   */\n      dup2\n        /* \"#utility.yul\":14477:14498   */\n      mstore\n        /* \"#utility.yul\":14529:14533   */\n      0x20\n        /* \"#utility.yul\":14522:14527   */\n      dup2\n        /* \"#utility.yul\":14518:14534   */\n      add\n        /* \"#utility.yul\":14567:14570   */\n      dup5\n        /* \"#utility.yul\":14558:14564   */\n      dup5\n        /* \"#utility.yul\":14553:14556   */\n      dup5\n        /* \"#utility.yul\":14549:14565   */\n      add\n        /* \"#utility.yul\":14546:14571   */\n      gt\n        /* \"#utility.yul\":14543:14655   */\n      iszero\n      tag_267\n      jumpi\n        /* \"#utility.yul\":14574:14653   */\n      tag_268\n      tag_69\n      jump\t// in\n    tag_268:\n        /* \"#utility.yul\":14543:14655   */\n    tag_267:\n        /* \"#utility.yul\":14664:14716   */\n      tag_269\n        /* \"#utility.yul\":14709:14715   */\n      dup5\n        /* \"#utility.yul\":14704:14707   */\n      dup3\n        /* \"#utility.yul\":14699:14702   */\n      dup6\n        /* \"#utility.yul\":14664:14716   */\n      tag_83\n      jump\t// in\n    tag_269:\n        /* \"#utility.yul\":14383:14722   */\n      pop\n        /* \"#utility.yul\":14288:14722   */\n      swap4\n      swap3\n      pop\n      pop\n      pop\n      jump\t// out\n        /* \"#utility.yul\":14742:15097   */\n    tag_114:\n        /* \"#utility.yul\":14809:14814   */\n      0x00\n        /* \"#utility.yul\":14858:14861   */\n      dup3\n        /* \"#utility.yul\":14851:14855   */\n      0x1f\n        /* \"#utility.yul\":14843:14849   */\n      dup4\n        /* \"#utility.yul\":14839:14856   */\n      add\n        /* \"#utility.yul\":14835:14862   */\n      slt\n        /* \"#utility.yul\":14825:14947   */\n      tag_271\n      jumpi\n        /* \"#utility.yul\":14866:14945   */\n      tag_272\n      tag_68\n      jump\t// in\n    tag_272:\n        /* \"#utility.yul\":14825:14947   */\n    tag_271:\n        /* \"#utility.yul\":14976:14982   */\n      dup2\n        /* \"#utility.yul\":14970:14983   */\n      mload\n        /* \"#utility.yul\":15001:15091   */\n      tag_273\n        /* \"#utility.yul\":15087:15090   */\n      dup5\n        /* \"#utility.yul\":15079:15085   */\n      dup3\n        /* \"#utility.yul\":15072:15076   */\n      0x20\n        /* \"#utility.yul\":15064:15070   */\n      dup7\n        /* \"#utility.yul\":15060:15077   */\n      add\n        /* \"#utility.yul\":15001:15091   */\n      tag_113\n      jump\t// in\n    tag_273:\n        /* \"#utility.yul\":14992:15091   */\n      swap2\n      pop\n        /* \"#utility.yul\":14815:15097   */\n      pop\n        /* \"#utility.yul\":14742:15097   */\n      swap3\n      swap2\n      pop\n      pop\n      jump\t// out\n        /* \"#utility.yul\":15103:15246   */\n    tag_115:\n        /* \"#utility.yul\":15160:15165   */\n      0x00\n        /* \"#utility.yul\":15191:15197   */\n      dup2\n        /* \"#utility.yul\":15185:15198   */\n      mload\n        /* \"#utility.yul\":15176:15198   */\n      swap1\n      pop\n        /* \"#utility.yul\":15207:15240   */\n      tag_275\n        /* \"#utility.yul\":15234:15239   */\n      dup2\n        /* \"#utility.yul\":15207:15240   */\n      tag_79\n      jump\t// in\n    tag_275:\n        /* \"#utility.yul\":15103:15246   */\n      swap3\n      swap2\n      pop\n      pop\n      jump\t// out\n        /* \"#utility.yul\":15252:15368   */\n    tag_116:\n        /* \"#utility.yul\":15322:15343   */\n      tag_277\n        /* \"#utility.yul\":15337:15342   */\n      dup2\n        /* \"#utility.yul\":15322:15343   */\n      tag_86\n      jump\t// in\n    tag_277:\n        /* \"#utility.yul\":15315:15320   */\n      dup2\n        /* \"#utility.yul\":15312:15344   */\n      eq\n        /* \"#utility.yul\":15302:15362   */\n      tag_278\n      jumpi\n        /* \"#utility.yul\":15358:15359   */\n      0x00\n        /* \"#utility.yul\":15355:15356   */\n      dup1\n        /* \"#utility.yul\":15348:15360   */\n      revert\n        /* \"#utility.yul\":15302:15362   */\n    tag_278:\n        /* \"#utility.yul\":15252:15368   */\n      pop\n      jump\t// out\n        /* \"#utility.yul\":15374:15511   */\n    tag_117:\n        /* \"#utility.yul\":15428:15433   */\n      0x00\n        /* \"#utility.yul\":15459:15465   */\n      dup2\n        /* \"#utility.yul\":15453:15466   */\n      mload\n        /* \"#utility.yul\":15444:15466   */\n      swap1\n      pop\n        /* \"#utility.yul\":15475:15505   */\n      tag_280\n        /* \"#utility.yul\":15499:15504   */\n      dup2\n        /* \"#utility.yul\":15475:15505   */\n      tag_116\n      jump\t// in\n    tag_280:\n        /* \"#utility.yul\":15374:15511   */\n      swap3\n      swap2\n      pop\n      pop\n      jump\t// out\n        /* \"#utility.yul\":15517:16347   */\n    tag_56:\n        /* \"#utility.yul\":15612:15618   */\n      0x00\n        /* \"#utility.yul\":15620:15626   */\n      dup1\n        /* \"#utility.yul\":15628:15634   */\n      0x00\n        /* \"#utility.yul\":15677:15679   */\n      0x60\n        /* \"#utility.yul\":15665:15674   */\n      dup5\n        /* \"#utility.yul\":15656:15663   */\n      dup7\n        /* \"#utility.yul\":15652:15675   */\n      sub\n        /* \"#utility.yul\":15648:15680   */\n      slt\n        /* \"#utility.yul\":15645:15764   */\n      iszero\n      tag_282\n      jumpi\n        /* \"#utility.yul\":15683:15762   */\n      tag_283\n      tag_66\n      jump\t// in\n    tag_283:\n        /* \"#utility.yul\":15645:15764   */\n    tag_282:\n        /* \"#utility.yul\":15824:15825   */\n      0x00\n        /* \"#utility.yul\":15813:15822   */\n      dup5\n        /* \"#utility.yul\":15809:15826   */\n      add\n        /* \"#utility.yul\":15803:15827   */\n      mload\n        /* \"#utility.yul\":15854:15872   */\n      0xffffffffffffffff\n        /* \"#utility.yul\":15846:15852   */\n      dup2\n        /* \"#utility.yul\":15843:15873   */\n      gt\n        /* \"#utility.yul\":15840:15957   */\n      iszero\n      tag_284\n      jumpi\n        /* \"#utility.yul\":15876:15955   */\n      tag_285\n      tag_67\n      jump\t// in\n    tag_285:\n        /* \"#utility.yul\":15840:15957   */\n    tag_284:\n        /* \"#utility.yul\":15981:16055   */\n      tag_286\n        /* \"#utility.yul\":16047:16054   */\n      dup7\n        /* \"#utility.yul\":16038:16044   */\n      dup3\n        /* \"#utility.yul\":16027:16036   */\n      dup8\n        /* \"#utility.yul\":16023:16045   */\n      add\n        /* \"#utility.yul\":15981:16055   */\n      tag_114\n      jump\t// in\n    tag_286:\n        /* \"#utility.yul\":15971:16055   */\n      swap4\n      pop\n        /* \"#utility.yul\":15774:16065   */\n      pop\n        /* \"#utility.yul\":16104:16106   */\n      0x20\n        /* \"#utility.yul\":16130:16194   */\n      tag_287\n        /* \"#utility.yul\":16186:16193   */\n      dup7\n        /* \"#utility.yul\":16177:16183   */\n      dup3\n        /* \"#utility.yul\":16166:16175   */\n      dup8\n        /* \"#utility.yul\":16162:16184   */\n      add\n        /* \"#utility.yul\":16130:16194   */\n      tag_115\n      jump\t// in\n    tag_287:\n        /* \"#utility.yul\":16120:16194   */\n      swap3\n      pop\n        /* \"#utility.yul\":16075:16204   */\n      pop\n        /* \"#utility.yul\":16243:16245   */\n      0x40\n        /* \"#utility.yul\":16269:16330   */\n      tag_288\n        /* \"#utility.yul\":16322:16329   */\n      dup7\n        /* \"#utility.yul\":16313:16319   */\n      dup3\n        /* \"#utility.yul\":16302:16311   */\n      dup8\n        /* \"#utility.yul\":16298:16320   */\n      add\n        /* \"#utility.yul\":16269:16330   */\n      tag_117\n      jump\t// in\n    tag_288:\n        /* \"#utility.yul\":16259:16330   */\n      swap2\n      pop\n        /* \"#utility.yul\":16214:16340   */\n      pop\n        /* \"#utility.yul\":15517:16347   */\n      swap3\n      pop\n      swap3\n      pop\n      swap3\n      jump\t// out\n        /* \"#utility.yul\":16353:16690   */\n    tag_118:\n        /* \"#utility.yul\":16456:16460   */\n      0x00\n        /* \"#utility.yul\":16546:16564   */\n      0xffffffffffffffff\n        /* \"#utility.yul\":16538:16544   */\n      dup3\n        /* \"#utility.yul\":16535:16565   */\n      gt\n        /* \"#utility.yul\":16532:16588   */\n      iszero\n      tag_290\n      jumpi\n        /* \"#utility.yul\":16568:16586   */\n      tag_291\n      tag_71\n      jump\t// in\n    tag_291:\n        /* \"#utility.yul\":16532:16588   */\n    tag_290:\n        /* \"#utility.yul\":16618:16622   */\n      0x20\n        /* \"#utility.yul\":16610:16616   */\n      dup3\n        /* \"#utility.yul\":16606:16623   */\n      mul\n        /* \"#utility.yul\":16598:16623   */\n      swap1\n      pop\n        /* \"#utility.yul\":16678:16682   */\n      0x20\n        /* \"#utility.yul\":16672:16676   */\n      dup2\n        /* \"#utility.yul\":16668:16683   */\n      add\n        /* \"#utility.yul\":16660:16683   */\n      swap1\n      pop\n        /* \"#utility.yul\":16353:16690   */\n      swap2\n      swap1\n      pop\n      jump\t// out\n        /* \"#utility.yul\":16696:16813   */\n    tag_119:\n        /* \"#utility.yul\":16805:16806   */\n      0x00\n        /* \"#utility.yul\":16802:16803   */\n      dup1\n        /* \"#utility.yul\":16795:16807   */\n      revert\n        /* \"#utility.yul\":16819:16936   */\n    tag_120:\n        /* \"#utility.yul\":16928:16929   */\n      0x00\n        /* \"#utility.yul\":16925:16926   */\n      dup1\n        /* \"#utility.yul\":16918:16930   */\n      revert\n        /* \"#utility.yul\":16942:17059   */\n    tag_121:\n        /* \"#utility.yul\":17051:17052   */\n      0x00\n        /* \"#utility.yul\":17048:17049   */\n      dup1\n        /* \"#utility.yul\":17041:17053   */\n      revert\n        /* \"#utility.yul\":17102:18055   */\n    tag_122:\n        /* \"#utility.yul\":17188:17193   */\n      0x00\n        /* \"#utility.yul\":17232:17236   */\n      0x60\n        /* \"#utility.yul\":17220:17229   */\n      dup3\n        /* \"#utility.yul\":17215:17218   */\n      dup5\n        /* \"#utility.yul\":17211:17230   */\n      sub\n        /* \"#utility.yul\":17207:17237   */\n      slt\n        /* \"#utility.yul\":17204:17321   */\n      iszero\n      tag_296\n      jumpi\n        /* \"#utility.yul\":17240:17319   */\n      tag_297\n      tag_120\n      jump\t// in\n    tag_297:\n        /* \"#utility.yul\":17204:17321   */\n    tag_296:\n        /* \"#utility.yul\":17339:17360   */\n      tag_298\n        /* \"#utility.yul\":17355:17359   */\n      0x60\n        /* \"#utility.yul\":17339:17360   */\n      tag_73\n      jump\t// in\n    tag_298:\n        /* \"#utility.yul\":17330:17360   */\n      swap1\n      pop\n        /* \"#utility.yul\":17444:17445   */\n      0x00\n        /* \"#utility.yul\":17433:17442   */\n      dup3\n        /* \"#utility.yul\":17429:17446   */\n      add\n        /* \"#utility.yul\":17423:17447   */\n      mload\n        /* \"#utility.yul\":17474:17492   */\n      0xffffffffffffffff\n        /* \"#utility.yul\":17466:17472   */\n      dup2\n        /* \"#utility.yul\":17463:17493   */\n      gt\n        /* \"#utility.yul\":17460:17577   */\n      iszero\n      tag_299\n      jumpi\n        /* \"#utility.yul\":17496:17575   */\n      tag_300\n      tag_121\n      jump\t// in\n    tag_300:\n        /* \"#utility.yul\":17460:17577   */\n    tag_299:\n        /* \"#utility.yul\":17616:17686   */\n      tag_301\n        /* \"#utility.yul\":17682:17685   */\n      dup5\n        /* \"#utility.yul\":17673:17679   */\n      dup3\n        /* \"#utility.yul\":17662:17671   */\n      dup6\n        /* \"#utility.yul\":17658:17680   */\n      add\n        /* \"#utility.yul\":17616:17686   */\n      tag_114\n      jump\t// in\n    tag_301:\n        /* \"#utility.yul\":17609:17613   */\n      0x00\n        /* \"#utility.yul\":17602:17607   */\n      dup4\n        /* \"#utility.yul\":17598:17614   */\n      add\n        /* \"#utility.yul\":17591:17687   */\n      mstore\n        /* \"#utility.yul\":17370:17698   */\n      pop\n        /* \"#utility.yul\":17762:17764   */\n      0x20\n        /* \"#utility.yul\":17803:17863   */\n      tag_302\n        /* \"#utility.yul\":17859:17862   */\n      dup5\n        /* \"#utility.yul\":17850:17856   */\n      dup3\n        /* \"#utility.yul\":17839:17848   */\n      dup6\n        /* \"#utility.yul\":17835:17857   */\n      add\n        /* \"#utility.yul\":17803:17863   */\n      tag_115\n      jump\t// in\n    tag_302:\n        /* \"#utility.yul\":17796:17800   */\n      0x20\n        /* \"#utility.yul\":17789:17794   */\n      dup4\n        /* \"#utility.yul\":17785:17801   */\n      add\n        /* \"#utility.yul\":17778:17864   */\n      mstore\n        /* \"#utility.yul\":17708:17875   */\n      pop\n        /* \"#utility.yul\":17938:17940   */\n      0x40\n        /* \"#utility.yul\":17979:18036   */\n      tag_303\n        /* \"#utility.yul\":18032:18035   */\n      dup5\n        /* \"#utility.yul\":18023:18029   */\n      dup3\n        /* \"#utility.yul\":18012:18021   */\n      dup6\n        /* \"#utility.yul\":18008:18030   */\n      add\n        /* \"#utility.yul\":17979:18036   */\n      tag_117\n      jump\t// in\n    tag_303:\n        /* \"#utility.yul\":17972:17976   */\n      0x40\n        /* \"#utility.yul\":17965:17970   */\n      dup4\n        /* \"#utility.yul\":17961:17977   */\n      add\n        /* \"#utility.yul\":17954:18037   */\n      mstore\n        /* \"#utility.yul\":17885:18048   */\n      pop\n        /* \"#utility.yul\":17102:18055   */\n      swap3\n      swap2\n      pop\n      pop\n      jump\t// out\n        /* \"#utility.yul\":18100:19108   */\n    tag_123:\n        /* \"#utility.yul\":18233:18238   */\n      0x00\n        /* \"#utility.yul\":18258:18365   */\n      tag_305\n        /* \"#utility.yul\":18274:18364   */\n      tag_306\n        /* \"#utility.yul\":18357:18363   */\n      dup5\n        /* \"#utility.yul\":18274:18364   */\n      tag_118\n      jump\t// in\n    tag_306:\n        /* \"#utility.yul\":18258:18365   */\n      tag_73\n      jump\t// in\n    tag_305:\n        /* \"#utility.yul\":18249:18365   */\n      swap1\n      pop\n        /* \"#utility.yul\":18385:18390   */\n      dup1\n        /* \"#utility.yul\":18414:18420   */\n      dup4\n        /* \"#utility.yul\":18407:18412   */\n      dup3\n        /* \"#utility.yul\":18400:18421   */\n      mstore\n        /* \"#utility.yul\":18448:18452   */\n      0x20\n        /* \"#utility.yul\":18441:18446   */\n      dup3\n        /* \"#utility.yul\":18437:18453   */\n      add\n        /* \"#utility.yul\":18430:18453   */\n      swap1\n      pop\n        /* \"#utility.yul\":18501:18505   */\n      0x20\n        /* \"#utility.yul\":18493:18499   */\n      dup5\n        /* \"#utility.yul\":18489:18506   */\n      mul\n        /* \"#utility.yul\":18481:18487   */\n      dup4\n        /* \"#utility.yul\":18477:18507   */\n      add\n        /* \"#utility.yul\":18530:18533   */\n      dup6\n        /* \"#utility.yul\":18522:18528   */\n      dup2\n        /* \"#utility.yul\":18519:18534   */\n      gt\n        /* \"#utility.yul\":18516:18638   */\n      iszero\n      tag_307\n      jumpi\n        /* \"#utility.yul\":18549:18628   */\n      tag_308\n      tag_119\n      jump\t// in\n    tag_308:\n        /* \"#utility.yul\":18516:18638   */\n    tag_307:\n        /* \"#utility.yul\":18664:18670   */\n      dup4\n        /* \"#utility.yul\":18647:19102   */\n    tag_309:\n        /* \"#utility.yul\":18681:18687   */\n      dup2\n        /* \"#utility.yul\":18676:18679   */\n      dup2\n        /* \"#utility.yul\":18673:18688   */\n      lt\n        /* \"#utility.yul\":18647:19102   */\n      iszero\n      tag_311\n      jumpi\n        /* \"#utility.yul\":18763:18766   */\n      dup1\n        /* \"#utility.yul\":18757:18767   */\n      mload\n        /* \"#utility.yul\":18799:18817   */\n      0xffffffffffffffff\n        /* \"#utility.yul\":18786:18797   */\n      dup2\n        /* \"#utility.yul\":18783:18818   */\n      gt\n        /* \"#utility.yul\":18780:18902   */\n      iszero\n      tag_312\n      jumpi\n        /* \"#utility.yul\":18821:18900   */\n      tag_313\n      tag_68\n      jump\t// in\n    tag_313:\n        /* \"#utility.yul\":18780:18902   */\n    tag_312:\n        /* \"#utility.yul\":18945:18956   */\n      dup1\n        /* \"#utility.yul\":18937:18943   */\n      dup7\n        /* \"#utility.yul\":18933:18957   */\n      add\n        /* \"#utility.yul\":18983:19057   */\n      tag_314\n        /* \"#utility.yul\":19053:19056   */\n      dup10\n        /* \"#utility.yul\":19041:19051   */\n      dup3\n        /* \"#utility.yul\":18983:19057   */\n      tag_122\n      jump\t// in\n    tag_314:\n        /* \"#utility.yul\":18978:18981   */\n      dup6\n        /* \"#utility.yul\":18971:19058   */\n      mstore\n        /* \"#utility.yul\":19087:19091   */\n      0x20\n        /* \"#utility.yul\":19082:19085   */\n      dup6\n        /* \"#utility.yul\":19078:19092   */\n      add\n        /* \"#utility.yul\":19071:19092   */\n      swap5\n      pop\n        /* \"#utility.yul\":18723:19102   */\n      pop\n      pop\n        /* \"#utility.yul\":18707:18711   */\n      0x20\n        /* \"#utility.yul\":18702:18705   */\n      dup2\n        /* \"#utility.yul\":18698:18712   */\n      add\n        /* \"#utility.yul\":18691:18712   */\n      swap1\n      pop\n        /* \"#utility.yul\":18647:19102   */\n      jump(tag_309)\n    tag_311:\n        /* \"#utility.yul\":18651:18672   */\n      pop\n        /* \"#utility.yul\":18239:19108   */\n      pop\n      pop\n        /* \"#utility.yul\":18100:19108   */\n      swap4\n      swap3\n      pop\n      pop\n      pop\n      jump\t// out\n        /* \"#utility.yul\":19153:19590   */\n    tag_124:\n        /* \"#utility.yul\":19261:19266   */\n      0x00\n        /* \"#utility.yul\":19310:19313   */\n      dup3\n        /* \"#utility.yul\":19303:19307   */\n      0x1f\n        /* \"#utility.yul\":19295:19301   */\n      dup4\n        /* \"#utility.yul\":19291:19308   */\n      add\n        /* \"#utility.yul\":19287:19314   */\n      slt\n        /* \"#utility.yul\":19277:19399   */\n      tag_316\n      jumpi\n        /* \"#utility.yul\":19318:19397   */\n      tag_317\n      tag_68\n      jump\t// in\n    tag_317:\n        /* \"#utility.yul\":19277:19399   */\n    tag_316:\n        /* \"#utility.yul\":19428:19434   */\n      dup2\n        /* \"#utility.yul\":19422:19435   */\n      mload\n        /* \"#utility.yul\":19453:19584   */\n      tag_318\n        /* \"#utility.yul\":19580:19583   */\n      dup5\n        /* \"#utility.yul\":19572:19578   */\n      dup3\n        /* \"#utility.yul\":19565:19569   */\n      0x20\n        /* \"#utility.yul\":19557:19563   */\n      dup7\n        /* \"#utility.yul\":19553:19570   */\n      add\n        /* \"#utility.yul\":19453:19584   */\n      tag_123\n      jump\t// in\n    tag_318:\n        /* \"#utility.yul\":19444:19584   */\n      swap2\n      pop\n        /* \"#utility.yul\":19267:19590   */\n      pop\n        /* \"#utility.yul\":19153:19590   */\n      swap3\n      swap2\n      pop\n      pop\n      jump\t// out\n        /* \"#utility.yul\":19596:20202   */\n    tag_64:\n        /* \"#utility.yul\":19717:19723   */\n      0x00\n        /* \"#utility.yul\":19766:19768   */\n      0x20\n        /* \"#utility.yul\":19754:19763   */\n      dup3\n        /* \"#utility.yul\":19745:19752   */\n      dup5\n        /* \"#utility.yul\":19741:19764   */\n      sub\n        /* \"#utility.yul\":19737:19769   */\n      slt\n        /* \"#utility.yul\":19734:19853   */\n      iszero\n      tag_320\n      jumpi\n        /* \"#utility.yul\":19772:19851   */\n      tag_321\n      tag_66\n      jump\t// in\n    tag_321:\n        /* \"#utility.yul\":19734:19853   */\n    tag_320:\n        /* \"#utility.yul\":19913:19914   */\n      0x00\n        /* \"#utility.yul\":19902:19911   */\n      dup3\n        /* \"#utility.yul\":19898:19915   */\n      add\n        /* \"#utility.yul\":19892:19916   */\n      mload\n        /* \"#utility.yul\":19943:19961   */\n      0xffffffffffffffff\n        /* \"#utility.yul\":19935:19941   */\n      dup2\n        /* \"#utility.yul\":19932:19962   */\n      gt\n        /* \"#utility.yul\":19929:20046   */\n      iszero\n      tag_322\n      jumpi\n        /* \"#utility.yul\":19965:20044   */\n      tag_323\n      tag_67\n      jump\t// in\n    tag_323:\n        /* \"#utility.yul\":19929:20046   */\n    tag_322:\n        /* \"#utility.yul\":20070:20185   */\n      tag_324\n        /* \"#utility.yul\":20177:20184   */\n      dup5\n        /* \"#utility.yul\":20168:20174   */\n      dup3\n        /* \"#utility.yul\":20157:20166   */\n      dup6\n        /* \"#utility.yul\":20153:20175   */\n      add\n        /* \"#utility.yul\":20070:20185   */\n      tag_124\n      jump\t// in\n    tag_324:\n        /* \"#utility.yul\":20060:20185   */\n      swap2\n      pop\n        /* \"#utility.yul\":19863:20195   */\n      pop\n        /* \"#utility.yul\":19596:20202   */\n      swap3\n      swap2\n      pop\n      pop\n      jump\t// out\n    stop\n\n    sub_0: assembly {\n            /* \"MTP/SimpleStorage.sol\":61:1731  contract EHRStorage {... */\n          mstore(0x40, 0x80)\n          callvalue\n          dup1\n          iszero\n          tag_1\n          jumpi\n          0x00\n          dup1\n          revert\n        tag_1:\n          pop\n          dataSize(sub_0)\n          dup1\n          dataOffset(sub_0)\n          0x00\n          codecopy\n          0x00\n          return\n        stop\n\n        sub_0: assembly {\n                /* \"MTP/SimpleStorage.sol\":61:1731  contract EHRStorage {... */\n              mstore(0x40, 0x80)\n              callvalue\n              dup1\n              iszero\n              tag_1\n              jumpi\n              0x00\n              dup1\n              revert\n            tag_1:\n              pop\n              jumpi(tag_2, lt(calldatasize, 0x04))\n              shr(0xe0, calldataload(0x00))\n              dup1\n              0x5d2f2171\n              eq\n              tag_3\n              jumpi\n              dup1\n              0x75db1a2d\n              eq\n              tag_4\n              jumpi\n              dup1\n              0x95d3df6e\n              eq\n              tag_5\n              jumpi\n              dup1\n              0x98089910\n              eq\n              tag_6\n              jumpi\n              dup1\n              0xa127dfbd\n              eq\n              tag_7\n              jumpi\n            tag_2:\n              0x00\n              dup1\n              revert\n                /* \"MTP/SimpleStorage.sol\":333:386  mapping(address => EHRMetadata[]) public hospitalEHRs */\n            tag_3:\n              tag_8\n              0x04\n              dup1\n              calldatasize\n              sub\n              dup2\n              add\n              swap1\n              tag_9\n              swap2\n              swap1\n              tag_10\n              jump\t// in\n            tag_9:\n              tag_11\n              jump\t// in\n            tag_8:\n              mload(0x40)\n              tag_12\n              swap4\n              swap3\n              swap2\n              swap1\n              tag_13\n              jump\t// in\n            tag_12:\n              mload(0x40)\n              dup1\n              swap2\n              sub\n              swap1\n              return\n                /* \"MTP/SimpleStorage.sol\":595:891  function storeEHR(string memory _ipfsHash) public {... */\n            tag_4:\n              tag_14\n              0x04\n              dup1\n              calldatasize\n              sub\n              dup2\n              add\n              swap1\n              tag_15\n              swap2\n              swap1\n              tag_16\n              jump\t// in\n            tag_15:\n              tag_17\n              jump\t// in\n            tag_14:\n              stop\n                /* \"MTP/SimpleStorage.sol\":1297:1546  function verifyEHR(address hospital, uint256 index) public {... */\n            tag_5:\n              tag_18\n              0x04\n              dup1\n              calldatasize\n              sub\n              dup2\n              add\n              swap1\n              tag_19\n              swap2\n              swap1\n              tag_10\n              jump\t// in\n            tag_19:\n              tag_20\n              jump\t// in\n            tag_18:\n              stop\n                /* \"MTP/SimpleStorage.sol\":1599:1728  function getAllEHRs(address hospital) public view returns (EHRMetadata[] memory) {... */\n            tag_6:\n              tag_21\n              0x04\n              dup1\n              calldatasize\n              sub\n              dup2\n              add\n              swap1\n              tag_22\n              swap2\n              swap1\n              tag_23\n              jump\t// in\n            tag_22:\n              tag_24\n              jump\t// in\n            tag_21:\n              mload(0x40)\n              tag_25\n              swap2\n              swap1\n              tag_26\n              jump\t// in\n            tag_25:\n              mload(0x40)\n              dup1\n              swap2\n              sub\n              swap1\n              return\n                /* \"MTP/SimpleStorage.sol\":949:1249  function getEHR(uint256 index) public view returns (string memory, uint256, bool) {... */\n            tag_7:\n              tag_27\n              0x04\n              dup1\n              calldatasize\n              sub\n              dup2\n              add\n              swap1\n              tag_28\n              swap2\n              swap1\n              tag_29\n              jump\t// in\n            tag_28:\n              tag_30\n              jump\t// in\n            tag_27:\n              mload(0x40)\n              tag_31\n              swap4\n              swap3\n              swap2\n              swap1\n              tag_13\n              jump\t// in\n            tag_31:\n              mload(0x40)\n              dup1\n              swap2\n              sub\n              swap1\n              return\n                /* \"MTP/SimpleStorage.sol\":333:386  mapping(address => EHRMetadata[]) public hospitalEHRs */\n            tag_11:\n              mstore(0x20, 0x00)\n              dup2\n              0x00\n              mstore\n              keccak256(0x00, 0x40)\n              dup2\n              dup2\n              sload\n              dup2\n              lt\n              tag_32\n              jumpi\n              0x00\n              dup1\n              revert\n            tag_32:\n              swap1\n              0x00\n              mstore\n              keccak256(0x00, 0x20)\n              swap1\n              0x03\n              mul\n              add\n              0x00\n              swap2\n              pop\n              swap2\n              pop\n              pop\n              dup1\n              0x00\n              add\n              dup1\n              sload\n              tag_34\n              swap1\n              tag_35\n              jump\t// in\n            tag_34:\n              dup1\n              0x1f\n              add\n              0x20\n              dup1\n              swap2\n              div\n              mul\n              0x20\n              add\n              mload(0x40)\n              swap1\n              dup2\n              add\n              0x40\n              mstore\n              dup1\n              swap3\n              swap2\n              swap1\n              dup2\n              dup2\n              mstore\n              0x20\n              add\n              dup3\n              dup1\n              sload\n              tag_36\n              swap1\n              tag_35\n              jump\t// in\n            tag_36:\n              dup1\n              iszero\n              tag_37\n              jumpi\n              dup1\n              0x1f\n              lt\n              tag_38\n              jumpi\n              0x0100\n              dup1\n              dup4\n              sload\n              div\n              mul\n              dup4\n              mstore\n              swap2\n              0x20\n              add\n              swap2\n              jump(tag_37)\n            tag_38:\n              dup3\n              add\n              swap2\n              swap1\n              0x00\n              mstore\n              keccak256(0x00, 0x20)\n              swap1\n            tag_39:\n              dup2\n              sload\n              dup2\n              mstore\n              swap1\n              0x01\n              add\n              swap1\n              0x20\n              add\n              dup1\n              dup4\n              gt\n              tag_39\n              jumpi\n              dup3\n              swap1\n              sub\n              0x1f\n              and\n              dup3\n              add\n              swap2\n            tag_37:\n              pop\n              pop\n              pop\n              pop\n              pop\n              swap1\n              dup1\n              0x01\n              add\n              sload\n              swap1\n              dup1\n              0x02\n              add\n              0x00\n              swap1\n              sload\n              swap1\n              0x0100\n              exp\n              swap1\n              div\n              0xff\n              and\n              swap1\n              pop\n              dup4\n              jump\t// out\n                /* \"MTP/SimpleStorage.sol\":595:891  function storeEHR(string memory _ipfsHash) public {... */\n            tag_17:\n                /* \"MTP/SimpleStorage.sol\":656:668  hospitalEHRs */\n              0x00\n                /* \"MTP/SimpleStorage.sol\":656:680  hospitalEHRs[msg.sender] */\n              dup1\n                /* \"MTP/SimpleStorage.sol\":669:679  msg.sender */\n              caller\n                /* \"MTP/SimpleStorage.sol\":656:680  hospitalEHRs[msg.sender] */\n              0xffffffffffffffffffffffffffffffffffffffff\n              and\n              0xffffffffffffffffffffffffffffffffffffffff\n              and\n              dup2\n              mstore\n              0x20\n              add\n              swap1\n              dup2\n              mstore\n              0x20\n              add\n              0x00\n              keccak256\n                /* \"MTP/SimpleStorage.sol\":686:815  EHRMetadata({... */\n              mload(0x40)\n              dup1\n              0x60\n              add\n              0x40\n              mstore\n              dup1\n                /* \"MTP/SimpleStorage.sol\":723:732  _ipfsHash */\n              dup4\n                /* \"MTP/SimpleStorage.sol\":686:815  EHRMetadata({... */\n              dup2\n              mstore\n              0x20\n              add\n                /* \"MTP/SimpleStorage.sol\":758:773  block.timestamp */\n              timestamp\n                /* \"MTP/SimpleStorage.sol\":686:815  EHRMetadata({... */\n              dup2\n              mstore\n              0x20\n              add\n                /* \"MTP/SimpleStorage.sol\":798:803  false */\n              0x00\n                /* \"MTP/SimpleStorage.sol\":686:815  EHRMetadata({... */\n              iszero\n              iszero\n              dup2\n              mstore\n              pop\n                /* \"MTP/SimpleStorage.sol\":656:816  hospitalEHRs[msg.sender].push(EHRMetadata({... */\n              swap1\n              dup1\n              0x01\n              dup2\n              sload\n              add\n              dup1\n              dup3\n              sstore\n              dup1\n              swap2\n              pop\n              pop\n              0x01\n              swap1\n              sub\n              swap1\n              0x00\n              mstore\n              keccak256(0x00, 0x20)\n              swap1\n              0x03\n              mul\n              add\n              0x00\n              swap1\n              swap2\n              swap1\n              swap2\n              swap1\n              swap2\n              pop\n              0x00\n              dup3\n              add\n              mload\n              dup2\n              0x00\n              add\n              swap1\n              dup2\n              tag_42\n              swap2\n              swap1\n              tag_43\n              jump\t// in\n            tag_42:\n              pop\n              0x20\n              dup3\n              add\n              mload\n              dup2\n              0x01\n              add\n              sstore\n              0x40\n              dup3\n              add\n              mload\n              dup2\n              0x02\n              add\n              exp(0x0100, 0x00)\n              dup2\n              sload\n              dup2\n              0xff\n              mul\n              not\n              and\n              swap1\n              dup4\n              iszero\n              iszero\n              mul\n              or\n              swap1\n              sstore\n              pop\n              pop\n              pop\n                /* \"MTP/SimpleStorage.sol\":844:854  msg.sender */\n              caller\n                /* \"MTP/SimpleStorage.sol\":834:883  EHRStored(msg.sender, _ipfsHash, block.timestamp) */\n              0xffffffffffffffffffffffffffffffffffffffff\n              and\n              0x8e958d41d44b1a40bbd488ee4c8c903208c6a0c98884bf32aac99d2062f49391\n                /* \"MTP/SimpleStorage.sol\":856:865  _ipfsHash */\n              dup3\n                /* \"MTP/SimpleStorage.sol\":867:882  block.timestamp */\n              timestamp\n                /* \"MTP/SimpleStorage.sol\":834:883  EHRStored(msg.sender, _ipfsHash, block.timestamp) */\n              mload(0x40)\n              tag_44\n              swap3\n              swap2\n              swap1\n              tag_45\n              jump\t// in\n            tag_44:\n              mload(0x40)\n              dup1\n              swap2\n              sub\n              swap1\n              log2\n                /* \"MTP/SimpleStorage.sol\":595:891  function storeEHR(string memory _ipfsHash) public {... */\n              pop\n              jump\t// out\n                /* \"MTP/SimpleStorage.sol\":1297:1546  function verifyEHR(address hospital, uint256 index) public {... */\n            tag_20:\n                /* \"MTP/SimpleStorage.sol\":1383:1395  hospitalEHRs */\n              0x00\n                /* \"MTP/SimpleStorage.sol\":1383:1405  hospitalEHRs[hospital] */\n              dup1\n                /* \"MTP/SimpleStorage.sol\":1396:1404  hospital */\n              dup4\n                /* \"MTP/SimpleStorage.sol\":1383:1405  hospitalEHRs[hospital] */\n              0xffffffffffffffffffffffffffffffffffffffff\n              and\n              0xffffffffffffffffffffffffffffffffffffffff\n              and\n              dup2\n              mstore\n              0x20\n              add\n              swap1\n              dup2\n              mstore\n              0x20\n              add\n              0x00\n              keccak256\n                /* \"MTP/SimpleStorage.sol\":1383:1412  hospitalEHRs[hospital].length */\n              dup1\n              sload\n              swap1\n              pop\n                /* \"MTP/SimpleStorage.sol\":1375:1380  index */\n              dup2\n                /* \"MTP/SimpleStorage.sol\":1375:1412  index < hospitalEHRs[hospital].length */\n              lt\n                /* \"MTP/SimpleStorage.sol\":1367:1434  require(index < hospitalEHRs[hospital].length, \"Invalid EHR index\") */\n              tag_47\n              jumpi\n              mload(0x40)\n              0x08c379a000000000000000000000000000000000000000000000000000000000\n              dup2\n              mstore\n              0x04\n              add\n              tag_48\n              swap1\n              tag_49\n              jump\t// in\n            tag_48:\n              mload(0x40)\n              dup1\n              swap2\n              sub\n              swap1\n              revert\n            tag_47:\n                /* \"MTP/SimpleStorage.sol\":1488:1492  true */\n              0x01\n                /* \"MTP/SimpleStorage.sol\":1447:1459  hospitalEHRs */\n              0x00\n                /* \"MTP/SimpleStorage.sol\":1447:1469  hospitalEHRs[hospital] */\n              dup1\n                /* \"MTP/SimpleStorage.sol\":1460:1468  hospital */\n              dup5\n                /* \"MTP/SimpleStorage.sol\":1447:1469  hospitalEHRs[hospital] */\n              0xffffffffffffffffffffffffffffffffffffffff\n              and\n              0xffffffffffffffffffffffffffffffffffffffff\n              and\n              dup2\n              mstore\n              0x20\n              add\n              swap1\n              dup2\n              mstore\n              0x20\n              add\n              0x00\n              keccak256\n                /* \"MTP/SimpleStorage.sol\":1470:1475  index */\n              dup3\n                /* \"MTP/SimpleStorage.sol\":1447:1476  hospitalEHRs[hospital][index] */\n              dup2\n              sload\n              dup2\n              lt\n              tag_50\n              jumpi\n              tag_51\n              tag_52\n              jump\t// in\n            tag_51:\n            tag_50:\n              swap1\n              0x00\n              mstore\n              keccak256(0x00, 0x20)\n              swap1\n              0x03\n              mul\n              add\n                /* \"MTP/SimpleStorage.sol\":1447:1485  hospitalEHRs[hospital][index].verified */\n              0x02\n              add\n              0x00\n                /* \"MTP/SimpleStorage.sol\":1447:1492  hospitalEHRs[hospital][index].verified = true */\n              0x0100\n              exp\n              dup2\n              sload\n              dup2\n              0xff\n              mul\n              not\n              and\n              swap1\n              dup4\n              iszero\n              iszero\n              mul\n              or\n              swap1\n              sstore\n              pop\n                /* \"MTP/SimpleStorage.sol\":1522:1530  hospital */\n              dup2\n                /* \"MTP/SimpleStorage.sol\":1510:1538  EHRVerified(hospital, index) */\n              0xffffffffffffffffffffffffffffffffffffffff\n              and\n              0xc7387983c20d3a9bdb6e5ad99882b28a50345109c66873a5a03d92c58cf53f49\n                /* \"MTP/SimpleStorage.sol\":1532:1537  index */\n              dup3\n                /* \"MTP/SimpleStorage.sol\":1510:1538  EHRVerified(hospital, index) */\n              mload(0x40)\n              tag_54\n              swap2\n              swap1\n              tag_55\n              jump\t// in\n            tag_54:\n              mload(0x40)\n              dup1\n              swap2\n              sub\n              swap1\n              log2\n                /* \"MTP/SimpleStorage.sol\":1297:1546  function verifyEHR(address hospital, uint256 index) public {... */\n              pop\n              pop\n              jump\t// out\n                /* \"MTP/SimpleStorage.sol\":1599:1728  function getAllEHRs(address hospital) public view returns (EHRMetadata[] memory) {... */\n            tag_24:\n                /* \"MTP/SimpleStorage.sol\":1658:1678  EHRMetadata[] memory */\n              0x60\n                /* \"MTP/SimpleStorage.sol\":1698:1710  hospitalEHRs */\n              0x00\n                /* \"MTP/SimpleStorage.sol\":1698:1720  hospitalEHRs[hospital] */\n              dup1\n                /* \"MTP/SimpleStorage.sol\":1711:1719  hospital */\n              dup4\n                /* \"MTP/SimpleStorage.sol\":1698:1720  hospitalEHRs[hospital] */\n              0xffffffffffffffffffffffffffffffffffffffff\n              and\n              0xffffffffffffffffffffffffffffffffffffffff\n              and\n              dup2\n              mstore\n              0x20\n              add\n              swap1\n              dup2\n              mstore\n              0x20\n              add\n              0x00\n              keccak256\n                /* \"MTP/SimpleStorage.sol\":1691:1720  return hospitalEHRs[hospital] */\n              dup1\n              sload\n              dup1\n              0x20\n              mul\n              0x20\n              add\n              mload(0x40)\n              swap1\n              dup2\n              add\n              0x40\n              mstore\n              dup1\n              swap3\n              swap2\n              swap1\n              dup2\n              dup2\n              mstore\n              0x20\n              add\n              0x00\n              swap1\n            tag_57:\n              dup3\n              dup3\n              lt\n              iszero\n              tag_58\n              jumpi\n              dup4\n              dup3\n              swap1\n              0x00\n              mstore\n              keccak256(0x00, 0x20)\n              swap1\n              0x03\n              mul\n              add\n              mload(0x40)\n              dup1\n              0x60\n              add\n              0x40\n              mstore\n              swap1\n              dup2\n              0x00\n              dup3\n              add\n              dup1\n              sload\n              tag_60\n              swap1\n              tag_35\n              jump\t// in\n            tag_60:\n              dup1\n              0x1f\n              add\n              0x20\n              dup1\n              swap2\n              div\n              mul\n              0x20\n              add\n              mload(0x40)\n              swap1\n              dup2\n              add\n              0x40\n              mstore\n              dup1\n              swap3\n              swap2\n              swap1\n              dup2\n              dup2\n              mstore\n              0x20\n              add\n              dup3\n              dup1\n              sload\n              tag_61\n              swap1\n              tag_35\n              jump\t// in\n            tag_61:\n              dup1\n              iszero\n              tag_62\n              jumpi\n              dup1\n              0x1f\n              lt\n              tag_63\n              jumpi\n              0x0100\n              dup1\n              dup4\n              sload\n              div\n              mul\n              dup4\n              mstore\n              swap2\n              0x20\n              add\n              swap2\n              jump(tag_62)\n            tag_63:\n              dup3\n              add\n              swap2\n              swap1\n              0x00\n              mstore\n              keccak256(0x00, 0x20)\n              swap1\n            tag_64:\n              dup2\n              sload\n              dup2\n              mstore\n              swap1\n              0x01\n              add\n              swap1\n              0x20\n              add\n              dup1\n              dup4\n              gt\n              tag_64\n              jumpi\n              dup3\n              swap1\n              sub\n              0x1f\n              and\n              dup3\n              add\n              swap2\n            tag_62:\n              pop\n              pop\n              pop\n              pop\n              pop\n              dup2\n              mstore\n              0x20\n              add\n              0x01\n              dup3\n              add\n              sload\n              dup2\n              mstore\n              0x20\n              add\n              0x02\n              dup3\n              add\n              0x00\n              swap1\n              sload\n              swap1\n              0x0100\n              exp\n              swap1\n              div\n              0xff\n              and\n              iszero\n              iszero\n              iszero\n              iszero\n              dup2\n              mstore\n              pop\n              pop\n              dup2\n              mstore\n              0x20\n              add\n              swap1\n              0x01\n              add\n              swap1\n              jump(tag_57)\n            tag_58:\n              pop\n              pop\n              pop\n              pop\n              swap1\n              pop\n                /* \"MTP/SimpleStorage.sol\":1599:1728  function getAllEHRs(address hospital) public view returns (EHRMetadata[] memory) {... */\n              swap2\n              swap1\n              pop\n              jump\t// out\n                /* \"MTP/SimpleStorage.sol\":949:1249  function getEHR(uint256 index) public view returns (string memory, uint256, bool) {... */\n            tag_30:\n                /* \"MTP/SimpleStorage.sol\":1001:1014  string memory */\n              0x60\n                /* \"MTP/SimpleStorage.sol\":1016:1023  uint256 */\n              0x00\n                /* \"MTP/SimpleStorage.sol\":1025:1029  bool */\n              dup1\n                /* \"MTP/SimpleStorage.sol\":1058:1070  hospitalEHRs */\n              0x00\n                /* \"MTP/SimpleStorage.sol\":1058:1082  hospitalEHRs[msg.sender] */\n              dup1\n                /* \"MTP/SimpleStorage.sol\":1071:1081  msg.sender */\n              caller\n                /* \"MTP/SimpleStorage.sol\":1058:1082  hospitalEHRs[msg.sender] */\n              0xffffffffffffffffffffffffffffffffffffffff\n              and\n              0xffffffffffffffffffffffffffffffffffffffff\n              and\n              dup2\n              mstore\n              0x20\n              add\n              swap1\n              dup2\n              mstore\n              0x20\n              add\n              0x00\n              keccak256\n                /* \"MTP/SimpleStorage.sol\":1058:1089  hospitalEHRs[msg.sender].length */\n              dup1\n              sload\n              swap1\n              pop\n                /* \"MTP/SimpleStorage.sol\":1050:1055  index */\n              dup5\n                /* \"MTP/SimpleStorage.sol\":1050:1089  index < hospitalEHRs[msg.sender].length */\n              lt\n                /* \"MTP/SimpleStorage.sol\":1042:1111  require(index < hospitalEHRs[msg.sender].length, \"Invalid EHR index\") */\n              tag_66\n              jumpi\n              mload(0x40)\n              0x08c379a000000000000000000000000000000000000000000000000000000000\n              dup2\n              mstore\n              0x04\n              add\n              tag_67\n              swap1\n              tag_49\n              jump\t// in\n            tag_67:\n              mload(0x40)\n              dup1\n              swap2\n              sub\n              swap1\n              revert\n            tag_66:\n                /* \"MTP/SimpleStorage.sol\":1124:1146  EHRMetadata memory ehr */\n              0x00\n                /* \"MTP/SimpleStorage.sol\":1149:1161  hospitalEHRs */\n              dup1\n                /* \"MTP/SimpleStorage.sol\":1149:1173  hospitalEHRs[msg.sender] */\n              0x00\n                /* \"MTP/SimpleStorage.sol\":1162:1172  msg.sender */\n              caller\n                /* \"MTP/SimpleStorage.sol\":1149:1173  hospitalEHRs[msg.sender] */\n              0xffffffffffffffffffffffffffffffffffffffff\n              and\n              0xffffffffffffffffffffffffffffffffffffffff\n              and\n              dup2\n              mstore\n              0x20\n              add\n              swap1\n              dup2\n              mstore\n              0x20\n              add\n              0x00\n              keccak256\n                /* \"MTP/SimpleStorage.sol\":1174:1179  index */\n              dup6\n                /* \"MTP/SimpleStorage.sol\":1149:1180  hospitalEHRs[msg.sender][index] */\n              dup2\n              sload\n              dup2\n              lt\n              tag_68\n              jumpi\n              tag_69\n              tag_52\n              jump\t// in\n            tag_69:\n            tag_68:\n              swap1\n              0x00\n              mstore\n              keccak256(0x00, 0x20)\n              swap1\n              0x03\n              mul\n              add\n                /* \"MTP/SimpleStorage.sol\":1124:1180  EHRMetadata memory ehr = hospitalEHRs[msg.sender][index] */\n              mload(0x40)\n              dup1\n              0x60\n              add\n              0x40\n              mstore\n              swap1\n              dup2\n              0x00\n              dup3\n              add\n              dup1\n              sload\n              tag_71\n              swap1\n              tag_35\n              jump\t// in\n            tag_71:\n              dup1\n              0x1f\n              add\n              0x20\n              dup1\n              swap2\n              div\n              mul\n              0x20\n              add\n              mload(0x40)\n              swap1\n              dup2\n              add\n              0x40\n              mstore\n              dup1\n              swap3\n              swap2\n              swap1\n              dup2\n              dup2\n              mstore\n              0x20\n              add\n              dup3\n              dup1\n              sload\n              tag_72\n              swap1\n              tag_35\n              jump\t// in\n            tag_72:\n              dup1\n              iszero\n              tag_73\n              jumpi\n              dup1\n              0x1f\n              lt\n              tag_74\n              jumpi\n              0x0100\n              dup1\n              dup4\n              sload\n              div\n              mul\n              dup4\n              mstore\n              swap2\n              0x20\n              add\n              swap2\n              jump(tag_73)\n            tag_74:\n              dup3\n              add\n              swap2\n              swap1\n              0x00\n              mstore\n              keccak256(0x00, 0x20)\n              swap1\n            tag_75:\n              dup2\n              sload\n              dup2\n              mstore\n              swap1\n              0x01\n              add\n              swap1\n              0x20\n              add\n              dup1\n              dup4\n              gt\n              tag_75\n              jumpi\n              dup3\n              swap1\n              sub\n              0x1f\n              and\n              dup3\n              add\n              swap2\n            tag_73:\n              pop\n              pop\n              pop\n              pop\n              pop\n              dup2\n              mstore\n              0x20\n              add\n              0x01\n              dup3\n              add\n              sload\n              dup2\n              mstore\n              0x20\n              add\n              0x02\n              dup3\n              add\n              0x00\n              swap1\n              sload\n              swap1\n              0x0100\n              exp\n              swap1\n              div\n              0xff\n              and\n              iszero\n              iszero\n              iszero\n              iszero\n              dup2\n              mstore\n              pop\n              pop\n              swap1\n              pop\n                /* \"MTP/SimpleStorage.sol\":1199:1202  ehr */\n              dup1\n                /* \"MTP/SimpleStorage.sol\":1199:1211  ehr.ipfsHash */\n              0x00\n              add\n              mload\n                /* \"MTP/SimpleStorage.sol\":1213:1216  ehr */\n              dup2\n                /* \"MTP/SimpleStorage.sol\":1213:1226  ehr.timestamp */\n              0x20\n              add\n              mload\n                /* \"MTP/SimpleStorage.sol\":1228:1231  ehr */\n              dup3\n                /* \"MTP/SimpleStorage.sol\":1228:1240  ehr.verified */\n              0x40\n              add\n              mload\n                /* \"MTP/SimpleStorage.sol\":1191:1241  return (ehr.ipfsHash, ehr.timestamp, ehr.verified) */\n              swap4\n              pop\n              swap4\n              pop\n              swap4\n              pop\n              pop\n                /* \"MTP/SimpleStorage.sol\":949:1249  function getEHR(uint256 index) public view returns (string memory, uint256, bool) {... */\n              swap2\n              swap4\n              swap1\n              swap3\n              pop\n              jump\t// out\n                /* \"#utility.yul\":7:82   */\n            tag_76:\n                /* \"#utility.yul\":40:46   */\n              0x00\n                /* \"#utility.yul\":73:75   */\n              0x40\n                /* \"#utility.yul\":67:76   */\n              mload\n                /* \"#utility.yul\":57:76   */\n              swap1\n              pop\n                /* \"#utility.yul\":7:82   */\n              swap1\n              jump\t// out\n                /* \"#utility.yul\":88:205   */\n            tag_77:\n                /* \"#utility.yul\":197:198   */\n              0x00\n                /* \"#utility.yul\":194:195   */\n              dup1\n                /* \"#utility.yul\":187:199   */\n              revert\n                /* \"#utility.yul\":211:328   */\n            tag_78:\n                /* \"#utility.yul\":320:321   */\n              0x00\n                /* \"#utility.yul\":317:318   */\n              dup1\n                /* \"#utility.yul\":310:322   */\n              revert\n                /* \"#utility.yul\":334:460   */\n            tag_79:\n                /* \"#utility.yul\":371:378   */\n              0x00\n                /* \"#utility.yul\":411:453   */\n              0xffffffffffffffffffffffffffffffffffffffff\n                /* \"#utility.yul\":404:409   */\n              dup3\n                /* \"#utility.yul\":400:454   */\n              and\n                /* \"#utility.yul\":389:454   */\n              swap1\n              pop\n                /* \"#utility.yul\":334:460   */\n              swap2\n              swap1\n              pop\n              jump\t// out\n                /* \"#utility.yul\":466:562   */\n            tag_80:\n                /* \"#utility.yul\":503:510   */\n              0x00\n                /* \"#utility.yul\":532:556   */\n              tag_138\n                /* \"#utility.yul\":550:555   */\n              dup3\n                /* \"#utility.yul\":532:556   */\n              tag_79\n              jump\t// in\n            tag_138:\n                /* \"#utility.yul\":521:556   */\n              swap1\n              pop\n                /* \"#utility.yul\":466:562   */\n              swap2\n              swap1\n              pop\n              jump\t// out\n                /* \"#utility.yul\":568:690   */\n            tag_81:\n                /* \"#utility.yul\":641:665   */\n              tag_140\n                /* \"#utility.yul\":659:664   */\n              dup2\n                /* \"#utility.yul\":641:665   */\n              tag_80\n              jump\t// in\n            tag_140:\n                /* \"#utility.yul\":634:639   */\n              dup2\n                /* \"#utility.yul\":631:666   */\n              eq\n                /* \"#utility.yul\":621:684   */\n              tag_141\n              jumpi\n                /* \"#utility.yul\":680:681   */\n              0x00\n                /* \"#utility.yul\":677:678   */\n              dup1\n                /* \"#utility.yul\":670:682   */\n              revert\n                /* \"#utility.yul\":621:684   */\n            tag_141:\n                /* \"#utility.yul\":568:690   */\n              pop\n              jump\t// out\n                /* \"#utility.yul\":696:835   */\n            tag_82:\n                /* \"#utility.yul\":742:747   */\n              0x00\n                /* \"#utility.yul\":780:786   */\n              dup2\n                /* \"#utility.yul\":767:787   */\n              calldataload\n                /* \"#utility.yul\":758:787   */\n              swap1\n              pop\n                /* \"#utility.yul\":796:829   */\n              tag_143\n                /* \"#utility.yul\":823:828   */\n              dup2\n                /* \"#utility.yul\":796:829   */\n              tag_81\n              jump\t// in\n            tag_143:\n                /* \"#utility.yul\":696:835   */\n              swap3\n              swap2\n              pop\n              pop\n              jump\t// out\n                /* \"#utility.yul\":841:918   */\n            tag_83:\n                /* \"#utility.yul\":878:885   */\n              0x00\n                /* \"#utility.yul\":907:912   */\n              dup2\n                /* \"#utility.yul\":896:912   */\n              swap1\n              pop\n                /* \"#utility.yul\":841:918   */\n              swap2\n              swap1\n              pop\n              jump\t// out\n                /* \"#utility.yul\":924:1046   */\n            tag_84:\n                /* \"#utility.yul\":997:1021   */\n              tag_146\n                /* \"#utility.yul\":1015:1020   */\n              dup2\n                /* \"#utility.yul\":997:1021   */\n              tag_83\n              jump\t// in\n            tag_146:\n                /* \"#utility.yul\":990:995   */\n              dup2\n                /* \"#utility.yul\":987:1022   */\n              eq\n                /* \"#utility.yul\":977:1040   */\n              tag_147\n              jumpi\n                /* \"#utility.yul\":1036:1037   */\n              0x00\n                /* \"#utility.yul\":1033:1034   */\n              dup1\n                /* \"#utility.yul\":1026:1038   */\n              revert\n                /* \"#utility.yul\":977:1040   */\n            tag_147:\n                /* \"#utility.yul\":924:1046   */\n              pop\n              jump\t// out\n                /* \"#utility.yul\":1052:1191   */\n            tag_85:\n                /* \"#utility.yul\":1098:1103   */\n              0x00\n                /* \"#utility.yul\":1136:1142   */\n              dup2\n                /* \"#utility.yul\":1123:1143   */\n              calldataload\n                /* \"#utility.yul\":1114:1143   */\n              swap1\n              pop\n                /* \"#utility.yul\":1152:1185   */\n              tag_149\n                /* \"#utility.yul\":1179:1184   */\n              dup2\n                /* \"#utility.yul\":1152:1185   */\n              tag_84\n              jump\t// in\n            tag_149:\n                /* \"#utility.yul\":1052:1191   */\n              swap3\n              swap2\n              pop\n              pop\n              jump\t// out\n                /* \"#utility.yul\":1197:1671   */\n            tag_10:\n                /* \"#utility.yul\":1265:1271   */\n              0x00\n                /* \"#utility.yul\":1273:1279   */\n              dup1\n                /* \"#utility.yul\":1322:1324   */\n              0x40\n                /* \"#utility.yul\":1310:1319   */\n              dup4\n                /* \"#utility.yul\":1301:1308   */\n              dup6\n                /* \"#utility.yul\":1297:1320   */\n              sub\n                /* \"#utility.yul\":1293:1325   */\n              slt\n                /* \"#utility.yul\":1290:1409   */\n              iszero\n              tag_151\n              jumpi\n                /* \"#utility.yul\":1328:1407   */\n              tag_152\n              tag_77\n              jump\t// in\n            tag_152:\n                /* \"#utility.yul\":1290:1409   */\n            tag_151:\n                /* \"#utility.yul\":1448:1449   */\n              0x00\n                /* \"#utility.yul\":1473:1526   */\n              tag_153\n                /* \"#utility.yul\":1518:1525   */\n              dup6\n                /* \"#utility.yul\":1509:1515   */\n              dup3\n                /* \"#utility.yul\":1498:1507   */\n              dup7\n                /* \"#utility.yul\":1494:1516   */\n              add\n                /* \"#utility.yul\":1473:1526   */\n              tag_82\n              jump\t// in\n            tag_153:\n                /* \"#utility.yul\":1463:1526   */\n              swap3\n              pop\n                /* \"#utility.yul\":1419:1536   */\n              pop\n                /* \"#utility.yul\":1575:1577   */\n              0x20\n                /* \"#utility.yul\":1601:1654   */\n              tag_154\n                /* \"#utility.yul\":1646:1653   */\n              dup6\n                /* \"#utility.yul\":1637:1643   */\n              dup3\n                /* \"#utility.yul\":1626:1635   */\n              dup7\n                /* \"#utility.yul\":1622:1644   */\n              add\n                /* \"#utility.yul\":1601:1654   */\n              tag_85\n              jump\t// in\n            tag_154:\n                /* \"#utility.yul\":1591:1654   */\n              swap2\n              pop\n                /* \"#utility.yul\":1546:1664   */\n              pop\n                /* \"#utility.yul\":1197:1671   */\n              swap3\n              pop\n              swap3\n              swap1\n              pop\n              jump\t// out\n                /* \"#utility.yul\":1677:1776   */\n            tag_86:\n                /* \"#utility.yul\":1729:1735   */\n              0x00\n                /* \"#utility.yul\":1763:1768   */\n              dup2\n                /* \"#utility.yul\":1757:1769   */\n              mload\n                /* \"#utility.yul\":1747:1769   */\n              swap1\n              pop\n                /* \"#utility.yul\":1677:1776   */\n              swap2\n              swap1\n              pop\n              jump\t// out\n                /* \"#utility.yul\":1782:1951   */\n            tag_87:\n                /* \"#utility.yul\":1866:1877   */\n              0x00\n                /* \"#utility.yul\":1900:1906   */\n              dup3\n                /* \"#utility.yul\":1895:1898   */\n              dup3\n                /* \"#utility.yul\":1888:1907   */\n              mstore\n                /* \"#utility.yul\":1940:1944   */\n              0x20\n                /* \"#utility.yul\":1935:1938   */\n              dup3\n                /* \"#utility.yul\":1931:1945   */\n              add\n                /* \"#utility.yul\":1916:1945   */\n              swap1\n              pop\n                /* \"#utility.yul\":1782:1951   */\n              swap3\n              swap2\n              pop\n              pop\n              jump\t// out\n                /* \"#utility.yul\":1957:2096   */\n            tag_88:\n                /* \"#utility.yul\":2046:2052   */\n              dup3\n                /* \"#utility.yul\":2041:2044   */\n              dup2\n                /* \"#utility.yul\":2036:2039   */\n              dup4\n                /* \"#utility.yul\":2030:2053   */\n              mcopy\n                /* \"#utility.yul\":2087:2088   */\n              0x00\n                /* \"#utility.yul\":2078:2084   */\n              dup4\n                /* \"#utility.yul\":2073:2076   */\n              dup4\n                /* \"#utility.yul\":2069:2085   */\n              add\n                /* \"#utility.yul\":2062:2089   */\n              mstore\n                /* \"#utility.yul\":1957:2096   */\n              pop\n              pop\n              pop\n              jump\t// out\n                /* \"#utility.yul\":2102:2204   */\n            tag_89:\n                /* \"#utility.yul\":2143:2149   */\n              0x00\n                /* \"#utility.yul\":2194:2196   */\n              0x1f\n                /* \"#utility.yul\":2190:2197   */\n              not\n                /* \"#utility.yul\":2185:2187   */\n              0x1f\n                /* \"#utility.yul\":2178:2183   */\n              dup4\n                /* \"#utility.yul\":2174:2188   */\n              add\n                /* \"#utility.yul\":2170:2198   */\n              and\n                /* \"#utility.yul\":2160:2198   */\n              swap1\n              pop\n                /* \"#utility.yul\":2102:2204   */\n              swap2\n              swap1\n              pop\n              jump\t// out\n                /* \"#utility.yul\":2210:2587   */\n            tag_90:\n                /* \"#utility.yul\":2298:2301   */\n              0x00\n                /* \"#utility.yul\":2326:2365   */\n              tag_160\n                /* \"#utility.yul\":2359:2364   */\n              dup3\n                /* \"#utility.yul\":2326:2365   */\n              tag_86\n              jump\t// in\n            tag_160:\n                /* \"#utility.yul\":2381:2452   */\n              tag_161\n                /* \"#utility.yul\":2445:2451   */\n              dup2\n                /* \"#utility.yul\":2440:2443   */\n              dup6\n                /* \"#utility.yul\":2381:2452   */\n              tag_87\n              jump\t// in\n            tag_161:\n                /* \"#utility.yul\":2374:2452   */\n              swap4\n              pop\n                /* \"#utility.yul\":2461:2526   */\n              tag_162\n                /* \"#utility.yul\":2519:2525   */\n              dup2\n                /* \"#utility.yul\":2514:2517   */\n              dup6\n                /* \"#utility.yul\":2507:2511   */\n              0x20\n                /* \"#utility.yul\":2500:2505   */\n              dup7\n                /* \"#utility.yul\":2496:2512   */\n              add\n                /* \"#utility.yul\":2461:2526   */\n              tag_88\n              jump\t// in\n            tag_162:\n                /* \"#utility.yul\":2551:2580   */\n              tag_163\n                /* \"#utility.yul\":2573:2579   */\n              dup2\n                /* \"#utility.yul\":2551:2580   */\n              tag_89\n              jump\t// in\n            tag_163:\n                /* \"#utility.yul\":2546:2549   */\n              dup5\n                /* \"#utility.yul\":2542:2581   */\n              add\n                /* \"#utility.yul\":2535:2581   */\n              swap2\n              pop\n                /* \"#utility.yul\":2302:2587   */\n              pop\n                /* \"#utility.yul\":2210:2587   */\n              swap3\n              swap2\n              pop\n              pop\n              jump\t// out\n                /* \"#utility.yul\":2593:2711   */\n            tag_91:\n                /* \"#utility.yul\":2680:2704   */\n              tag_165\n                /* \"#utility.yul\":2698:2703   */\n              dup2\n                /* \"#utility.yul\":2680:2704   */\n              tag_83\n              jump\t// in\n            tag_165:\n                /* \"#utility.yul\":2675:2678   */\n              dup3\n                /* \"#utility.yul\":2668:2705   */\n              mstore\n                /* \"#utility.yul\":2593:2711   */\n              pop\n              pop\n              jump\t// out\n                /* \"#utility.yul\":2717:2807   */\n            tag_92:\n                /* \"#utility.yul\":2751:2758   */\n              0x00\n                /* \"#utility.yul\":2794:2799   */\n              dup2\n                /* \"#utility.yul\":2787:2800   */\n              iszero\n                /* \"#utility.yul\":2780:2801   */\n              iszero\n                /* \"#utility.yul\":2769:2801   */\n              swap1\n              pop\n                /* \"#utility.yul\":2717:2807   */\n              swap2\n              swap1\n              pop\n              jump\t// out\n                /* \"#utility.yul\":2813:2922   */\n            tag_93:\n                /* \"#utility.yul\":2894:2915   */\n              tag_168\n                /* \"#utility.yul\":2909:2914   */\n              dup2\n                /* \"#utility.yul\":2894:2915   */\n              tag_92\n              jump\t// in\n            tag_168:\n                /* \"#utility.yul\":2889:2892   */\n              dup3\n                /* \"#utility.yul\":2882:2916   */\n              mstore\n                /* \"#utility.yul\":2813:2922   */\n              pop\n              pop\n              jump\t// out\n                /* \"#utility.yul\":2928:3449   */\n            tag_13:\n                /* \"#utility.yul\":3091:3095   */\n              0x00\n                /* \"#utility.yul\":3129:3131   */\n              0x60\n                /* \"#utility.yul\":3118:3127   */\n              dup3\n                /* \"#utility.yul\":3114:3132   */\n              add\n                /* \"#utility.yul\":3106:3132   */\n              swap1\n              pop\n                /* \"#utility.yul\":3178:3187   */\n              dup2\n                /* \"#utility.yul\":3172:3176   */\n              dup2\n                /* \"#utility.yul\":3168:3188   */\n              sub\n                /* \"#utility.yul\":3164:3165   */\n              0x00\n                /* \"#utility.yul\":3153:3162   */\n              dup4\n                /* \"#utility.yul\":3149:3166   */\n              add\n                /* \"#utility.yul\":3142:3189   */\n              mstore\n                /* \"#utility.yul\":3206:3284   */\n              tag_170\n                /* \"#utility.yul\":3279:3283   */\n              dup2\n                /* \"#utility.yul\":3270:3276   */\n              dup7\n                /* \"#utility.yul\":3206:3284   */\n              tag_90\n              jump\t// in\n            tag_170:\n                /* \"#utility.yul\":3198:3284   */\n              swap1\n              pop\n                /* \"#utility.yul\":3294:3366   */\n              tag_171\n                /* \"#utility.yul\":3362:3364   */\n              0x20\n                /* \"#utility.yul\":3351:3360   */\n              dup4\n                /* \"#utility.yul\":3347:3365   */\n              add\n                /* \"#utility.yul\":3338:3344   */\n              dup6\n                /* \"#utility.yul\":3294:3366   */\n              tag_91\n              jump\t// in\n            tag_171:\n                /* \"#utility.yul\":3376:3442   */\n              tag_172\n                /* \"#utility.yul\":3438:3440   */\n              0x40\n                /* \"#utility.yul\":3427:3436   */\n              dup4\n                /* \"#utility.yul\":3423:3441   */\n              add\n                /* \"#utility.yul\":3414:3420   */\n              dup5\n                /* \"#utility.yul\":3376:3442   */\n              tag_93\n              jump\t// in\n            tag_172:\n                /* \"#utility.yul\":2928:3449   */\n              swap5\n              swap4\n              pop\n              pop\n              pop\n              pop\n              jump\t// out\n                /* \"#utility.yul\":3455:3572   */\n            tag_94:\n                /* \"#utility.yul\":3564:3565   */\n              0x00\n                /* \"#utility.yul\":3561:3562   */\n              dup1\n                /* \"#utility.yul\":3554:3566   */\n              revert\n                /* \"#utility.yul\":3578:3695   */\n            tag_95:\n                /* \"#utility.yul\":3687:3688   */\n              0x00\n                /* \"#utility.yul\":3684:3685   */\n              dup1\n                /* \"#utility.yul\":3677:3689   */\n              revert\n                /* \"#utility.yul\":3701:3881   */\n            tag_96:\n                /* \"#utility.yul\":3749:3826   */\n              0x4e487b7100000000000000000000000000000000000000000000000000000000\n                /* \"#utility.yul\":3746:3747   */\n              0x00\n                /* \"#utility.yul\":3739:3827   */\n              mstore\n                /* \"#utility.yul\":3846:3850   */\n              0x41\n                /* \"#utility.yul\":3843:3844   */\n              0x04\n                /* \"#utility.yul\":3836:3851   */\n              mstore\n                /* \"#utility.yul\":3870:3874   */\n              0x24\n                /* \"#utility.yul\":3867:3868   */\n              0x00\n                /* \"#utility.yul\":3860:3875   */\n              revert\n                /* \"#utility.yul\":3887:4168   */\n            tag_97:\n                /* \"#utility.yul\":3970:3997   */\n              tag_177\n                /* \"#utility.yul\":3992:3996   */\n              dup3\n                /* \"#utility.yul\":3970:3997   */\n              tag_89\n              jump\t// in\n            tag_177:\n                /* \"#utility.yul\":3962:3968   */\n              dup2\n                /* \"#utility.yul\":3958:3998   */\n              add\n                /* \"#utility.yul\":4100:4106   */\n              dup2\n                /* \"#utility.yul\":4088:4098   */\n              dup2\n                /* \"#utility.yul\":4085:4107   */\n              lt\n                /* \"#utility.yul\":4064:4082   */\n              0xffffffffffffffff\n                /* \"#utility.yul\":4052:4062   */\n              dup3\n                /* \"#utility.yul\":4049:4083   */\n              gt\n                /* \"#utility.yul\":4046:4108   */\n              or\n                /* \"#utility.yul\":4043:4131   */\n              iszero\n              tag_178\n              jumpi\n                /* \"#utility.yul\":4111:4129   */\n              tag_179\n              tag_96\n              jump\t// in\n            tag_179:\n                /* \"#utility.yul\":4043:4131   */\n            tag_178:\n                /* \"#utility.yul\":4151:4161   */\n              dup1\n                /* \"#utility.yul\":4147:4149   */\n              0x40\n                /* \"#utility.yul\":4140:4162   */\n              mstore\n                /* \"#utility.yul\":3930:4168   */\n              pop\n                /* \"#utility.yul\":3887:4168   */\n              pop\n              pop\n              jump\t// out\n                /* \"#utility.yul\":4174:4303   */\n            tag_98:\n                /* \"#utility.yul\":4208:4214   */\n              0x00\n                /* \"#utility.yul\":4235:4255   */\n              tag_181\n              tag_76\n              jump\t// in\n            tag_181:\n                /* \"#utility.yul\":4225:4255   */\n              swap1\n              pop\n                /* \"#utility.yul\":4264:4297   */\n              tag_182\n                /* \"#utility.yul\":4292:4296   */\n              dup3\n                /* \"#utility.yul\":4284:4290   */\n              dup3\n                /* \"#utility.yul\":4264:4297   */\n              tag_97\n              jump\t// in\n            tag_182:\n                /* \"#utility.yul\":4174:4303   */\n              swap2\n              swap1\n              pop\n              jump\t// out\n                /* \"#utility.yul\":4309:4617   */\n            tag_99:\n                /* \"#utility.yul\":4371:4375   */\n              0x00\n                /* \"#utility.yul\":4461:4479   */\n              0xffffffffffffffff\n                /* \"#utility.yul\":4453:4459   */\n              dup3\n                /* \"#utility.yul\":4450:4480   */\n              gt\n                /* \"#utility.yul\":4447:4503   */\n              iszero\n              tag_184\n              jumpi\n                /* \"#utility.yul\":4483:4501   */\n              tag_185\n              tag_96\n              jump\t// in\n            tag_185:\n                /* \"#utility.yul\":4447:4503   */\n            tag_184:\n                /* \"#utility.yul\":4521:4550   */\n              tag_186\n                /* \"#utility.yul\":4543:4549   */\n              dup3\n                /* \"#utility.yul\":4521:4550   */\n              tag_89\n              jump\t// in\n            tag_186:\n                /* \"#utility.yul\":4513:4550   */\n              swap1\n              pop\n                /* \"#utility.yul\":4605:4609   */\n              0x20\n                /* \"#utility.yul\":4599:4603   */\n              dup2\n                /* \"#utility.yul\":4595:4610   */\n              add\n                /* \"#utility.yul\":4587:4610   */\n              swap1\n              pop\n                /* \"#utility.yul\":4309:4617   */\n              swap2\n              swap1\n              pop\n              jump\t// out\n                /* \"#utility.yul\":4623:4771   */\n            tag_100:\n                /* \"#utility.yul\":4721:4727   */\n              dup3\n                /* \"#utility.yul\":4716:4719   */\n              dup2\n                /* \"#utility.yul\":4711:4714   */\n              dup4\n                /* \"#utility.yul\":4698:4728   */\n              calldatacopy\n                /* \"#utility.yul\":4762:4763   */\n              0x00\n                /* \"#utility.yul\":4753:4759   */\n              dup4\n                /* \"#utility.yul\":4748:4751   */\n              dup4\n                /* \"#utility.yul\":4744:4760   */\n              add\n                /* \"#utility.yul\":4737:4764   */\n              mstore\n                /* \"#utility.yul\":4623:4771   */\n              pop\n              pop\n              pop\n              jump\t// out\n                /* \"#utility.yul\":4777:5202   */\n            tag_101:\n                /* \"#utility.yul\":4855:4860   */\n              0x00\n                /* \"#utility.yul\":4880:4946   */\n              tag_189\n                /* \"#utility.yul\":4896:4945   */\n              tag_190\n                /* \"#utility.yul\":4938:4944   */\n              dup5\n                /* \"#utility.yul\":4896:4945   */\n              tag_99\n              jump\t// in\n            tag_190:\n                /* \"#utility.yul\":4880:4946   */\n              tag_98\n              jump\t// in\n            tag_189:\n                /* \"#utility.yul\":4871:4946   */\n              swap1\n              pop\n                /* \"#utility.yul\":4969:4975   */\n              dup3\n                /* \"#utility.yul\":4962:4967   */\n              dup2\n                /* \"#utility.yul\":4955:4976   */\n              mstore\n                /* \"#utility.yul\":5007:5011   */\n              0x20\n                /* \"#utility.yul\":5000:5005   */\n              dup2\n                /* \"#utility.yul\":4996:5012   */\n              add\n                /* \"#utility.yul\":5045:5048   */\n              dup5\n                /* \"#utility.yul\":5036:5042   */\n              dup5\n                /* \"#utility.yul\":5031:5034   */\n              dup5\n                /* \"#utility.yul\":5027:5043   */\n              add\n                /* \"#utility.yul\":5024:5049   */\n              gt\n                /* \"#utility.yul\":5021:5133   */\n              iszero\n              tag_191\n              jumpi\n                /* \"#utility.yul\":5052:5131   */\n              tag_192\n              tag_95\n              jump\t// in\n            tag_192:\n                /* \"#utility.yul\":5021:5133   */\n            tag_191:\n                /* \"#utility.yul\":5142:5196   */\n              tag_193\n                /* \"#utility.yul\":5189:5195   */\n              dup5\n                /* \"#utility.yul\":5184:5187   */\n              dup3\n                /* \"#utility.yul\":5179:5182   */\n              dup6\n                /* \"#utility.yul\":5142:5196   */\n              tag_100\n              jump\t// in\n            tag_193:\n                /* \"#utility.yul\":4861:5202   */\n              pop\n                /* \"#utility.yul\":4777:5202   */\n              swap4\n              swap3\n              pop\n              pop\n              pop\n              jump\t// out\n                /* \"#utility.yul\":5222:5562   */\n            tag_102:\n                /* \"#utility.yul\":5278:5283   */\n              0x00\n                /* \"#utility.yul\":5327:5330   */\n              dup3\n                /* \"#utility.yul\":5320:5324   */\n              0x1f\n                /* \"#utility.yul\":5312:5318   */\n              dup4\n                /* \"#utility.yul\":5308:5325   */\n              add\n                /* \"#utility.yul\":5304:5331   */\n              slt\n                /* \"#utility.yul\":5294:5416   */\n              tag_195\n              jumpi\n                /* \"#utility.yul\":5335:5414   */\n              tag_196\n              tag_94\n              jump\t// in\n            tag_196:\n                /* \"#utility.yul\":5294:5416   */\n            tag_195:\n                /* \"#utility.yul\":5452:5458   */\n              dup2\n                /* \"#utility.yul\":5439:5459   */\n              calldataload\n                /* \"#utility.yul\":5477:5556   */\n              tag_197\n                /* \"#utility.yul\":5552:5555   */\n              dup5\n                /* \"#utility.yul\":5544:5550   */\n              dup3\n                /* \"#utility.yul\":5537:5541   */\n              0x20\n                /* \"#utility.yul\":5529:5535   */\n              dup7\n                /* \"#utility.yul\":5525:5542   */\n              add\n                /* \"#utility.yul\":5477:5556   */\n              tag_101\n              jump\t// in\n            tag_197:\n                /* \"#utility.yul\":5468:5556   */\n              swap2\n              pop\n                /* \"#utility.yul\":5284:5562   */\n              pop\n                /* \"#utility.yul\":5222:5562   */\n              swap3\n              swap2\n              pop\n              pop\n              jump\t// out\n                /* \"#utility.yul\":5568:6077   */\n            tag_16:\n                /* \"#utility.yul\":5637:5643   */\n              0x00\n                /* \"#utility.yul\":5686:5688   */\n              0x20\n                /* \"#utility.yul\":5674:5683   */\n              dup3\n                /* \"#utility.yul\":5665:5672   */\n              dup5\n                /* \"#utility.yul\":5661:5684   */\n              sub\n                /* \"#utility.yul\":5657:5689   */\n              slt\n                /* \"#utility.yul\":5654:5773   */\n              iszero\n              tag_199\n              jumpi\n                /* \"#utility.yul\":5692:5771   */\n              tag_200\n              tag_77\n              jump\t// in\n            tag_200:\n                /* \"#utility.yul\":5654:5773   */\n            tag_199:\n                /* \"#utility.yul\":5840:5841   */\n              0x00\n                /* \"#utility.yul\":5829:5838   */\n              dup3\n                /* \"#utility.yul\":5825:5842   */\n              add\n                /* \"#utility.yul\":5812:5843   */\n              calldataload\n                /* \"#utility.yul\":5870:5888   */\n              0xffffffffffffffff\n                /* \"#utility.yul\":5862:5868   */\n              dup2\n                /* \"#utility.yul\":5859:5889   */\n              gt\n                /* \"#utility.yul\":5856:5973   */\n              iszero\n              tag_201\n              jumpi\n                /* \"#utility.yul\":5892:5971   */\n              tag_202\n              tag_78\n              jump\t// in\n            tag_202:\n                /* \"#utility.yul\":5856:5973   */\n            tag_201:\n                /* \"#utility.yul\":5997:6060   */\n              tag_203\n                /* \"#utility.yul\":6052:6059   */\n              dup5\n                /* \"#utility.yul\":6043:6049   */\n              dup3\n                /* \"#utility.yul\":6032:6041   */\n              dup6\n                /* \"#utility.yul\":6028:6050   */\n              add\n                /* \"#utility.yul\":5997:6060   */\n              tag_102\n              jump\t// in\n            tag_203:\n                /* \"#utility.yul\":5987:6060   */\n              swap2\n              pop\n                /* \"#utility.yul\":5783:6070   */\n              pop\n                /* \"#utility.yul\":5568:6077   */\n              swap3\n              swap2\n              pop\n              pop\n              jump\t// out\n                /* \"#utility.yul\":6083:6412   */\n            tag_23:\n                /* \"#utility.yul\":6142:6148   */\n              0x00\n                /* \"#utility.yul\":6191:6193   */\n              0x20\n                /* \"#utility.yul\":6179:6188   */\n              dup3\n                /* \"#utility.yul\":6170:6177   */\n              dup5\n                /* \"#utility.yul\":6166:6189   */\n              sub\n                /* \"#utility.yul\":6162:6194   */\n              slt\n                /* \"#utility.yul\":6159:6278   */\n              iszero\n              tag_205\n              jumpi\n                /* \"#utility.yul\":6197:6276   */\n              tag_206\n              tag_77\n              jump\t// in\n            tag_206:\n                /* \"#utility.yul\":6159:6278   */\n            tag_205:\n                /* \"#utility.yul\":6317:6318   */\n              0x00\n                /* \"#utility.yul\":6342:6395   */\n              tag_207\n                /* \"#utility.yul\":6387:6394   */\n              dup5\n                /* \"#utility.yul\":6378:6384   */\n              dup3\n                /* \"#utility.yul\":6367:6376   */\n              dup6\n                /* \"#utility.yul\":6363:6385   */\n              add\n                /* \"#utility.yul\":6342:6395   */\n              tag_82\n              jump\t// in\n            tag_207:\n                /* \"#utility.yul\":6332:6395   */\n              swap2\n              pop\n                /* \"#utility.yul\":6288:6405   */\n              pop\n                /* \"#utility.yul\":6083:6412   */\n              swap3\n              swap2\n              pop\n              pop\n              jump\t// out\n                /* \"#utility.yul\":6418:6558   */\n            tag_103:\n                /* \"#utility.yul\":6511:6517   */\n              0x00\n                /* \"#utility.yul\":6545:6550   */\n              dup2\n                /* \"#utility.yul\":6539:6551   */\n              mload\n                /* \"#utility.yul\":6529:6551   */\n              swap1\n              pop\n                /* \"#utility.yul\":6418:6558   */\n              swap2\n              swap1\n              pop\n              jump\t// out\n                /* \"#utility.yul\":6564:6774   */\n            tag_104:\n                /* \"#utility.yul\":6689:6700   */\n              0x00\n                /* \"#utility.yul\":6723:6729   */\n              dup3\n                /* \"#utility.yul\":6718:6721   */\n              dup3\n                /* \"#utility.yul\":6711:6730   */\n              mstore\n                /* \"#utility.yul\":6763:6767   */\n              0x20\n                /* \"#utility.yul\":6758:6761   */\n              dup3\n                /* \"#utility.yul\":6754:6768   */\n              add\n                /* \"#utility.yul\":6739:6768   */\n              swap1\n              pop\n                /* \"#utility.yul\":6564:6774   */\n              swap3\n              swap2\n              pop\n              pop\n              jump\t// out\n                /* \"#utility.yul\":6780:6938   */\n            tag_105:\n                /* \"#utility.yul\":6873:6877   */\n              0x00\n                /* \"#utility.yul\":6896:6899   */\n              dup2\n                /* \"#utility.yul\":6888:6899   */\n              swap1\n              pop\n                /* \"#utility.yul\":6926:6930   */\n              0x20\n                /* \"#utility.yul\":6921:6924   */\n              dup3\n                /* \"#utility.yul\":6917:6931   */\n              add\n                /* \"#utility.yul\":6909:6931   */\n              swap1\n              pop\n                /* \"#utility.yul\":6780:6938   */\n              swap2\n              swap1\n              pop\n              jump\t// out\n                /* \"#utility.yul\":6944:7103   */\n            tag_106:\n                /* \"#utility.yul\":7018:7029   */\n              0x00\n                /* \"#utility.yul\":7052:7058   */\n              dup3\n                /* \"#utility.yul\":7047:7050   */\n              dup3\n                /* \"#utility.yul\":7040:7059   */\n              mstore\n                /* \"#utility.yul\":7092:7096   */\n              0x20\n                /* \"#utility.yul\":7087:7090   */\n              dup3\n                /* \"#utility.yul\":7083:7097   */\n              add\n                /* \"#utility.yul\":7068:7097   */\n              swap1\n              pop\n                /* \"#utility.yul\":6944:7103   */\n              swap3\n              swap2\n              pop\n              pop\n              jump\t// out\n                /* \"#utility.yul\":7109:7466   */\n            tag_107:\n                /* \"#utility.yul\":7187:7190   */\n              0x00\n                /* \"#utility.yul\":7215:7254   */\n              tag_213\n                /* \"#utility.yul\":7248:7253   */\n              dup3\n                /* \"#utility.yul\":7215:7254   */\n              tag_86\n              jump\t// in\n            tag_213:\n                /* \"#utility.yul\":7270:7331   */\n              tag_214\n                /* \"#utility.yul\":7324:7330   */\n              dup2\n                /* \"#utility.yul\":7319:7322   */\n              dup6\n                /* \"#utility.yul\":7270:7331   */\n              tag_106\n              jump\t// in\n            tag_214:\n                /* \"#utility.yul\":7263:7331   */\n              swap4\n              pop\n                /* \"#utility.yul\":7340:7405   */\n              tag_215\n                /* \"#utility.yul\":7398:7404   */\n              dup2\n                /* \"#utility.yul\":7393:7396   */\n              dup6\n                /* \"#utility.yul\":7386:7390   */\n              0x20\n                /* \"#utility.yul\":7379:7384   */\n              dup7\n                /* \"#utility.yul\":7375:7391   */\n              add\n                /* \"#utility.yul\":7340:7405   */\n              tag_88\n              jump\t// in\n            tag_215:\n                /* \"#utility.yul\":7430:7459   */\n              tag_216\n                /* \"#utility.yul\":7452:7458   */\n              dup2\n                /* \"#utility.yul\":7430:7459   */\n              tag_89\n              jump\t// in\n            tag_216:\n                /* \"#utility.yul\":7425:7428   */\n              dup5\n                /* \"#utility.yul\":7421:7460   */\n              add\n                /* \"#utility.yul\":7414:7460   */\n              swap2\n              pop\n                /* \"#utility.yul\":7191:7466   */\n              pop\n                /* \"#utility.yul\":7109:7466   */\n              swap3\n              swap2\n              pop\n              pop\n              jump\t// out\n                /* \"#utility.yul\":7472:7580   */\n            tag_108:\n                /* \"#utility.yul\":7549:7573   */\n              tag_218\n                /* \"#utility.yul\":7567:7572   */\n              dup2\n                /* \"#utility.yul\":7549:7573   */\n              tag_83\n              jump\t// in\n            tag_218:\n                /* \"#utility.yul\":7544:7547   */\n              dup3\n                /* \"#utility.yul\":7537:7574   */\n              mstore\n                /* \"#utility.yul\":7472:7580   */\n              pop\n              pop\n              jump\t// out\n                /* \"#utility.yul\":7586:7685   */\n            tag_109:\n                /* \"#utility.yul\":7657:7678   */\n              tag_220\n                /* \"#utility.yul\":7672:7677   */\n              dup2\n                /* \"#utility.yul\":7657:7678   */\n              tag_92\n              jump\t// in\n            tag_220:\n                /* \"#utility.yul\":7652:7655   */\n              dup3\n                /* \"#utility.yul\":7645:7679   */\n              mstore\n                /* \"#utility.yul\":7586:7685   */\n              pop\n              pop\n              jump\t// out\n                /* \"#utility.yul\":7761:8540   */\n            tag_110:\n                /* \"#utility.yul\":7872:7875   */\n              0x00\n                /* \"#utility.yul\":7908:7912   */\n              0x60\n                /* \"#utility.yul\":7903:7906   */\n              dup4\n                /* \"#utility.yul\":7899:7913   */\n              add\n                /* \"#utility.yul\":7999:8003   */\n              0x00\n                /* \"#utility.yul\":7992:7997   */\n              dup4\n                /* \"#utility.yul\":7988:8004   */\n              add\n                /* \"#utility.yul\":7982:8005   */\n              mload\n                /* \"#utility.yul\":8052:8055   */\n              dup5\n                /* \"#utility.yul\":8046:8050   */\n              dup3\n                /* \"#utility.yul\":8042:8056   */\n              sub\n                /* \"#utility.yul\":8035:8039   */\n              0x00\n                /* \"#utility.yul\":8030:8033   */\n              dup7\n                /* \"#utility.yul\":8026:8040   */\n              add\n                /* \"#utility.yul\":8019:8057   */\n              mstore\n                /* \"#utility.yul\":8078:8151   */\n              tag_222\n                /* \"#utility.yul\":8146:8150   */\n              dup3\n                /* \"#utility.yul\":8132:8144   */\n              dup3\n                /* \"#utility.yul\":8078:8151   */\n              tag_107\n              jump\t// in\n            tag_222:\n                /* \"#utility.yul\":8070:8151   */\n              swap2\n              pop\n                /* \"#utility.yul\":7923:8162   */\n              pop\n                /* \"#utility.yul\":8249:8253   */\n              0x20\n                /* \"#utility.yul\":8242:8247   */\n              dup4\n                /* \"#utility.yul\":8238:8254   */\n              add\n                /* \"#utility.yul\":8232:8255   */\n              mload\n                /* \"#utility.yul\":8268:8331   */\n              tag_223\n                /* \"#utility.yul\":8325:8329   */\n              0x20\n                /* \"#utility.yul\":8320:8323   */\n              dup7\n                /* \"#utility.yul\":8316:8330   */\n              add\n                /* \"#utility.yul\":8302:8314   */\n              dup3\n                /* \"#utility.yul\":8268:8331   */\n              tag_108\n              jump\t// in\n            tag_223:\n                /* \"#utility.yul\":8172:8341   */\n              pop\n                /* \"#utility.yul\":8427:8431   */\n              0x40\n                /* \"#utility.yul\":8420:8425   */\n              dup4\n                /* \"#utility.yul\":8416:8432   */\n              add\n                /* \"#utility.yul\":8410:8433   */\n              mload\n                /* \"#utility.yul\":8446:8503   */\n              tag_224\n                /* \"#utility.yul\":8497:8501   */\n              0x40\n                /* \"#utility.yul\":8492:8495   */\n              dup7\n                /* \"#utility.yul\":8488:8502   */\n              add\n                /* \"#utility.yul\":8474:8486   */\n              dup3\n                /* \"#utility.yul\":8446:8503   */\n              tag_109\n              jump\t// in\n            tag_224:\n                /* \"#utility.yul\":8351:8513   */\n              pop\n                /* \"#utility.yul\":8530:8534   */\n              dup1\n                /* \"#utility.yul\":8523:8534   */\n              swap2\n              pop\n                /* \"#utility.yul\":7877:8540   */\n              pop\n                /* \"#utility.yul\":7761:8540   */\n              swap3\n              swap2\n              pop\n              pop\n              jump\t// out\n                /* \"#utility.yul\":8546:8806   */\n            tag_111:\n                /* \"#utility.yul\":8667:8677   */\n              0x00\n                /* \"#utility.yul\":8702:8800   */\n              tag_226\n                /* \"#utility.yul\":8796:8799   */\n              dup4\n                /* \"#utility.yul\":8788:8794   */\n              dup4\n                /* \"#utility.yul\":8702:8800   */\n              tag_110\n              jump\t// in\n            tag_226:\n                /* \"#utility.yul\":8688:8800   */\n              swap1\n              pop\n                /* \"#utility.yul\":8546:8806   */\n              swap3\n              swap2\n              pop\n              pop\n              jump\t// out\n                /* \"#utility.yul\":8812:8951   */\n            tag_112:\n                /* \"#utility.yul\":8908:8912   */\n              0x00\n                /* \"#utility.yul\":8940:8944   */\n              0x20\n                /* \"#utility.yul\":8935:8938   */\n              dup3\n                /* \"#utility.yul\":8931:8945   */\n              add\n                /* \"#utility.yul\":8923:8945   */\n              swap1\n              pop\n                /* \"#utility.yul\":8812:8951   */\n              swap2\n              swap1\n              pop\n              jump\t// out\n                /* \"#utility.yul\":9031:10150   */\n            tag_113:\n                /* \"#utility.yul\":9202:9205   */\n              0x00\n                /* \"#utility.yul\":9231:9311   */\n              tag_229\n                /* \"#utility.yul\":9305:9310   */\n              dup3\n                /* \"#utility.yul\":9231:9311   */\n              tag_103\n              jump\t// in\n            tag_229:\n                /* \"#utility.yul\":9327:9439   */\n              tag_230\n                /* \"#utility.yul\":9432:9438   */\n              dup2\n                /* \"#utility.yul\":9427:9430   */\n              dup6\n                /* \"#utility.yul\":9327:9439   */\n              tag_104\n              jump\t// in\n            tag_230:\n                /* \"#utility.yul\":9320:9439   */\n              swap4\n              pop\n                /* \"#utility.yul\":9465:9468   */\n              dup4\n                /* \"#utility.yul\":9510:9514   */\n              0x20\n                /* \"#utility.yul\":9502:9508   */\n              dup3\n                /* \"#utility.yul\":9498:9515   */\n              mul\n                /* \"#utility.yul\":9493:9496   */\n              dup6\n                /* \"#utility.yul\":9489:9516   */\n              add\n                /* \"#utility.yul\":9540:9622   */\n              tag_231\n                /* \"#utility.yul\":9616:9621   */\n              dup6\n                /* \"#utility.yul\":9540:9622   */\n              tag_105\n              jump\t// in\n            tag_231:\n                /* \"#utility.yul\":9645:9652   */\n              dup1\n                /* \"#utility.yul\":9676:9677   */\n              0x00\n                /* \"#utility.yul\":9661:10105   */\n            tag_232:\n                /* \"#utility.yul\":9686:9692   */\n              dup6\n                /* \"#utility.yul\":9683:9684   */\n              dup2\n                /* \"#utility.yul\":9680:9693   */\n              lt\n                /* \"#utility.yul\":9661:10105   */\n              iszero\n              tag_234\n              jumpi\n                /* \"#utility.yul\":9757:9766   */\n              dup5\n                /* \"#utility.yul\":9751:9755   */\n              dup5\n                /* \"#utility.yul\":9747:9767   */\n              sub\n                /* \"#utility.yul\":9742:9745   */\n              dup10\n                /* \"#utility.yul\":9735:9768   */\n              mstore\n                /* \"#utility.yul\":9808:9814   */\n              dup2\n                /* \"#utility.yul\":9802:9815   */\n              mload\n                /* \"#utility.yul\":9836:9952   */\n              tag_235\n                /* \"#utility.yul\":9947:9951   */\n              dup6\n                /* \"#utility.yul\":9932:9945   */\n              dup3\n                /* \"#utility.yul\":9836:9952   */\n              tag_111\n              jump\t// in\n            tag_235:\n                /* \"#utility.yul\":9828:9952   */\n              swap5\n              pop\n                /* \"#utility.yul\":9975:10061   */\n              tag_236\n                /* \"#utility.yul\":10054:10060   */\n              dup4\n                /* \"#utility.yul\":9975:10061   */\n              tag_112\n              jump\t// in\n            tag_236:\n                /* \"#utility.yul\":9965:10061   */\n              swap3\n              pop\n                /* \"#utility.yul\":10090:10094   */\n              0x20\n                /* \"#utility.yul\":10085:10088   */\n              dup11\n                /* \"#utility.yul\":10081:10095   */\n              add\n                /* \"#utility.yul\":10074:10095   */\n              swap10\n              pop\n                /* \"#utility.yul\":9721:10105   */\n              pop\n                /* \"#utility.yul\":9708:9709   */\n              0x01\n                /* \"#utility.yul\":9705:9706   */\n              dup2\n                /* \"#utility.yul\":9701:9710   */\n              add\n                /* \"#utility.yul\":9696:9710   */\n              swap1\n              pop\n                /* \"#utility.yul\":9661:10105   */\n              jump(tag_232)\n            tag_234:\n                /* \"#utility.yul\":9665:9679   */\n              pop\n                /* \"#utility.yul\":10121:10125   */\n              dup3\n                /* \"#utility.yul\":10114:10125   */\n              swap8\n              pop\n                /* \"#utility.yul\":10141:10144   */\n              dup8\n                /* \"#utility.yul\":10134:10144   */\n              swap6\n              pop\n                /* \"#utility.yul\":9207:10150   */\n              pop\n              pop\n              pop\n              pop\n              pop\n                /* \"#utility.yul\":9031:10150   */\n              swap3\n              swap2\n              pop\n              pop\n              jump\t// out\n                /* \"#utility.yul\":10156:10633   */\n            tag_26:\n                /* \"#utility.yul\":10351:10355   */\n              0x00\n                /* \"#utility.yul\":10389:10391   */\n              0x20\n                /* \"#utility.yul\":10378:10387   */\n              dup3\n                /* \"#utility.yul\":10374:10392   */\n              add\n                /* \"#utility.yul\":10366:10392   */\n              swap1\n              pop\n                /* \"#utility.yul\":10438:10447   */\n              dup2\n                /* \"#utility.yul\":10432:10436   */\n              dup2\n                /* \"#utility.yul\":10428:10448   */\n              sub\n                /* \"#utility.yul\":10424:10425   */\n              0x00\n                /* \"#utility.yul\":10413:10422   */\n              dup4\n                /* \"#utility.yul\":10409:10426   */\n              add\n                /* \"#utility.yul\":10402:10449   */\n              mstore\n                /* \"#utility.yul\":10466:10626   */\n              tag_238\n                /* \"#utility.yul\":10621:10625   */\n              dup2\n                /* \"#utility.yul\":10612:10618   */\n              dup5\n                /* \"#utility.yul\":10466:10626   */\n              tag_113\n              jump\t// in\n            tag_238:\n                /* \"#utility.yul\":10458:10626   */\n              swap1\n              pop\n                /* \"#utility.yul\":10156:10633   */\n              swap3\n              swap2\n              pop\n              pop\n              jump\t// out\n                /* \"#utility.yul\":10639:10968   */\n            tag_29:\n                /* \"#utility.yul\":10698:10704   */\n              0x00\n                /* \"#utility.yul\":10747:10749   */\n              0x20\n                /* \"#utility.yul\":10735:10744   */\n              dup3\n                /* \"#utility.yul\":10726:10733   */\n              dup5\n                /* \"#utility.yul\":10722:10745   */\n              sub\n                /* \"#utility.yul\":10718:10750   */\n              slt\n                /* \"#utility.yul\":10715:10834   */\n              iszero\n              tag_240\n              jumpi\n                /* \"#utility.yul\":10753:10832   */\n              tag_241\n              tag_77\n              jump\t// in\n            tag_241:\n                /* \"#utility.yul\":10715:10834   */\n            tag_240:\n                /* \"#utility.yul\":10873:10874   */\n              0x00\n                /* \"#utility.yul\":10898:10951   */\n              tag_242\n                /* \"#utility.yul\":10943:10950   */\n              dup5\n                /* \"#utility.yul\":10934:10940   */\n              dup3\n                /* \"#utility.yul\":10923:10932   */\n              dup6\n                /* \"#utility.yul\":10919:10941   */\n              add\n                /* \"#utility.yul\":10898:10951   */\n              tag_85\n              jump\t// in\n            tag_242:\n                /* \"#utility.yul\":10888:10951   */\n              swap2\n              pop\n                /* \"#utility.yul\":10844:10961   */\n              pop\n                /* \"#utility.yul\":10639:10968   */\n              swap3\n              swap2\n              pop\n              pop\n              jump\t// out\n                /* \"#utility.yul\":10974:11154   */\n            tag_114:\n                /* \"#utility.yul\":11022:11099   */\n              0x4e487b7100000000000000000000000000000000000000000000000000000000\n                /* \"#utility.yul\":11019:11020   */\n              0x00\n                /* \"#utility.yul\":11012:11100   */\n              mstore\n                /* \"#utility.yul\":11119:11123   */\n              0x22\n                /* \"#utility.yul\":11116:11117   */\n              0x04\n                /* \"#utility.yul\":11109:11124   */\n              mstore\n                /* \"#utility.yul\":11143:11147   */\n              0x24\n                /* \"#utility.yul\":11140:11141   */\n              0x00\n                /* \"#utility.yul\":11133:11148   */\n              revert\n                /* \"#utility.yul\":11160:11480   */\n            tag_35:\n                /* \"#utility.yul\":11204:11210   */\n              0x00\n                /* \"#utility.yul\":11241:11242   */\n              0x02\n                /* \"#utility.yul\":11235:11239   */\n              dup3\n                /* \"#utility.yul\":11231:11243   */\n              div\n                /* \"#utility.yul\":11221:11243   */\n              swap1\n              pop\n                /* \"#utility.yul\":11288:11289   */\n              0x01\n                /* \"#utility.yul\":11282:11286   */\n              dup3\n                /* \"#utility.yul\":11278:11290   */\n              and\n                /* \"#utility.yul\":11309:11327   */\n              dup1\n                /* \"#utility.yul\":11299:11380   */\n              tag_245\n              jumpi\n                /* \"#utility.yul\":11365:11369   */\n              0x7f\n                /* \"#utility.yul\":11357:11363   */\n              dup3\n                /* \"#utility.yul\":11353:11370   */\n              and\n                /* \"#utility.yul\":11343:11370   */\n              swap2\n              pop\n                /* \"#utility.yul\":11299:11380   */\n            tag_245:\n                /* \"#utility.yul\":11427:11429   */\n              0x20\n                /* \"#utility.yul\":11419:11425   */\n              dup3\n                /* \"#utility.yul\":11416:11430   */\n              lt\n                /* \"#utility.yul\":11396:11414   */\n              dup2\n                /* \"#utility.yul\":11393:11431   */\n              sub\n                /* \"#utility.yul\":11390:11474   */\n              tag_246\n              jumpi\n                /* \"#utility.yul\":11446:11464   */\n              tag_247\n              tag_114\n              jump\t// in\n            tag_247:\n                /* \"#utility.yul\":11390:11474   */\n            tag_246:\n                /* \"#utility.yul\":11211:11480   */\n              pop\n                /* \"#utility.yul\":11160:11480   */\n              swap2\n              swap1\n              pop\n              jump\t// out\n                /* \"#utility.yul\":11486:11627   */\n            tag_115:\n                /* \"#utility.yul\":11535:11539   */\n              0x00\n                /* \"#utility.yul\":11558:11561   */\n              dup2\n                /* \"#utility.yul\":11550:11561   */\n              swap1\n              pop\n                /* \"#utility.yul\":11581:11584   */\n              dup2\n                /* \"#utility.yul\":11578:11579   */\n              0x00\n                /* \"#utility.yul\":11571:11585   */\n              mstore\n                /* \"#utility.yul\":11615:11619   */\n              0x20\n                /* \"#utility.yul\":11612:11613   */\n              0x00\n                /* \"#utility.yul\":11602:11620   */\n              keccak256\n                /* \"#utility.yul\":11594:11620   */\n              swap1\n              pop\n                /* \"#utility.yul\":11486:11627   */\n              swap2\n              swap1\n              pop\n              jump\t// out\n                /* \"#utility.yul\":11633:11726   */\n            tag_116:\n                /* \"#utility.yul\":11670:11676   */\n              0x00\n                /* \"#utility.yul\":11717:11719   */\n              0x20\n                /* \"#utility.yul\":11712:11714   */\n              0x1f\n                /* \"#utility.yul\":11705:11710   */\n              dup4\n                /* \"#utility.yul\":11701:11715   */\n              add\n                /* \"#utility.yul\":11697:11720   */\n              div\n                /* \"#utility.yul\":11687:11720   */\n              swap1\n              pop\n                /* \"#utility.yul\":11633:11726   */\n              swap2\n              swap1\n              pop\n              jump\t// out\n                /* \"#utility.yul\":11732:11839   */\n            tag_117:\n                /* \"#utility.yul\":11776:11784   */\n              0x00\n                /* \"#utility.yul\":11826:11831   */\n              dup3\n                /* \"#utility.yul\":11820:11824   */\n              dup3\n                /* \"#utility.yul\":11816:11832   */\n              shl\n                /* \"#utility.yul\":11795:11832   */\n              swap1\n              pop\n                /* \"#utility.yul\":11732:11839   */\n              swap3\n              swap2\n              pop\n              pop\n              jump\t// out\n                /* \"#utility.yul\":11845:12238   */\n            tag_118:\n                /* \"#utility.yul\":11914:11920   */\n              0x00\n                /* \"#utility.yul\":11964:11965   */\n              0x08\n                /* \"#utility.yul\":11952:11962   */\n              dup4\n                /* \"#utility.yul\":11948:11966   */\n              mul\n                /* \"#utility.yul\":11987:12084   */\n              tag_252\n                /* \"#utility.yul\":12017:12083   */\n              0xffffffffffffffffffffffffffffffffffffffffffffffffffffffffffffffff\n                /* \"#utility.yul\":12006:12015   */\n              dup3\n                /* \"#utility.yul\":11987:12084   */\n              tag_117\n              jump\t// in\n            tag_252:\n                /* \"#utility.yul\":12105:12144   */\n              tag_253\n                /* \"#utility.yul\":12135:12143   */\n              dup7\n                /* \"#utility.yul\":12124:12133   */\n              dup4\n                /* \"#utility.yul\":12105:12144   */\n              tag_117\n              jump\t// in\n            tag_253:\n                /* \"#utility.yul\":12093:12144   */\n              swap6\n              pop\n                /* \"#utility.yul\":12177:12181   */\n              dup1\n                /* \"#utility.yul\":12173:12182   */\n              not\n                /* \"#utility.yul\":12166:12171   */\n              dup5\n                /* \"#utility.yul\":12162:12183   */\n              and\n                /* \"#utility.yul\":12153:12183   */\n              swap4\n              pop\n                /* \"#utility.yul\":12226:12230   */\n              dup1\n                /* \"#utility.yul\":12216:12224   */\n              dup7\n                /* \"#utility.yul\":12212:12231   */\n              and\n                /* \"#utility.yul\":12205:12210   */\n              dup5\n                /* \"#utility.yul\":12202:12232   */\n              or\n                /* \"#utility.yul\":12192:12232   */\n              swap3\n              pop\n                /* \"#utility.yul\":11921:12238   */\n              pop\n              pop\n                /* \"#utility.yul\":11845:12238   */\n              swap4\n              swap3\n              pop\n              pop\n              pop\n              jump\t// out\n                /* \"#utility.yul\":12244:12304   */\n            tag_119:\n                /* \"#utility.yul\":12272:12275   */\n              0x00\n                /* \"#utility.yul\":12293:12298   */\n              dup2\n                /* \"#utility.yul\":12286:12298   */\n              swap1\n              pop\n                /* \"#utility.yul\":12244:12304   */\n              swap2\n              swap1\n              pop\n              jump\t// out\n                /* \"#utility.yul\":12310:12452   */\n            tag_120:\n                /* \"#utility.yul\":12360:12369   */\n              0x00\n                /* \"#utility.yul\":12393:12446   */\n              tag_256\n                /* \"#utility.yul\":12411:12445   */\n              tag_257\n                /* \"#utility.yul\":12420:12444   */\n              tag_258\n                /* \"#utility.yul\":12438:12443   */\n              dup5\n                /* \"#utility.yul\":12420:12444   */\n              tag_83\n              jump\t// in\n            tag_258:\n                /* \"#utility.yul\":12411:12445   */\n              tag_119\n              jump\t// in\n            tag_257:\n                /* \"#utility.yul\":12393:12446   */\n              tag_83\n              jump\t// in\n            tag_256:\n                /* \"#utility.yul\":12380:12446   */\n              swap1\n              pop\n                /* \"#utility.yul\":12310:12452   */\n              swap2\n              swap1\n              pop\n              jump\t// out\n                /* \"#utility.yul\":12458:12533   */\n            tag_121:\n                /* \"#utility.yul\":12501:12504   */\n              0x00\n                /* \"#utility.yul\":12522:12527   */\n              dup2\n                /* \"#utility.yul\":12515:12527   */\n              swap1\n              pop\n                /* \"#utility.yul\":12458:12533   */\n              swap2\n              swap1\n              pop\n              jump\t// out\n                /* \"#utility.yul\":12539:12808   */\n            tag_122:\n                /* \"#utility.yul\":12649:12688   */\n              tag_261\n                /* \"#utility.yul\":12680:12687   */\n              dup4\n                /* \"#utility.yul\":12649:12688   */\n              tag_120\n              jump\t// in\n            tag_261:\n                /* \"#utility.yul\":12710:12801   */\n              tag_262\n                /* \"#utility.yul\":12759:12800   */\n              tag_263\n                /* \"#utility.yul\":12783:12799   */\n              dup3\n                /* \"#utility.yul\":12759:12800   */\n              tag_121\n              jump\t// in\n            tag_263:\n                /* \"#utility.yul\":12751:12757   */\n              dup5\n                /* \"#utility.yul\":12744:12748   */\n              dup5\n                /* \"#utility.yul\":12738:12749   */\n              sload\n                /* \"#utility.yul\":12710:12801   */\n              tag_118\n              jump\t// in\n            tag_262:\n                /* \"#utility.yul\":12704:12708   */\n              dup3\n                /* \"#utility.yul\":12697:12802   */\n              sstore\n                /* \"#utility.yul\":12615:12808   */\n              pop\n                /* \"#utility.yul\":12539:12808   */\n              pop\n              pop\n              pop\n              jump\t// out\n                /* \"#utility.yul\":12814:12887   */\n            tag_123:\n                /* \"#utility.yul\":12859:12862   */\n              0x00\n                /* \"#utility.yul\":12814:12887   */\n              swap1\n              jump\t// out\n                /* \"#utility.yul\":12893:13082   */\n            tag_124:\n                /* \"#utility.yul\":12970:13002   */\n              tag_266\n              tag_123\n              jump\t// in\n            tag_266:\n                /* \"#utility.yul\":13011:13076   */\n              tag_267\n                /* \"#utility.yul\":13069:13075   */\n              dup2\n                /* \"#utility.yul\":13061:13067   */\n              dup5\n                /* \"#utility.yul\":13055:13059   */\n              dup5\n                /* \"#utility.yul\":13011:13076   */\n              tag_122\n              jump\t// in\n            tag_267:\n                /* \"#utility.yul\":12946:13082   */\n              pop\n                /* \"#utility.yul\":12893:13082   */\n              pop\n              pop\n              jump\t// out\n                /* \"#utility.yul\":13088:13274   */\n            tag_125:\n                /* \"#utility.yul\":13148:13268   */\n            tag_269:\n                /* \"#utility.yul\":13165:13168   */\n              dup2\n                /* \"#utility.yul\":13158:13163   */\n              dup2\n                /* \"#utility.yul\":13155:13169   */\n              lt\n                /* \"#utility.yul\":13148:13268   */\n              iszero\n              tag_271\n              jumpi\n                /* \"#utility.yul\":13219:13258   */\n              tag_272\n                /* \"#utility.yul\":13256:13257   */\n              0x00\n                /* \"#utility.yul\":13249:13254   */\n              dup3\n                /* \"#utility.yul\":13219:13258   */\n              tag_124\n              jump\t// in\n            tag_272:\n                /* \"#utility.yul\":13192:13193   */\n              0x01\n                /* \"#utility.yul\":13185:13190   */\n              dup2\n                /* \"#utility.yul\":13181:13194   */\n              add\n                /* \"#utility.yul\":13172:13194   */\n              swap1\n              pop\n                /* \"#utility.yul\":13148:13268   */\n              jump(tag_269)\n            tag_271:\n                /* \"#utility.yul\":13088:13274   */\n              pop\n              pop\n              jump\t// out\n                /* \"#utility.yul\":13280:13823   */\n            tag_126:\n                /* \"#utility.yul\":13381:13383   */\n              0x1f\n                /* \"#utility.yul\":13376:13379   */\n              dup3\n                /* \"#utility.yul\":13373:13384   */\n              gt\n                /* \"#utility.yul\":13370:13816   */\n              iszero\n              tag_274\n              jumpi\n                /* \"#utility.yul\":13415:13453   */\n              tag_275\n                /* \"#utility.yul\":13447:13452   */\n              dup2\n                /* \"#utility.yul\":13415:13453   */\n              tag_115\n              jump\t// in\n            tag_275:\n                /* \"#utility.yul\":13499:13528   */\n              tag_276\n                /* \"#utility.yul\":13517:13527   */\n              dup5\n                /* \"#utility.yul\":13499:13528   */\n              tag_116\n              jump\t// in\n            tag_276:\n                /* \"#utility.yul\":13489:13497   */\n              dup2\n                /* \"#utility.yul\":13485:13529   */\n              add\n                /* \"#utility.yul\":13682:13684   */\n              0x20\n                /* \"#utility.yul\":13670:13680   */\n              dup6\n                /* \"#utility.yul\":13667:13685   */\n              lt\n                /* \"#utility.yul\":13664:13713   */\n              iszero\n              tag_277\n              jumpi\n                /* \"#utility.yul\":13703:13711   */\n              dup2\n                /* \"#utility.yul\":13688:13711   */\n              swap1\n              pop\n                /* \"#utility.yul\":13664:13713   */\n            tag_277:\n                /* \"#utility.yul\":13726:13806   */\n              tag_278\n                /* \"#utility.yul\":13782:13804   */\n              tag_279\n                /* \"#utility.yul\":13800:13803   */\n              dup6\n                /* \"#utility.yul\":13782:13804   */\n              tag_116\n              jump\t// in\n            tag_279:\n                /* \"#utility.yul\":13772:13780   */\n              dup4\n                /* \"#utility.yul\":13768:13805   */\n              add\n                /* \"#utility.yul\":13755:13766   */\n              dup3\n                /* \"#utility.yul\":13726:13806   */\n              tag_125\n              jump\t// in\n            tag_278:\n                /* \"#utility.yul\":13385:13816   */\n              pop\n              pop\n                /* \"#utility.yul\":13370:13816   */\n            tag_274:\n                /* \"#utility.yul\":13280:13823   */\n              pop\n              pop\n              pop\n              jump\t// out\n                /* \"#utility.yul\":13829:13946   */\n            tag_127:\n                /* \"#utility.yul\":13883:13891   */\n              0x00\n                /* \"#utility.yul\":13933:13938   */\n              dup3\n                /* \"#utility.yul\":13927:13931   */\n              dup3\n                /* \"#utility.yul\":13923:13939   */\n              shr\n                /* \"#utility.yul\":13902:13939   */\n              swap1\n              pop\n                /* \"#utility.yul\":13829:13946   */\n              swap3\n              swap2\n              pop\n              pop\n              jump\t// out\n                /* \"#utility.yul\":13952:14121   */\n            tag_128:\n                /* \"#utility.yul\":13996:14002   */\n              0x00\n                /* \"#utility.yul\":14029:14080   */\n              tag_282\n                /* \"#utility.yul\":14077:14078   */\n              0x00\n                /* \"#utility.yul\":14073:14079   */\n              not\n                /* \"#utility.yul\":14065:14070   */\n              dup5\n                /* \"#utility.yul\":14062:14063   */\n              0x08\n                /* \"#utility.yul\":14058:14071   */\n              mul\n                /* \"#utility.yul\":14029:14080   */\n              tag_127\n              jump\t// in\n            tag_282:\n                /* \"#utility.yul\":14025:14081   */\n              not\n                /* \"#utility.yul\":14110:14114   */\n              dup1\n                /* \"#utility.yul\":14104:14108   */\n              dup4\n                /* \"#utility.yul\":14100:14115   */\n              and\n                /* \"#utility.yul\":14090:14115   */\n              swap2\n              pop\n                /* \"#utility.yul\":14003:14121   */\n              pop\n                /* \"#utility.yul\":13952:14121   */\n              swap3\n              swap2\n              pop\n              pop\n              jump\t// out\n                /* \"#utility.yul\":14126:14421   */\n            tag_129:\n                /* \"#utility.yul\":14202:14206   */\n              0x00\n                /* \"#utility.yul\":14348:14377   */\n              tag_284\n                /* \"#utility.yul\":14373:14376   */\n              dup4\n                /* \"#utility.yul\":14367:14371   */\n              dup4\n                /* \"#utility.yul\":14348:14377   */\n              tag_128\n              jump\t// in\n            tag_284:\n                /* \"#utility.yul\":14340:14377   */\n              swap2\n              pop\n                /* \"#utility.yul\":14410:14413   */\n              dup3\n                /* \"#utility.yul\":14407:14408   */\n              0x02\n                /* \"#utility.yul\":14403:14414   */\n              mul\n                /* \"#utility.yul\":14397:14401   */\n              dup3\n                /* \"#utility.yul\":14394:14415   */\n              or\n                /* \"#utility.yul\":14386:14415   */\n              swap1\n              pop\n                /* \"#utility.yul\":14126:14421   */\n              swap3\n              swap2\n              pop\n              pop\n              jump\t// out\n                /* \"#utility.yul\":14426:15821   */\n            tag_43:\n                /* \"#utility.yul\":14543:14580   */\n              tag_286\n                /* \"#utility.yul\":14576:14579   */\n              dup3\n                /* \"#utility.yul\":14543:14580   */\n              tag_86\n              jump\t// in\n            tag_286:\n                /* \"#utility.yul\":14645:14663   */\n              0xffffffffffffffff\n                /* \"#utility.yul\":14637:14643   */\n              dup2\n                /* \"#utility.yul\":14634:14664   */\n              gt\n                /* \"#utility.yul\":14631:14687   */\n              iszero\n              tag_287\n              jumpi\n                /* \"#utility.yul\":14667:14685   */\n              tag_288\n              tag_96\n              jump\t// in\n            tag_288:\n                /* \"#utility.yul\":14631:14687   */\n            tag_287:\n                /* \"#utility.yul\":14711:14749   */\n              tag_289\n                /* \"#utility.yul\":14743:14747   */\n              dup3\n                /* \"#utility.yul\":14737:14748   */\n              sload\n                /* \"#utility.yul\":14711:14749   */\n              tag_35\n              jump\t// in\n            tag_289:\n                /* \"#utility.yul\":14796:14863   */\n              tag_290\n                /* \"#utility.yul\":14856:14862   */\n              dup3\n                /* \"#utility.yul\":14848:14854   */\n              dup3\n                /* \"#utility.yul\":14842:14846   */\n              dup6\n                /* \"#utility.yul\":14796:14863   */\n              tag_126\n              jump\t// in\n            tag_290:\n                /* \"#utility.yul\":14890:14891   */\n              0x00\n                /* \"#utility.yul\":14914:14918   */\n              0x20\n                /* \"#utility.yul\":14901:14918   */\n              swap1\n              pop\n                /* \"#utility.yul\":14946:14948   */\n              0x1f\n                /* \"#utility.yul\":14938:14944   */\n              dup4\n                /* \"#utility.yul\":14935:14949   */\n              gt\n                /* \"#utility.yul\":14963:14964   */\n              0x01\n                /* \"#utility.yul\":14958:15576   */\n              dup2\n              eq\n              tag_292\n              jumpi\n                /* \"#utility.yul\":15620:15621   */\n              0x00\n                /* \"#utility.yul\":15637:15643   */\n              dup5\n                /* \"#utility.yul\":15634:15711   */\n              iszero\n              tag_293\n              jumpi\n                /* \"#utility.yul\":15686:15695   */\n              dup3\n                /* \"#utility.yul\":15681:15684   */\n              dup8\n                /* \"#utility.yul\":15677:15696   */\n              add\n                /* \"#utility.yul\":15671:15697   */\n              mload\n                /* \"#utility.yul\":15662:15697   */\n              swap1\n              pop\n                /* \"#utility.yul\":15634:15711   */\n            tag_293:\n                /* \"#utility.yul\":15737:15804   */\n              tag_294\n                /* \"#utility.yul\":15797:15803   */\n              dup6\n                /* \"#utility.yul\":15790:15795   */\n              dup3\n                /* \"#utility.yul\":15737:15804   */\n              tag_129\n              jump\t// in\n            tag_294:\n                /* \"#utility.yul\":15731:15735   */\n              dup7\n                /* \"#utility.yul\":15724:15805   */\n              sstore\n                /* \"#utility.yul\":15593:15815   */\n              pop\n                /* \"#utility.yul\":14928:15815   */\n              jump(tag_291)\n                /* \"#utility.yul\":14958:15576   */\n            tag_292:\n                /* \"#utility.yul\":15010:15014   */\n              0x1f\n                /* \"#utility.yul\":15006:15015   */\n              not\n                /* \"#utility.yul\":14998:15004   */\n              dup5\n                /* \"#utility.yul\":14994:15016   */\n              and\n                /* \"#utility.yul\":15044:15081   */\n              tag_295\n                /* \"#utility.yul\":15076:15080   */\n              dup7\n                /* \"#utility.yul\":15044:15081   */\n              tag_115\n              jump\t// in\n            tag_295:\n                /* \"#utility.yul\":15103:15104   */\n              0x00\n                /* \"#utility.yul\":15117:15325   */\n            tag_296:\n                /* \"#utility.yul\":15131:15138   */\n              dup3\n                /* \"#utility.yul\":15128:15129   */\n              dup2\n                /* \"#utility.yul\":15125:15139   */\n              lt\n                /* \"#utility.yul\":15117:15325   */\n              iszero\n              tag_298\n              jumpi\n                /* \"#utility.yul\":15210:15219   */\n              dup5\n                /* \"#utility.yul\":15205:15208   */\n              dup10\n                /* \"#utility.yul\":15201:15220   */\n              add\n                /* \"#utility.yul\":15195:15221   */\n              mload\n                /* \"#utility.yul\":15187:15193   */\n              dup3\n                /* \"#utility.yul\":15180:15222   */\n              sstore\n                /* \"#utility.yul\":15261:15262   */\n              0x01\n                /* \"#utility.yul\":15253:15259   */\n              dup3\n                /* \"#utility.yul\":15249:15263   */\n              add\n                /* \"#utility.yul\":15239:15263   */\n              swap2\n              pop\n                /* \"#utility.yul\":15308:15310   */\n              0x20\n                /* \"#utility.yul\":15297:15306   */\n              dup6\n                /* \"#utility.yul\":15293:15311   */\n              add\n                /* \"#utility.yul\":15280:15311   */\n              swap5\n              pop\n                /* \"#utility.yul\":15154:15158   */\n              0x20\n                /* \"#utility.yul\":15151:15152   */\n              dup2\n                /* \"#utility.yul\":15147:15159   */\n              add\n                /* \"#utility.yul\":15142:15159   */\n              swap1\n              pop\n                /* \"#utility.yul\":15117:15325   */\n              jump(tag_296)\n            tag_298:\n                /* \"#utility.yul\":15353:15359   */\n              dup7\n                /* \"#utility.yul\":15344:15351   */\n              dup4\n                /* \"#utility.yul\":15341:15360   */\n              lt\n                /* \"#utility.yul\":15338:15517   */\n              iszero\n              tag_299\n              jumpi\n                /* \"#utility.yul\":15411:15420   */\n              dup5\n                /* \"#utility.yul\":15406:15409   */\n              dup10\n                /* \"#utility.yul\":15402:15421   */\n              add\n                /* \"#utility.yul\":15396:15422   */\n              mload\n                /* \"#utility.yul\":15454:15502   */\n              tag_300\n                /* \"#utility.yul\":15496:15500   */\n              0x1f\n                /* \"#utility.yul\":15488:15494   */\n              dup10\n                /* \"#utility.yul\":15484:15501   */\n              and\n                /* \"#utility.yul\":15473:15482   */\n              dup3\n                /* \"#utility.yul\":15454:15502   */\n              tag_128\n              jump\t// in\n            tag_300:\n                /* \"#utility.yul\":15446:15452   */\n              dup4\n                /* \"#utility.yul\":15439:15503   */\n              sstore\n                /* \"#utility.yul\":15361:15517   */\n              pop\n                /* \"#utility.yul\":15338:15517   */\n            tag_299:\n                /* \"#utility.yul\":15563:15564   */\n              0x01\n                /* \"#utility.yul\":15559:15560   */\n              0x02\n                /* \"#utility.yul\":15551:15557   */\n              dup9\n                /* \"#utility.yul\":15547:15561   */\n              mul\n                /* \"#utility.yul\":15543:15565   */\n              add\n                /* \"#utility.yul\":15537:15541   */\n              dup9\n                /* \"#utility.yul\":15530:15566   */\n              sstore\n                /* \"#utility.yul\":14965:15576   */\n              pop\n              pop\n              pop\n                /* \"#utility.yul\":14928:15815   */\n            tag_291:\n              pop\n                /* \"#utility.yul\":14518:15821   */\n              pop\n              pop\n              pop\n                /* \"#utility.yul\":14426:15821   */\n              pop\n              pop\n              jump\t// out\n                /* \"#utility.yul\":15827:16250   */\n            tag_45:\n                /* \"#utility.yul\":15968:15972   */\n              0x00\n                /* \"#utility.yul\":16006:16008   */\n              0x40\n                /* \"#utility.yul\":15995:16004   */\n              dup3\n                /* \"#utility.yul\":15991:16009   */\n              add\n                /* \"#utility.yul\":15983:16009   */\n              swap1\n              pop\n                /* \"#utility.yul\":16055:16064   */\n              dup2\n                /* \"#utility.yul\":16049:16053   */\n              dup2\n                /* \"#utility.yul\":16045:16065   */\n              sub\n                /* \"#utility.yul\":16041:16042   */\n              0x00\n                /* \"#utility.yul\":16030:16039   */\n              dup4\n                /* \"#utility.yul\":16026:16043   */\n              add\n                /* \"#utility.yul\":16019:16066   */\n              mstore\n                /* \"#utility.yul\":16083:16161   */\n              tag_302\n                /* \"#utility.yul\":16156:16160   */\n              dup2\n                /* \"#utility.yul\":16147:16153   */\n              dup6\n                /* \"#utility.yul\":16083:16161   */\n              tag_90\n              jump\t// in\n            tag_302:\n                /* \"#utility.yul\":16075:16161   */\n              swap1\n              pop\n                /* \"#utility.yul\":16171:16243   */\n              tag_303\n                /* \"#utility.yul\":16239:16241   */\n              0x20\n                /* \"#utility.yul\":16228:16237   */\n              dup4\n                /* \"#utility.yul\":16224:16242   */\n              add\n                /* \"#utility.yul\":16215:16221   */\n              dup5\n                /* \"#utility.yul\":16171:16243   */\n              tag_91\n              jump\t// in\n            tag_303:\n                /* \"#utility.yul\":15827:16250   */\n              swap4\n              swap3\n              pop\n              pop\n              pop\n              jump\t// out\n                /* \"#utility.yul\":16256:16423   */\n            tag_130:\n                /* \"#utility.yul\":16396:16415   */\n              0x496e76616c69642045485220696e646578000000000000000000000000000000\n                /* \"#utility.yul\":16392:16393   */\n              0x00\n                /* \"#utility.yul\":16384:16390   */\n              dup3\n                /* \"#utility.yul\":16380:16394   */\n              add\n                /* \"#utility.yul\":16373:16416   */\n              mstore\n                /* \"#utility.yul\":16256:16423   */\n              pop\n              jump\t// out\n                /* \"#utility.yul\":16429:16795   */\n            tag_131:\n                /* \"#utility.yul\":16571:16574   */\n              0x00\n                /* \"#utility.yul\":16592:16659   */\n              tag_306\n                /* \"#utility.yul\":16656:16658   */\n              0x11\n                /* \"#utility.yul\":16651:16654   */\n              dup4\n                /* \"#utility.yul\":16592:16659   */\n              tag_87\n              jump\t// in\n            tag_306:\n                /* \"#utility.yul\":16585:16659   */\n              swap2\n              pop\n                /* \"#utility.yul\":16668:16761   */\n              tag_307\n                /* \"#utility.yul\":16757:16760   */\n              dup3\n                /* \"#utility.yul\":16668:16761   */\n              tag_130\n              jump\t// in\n            tag_307:\n                /* \"#utility.yul\":16786:16788   */\n              0x20\n                /* \"#utility.yul\":16781:16784   */\n              dup3\n                /* \"#utility.yul\":16777:16789   */\n              add\n                /* \"#utility.yul\":16770:16789   */\n              swap1\n              pop\n                /* \"#utility.yul\":16429:16795   */\n              swap2\n              swap1\n              pop\n              jump\t// out\n                /* \"#utility.yul\":16801:17220   */\n            tag_49:\n                /* \"#utility.yul\":16967:16971   */\n              0x00\n                /* \"#utility.yul\":17005:17007   */\n              0x20\n                /* \"#utility.yul\":16994:17003   */\n              dup3\n                /* \"#utility.yul\":16990:17008   */\n              add\n                /* \"#utility.yul\":16982:17008   */\n              swap1\n              pop\n                /* \"#utility.yul\":17054:17063   */\n              dup2\n                /* \"#utility.yul\":17048:17052   */\n              dup2\n                /* \"#utility.yul\":17044:17064   */\n              sub\n                /* \"#utility.yul\":17040:17041   */\n              0x00\n                /* \"#utility.yul\":17029:17038   */\n              dup4\n                /* \"#utility.yul\":17025:17042   */\n              add\n                /* \"#utility.yul\":17018:17065   */\n              mstore\n                /* \"#utility.yul\":17082:17213   */\n              tag_309\n                /* \"#utility.yul\":17208:17212   */\n              dup2\n                /* \"#utility.yul\":17082:17213   */\n              tag_131\n              jump\t// in\n            tag_309:\n                /* \"#utility.yul\":17074:17213   */\n              swap1\n              pop\n                /* \"#utility.yul\":16801:17220   */\n              swap2\n              swap1\n              pop\n              jump\t// out\n                /* \"#utility.yul\":17226:17406   */\n            tag_52:\n                /* \"#utility.yul\":17274:17351   */\n              0x4e487b7100000000000000000000000000000000000000000000000000000000\n                /* \"#utility.yul\":17271:17272   */\n              0x00\n                /* \"#utility.yul\":17264:17352   */\n              mstore\n                /* \"#utility.yul\":17371:17375   */\n              0x32\n                /* \"#utility.yul\":17368:17369   */\n              0x04\n                /* \"#utility.yul\":17361:17376   */\n              mstore\n                /* \"#utility.yul\":17395:17399   */\n              0x24\n                /* \"#utility.yul\":17392:17393   */\n              0x00\n                /* \"#utility.yul\":17385:17400   */\n              revert\n                /* \"#utility.yul\":17412:17634   */\n            tag_55:\n                /* \"#utility.yul\":17505:17509   */\n              0x00\n                /* \"#utility.yul\":17543:17545   */\n              0x20\n                /* \"#utility.yul\":17532:17541   */\n              dup3\n                /* \"#utility.yul\":17528:17546   */\n              add\n                /* \"#utility.yul\":17520:17546   */\n              swap1\n              pop\n                /* \"#utility.yul\":17556:17627   */\n              tag_312\n                /* \"#utility.yul\":17624:17625   */\n              0x00\n                /* \"#utility.yul\":17613:17622   */\n              dup4\n                /* \"#utility.yul\":17609:17626   */\n              add\n                /* \"#utility.yul\":17600:17606   */\n              dup5\n                /* \"#utility.yul\":17556:17627   */\n              tag_91\n              jump\t// in\n            tag_312:\n                /* \"#utility.yul\":17412:17634   */\n              swap3\n              swap2\n              pop\n              pop\n              jump\t// out\n\n            auxdata: 0xa264697066735822122039b8acc5e5f2891d91d910d51741d08ac6eb65171f262d18153a9f35ba3c59c664736f6c634300081a0033\n        }\n    }\n\n    auxdata: 0xa2646970667358221220c0c82a1543db68318ed4553a97cbda3129b748a4554815e0d675d3f8d67c896164736f6c634300081a0033\n}\n",
				"bytecode": {
					"linkReferences": {},
					"object": "6080604052348015600e575f80fd5b506121aa8061001c5f395ff3fe608060405234801561000f575f80fd5b5060043610610055575f3560e01c80630544c1dd1461005957806325d1c9fa1461007557806344d89c511461007f57806357b4a12f146100b1578063c104aa5f146100cf575b5f80fd5b610073600480360381019061006e9190610937565b6100ff565b005b61007d610291565b005b610099600480360381019061009491906109b1565b61044e565b6040516100a893929190610a65565b60405180910390f35b6100b9610603565b6040516100c69190610c0f565b60405180910390f35b6100e960048036038101906100e49190610c89565b6107ae565b6040516100f69190610d0f565b60405180910390f35b5f73ffffffffffffffffffffffffffffffffffffffff165f803373ffffffffffffffffffffffffffffffffffffffff1673ffffffffffffffffffffffffffffffffffffffff1681526020019081526020015f205f9054906101000a900473ffffffffffffffffffffffffffffffffffffffff1673ffffffffffffffffffffffffffffffffffffffff16036101c8576040517f08c379a00000000000000000000000000000000000000000000000000000000081526004016101bf90610d72565b60405180910390fd5b5f805f3373ffffffffffffffffffffffffffffffffffffffff1673ffffffffffffffffffffffffffffffffffffffff1681526020019081526020015f205f9054906101000a900473ffffffffffffffffffffffffffffffffffffffff1690508073ffffffffffffffffffffffffffffffffffffffff166375db1a2d836040518263ffffffff1660e01b81526004016102609190610d90565b5f604051808303815f87803b158015610277575f80fd5b505af1158015610289573d5f803e3d5ffd5b505050505050565b5f73ffffffffffffffffffffffffffffffffffffffff165f803373ffffffffffffffffffffffffffffffffffffffff1673ffffffffffffffffffffffffffffffffffffffff1681526020019081526020015f205f9054906101000a900473ffffffffffffffffffffffffffffffffffffffff1673ffffffffffffffffffffffffffffffffffffffff161461035a576040517f08c379a000000000000000000000000000000000000000000000000000000000815260040161035190610dfa565b60405180910390fd5b5f604051610367906107dd565b604051809103905ff080158015610380573d5f803e3d5ffd5b509050805f803373ffffffffffffffffffffffffffffffffffffffff1673ffffffffffffffffffffffffffffffffffffffff1681526020019081526020015f205f6101000a81548173ffffffffffffffffffffffffffffffffffffffff021916908373ffffffffffffffffffffffffffffffffffffffff1602179055503373ffffffffffffffffffffffffffffffffffffffff167ff214ef8cbf1c2523144b02809b5eff4d47a8ebdecc42b1a458d380cbd9dfd068826040516104439190610e27565b60405180910390a250565b60605f805f73ffffffffffffffffffffffffffffffffffffffff165f803373ffffffffffffffffffffffffffffffffffffffff1673ffffffffffffffffffffffffffffffffffffffff1681526020019081526020015f205f9054906101000a900473ffffffffffffffffffffffffffffffffffffffff1673ffffffffffffffffffffffffffffffffffffffff160361051b576040517f08c379a000000000000000000000000000000000000000000000000000000000815260040161051290610d72565b60405180910390fd5b5f805f3373ffffffffffffffffffffffffffffffffffffffff1673ffffffffffffffffffffffffffffffffffffffff1681526020019081526020015f205f9054906101000a900473ffffffffffffffffffffffffffffffffffffffff1690508073ffffffffffffffffffffffffffffffffffffffff1663a127dfbd866040518263ffffffff1660e01b81526004016105b39190610e40565b5f60405180830381865afa1580156105cd573d5f803e3d5ffd5b505050506040513d5f823e3d601f19601f820116820180604052508101906105f59190610f05565b935093509350509193909250565b60605f73ffffffffffffffffffffffffffffffffffffffff165f803373ffffffffffffffffffffffffffffffffffffffff1673ffffffffffffffffffffffffffffffffffffffff1681526020019081526020015f205f9054906101000a900473ffffffffffffffffffffffffffffffffffffffff1673ffffffffffffffffffffffffffffffffffffffff16036106ce576040517f08c379a00000000000000000000000000000000000000000000000000000000081526004016106c590610d72565b60405180910390fd5b5f805f3373ffffffffffffffffffffffffffffffffffffffff1673ffffffffffffffffffffffffffffffffffffffff1681526020019081526020015f205f9054906101000a900473ffffffffffffffffffffffffffffffffffffffff1690508073ffffffffffffffffffffffffffffffffffffffff166398089910336040518263ffffffff1660e01b81526004016107669190610e27565b5f60405180830381865afa158015610780573d5f803e3d5ffd5b505050506040513d5f823e3d601f19601f820116820180604052508101906107a891906110d8565b91505090565b5f602052805f5260405f205f915054906101000a900473ffffffffffffffffffffffffffffffffffffffff1681565b6110558061112083390190565b5f604051905090565b5f80fd5b5f80fd5b5f80fd5b5f80fd5b5f601f19601f8301169050919050565b7f4e487b71000000000000000000000000000000000000000000000000000000005f52604160045260245ffd5b61084982610803565b810181811067ffffffffffffffff8211171561086857610867610813565b5b80604052505050565b5f61087a6107ea565b90506108868282610840565b919050565b5f67ffffffffffffffff8211156108a5576108a4610813565b5b6108ae82610803565b9050602081019050919050565b828183375f83830152505050565b5f6108db6108d68461088b565b610871565b9050828152602081018484840111156108f7576108f66107ff565b5b6109028482856108bb565b509392505050565b5f82601f83011261091e5761091d6107fb565b5b813561092e8482602086016108c9565b91505092915050565b5f6020828403121561094c5761094b6107f3565b5b5f82013567ffffffffffffffff811115610969576109686107f7565b5b6109758482850161090a565b91505092915050565b5f819050919050565b6109908161097e565b811461099a575f80fd5b50565b5f813590506109ab81610987565b92915050565b5f602082840312156109c6576109c56107f3565b5b5f6109d38482850161099d565b91505092915050565b5f81519050919050565b5f82825260208201905092915050565b8281835e5f83830152505050565b5f610a0e826109dc565b610a1881856109e6565b9350610a288185602086016109f6565b610a3181610803565b840191505092915050565b610a458161097e565b82525050565b5f8115159050919050565b610a5f81610a4b565b82525050565b5f6060820190508181035f830152610a7d8186610a04565b9050610a8c6020830185610a3c565b610a996040830184610a56565b949350505050565b5f81519050919050565b5f82825260208201905092915050565b5f819050602082019050919050565b5f82825260208201905092915050565b5f610ae4826109dc565b610aee8185610aca565b9350610afe8185602086016109f6565b610b0781610803565b840191505092915050565b610b1b8161097e565b82525050565b610b2a81610a4b565b82525050565b5f606083015f8301518482035f860152610b4a8282610ada565b9150506020830151610b5f6020860182610b12565b506040830151610b726040860182610b21565b508091505092915050565b5f610b888383610b30565b905092915050565b5f602082019050919050565b5f610ba682610aa1565b610bb08185610aab565b935083602082028501610bc285610abb565b805f5b85811015610bfd5784840389528151610bde8582610b7d565b9450610be983610b90565b925060208a01995050600181019050610bc5565b50829750879550505050505092915050565b5f6020820190508181035f830152610c278184610b9c565b905092915050565b5f73ffffffffffffffffffffffffffffffffffffffff82169050919050565b5f610c5882610c2f565b9050919050565b610c6881610c4e565b8114610c72575f80fd5b50565b5f81359050610c8381610c5f565b92915050565b5f60208284031215610c9e57610c9d6107f3565b5b5f610cab84828501610c75565b91505092915050565b5f819050919050565b5f610cd7610cd2610ccd84610c2f565b610cb4565b610c2f565b9050919050565b5f610ce882610cbd565b9050919050565b5f610cf982610cde565b9050919050565b610d0981610cef565b82525050565b5f602082019050610d225f830184610d00565b92915050565b7f4e6f2073746f7261676520636f6e747261637420666f756e64000000000000005f82015250565b5f610d5c6019836109e6565b9150610d6782610d28565b602082019050919050565b5f6020820190508181035f830152610d8981610d50565b9050919050565b5f6020820190508181035f830152610da88184610a04565b905092915050565b7f53746f7261676520636f6e747261637420616c726561647920657869737473005f82015250565b5f610de4601f836109e6565b9150610def82610db0565b602082019050919050565b5f6020820190508181035f830152610e1181610dd8565b9050919050565b610e2181610c4e565b82525050565b5f602082019050610e3a5f830184610e18565b92915050565b5f602082019050610e535f830184610a3c565b92915050565b5f610e6b610e668461088b565b610871565b905082815260208101848484011115610e8757610e866107ff565b5b610e928482856109f6565b509392505050565b5f82601f830112610eae57610ead6107fb565b5b8151610ebe848260208601610e59565b91505092915050565b5f81519050610ed581610987565b92915050565b610ee481610a4b565b8114610eee575f80fd5b50565b5f81519050610eff81610edb565b92915050565b5f805f60608486031215610f1c57610f1b6107f3565b5b5f84015167ffffffffffffffff811115610f3957610f386107f7565b5b610f4586828701610e9a565b9350506020610f5686828701610ec7565b9250506040610f6786828701610ef1565b9150509250925092565b5f67ffffffffffffffff821115610f8b57610f8a610813565b5b602082029050602081019050919050565b5f80fd5b5f80fd5b5f80fd5b5f60608284031215610fbd57610fbc610fa0565b5b610fc76060610871565b90505f82015167ffffffffffffffff811115610fe657610fe5610fa4565b5b610ff284828501610e9a565b5f83015250602061100584828501610ec7565b602083015250604061101984828501610ef1565b60408301525092915050565b5f61103761103284610f71565b610871565b9050808382526020820190506020840283018581111561105a57611059610f9c565b5b835b818110156110a157805167ffffffffffffffff81111561107f5761107e6107fb565b5b80860161108c8982610fa8565b8552602085019450505060208101905061105c565b5050509392505050565b5f82601f8301126110bf576110be6107fb565b5b81516110cf848260208601611025565b91505092915050565b5f602082840312156110ed576110ec6107f3565b5b5f82015167ffffffffffffffff81111561110a576111096107f7565b5b611116848285016110ab565b9150509291505056fe6080604052348015600e575f80fd5b506110398061001c5f395ff3fe608060405234801561000f575f80fd5b5060043610610055575f3560e01c80635d2f21711461005957806375db1a2d1461008b57806395d3df6e146100a757806398089910146100c3578063a127dfbd146100f3575b5f80fd5b610073600480360381019061006e91906107f4565b610125565b604051610082939291906108cb565b60405180910390f35b6100a560048036038101906100a09190610a33565b6101f6565b005b6100c160048036038101906100bc91906107f4565b610307565b005b6100dd60048036038101906100d89190610a7a565b61044f565b6040516100ea9190610c13565b60405180910390f35b61010d60048036038101906101089190610c33565b61059a565b60405161011c939291906108cb565b60405180910390f35b5f602052815f5260405f20818154811061013d575f80fd5b905f5260205f2090600302015f9150915050805f01805461015d90610c8b565b80601f016020809104026020016040519081016040528092919081815260200182805461018990610c8b565b80156101d45780601f106101ab576101008083540402835291602001916101d4565b820191905f5260205f20905b8154815290600101906020018083116101b757829003601f168201915b505050505090806001015490806002015f9054906101000a900460ff16905083565b5f803373ffffffffffffffffffffffffffffffffffffffff1673ffffffffffffffffffffffffffffffffffffffff1681526020019081526020015f2060405180606001604052808381526020014281526020015f1515815250908060018154018082558091505060019003905f5260205f2090600302015f909190919091505f820151815f0190816102889190610e58565b50602082015181600101556040820151816002015f6101000a81548160ff02191690831515021790555050503373ffffffffffffffffffffffffffffffffffffffff167f8e958d41d44b1a40bbd488ee4c8c903208c6a0c98884bf32aac99d2062f4939182426040516102fc929190610f27565b60405180910390a250565b5f808373ffffffffffffffffffffffffffffffffffffffff1673ffffffffffffffffffffffffffffffffffffffff1681526020019081526020015f20805490508110610388576040517f08c379a000000000000000000000000000000000000000000000000000000000815260040161037f90610f9f565b60405180910390fd5b60015f808473ffffffffffffffffffffffffffffffffffffffff1673ffffffffffffffffffffffffffffffffffffffff1681526020019081526020015f2082815481106103d8576103d7610fbd565b5b905f5260205f2090600302016002015f6101000a81548160ff0219169083151502179055508173ffffffffffffffffffffffffffffffffffffffff167fc7387983c20d3a9bdb6e5ad99882b28a50345109c66873a5a03d92c58cf53f49826040516104439190610fea565b60405180910390a25050565b60605f808373ffffffffffffffffffffffffffffffffffffffff1673ffffffffffffffffffffffffffffffffffffffff1681526020019081526020015f20805480602002602001604051908101604052809291908181526020015f905b8282101561058f578382905f5260205f2090600302016040518060600160405290815f820180546104dc90610c8b565b80601f016020809104026020016040519081016040528092919081815260200182805461050890610c8b565b80156105535780601f1061052a57610100808354040283529160200191610553565b820191905f5260205f20905b81548152906001019060200180831161053657829003601f168201915b5050505050815260200160018201548152602001600282015f9054906101000a900460ff161515151581525050815260200190600101906104ac565b505050509050919050565b60605f805f803373ffffffffffffffffffffffffffffffffffffffff1673ffffffffffffffffffffffffffffffffffffffff1681526020019081526020015f2080549050841061061f576040517f08c379a000000000000000000000000000000000000000000000000000000000815260040161061690610f9f565b60405180910390fd5b5f805f3373ffffffffffffffffffffffffffffffffffffffff1673ffffffffffffffffffffffffffffffffffffffff1681526020019081526020015f20858154811061066e5761066d610fbd565b5b905f5260205f2090600302016040518060600160405290815f8201805461069490610c8b565b80601f01602080910402602001604051908101604052809291908181526020018280546106c090610c8b565b801561070b5780601f106106e25761010080835404028352916020019161070b565b820191905f5260205f20905b8154815290600101906020018083116106ee57829003601f168201915b5050505050815260200160018201548152602001600282015f9054906101000a900460ff1615151515815250509050805f015181602001518260400151935093509350509193909250565b5f604051905090565b5f80fd5b5f80fd5b5f73ffffffffffffffffffffffffffffffffffffffff82169050919050565b5f61079082610767565b9050919050565b6107a081610786565b81146107aa575f80fd5b50565b5f813590506107bb81610797565b92915050565b5f819050919050565b6107d3816107c1565b81146107dd575f80fd5b50565b5f813590506107ee816107ca565b92915050565b5f806040838503121561080a5761080961075f565b5b5f610817858286016107ad565b9250506020610828858286016107e0565b9150509250929050565b5f81519050919050565b5f82825260208201905092915050565b8281835e5f83830152505050565b5f601f19601f8301169050919050565b5f61087482610832565b61087e818561083c565b935061088e81856020860161084c565b6108978161085a565b840191505092915050565b6108ab816107c1565b82525050565b5f8115159050919050565b6108c5816108b1565b82525050565b5f6060820190508181035f8301526108e3818661086a565b90506108f260208301856108a2565b6108ff60408301846108bc565b949350505050565b5f80fd5b5f80fd5b7f4e487b71000000000000000000000000000000000000000000000000000000005f52604160045260245ffd5b6109458261085a565b810181811067ffffffffffffffff821117156109645761096361090f565b5b80604052505050565b5f610976610756565b9050610982828261093c565b919050565b5f67ffffffffffffffff8211156109a1576109a061090f565b5b6109aa8261085a565b9050602081019050919050565b828183375f83830152505050565b5f6109d76109d284610987565b61096d565b9050828152602081018484840111156109f3576109f261090b565b5b6109fe8482856109b7565b509392505050565b5f82601f830112610a1a57610a19610907565b5b8135610a2a8482602086016109c5565b91505092915050565b5f60208284031215610a4857610a4761075f565b5b5f82013567ffffffffffffffff811115610a6557610a64610763565b5b610a7184828501610a06565b91505092915050565b5f60208284031215610a8f57610a8e61075f565b5b5f610a9c848285016107ad565b91505092915050565b5f81519050919050565b5f82825260208201905092915050565b5f819050602082019050919050565b5f82825260208201905092915050565b5f610ae882610832565b610af28185610ace565b9350610b0281856020860161084c565b610b0b8161085a565b840191505092915050565b610b1f816107c1565b82525050565b610b2e816108b1565b82525050565b5f606083015f8301518482035f860152610b4e8282610ade565b9150506020830151610b636020860182610b16565b506040830151610b766040860182610b25565b508091505092915050565b5f610b8c8383610b34565b905092915050565b5f602082019050919050565b5f610baa82610aa5565b610bb48185610aaf565b935083602082028501610bc685610abf565b805f5b85811015610c015784840389528151610be28582610b81565b9450610bed83610b94565b925060208a01995050600181019050610bc9565b50829750879550505050505092915050565b5f6020820190508181035f830152610c2b8184610ba0565b905092915050565b5f60208284031215610c4857610c4761075f565b5b5f610c55848285016107e0565b91505092915050565b7f4e487b71000000000000000000000000000000000000000000000000000000005f52602260045260245ffd5b5f6002820490506001821680610ca257607f821691505b602082108103610cb557610cb4610c5e565b5b50919050565b5f819050815f5260205f209050919050565b5f6020601f8301049050919050565b5f82821b905092915050565b5f60088302610d177fffffffffffffffffffffffffffffffffffffffffffffffffffffffffffffffff82610cdc565b610d218683610cdc565b95508019841693508086168417925050509392505050565b5f819050919050565b5f610d5c610d57610d52846107c1565b610d39565b6107c1565b9050919050565b5f819050919050565b610d7583610d42565b610d89610d8182610d63565b848454610ce8565b825550505050565b5f90565b610d9d610d91565b610da8818484610d6c565b505050565b5b81811015610dcb57610dc05f82610d95565b600181019050610dae565b5050565b601f821115610e1057610de181610cbb565b610dea84610ccd565b81016020851015610df9578190505b610e0d610e0585610ccd565b830182610dad565b50505b505050565b5f82821c905092915050565b5f610e305f1984600802610e15565b1980831691505092915050565b5f610e488383610e21565b9150826002028217905092915050565b610e6182610832565b67ffffffffffffffff811115610e7a57610e7961090f565b5b610e848254610c8b565b610e8f828285610dcf565b5f60209050601f831160018114610ec0575f8415610eae578287015190505b610eb88582610e3d565b865550610f1f565b601f198416610ece86610cbb565b5f5b82811015610ef557848901518255600182019150602085019450602081019050610ed0565b86831015610f125784890151610f0e601f891682610e21565b8355505b6001600288020188555050505b505050505050565b5f6040820190508181035f830152610f3f818561086a565b9050610f4e60208301846108a2565b9392505050565b7f496e76616c69642045485220696e6465780000000000000000000000000000005f82015250565b5f610f8960118361083c565b9150610f9482610f55565b602082019050919050565b5f6020820190508181035f830152610fb681610f7d565b9050919050565b7f4e487b71000000000000000000000000000000000000000000000000000000005f52603260045260245ffd5b5f602082019050610ffd5f8301846108a2565b9291505056fea264697066735822122039b8acc5e5f2891d91d910d51741d08ac6eb65171f262d18153a9f35ba3c59c664736f6c634300081a0033a2646970667358221220c0c82a1543db68318ed4553a97cbda3129b748a4554815e0d675d3f8d67c896164736f6c634300081a0033",
					"opcodes": "PUSH1 0x80 PUSH1 0x40 MSTORE CALLVALUE DUP1 ISZERO PUSH1 0xE JUMPI PUSH0 DUP1 REVERT JUMPDEST POP PUSH2 0x21AA DUP1 PUSH2 0x1C PUSH0 CODECOPY PUSH0 RETURN INVALID PUSH1 0x80 PUSH1 0x40 MSTORE CALLVALUE DUP1 ISZERO PUSH2 0xF JUMPI PUSH0 DUP1 REVERT JUMPDEST POP PUSH1 0x4 CALLDATASIZE LT PUSH2 0x55 JUMPI PUSH0 CALLDATALOAD PUSH1 0xE0 SHR DUP1 PUSH4 0x544C1DD EQ PUSH2 0x59 JUMPI DUP1 PUSH4 0x25D1C9FA EQ PUSH2 0x75 JUMPI DUP1 PUSH4 0x44D89C51 EQ PUSH2 0x7F JUMPI DUP1 PUSH4 0x57B4A12F EQ PUSH2 0xB1 JUMPI DUP1 PUSH4 0xC104AA5F EQ PUSH2 0xCF JUMPI JUMPDEST PUSH0 DUP1 REVERT JUMPDEST PUSH2 0x73 PUSH1 0x4 DUP1 CALLDATASIZE SUB DUP2 ADD SWAP1 PUSH2 0x6E SWAP2 SWAP1 PUSH2 0x937 JUMP JUMPDEST PUSH2 0xFF JUMP JUMPDEST STOP JUMPDEST PUSH2 0x7D PUSH2 0x291 JUMP JUMPDEST STOP JUMPDEST PUSH2 0x99 PUSH1 0x4 DUP1 CALLDATASIZE SUB DUP2 ADD SWAP1 PUSH2 0x94 SWAP2 SWAP1 PUSH2 0x9B1 JUMP JUMPDEST PUSH2 0x44E JUMP JUMPDEST PUSH1 0x40 MLOAD PUSH2 0xA8 SWAP4 SWAP3 SWAP2 SWAP1 PUSH2 0xA65 JUMP JUMPDEST PUSH1 0x40 MLOAD DUP1 SWAP2 SUB SWAP1 RETURN JUMPDEST PUSH2 0xB9 PUSH2 0x603 JUMP JUMPDEST PUSH1 0x40 MLOAD PUSH2 0xC6 SWAP2 SWAP1 PUSH2 0xC0F JUMP JUMPDEST PUSH1 0x40 MLOAD DUP1 SWAP2 SUB SWAP1 RETURN JUMPDEST PUSH2 0xE9 PUSH1 0x4 DUP1 CALLDATASIZE SUB DUP2 ADD SWAP1 PUSH2 0xE4 SWAP2 SWAP1 PUSH2 0xC89 JUMP JUMPDEST PUSH2 0x7AE JUMP JUMPDEST PUSH1 0x40 MLOAD PUSH2 0xF6 SWAP2 SWAP1 PUSH2 0xD0F JUMP JUMPDEST PUSH1 0x40 MLOAD DUP1 SWAP2 SUB SWAP1 RETURN JUMPDEST PUSH0 PUSH20 0xFFFFFFFFFFFFFFFFFFFFFFFFFFFFFFFFFFFFFFFF AND PUSH0 DUP1 CALLER PUSH20 0xFFFFFFFFFFFFFFFFFFFFFFFFFFFFFFFFFFFFFFFF AND PUSH20 0xFFFFFFFFFFFFFFFFFFFFFFFFFFFFFFFFFFFFFFFF AND DUP2 MSTORE PUSH1 0x20 ADD SWAP1 DUP2 MSTORE PUSH1 0x20 ADD PUSH0 KECCAK256 PUSH0 SWAP1 SLOAD SWAP1 PUSH2 0x100 EXP SWAP1 DIV PUSH20 0xFFFFFFFFFFFFFFFFFFFFFFFFFFFFFFFFFFFFFFFF AND PUSH20 0xFFFFFFFFFFFFFFFFFFFFFFFFFFFFFFFFFFFFFFFF AND SUB PUSH2 0x1C8 JUMPI PUSH1 0x40 MLOAD PUSH32 0x8C379A000000000000000000000000000000000000000000000000000000000 DUP2 MSTORE PUSH1 0x4 ADD PUSH2 0x1BF SWAP1 PUSH2 0xD72 JUMP JUMPDEST PUSH1 0x40 MLOAD DUP1 SWAP2 SUB SWAP1 REVERT JUMPDEST PUSH0 DUP1 PUSH0 CALLER PUSH20 0xFFFFFFFFFFFFFFFFFFFFFFFFFFFFFFFFFFFFFFFF AND PUSH20 0xFFFFFFFFFFFFFFFFFFFFFFFFFFFFFFFFFFFFFFFF AND DUP2 MSTORE PUSH1 0x20 ADD SWAP1 DUP2 MSTORE PUSH1 0x20 ADD PUSH0 KECCAK256 PUSH0 SWAP1 SLOAD SWAP1 PUSH2 0x100 EXP SWAP1 DIV PUSH20 0xFFFFFFFFFFFFFFFFFFFFFFFFFFFFFFFFFFFFFFFF AND SWAP1 POP DUP1 PUSH20 0xFFFFFFFFFFFFFFFFFFFFFFFFFFFFFFFFFFFFFFFF AND PUSH4 0x75DB1A2D DUP4 PUSH1 0x40 MLOAD DUP3 PUSH4 0xFFFFFFFF AND PUSH1 0xE0 SHL DUP2 MSTORE PUSH1 0x4 ADD PUSH2 0x260 SWAP2 SWAP1 PUSH2 0xD90 JUMP JUMPDEST PUSH0 PUSH1 0x40 MLOAD DUP1 DUP4 SUB DUP2 PUSH0 DUP8 DUP1 EXTCODESIZE ISZERO DUP1 ISZERO PUSH2 0x277 JUMPI PUSH0 DUP1 REVERT JUMPDEST POP GAS CALL ISZERO DUP1 ISZERO PUSH2 0x289 JUMPI RETURNDATASIZE PUSH0 DUP1 RETURNDATACOPY RETURNDATASIZE PUSH0 REVERT JUMPDEST POP POP POP POP POP POP JUMP JUMPDEST PUSH0 PUSH20 0xFFFFFFFFFFFFFFFFFFFFFFFFFFFFFFFFFFFFFFFF AND PUSH0 DUP1 CALLER PUSH20 0xFFFFFFFFFFFFFFFFFFFFFFFFFFFFFFFFFFFFFFFF AND PUSH20 0xFFFFFFFFFFFFFFFFFFFFFFFFFFFFFFFFFFFFFFFF AND DUP2 MSTORE PUSH1 0x20 ADD SWAP1 DUP2 MSTORE PUSH1 0x20 ADD PUSH0 KECCAK256 PUSH0 SWAP1 SLOAD SWAP1 PUSH2 0x100 EXP SWAP1 DIV PUSH20 0xFFFFFFFFFFFFFFFFFFFFFFFFFFFFFFFFFFFFFFFF AND PUSH20 0xFFFFFFFFFFFFFFFFFFFFFFFFFFFFFFFFFFFFFFFF AND EQ PUSH2 0x35A JUMPI PUSH1 0x40 MLOAD PUSH32 0x8C379A000000000000000000000000000000000000000000000000000000000 DUP2 MSTORE PUSH1 0x4 ADD PUSH2 0x351 SWAP1 PUSH2 0xDFA JUMP JUMPDEST PUSH1 0x40 MLOAD DUP1 SWAP2 SUB SWAP1 REVERT JUMPDEST PUSH0 PUSH1 0x40 MLOAD PUSH2 0x367 SWAP1 PUSH2 0x7DD JUMP JUMPDEST PUSH1 0x40 MLOAD DUP1 SWAP2 SUB SWAP1 PUSH0 CREATE DUP1 ISZERO DUP1 ISZERO PUSH2 0x380 JUMPI RETURNDATASIZE PUSH0 DUP1 RETURNDATACOPY RETURNDATASIZE PUSH0 REVERT JUMPDEST POP SWAP1 POP DUP1 PUSH0 DUP1 CALLER PUSH20 0xFFFFFFFFFFFFFFFFFFFFFFFFFFFFFFFFFFFFFFFF AND PUSH20 0xFFFFFFFFFFFFFFFFFFFFFFFFFFFFFFFFFFFFFFFF AND DUP2 MSTORE PUSH1 0x20 ADD SWAP1 DUP2 MSTORE PUSH1 0x20 ADD PUSH0 KECCAK256 PUSH0 PUSH2 0x100 EXP DUP2 SLOAD DUP2 PUSH20 0xFFFFFFFFFFFFFFFFFFFFFFFFFFFFFFFFFFFFFFFF MUL NOT AND SWAP1 DUP4 PUSH20 0xFFFFFFFFFFFFFFFFFFFFFFFFFFFFFFFFFFFFFFFF AND MUL OR SWAP1 SSTORE POP CALLER PUSH20 0xFFFFFFFFFFFFFFFFFFFFFFFFFFFFFFFFFFFFFFFF AND PUSH32 0xF214EF8CBF1C2523144B02809B5EFF4D47A8EBDECC42B1A458D380CBD9DFD068 DUP3 PUSH1 0x40 MLOAD PUSH2 0x443 SWAP2 SWAP1 PUSH2 0xE27 JUMP JUMPDEST PUSH1 0x40 MLOAD DUP1 SWAP2 SUB SWAP1 LOG2 POP JUMP JUMPDEST PUSH1 0x60 PUSH0 DUP1 PUSH0 PUSH20 0xFFFFFFFFFFFFFFFFFFFFFFFFFFFFFFFFFFFFFFFF AND PUSH0 DUP1 CALLER PUSH20 0xFFFFFFFFFFFFFFFFFFFFFFFFFFFFFFFFFFFFFFFF AND PUSH20 0xFFFFFFFFFFFFFFFFFFFFFFFFFFFFFFFFFFFFFFFF AND DUP2 MSTORE PUSH1 0x20 ADD SWAP1 DUP2 MSTORE PUSH1 0x20 ADD PUSH0 KECCAK256 PUSH0 SWAP1 SLOAD SWAP1 PUSH2 0x100 EXP SWAP1 DIV PUSH20 0xFFFFFFFFFFFFFFFFFFFFFFFFFFFFFFFFFFFFFFFF AND PUSH20 0xFFFFFFFFFFFFFFFFFFFFFFFFFFFFFFFFFFFFFFFF AND SUB PUSH2 0x51B JUMPI PUSH1 0x40 MLOAD PUSH32 0x8C379A000000000000000000000000000000000000000000000000000000000 DUP2 MSTORE PUSH1 0x4 ADD PUSH2 0x512 SWAP1 PUSH2 0xD72 JUMP JUMPDEST PUSH1 0x40 MLOAD DUP1 SWAP2 SUB SWAP1 REVERT JUMPDEST PUSH0 DUP1 PUSH0 CALLER PUSH20 0xFFFFFFFFFFFFFFFFFFFFFFFFFFFFFFFFFFFFFFFF AND PUSH20 0xFFFFFFFFFFFFFFFFFFFFFFFFFFFFFFFFFFFFFFFF AND DUP2 MSTORE PUSH1 0x20 ADD SWAP1 DUP2 MSTORE PUSH1 0x20 ADD PUSH0 KECCAK256 PUSH0 SWAP1 SLOAD SWAP1 PUSH2 0x100 EXP SWAP1 DIV PUSH20 0xFFFFFFFFFFFFFFFFFFFFFFFFFFFFFFFFFFFFFFFF AND SWAP1 POP DUP1 PUSH20 0xFFFFFFFFFFFFFFFFFFFFFFFFFFFFFFFFFFFFFFFF AND PUSH4 0xA127DFBD DUP7 PUSH1 0x40 MLOAD DUP3 PUSH4 0xFFFFFFFF AND PUSH1 0xE0 SHL DUP2 MSTORE PUSH1 0x4 ADD PUSH2 0x5B3 SWAP2 SWAP1 PUSH2 0xE40 JUMP JUMPDEST PUSH0 PUSH1 0x40 MLOAD DUP1 DUP4 SUB DUP2 DUP7 GAS STATICCALL ISZERO DUP1 ISZERO PUSH2 0x5CD JUMPI RETURNDATASIZE PUSH0 DUP1 RETURNDATACOPY RETURNDATASIZE PUSH0 REVERT JUMPDEST POP POP POP POP PUSH1 0x40 MLOAD RETURNDATASIZE PUSH0 DUP3 RETURNDATACOPY RETURNDATASIZE PUSH1 0x1F NOT PUSH1 0x1F DUP3 ADD AND DUP3 ADD DUP1 PUSH1 0x40 MSTORE POP DUP2 ADD SWAP1 PUSH2 0x5F5 SWAP2 SWAP1 PUSH2 0xF05 JUMP JUMPDEST SWAP4 POP SWAP4 POP SWAP4 POP POP SWAP2 SWAP4 SWAP1 SWAP3 POP JUMP JUMPDEST PUSH1 0x60 PUSH0 PUSH20 0xFFFFFFFFFFFFFFFFFFFFFFFFFFFFFFFFFFFFFFFF AND PUSH0 DUP1 CALLER PUSH20 0xFFFFFFFFFFFFFFFFFFFFFFFFFFFFFFFFFFFFFFFF AND PUSH20 0xFFFFFFFFFFFFFFFFFFFFFFFFFFFFFFFFFFFFFFFF AND DUP2 MSTORE PUSH1 0x20 ADD SWAP1 DUP2 MSTORE PUSH1 0x20 ADD PUSH0 KECCAK256 PUSH0 SWAP1 SLOAD SWAP1 PUSH2 0x100 EXP SWAP1 DIV PUSH20 0xFFFFFFFFFFFFFFFFFFFFFFFFFFFFFFFFFFFFFFFF AND PUSH20 0xFFFFFFFFFFFFFFFFFFFFFFFFFFFFFFFFFFFFFFFF AND SUB PUSH2 0x6CE JUMPI PUSH1 0x40 MLOAD PUSH32 0x8C379A000000000000000000000000000000000000000000000000000000000 DUP2 MSTORE PUSH1 0x4 ADD PUSH2 0x6C5 SWAP1 PUSH2 0xD72 JUMP JUMPDEST PUSH1 0x40 MLOAD DUP1 SWAP2 SUB SWAP1 REVERT JUMPDEST PUSH0 DUP1 PUSH0 CALLER PUSH20 0xFFFFFFFFFFFFFFFFFFFFFFFFFFFFFFFFFFFFFFFF AND PUSH20 0xFFFFFFFFFFFFFFFFFFFFFFFFFFFFFFFFFFFFFFFF AND DUP2 MSTORE PUSH1 0x20 ADD SWAP1 DUP2 MSTORE PUSH1 0x20 ADD PUSH0 KECCAK256 PUSH0 SWAP1 SLOAD SWAP1 PUSH2 0x100 EXP SWAP1 DIV PUSH20 0xFFFFFFFFFFFFFFFFFFFFFFFFFFFFFFFFFFFFFFFF AND SWAP1 POP DUP1 PUSH20 0xFFFFFFFFFFFFFFFFFFFFFFFFFFFFFFFFFFFFFFFF AND PUSH4 0x98089910 CALLER PUSH1 0x40 MLOAD DUP3 PUSH4 0xFFFFFFFF AND PUSH1 0xE0 SHL DUP2 MSTORE PUSH1 0x4 ADD PUSH2 0x766 SWAP2 SWAP1 PUSH2 0xE27 JUMP JUMPDEST PUSH0 PUSH1 0x40 MLOAD DUP1 DUP4 SUB DUP2 DUP7 GAS STATICCALL ISZERO DUP1 ISZERO PUSH2 0x780 JUMPI RETURNDATASIZE PUSH0 DUP1 RETURNDATACOPY RETURNDATASIZE PUSH0 REVERT JUMPDEST POP POP POP POP PUSH1 0x40 MLOAD RETURNDATASIZE PUSH0 DUP3 RETURNDATACOPY RETURNDATASIZE PUSH1 0x1F NOT PUSH1 0x1F DUP3 ADD AND DUP3 ADD DUP1 PUSH1 0x40 MSTORE POP DUP2 ADD SWAP1 PUSH2 0x7A8 SWAP2 SWAP1 PUSH2 0x10D8 JUMP JUMPDEST SWAP2 POP POP SWAP1 JUMP JUMPDEST PUSH0 PUSH1 0x20 MSTORE DUP1 PUSH0 MSTORE PUSH1 0x40 PUSH0 KECCAK256 PUSH0 SWAP2 POP SLOAD SWAP1 PUSH2 0x100 EXP SWAP1 DIV PUSH20 0xFFFFFFFFFFFFFFFFFFFFFFFFFFFFFFFFFFFFFFFF AND DUP2 JUMP JUMPDEST PUSH2 0x1055 DUP1 PUSH2 0x1120 DUP4 CODECOPY ADD SWAP1 JUMP JUMPDEST PUSH0 PUSH1 0x40 MLOAD SWAP1 POP SWAP1 JUMP JUMPDEST PUSH0 DUP1 REVERT JUMPDEST PUSH0 DUP1 REVERT JUMPDEST PUSH0 DUP1 REVERT JUMPDEST PUSH0 DUP1 REVERT JUMPDEST PUSH0 PUSH1 0x1F NOT PUSH1 0x1F DUP4 ADD AND SWAP1 POP SWAP2 SWAP1 POP JUMP JUMPDEST PUSH32 0x4E487B7100000000000000000000000000000000000000000000000000000000 PUSH0 MSTORE PUSH1 0x41 PUSH1 0x4 MSTORE PUSH1 0x24 PUSH0 REVERT JUMPDEST PUSH2 0x849 DUP3 PUSH2 0x803 JUMP JUMPDEST DUP2 ADD DUP2 DUP2 LT PUSH8 0xFFFFFFFFFFFFFFFF DUP3 GT OR ISZERO PUSH2 0x868 JUMPI PUSH2 0x867 PUSH2 0x813 JUMP JUMPDEST JUMPDEST DUP1 PUSH1 0x40 MSTORE POP POP POP JUMP JUMPDEST PUSH0 PUSH2 0x87A PUSH2 0x7EA JUMP JUMPDEST SWAP1 POP PUSH2 0x886 DUP3 DUP3 PUSH2 0x840 JUMP JUMPDEST SWAP2 SWAP1 POP JUMP JUMPDEST PUSH0 PUSH8 0xFFFFFFFFFFFFFFFF DUP3 GT ISZERO PUSH2 0x8A5 JUMPI PUSH2 0x8A4 PUSH2 0x813 JUMP JUMPDEST JUMPDEST PUSH2 0x8AE DUP3 PUSH2 0x803 JUMP JUMPDEST SWAP1 POP PUSH1 0x20 DUP2 ADD SWAP1 POP SWAP2 SWAP1 POP JUMP JUMPDEST DUP3 DUP2 DUP4 CALLDATACOPY PUSH0 DUP4 DUP4 ADD MSTORE POP POP POP JUMP JUMPDEST PUSH0 PUSH2 0x8DB PUSH2 0x8D6 DUP5 PUSH2 0x88B JUMP JUMPDEST PUSH2 0x871 JUMP JUMPDEST SWAP1 POP DUP3 DUP2 MSTORE PUSH1 0x20 DUP2 ADD DUP5 DUP5 DUP5 ADD GT ISZERO PUSH2 0x8F7 JUMPI PUSH2 0x8F6 PUSH2 0x7FF JUMP JUMPDEST JUMPDEST PUSH2 0x902 DUP5 DUP3 DUP6 PUSH2 0x8BB JUMP JUMPDEST POP SWAP4 SWAP3 POP POP POP JUMP JUMPDEST PUSH0 DUP3 PUSH1 0x1F DUP4 ADD SLT PUSH2 0x91E JUMPI PUSH2 0x91D PUSH2 0x7FB JUMP JUMPDEST JUMPDEST DUP2 CALLDATALOAD PUSH2 0x92E DUP5 DUP3 PUSH1 0x20 DUP7 ADD PUSH2 0x8C9 JUMP JUMPDEST SWAP2 POP POP SWAP3 SWAP2 POP POP JUMP JUMPDEST PUSH0 PUSH1 0x20 DUP3 DUP5 SUB SLT ISZERO PUSH2 0x94C JUMPI PUSH2 0x94B PUSH2 0x7F3 JUMP JUMPDEST JUMPDEST PUSH0 DUP3 ADD CALLDATALOAD PUSH8 0xFFFFFFFFFFFFFFFF DUP2 GT ISZERO PUSH2 0x969 JUMPI PUSH2 0x968 PUSH2 0x7F7 JUMP JUMPDEST JUMPDEST PUSH2 0x975 DUP5 DUP3 DUP6 ADD PUSH2 0x90A JUMP JUMPDEST SWAP2 POP POP SWAP3 SWAP2 POP POP JUMP JUMPDEST PUSH0 DUP2 SWAP1 POP SWAP2 SWAP1 POP JUMP JUMPDEST PUSH2 0x990 DUP2 PUSH2 0x97E JUMP JUMPDEST DUP2 EQ PUSH2 0x99A JUMPI PUSH0 DUP1 REVERT JUMPDEST POP JUMP JUMPDEST PUSH0 DUP2 CALLDATALOAD SWAP1 POP PUSH2 0x9AB DUP2 PUSH2 0x987 JUMP JUMPDEST SWAP3 SWAP2 POP POP JUMP JUMPDEST PUSH0 PUSH1 0x20 DUP3 DUP5 SUB SLT ISZERO PUSH2 0x9C6 JUMPI PUSH2 0x9C5 PUSH2 0x7F3 JUMP JUMPDEST JUMPDEST PUSH0 PUSH2 0x9D3 DUP5 DUP3 DUP6 ADD PUSH2 0x99D JUMP JUMPDEST SWAP2 POP POP SWAP3 SWAP2 POP POP JUMP JUMPDEST PUSH0 DUP2 MLOAD SWAP1 POP SWAP2 SWAP1 POP JUMP JUMPDEST PUSH0 DUP3 DUP3 MSTORE PUSH1 0x20 DUP3 ADD SWAP1 POP SWAP3 SWAP2 POP POP JUMP JUMPDEST DUP3 DUP2 DUP4 MCOPY PUSH0 DUP4 DUP4 ADD MSTORE POP POP POP JUMP JUMPDEST PUSH0 PUSH2 0xA0E DUP3 PUSH2 0x9DC JUMP JUMPDEST PUSH2 0xA18 DUP2 DUP6 PUSH2 0x9E6 JUMP JUMPDEST SWAP4 POP PUSH2 0xA28 DUP2 DUP6 PUSH1 0x20 DUP7 ADD PUSH2 0x9F6 JUMP JUMPDEST PUSH2 0xA31 DUP2 PUSH2 0x803 JUMP JUMPDEST DUP5 ADD SWAP2 POP POP SWAP3 SWAP2 POP POP JUMP JUMPDEST PUSH2 0xA45 DUP2 PUSH2 0x97E JUMP JUMPDEST DUP3 MSTORE POP POP JUMP JUMPDEST PUSH0 DUP2 ISZERO ISZERO SWAP1 POP SWAP2 SWAP1 POP JUMP JUMPDEST PUSH2 0xA5F DUP2 PUSH2 0xA4B JUMP JUMPDEST DUP3 MSTORE POP POP JUMP JUMPDEST PUSH0 PUSH1 0x60 DUP3 ADD SWAP1 POP DUP2 DUP2 SUB PUSH0 DUP4 ADD MSTORE PUSH2 0xA7D DUP2 DUP7 PUSH2 0xA04 JUMP JUMPDEST SWAP1 POP PUSH2 0xA8C PUSH1 0x20 DUP4 ADD DUP6 PUSH2 0xA3C JUMP JUMPDEST PUSH2 0xA99 PUSH1 0x40 DUP4 ADD DUP5 PUSH2 0xA56 JUMP JUMPDEST SWAP5 SWAP4 POP POP POP POP JUMP JUMPDEST PUSH0 DUP2 MLOAD SWAP1 POP SWAP2 SWAP1 POP JUMP JUMPDEST PUSH0 DUP3 DUP3 MSTORE PUSH1 0x20 DUP3 ADD SWAP1 POP SWAP3 SWAP2 POP POP JUMP JUMPDEST PUSH0 DUP2 SWAP1 POP PUSH1 0x20 DUP3 ADD SWAP1 POP SWAP2 SWAP1 POP JUMP JUMPDEST PUSH0 DUP3 DUP3 MSTORE PUSH1 0x20 DUP3 ADD SWAP1 POP SWAP3 SWAP2 POP POP JUMP JUMPDEST PUSH0 PUSH2 0xAE4 DUP3 PUSH2 0x9DC JUMP JUMPDEST PUSH2 0xAEE DUP2 DUP6 PUSH2 0xACA JUMP JUMPDEST SWAP4 POP PUSH2 0xAFE DUP2 DUP6 PUSH1 0x20 DUP7 ADD PUSH2 0x9F6 JUMP JUMPDEST PUSH2 0xB07 DUP2 PUSH2 0x803 JUMP JUMPDEST DUP5 ADD SWAP2 POP POP SWAP3 SWAP2 POP POP JUMP JUMPDEST PUSH2 0xB1B DUP2 PUSH2 0x97E JUMP JUMPDEST DUP3 MSTORE POP POP JUMP JUMPDEST PUSH2 0xB2A DUP2 PUSH2 0xA4B JUMP JUMPDEST DUP3 MSTORE POP POP JUMP JUMPDEST PUSH0 PUSH1 0x60 DUP4 ADD PUSH0 DUP4 ADD MLOAD DUP5 DUP3 SUB PUSH0 DUP7 ADD MSTORE PUSH2 0xB4A DUP3 DUP3 PUSH2 0xADA JUMP JUMPDEST SWAP2 POP POP PUSH1 0x20 DUP4 ADD MLOAD PUSH2 0xB5F PUSH1 0x20 DUP7 ADD DUP3 PUSH2 0xB12 JUMP JUMPDEST POP PUSH1 0x40 DUP4 ADD MLOAD PUSH2 0xB72 PUSH1 0x40 DUP7 ADD DUP3 PUSH2 0xB21 JUMP JUMPDEST POP DUP1 SWAP2 POP POP SWAP3 SWAP2 POP POP JUMP JUMPDEST PUSH0 PUSH2 0xB88 DUP4 DUP4 PUSH2 0xB30 JUMP JUMPDEST SWAP1 POP SWAP3 SWAP2 POP POP JUMP JUMPDEST PUSH0 PUSH1 0x20 DUP3 ADD SWAP1 POP SWAP2 SWAP1 POP JUMP JUMPDEST PUSH0 PUSH2 0xBA6 DUP3 PUSH2 0xAA1 JUMP JUMPDEST PUSH2 0xBB0 DUP2 DUP6 PUSH2 0xAAB JUMP JUMPDEST SWAP4 POP DUP4 PUSH1 0x20 DUP3 MUL DUP6 ADD PUSH2 0xBC2 DUP6 PUSH2 0xABB JUMP JUMPDEST DUP1 PUSH0 JUMPDEST DUP6 DUP2 LT ISZERO PUSH2 0xBFD JUMPI DUP5 DUP5 SUB DUP10 MSTORE DUP2 MLOAD PUSH2 0xBDE DUP6 DUP3 PUSH2 0xB7D JUMP JUMPDEST SWAP5 POP PUSH2 0xBE9 DUP4 PUSH2 0xB90 JUMP JUMPDEST SWAP3 POP PUSH1 0x20 DUP11 ADD SWAP10 POP POP PUSH1 0x1 DUP2 ADD SWAP1 POP PUSH2 0xBC5 JUMP JUMPDEST POP DUP3 SWAP8 POP DUP8 SWAP6 POP POP POP POP POP POP SWAP3 SWAP2 POP POP JUMP JUMPDEST PUSH0 PUSH1 0x20 DUP3 ADD SWAP1 POP DUP2 DUP2 SUB PUSH0 DUP4 ADD MSTORE PUSH2 0xC27 DUP2 DUP5 PUSH2 0xB9C JUMP JUMPDEST SWAP1 POP SWAP3 SWAP2 POP POP JUMP JUMPDEST PUSH0 PUSH20 0xFFFFFFFFFFFFFFFFFFFFFFFFFFFFFFFFFFFFFFFF DUP3 AND SWAP1 POP SWAP2 SWAP1 POP JUMP JUMPDEST PUSH0 PUSH2 0xC58 DUP3 PUSH2 0xC2F JUMP JUMPDEST SWAP1 POP SWAP2 SWAP1 POP JUMP JUMPDEST PUSH2 0xC68 DUP2 PUSH2 0xC4E JUMP JUMPDEST DUP2 EQ PUSH2 0xC72 JUMPI PUSH0 DUP1 REVERT JUMPDEST POP JUMP JUMPDEST PUSH0 DUP2 CALLDATALOAD SWAP1 POP PUSH2 0xC83 DUP2 PUSH2 0xC5F JUMP JUMPDEST SWAP3 SWAP2 POP POP JUMP JUMPDEST PUSH0 PUSH1 0x20 DUP3 DUP5 SUB SLT ISZERO PUSH2 0xC9E JUMPI PUSH2 0xC9D PUSH2 0x7F3 JUMP JUMPDEST JUMPDEST PUSH0 PUSH2 0xCAB DUP5 DUP3 DUP6 ADD PUSH2 0xC75 JUMP JUMPDEST SWAP2 POP POP SWAP3 SWAP2 POP POP JUMP JUMPDEST PUSH0 DUP2 SWAP1 POP SWAP2 SWAP1 POP JUMP JUMPDEST PUSH0 PUSH2 0xCD7 PUSH2 0xCD2 PUSH2 0xCCD DUP5 PUSH2 0xC2F JUMP JUMPDEST PUSH2 0xCB4 JUMP JUMPDEST PUSH2 0xC2F JUMP JUMPDEST SWAP1 POP SWAP2 SWAP1 POP JUMP JUMPDEST PUSH0 PUSH2 0xCE8 DUP3 PUSH2 0xCBD JUMP JUMPDEST SWAP1 POP SWAP2 SWAP1 POP JUMP JUMPDEST PUSH0 PUSH2 0xCF9 DUP3 PUSH2 0xCDE JUMP JUMPDEST SWAP1 POP SWAP2 SWAP1 POP JUMP JUMPDEST PUSH2 0xD09 DUP2 PUSH2 0xCEF JUMP JUMPDEST DUP3 MSTORE POP POP JUMP JUMPDEST PUSH0 PUSH1 0x20 DUP3 ADD SWAP1 POP PUSH2 0xD22 PUSH0 DUP4 ADD DUP5 PUSH2 0xD00 JUMP JUMPDEST SWAP3 SWAP2 POP POP JUMP JUMPDEST PUSH32 0x4E6F2073746F7261676520636F6E747261637420666F756E6400000000000000 PUSH0 DUP3 ADD MSTORE POP JUMP JUMPDEST PUSH0 PUSH2 0xD5C PUSH1 0x19 DUP4 PUSH2 0x9E6 JUMP JUMPDEST SWAP2 POP PUSH2 0xD67 DUP3 PUSH2 0xD28 JUMP JUMPDEST PUSH1 0x20 DUP3 ADD SWAP1 POP SWAP2 SWAP1 POP JUMP JUMPDEST PUSH0 PUSH1 0x20 DUP3 ADD SWAP1 POP DUP2 DUP2 SUB PUSH0 DUP4 ADD MSTORE PUSH2 0xD89 DUP2 PUSH2 0xD50 JUMP JUMPDEST SWAP1 POP SWAP2 SWAP1 POP JUMP JUMPDEST PUSH0 PUSH1 0x20 DUP3 ADD SWAP1 POP DUP2 DUP2 SUB PUSH0 DUP4 ADD MSTORE PUSH2 0xDA8 DUP2 DUP5 PUSH2 0xA04 JUMP JUMPDEST SWAP1 POP SWAP3 SWAP2 POP POP JUMP JUMPDEST PUSH32 0x53746F7261676520636F6E747261637420616C72656164792065786973747300 PUSH0 DUP3 ADD MSTORE POP JUMP JUMPDEST PUSH0 PUSH2 0xDE4 PUSH1 0x1F DUP4 PUSH2 0x9E6 JUMP JUMPDEST SWAP2 POP PUSH2 0xDEF DUP3 PUSH2 0xDB0 JUMP JUMPDEST PUSH1 0x20 DUP3 ADD SWAP1 POP SWAP2 SWAP1 POP JUMP JUMPDEST PUSH0 PUSH1 0x20 DUP3 ADD SWAP1 POP DUP2 DUP2 SUB PUSH0 DUP4 ADD MSTORE PUSH2 0xE11 DUP2 PUSH2 0xDD8 JUMP JUMPDEST SWAP1 POP SWAP2 SWAP1 POP JUMP JUMPDEST PUSH2 0xE21 DUP2 PUSH2 0xC4E JUMP JUMPDEST DUP3 MSTORE POP POP JUMP JUMPDEST PUSH0 PUSH1 0x20 DUP3 ADD SWAP1 POP PUSH2 0xE3A PUSH0 DUP4 ADD DUP5 PUSH2 0xE18 JUMP JUMPDEST SWAP3 SWAP2 POP POP JUMP JUMPDEST PUSH0 PUSH1 0x20 DUP3 ADD SWAP1 POP PUSH2 0xE53 PUSH0 DUP4 ADD DUP5 PUSH2 0xA3C JUMP JUMPDEST SWAP3 SWAP2 POP POP JUMP JUMPDEST PUSH0 PUSH2 0xE6B PUSH2 0xE66 DUP5 PUSH2 0x88B JUMP JUMPDEST PUSH2 0x871 JUMP JUMPDEST SWAP1 POP DUP3 DUP2 MSTORE PUSH1 0x20 DUP2 ADD DUP5 DUP5 DUP5 ADD GT ISZERO PUSH2 0xE87 JUMPI PUSH2 0xE86 PUSH2 0x7FF JUMP JUMPDEST JUMPDEST PUSH2 0xE92 DUP5 DUP3 DUP6 PUSH2 0x9F6 JUMP JUMPDEST POP SWAP4 SWAP3 POP POP POP JUMP JUMPDEST PUSH0 DUP3 PUSH1 0x1F DUP4 ADD SLT PUSH2 0xEAE JUMPI PUSH2 0xEAD PUSH2 0x7FB JUMP JUMPDEST JUMPDEST DUP2 MLOAD PUSH2 0xEBE DUP5 DUP3 PUSH1 0x20 DUP7 ADD PUSH2 0xE59 JUMP JUMPDEST SWAP2 POP POP SWAP3 SWAP2 POP POP JUMP JUMPDEST PUSH0 DUP2 MLOAD SWAP1 POP PUSH2 0xED5 DUP2 PUSH2 0x987 JUMP JUMPDEST SWAP3 SWAP2 POP POP JUMP JUMPDEST PUSH2 0xEE4 DUP2 PUSH2 0xA4B JUMP JUMPDEST DUP2 EQ PUSH2 0xEEE JUMPI PUSH0 DUP1 REVERT JUMPDEST POP JUMP JUMPDEST PUSH0 DUP2 MLOAD SWAP1 POP PUSH2 0xEFF DUP2 PUSH2 0xEDB JUMP JUMPDEST SWAP3 SWAP2 POP POP JUMP JUMPDEST PUSH0 DUP1 PUSH0 PUSH1 0x60 DUP5 DUP7 SUB SLT ISZERO PUSH2 0xF1C JUMPI PUSH2 0xF1B PUSH2 0x7F3 JUMP JUMPDEST JUMPDEST PUSH0 DUP5 ADD MLOAD PUSH8 0xFFFFFFFFFFFFFFFF DUP2 GT ISZERO PUSH2 0xF39 JUMPI PUSH2 0xF38 PUSH2 0x7F7 JUMP JUMPDEST JUMPDEST PUSH2 0xF45 DUP7 DUP3 DUP8 ADD PUSH2 0xE9A JUMP JUMPDEST SWAP4 POP POP PUSH1 0x20 PUSH2 0xF56 DUP7 DUP3 DUP8 ADD PUSH2 0xEC7 JUMP JUMPDEST SWAP3 POP POP PUSH1 0x40 PUSH2 0xF67 DUP7 DUP3 DUP8 ADD PUSH2 0xEF1 JUMP JUMPDEST SWAP2 POP POP SWAP3 POP SWAP3 POP SWAP3 JUMP JUMPDEST PUSH0 PUSH8 0xFFFFFFFFFFFFFFFF DUP3 GT ISZERO PUSH2 0xF8B JUMPI PUSH2 0xF8A PUSH2 0x813 JUMP JUMPDEST JUMPDEST PUSH1 0x20 DUP3 MUL SWAP1 POP PUSH1 0x20 DUP2 ADD SWAP1 POP SWAP2 SWAP1 POP JUMP JUMPDEST PUSH0 DUP1 REVERT JUMPDEST PUSH0 DUP1 REVERT JUMPDEST PUSH0 DUP1 REVERT JUMPDEST PUSH0 PUSH1 0x60 DUP3 DUP5 SUB SLT ISZERO PUSH2 0xFBD JUMPI PUSH2 0xFBC PUSH2 0xFA0 JUMP JUMPDEST JUMPDEST PUSH2 0xFC7 PUSH1 0x60 PUSH2 0x871 JUMP JUMPDEST SWAP1 POP PUSH0 DUP3 ADD MLOAD PUSH8 0xFFFFFFFFFFFFFFFF DUP2 GT ISZERO PUSH2 0xFE6 JUMPI PUSH2 0xFE5 PUSH2 0xFA4 JUMP JUMPDEST JUMPDEST PUSH2 0xFF2 DUP5 DUP3 DUP6 ADD PUSH2 0xE9A JUMP JUMPDEST PUSH0 DUP4 ADD MSTORE POP PUSH1 0x20 PUSH2 0x1005 DUP5 DUP3 DUP6 ADD PUSH2 0xEC7 JUMP JUMPDEST PUSH1 0x20 DUP4 ADD MSTORE POP PUSH1 0x40 PUSH2 0x1019 DUP5 DUP3 DUP6 ADD PUSH2 0xEF1 JUMP JUMPDEST PUSH1 0x40 DUP4 ADD MSTORE POP SWAP3 SWAP2 POP POP JUMP JUMPDEST PUSH0 PUSH2 0x1037 PUSH2 0x1032 DUP5 PUSH2 0xF71 JUMP JUMPDEST PUSH2 0x871 JUMP JUMPDEST SWAP1 POP DUP1 DUP4 DUP3 MSTORE PUSH1 0x20 DUP3 ADD SWAP1 POP PUSH1 0x20 DUP5 MUL DUP4 ADD DUP6 DUP2 GT ISZERO PUSH2 0x105A JUMPI PUSH2 0x1059 PUSH2 0xF9C JUMP JUMPDEST JUMPDEST DUP4 JUMPDEST DUP2 DUP2 LT ISZERO PUSH2 0x10A1 JUMPI DUP1 MLOAD PUSH8 0xFFFFFFFFFFFFFFFF DUP2 GT ISZERO PUSH2 0x107F JUMPI PUSH2 0x107E PUSH2 0x7FB JUMP JUMPDEST JUMPDEST DUP1 DUP7 ADD PUSH2 0x108C DUP10 DUP3 PUSH2 0xFA8 JUMP JUMPDEST DUP6 MSTORE PUSH1 0x20 DUP6 ADD SWAP5 POP POP POP PUSH1 0x20 DUP2 ADD SWAP1 POP PUSH2 0x105C JUMP JUMPDEST POP POP POP SWAP4 SWAP3 POP POP POP JUMP JUMPDEST PUSH0 DUP3 PUSH1 0x1F DUP4 ADD SLT PUSH2 0x10BF JUMPI PUSH2 0x10BE PUSH2 0x7FB JUMP JUMPDEST JUMPDEST DUP2 MLOAD PUSH2 0x10CF DUP5 DUP3 PUSH1 0x20 DUP7 ADD PUSH2 0x1025 JUMP JUMPDEST SWAP2 POP POP SWAP3 SWAP2 POP POP JUMP JUMPDEST PUSH0 PUSH1 0x20 DUP3 DUP5 SUB SLT ISZERO PUSH2 0x10ED JUMPI PUSH2 0x10EC PUSH2 0x7F3 JUMP JUMPDEST JUMPDEST PUSH0 DUP3 ADD MLOAD PUSH8 0xFFFFFFFFFFFFFFFF DUP2 GT ISZERO PUSH2 0x110A JUMPI PUSH2 0x1109 PUSH2 0x7F7 JUMP JUMPDEST JUMPDEST PUSH2 0x1116 DUP5 DUP3 DUP6 ADD PUSH2 0x10AB JUMP JUMPDEST SWAP2 POP POP SWAP3 SWAP2 POP POP JUMP INVALID PUSH1 0x80 PUSH1 0x40 MSTORE CALLVALUE DUP1 ISZERO PUSH1 0xE JUMPI PUSH0 DUP1 REVERT JUMPDEST POP PUSH2 0x1039 DUP1 PUSH2 0x1C PUSH0 CODECOPY PUSH0 RETURN INVALID PUSH1 0x80 PUSH1 0x40 MSTORE CALLVALUE DUP1 ISZERO PUSH2 0xF JUMPI PUSH0 DUP1 REVERT JUMPDEST POP PUSH1 0x4 CALLDATASIZE LT PUSH2 0x55 JUMPI PUSH0 CALLDATALOAD PUSH1 0xE0 SHR DUP1 PUSH4 0x5D2F2171 EQ PUSH2 0x59 JUMPI DUP1 PUSH4 0x75DB1A2D EQ PUSH2 0x8B JUMPI DUP1 PUSH4 0x95D3DF6E EQ PUSH2 0xA7 JUMPI DUP1 PUSH4 0x98089910 EQ PUSH2 0xC3 JUMPI DUP1 PUSH4 0xA127DFBD EQ PUSH2 0xF3 JUMPI JUMPDEST PUSH0 DUP1 REVERT JUMPDEST PUSH2 0x73 PUSH1 0x4 DUP1 CALLDATASIZE SUB DUP2 ADD SWAP1 PUSH2 0x6E SWAP2 SWAP1 PUSH2 0x7F4 JUMP JUMPDEST PUSH2 0x125 JUMP JUMPDEST PUSH1 0x40 MLOAD PUSH2 0x82 SWAP4 SWAP3 SWAP2 SWAP1 PUSH2 0x8CB JUMP JUMPDEST PUSH1 0x40 MLOAD DUP1 SWAP2 SUB SWAP1 RETURN JUMPDEST PUSH2 0xA5 PUSH1 0x4 DUP1 CALLDATASIZE SUB DUP2 ADD SWAP1 PUSH2 0xA0 SWAP2 SWAP1 PUSH2 0xA33 JUMP JUMPDEST PUSH2 0x1F6 JUMP JUMPDEST STOP JUMPDEST PUSH2 0xC1 PUSH1 0x4 DUP1 CALLDATASIZE SUB DUP2 ADD SWAP1 PUSH2 0xBC SWAP2 SWAP1 PUSH2 0x7F4 JUMP JUMPDEST PUSH2 0x307 JUMP JUMPDEST STOP JUMPDEST PUSH2 0xDD PUSH1 0x4 DUP1 CALLDATASIZE SUB DUP2 ADD SWAP1 PUSH2 0xD8 SWAP2 SWAP1 PUSH2 0xA7A JUMP JUMPDEST PUSH2 0x44F JUMP JUMPDEST PUSH1 0x40 MLOAD PUSH2 0xEA SWAP2 SWAP1 PUSH2 0xC13 JUMP JUMPDEST PUSH1 0x40 MLOAD DUP1 SWAP2 SUB SWAP1 RETURN JUMPDEST PUSH2 0x10D PUSH1 0x4 DUP1 CALLDATASIZE SUB DUP2 ADD SWAP1 PUSH2 0x108 SWAP2 SWAP1 PUSH2 0xC33 JUMP JUMPDEST PUSH2 0x59A JUMP JUMPDEST PUSH1 0x40 MLOAD PUSH2 0x11C SWAP4 SWAP3 SWAP2 SWAP1 PUSH2 0x8CB JUMP JUMPDEST PUSH1 0x40 MLOAD DUP1 SWAP2 SUB SWAP1 RETURN JUMPDEST PUSH0 PUSH1 0x20 MSTORE DUP2 PUSH0 MSTORE PUSH1 0x40 PUSH0 KECCAK256 DUP2 DUP2 SLOAD DUP2 LT PUSH2 0x13D JUMPI PUSH0 DUP1 REVERT JUMPDEST SWAP1 PUSH0 MSTORE PUSH1 0x20 PUSH0 KECCAK256 SWAP1 PUSH1 0x3 MUL ADD PUSH0 SWAP2 POP SWAP2 POP POP DUP1 PUSH0 ADD DUP1 SLOAD PUSH2 0x15D SWAP1 PUSH2 0xC8B JUMP JUMPDEST DUP1 PUSH1 0x1F ADD PUSH1 0x20 DUP1 SWAP2 DIV MUL PUSH1 0x20 ADD PUSH1 0x40 MLOAD SWAP1 DUP2 ADD PUSH1 0x40 MSTORE DUP1 SWAP3 SWAP2 SWAP1 DUP2 DUP2 MSTORE PUSH1 0x20 ADD DUP3 DUP1 SLOAD PUSH2 0x189 SWAP1 PUSH2 0xC8B JUMP JUMPDEST DUP1 ISZERO PUSH2 0x1D4 JUMPI DUP1 PUSH1 0x1F LT PUSH2 0x1AB JUMPI PUSH2 0x100 DUP1 DUP4 SLOAD DIV MUL DUP4 MSTORE SWAP2 PUSH1 0x20 ADD SWAP2 PUSH2 0x1D4 JUMP JUMPDEST DUP3 ADD SWAP2 SWAP1 PUSH0 MSTORE PUSH1 0x20 PUSH0 KECCAK256 SWAP1 JUMPDEST DUP2 SLOAD DUP2 MSTORE SWAP1 PUSH1 0x1 ADD SWAP1 PUSH1 0x20 ADD DUP1 DUP4 GT PUSH2 0x1B7 JUMPI DUP3 SWAP1 SUB PUSH1 0x1F AND DUP3 ADD SWAP2 JUMPDEST POP POP POP POP POP SWAP1 DUP1 PUSH1 0x1 ADD SLOAD SWAP1 DUP1 PUSH1 0x2 ADD PUSH0 SWAP1 SLOAD SWAP1 PUSH2 0x100 EXP SWAP1 DIV PUSH1 0xFF AND SWAP1 POP DUP4 JUMP JUMPDEST PUSH0 DUP1 CALLER PUSH20 0xFFFFFFFFFFFFFFFFFFFFFFFFFFFFFFFFFFFFFFFF AND PUSH20 0xFFFFFFFFFFFFFFFFFFFFFFFFFFFFFFFFFFFFFFFF AND DUP2 MSTORE PUSH1 0x20 ADD SWAP1 DUP2 MSTORE PUSH1 0x20 ADD PUSH0 KECCAK256 PUSH1 0x40 MLOAD DUP1 PUSH1 0x60 ADD PUSH1 0x40 MSTORE DUP1 DUP4 DUP2 MSTORE PUSH1 0x20 ADD TIMESTAMP DUP2 MSTORE PUSH1 0x20 ADD PUSH0 ISZERO ISZERO DUP2 MSTORE POP SWAP1 DUP1 PUSH1 0x1 DUP2 SLOAD ADD DUP1 DUP3 SSTORE DUP1 SWAP2 POP POP PUSH1 0x1 SWAP1 SUB SWAP1 PUSH0 MSTORE PUSH1 0x20 PUSH0 KECCAK256 SWAP1 PUSH1 0x3 MUL ADD PUSH0 SWAP1 SWAP2 SWAP1 SWAP2 SWAP1 SWAP2 POP PUSH0 DUP3 ADD MLOAD DUP2 PUSH0 ADD SWAP1 DUP2 PUSH2 0x288 SWAP2 SWAP1 PUSH2 0xE58 JUMP JUMPDEST POP PUSH1 0x20 DUP3 ADD MLOAD DUP2 PUSH1 0x1 ADD SSTORE PUSH1 0x40 DUP3 ADD MLOAD DUP2 PUSH1 0x2 ADD PUSH0 PUSH2 0x100 EXP DUP2 SLOAD DUP2 PUSH1 0xFF MUL NOT AND SWAP1 DUP4 ISZERO ISZERO MUL OR SWAP1 SSTORE POP POP POP CALLER PUSH20 0xFFFFFFFFFFFFFFFFFFFFFFFFFFFFFFFFFFFFFFFF AND PUSH32 0x8E958D41D44B1A40BBD488EE4C8C903208C6A0C98884BF32AAC99D2062F49391 DUP3 TIMESTAMP PUSH1 0x40 MLOAD PUSH2 0x2FC SWAP3 SWAP2 SWAP1 PUSH2 0xF27 JUMP JUMPDEST PUSH1 0x40 MLOAD DUP1 SWAP2 SUB SWAP1 LOG2 POP JUMP JUMPDEST PUSH0 DUP1 DUP4 PUSH20 0xFFFFFFFFFFFFFFFFFFFFFFFFFFFFFFFFFFFFFFFF AND PUSH20 0xFFFFFFFFFFFFFFFFFFFFFFFFFFFFFFFFFFFFFFFF AND DUP2 MSTORE PUSH1 0x20 ADD SWAP1 DUP2 MSTORE PUSH1 0x20 ADD PUSH0 KECCAK256 DUP1 SLOAD SWAP1 POP DUP2 LT PUSH2 0x388 JUMPI PUSH1 0x40 MLOAD PUSH32 0x8C379A000000000000000000000000000000000000000000000000000000000 DUP2 MSTORE PUSH1 0x4 ADD PUSH2 0x37F SWAP1 PUSH2 0xF9F JUMP JUMPDEST PUSH1 0x40 MLOAD DUP1 SWAP2 SUB SWAP1 REVERT JUMPDEST PUSH1 0x1 PUSH0 DUP1 DUP5 PUSH20 0xFFFFFFFFFFFFFFFFFFFFFFFFFFFFFFFFFFFFFFFF AND PUSH20 0xFFFFFFFFFFFFFFFFFFFFFFFFFFFFFFFFFFFFFFFF AND DUP2 MSTORE PUSH1 0x20 ADD SWAP1 DUP2 MSTORE PUSH1 0x20 ADD PUSH0 KECCAK256 DUP3 DUP2 SLOAD DUP2 LT PUSH2 0x3D8 JUMPI PUSH2 0x3D7 PUSH2 0xFBD JUMP JUMPDEST JUMPDEST SWAP1 PUSH0 MSTORE PUSH1 0x20 PUSH0 KECCAK256 SWAP1 PUSH1 0x3 MUL ADD PUSH1 0x2 ADD PUSH0 PUSH2 0x100 EXP DUP2 SLOAD DUP2 PUSH1 0xFF MUL NOT AND SWAP1 DUP4 ISZERO ISZERO MUL OR SWAP1 SSTORE POP DUP2 PUSH20 0xFFFFFFFFFFFFFFFFFFFFFFFFFFFFFFFFFFFFFFFF AND PUSH32 0xC7387983C20D3A9BDB6E5AD99882B28A50345109C66873A5A03D92C58CF53F49 DUP3 PUSH1 0x40 MLOAD PUSH2 0x443 SWAP2 SWAP1 PUSH2 0xFEA JUMP JUMPDEST PUSH1 0x40 MLOAD DUP1 SWAP2 SUB SWAP1 LOG2 POP POP JUMP JUMPDEST PUSH1 0x60 PUSH0 DUP1 DUP4 PUSH20 0xFFFFFFFFFFFFFFFFFFFFFFFFFFFFFFFFFFFFFFFF AND PUSH20 0xFFFFFFFFFFFFFFFFFFFFFFFFFFFFFFFFFFFFFFFF AND DUP2 MSTORE PUSH1 0x20 ADD SWAP1 DUP2 MSTORE PUSH1 0x20 ADD PUSH0 KECCAK256 DUP1 SLOAD DUP1 PUSH1 0x20 MUL PUSH1 0x20 ADD PUSH1 0x40 MLOAD SWAP1 DUP2 ADD PUSH1 0x40 MSTORE DUP1 SWAP3 SWAP2 SWAP1 DUP2 DUP2 MSTORE PUSH1 0x20 ADD PUSH0 SWAP1 JUMPDEST DUP3 DUP3 LT ISZERO PUSH2 0x58F JUMPI DUP4 DUP3 SWAP1 PUSH0 MSTORE PUSH1 0x20 PUSH0 KECCAK256 SWAP1 PUSH1 0x3 MUL ADD PUSH1 0x40 MLOAD DUP1 PUSH1 0x60 ADD PUSH1 0x40 MSTORE SWAP1 DUP2 PUSH0 DUP3 ADD DUP1 SLOAD PUSH2 0x4DC SWAP1 PUSH2 0xC8B JUMP JUMPDEST DUP1 PUSH1 0x1F ADD PUSH1 0x20 DUP1 SWAP2 DIV MUL PUSH1 0x20 ADD PUSH1 0x40 MLOAD SWAP1 DUP2 ADD PUSH1 0x40 MSTORE DUP1 SWAP3 SWAP2 SWAP1 DUP2 DUP2 MSTORE PUSH1 0x20 ADD DUP3 DUP1 SLOAD PUSH2 0x508 SWAP1 PUSH2 0xC8B JUMP JUMPDEST DUP1 ISZERO PUSH2 0x553 JUMPI DUP1 PUSH1 0x1F LT PUSH2 0x52A JUMPI PUSH2 0x100 DUP1 DUP4 SLOAD DIV MUL DUP4 MSTORE SWAP2 PUSH1 0x20 ADD SWAP2 PUSH2 0x553 JUMP JUMPDEST DUP3 ADD SWAP2 SWAP1 PUSH0 MSTORE PUSH1 0x20 PUSH0 KECCAK256 SWAP1 JUMPDEST DUP2 SLOAD DUP2 MSTORE SWAP1 PUSH1 0x1 ADD SWAP1 PUSH1 0x20 ADD DUP1 DUP4 GT PUSH2 0x536 JUMPI DUP3 SWAP1 SUB PUSH1 0x1F AND DUP3 ADD SWAP2 JUMPDEST POP POP POP POP POP DUP2 MSTORE PUSH1 0x20 ADD PUSH1 0x1 DUP3 ADD SLOAD DUP2 MSTORE PUSH1 0x20 ADD PUSH1 0x2 DUP3 ADD PUSH0 SWAP1 SLOAD SWAP1 PUSH2 0x100 EXP SWAP1 DIV PUSH1 0xFF AND ISZERO ISZERO ISZERO ISZERO DUP2 MSTORE POP POP DUP2 MSTORE PUSH1 0x20 ADD SWAP1 PUSH1 0x1 ADD SWAP1 PUSH2 0x4AC JUMP JUMPDEST POP POP POP POP SWAP1 POP SWAP2 SWAP1 POP JUMP JUMPDEST PUSH1 0x60 PUSH0 DUP1 PUSH0 DUP1 CALLER PUSH20 0xFFFFFFFFFFFFFFFFFFFFFFFFFFFFFFFFFFFFFFFF AND PUSH20 0xFFFFFFFFFFFFFFFFFFFFFFFFFFFFFFFFFFFFFFFF AND DUP2 MSTORE PUSH1 0x20 ADD SWAP1 DUP2 MSTORE PUSH1 0x20 ADD PUSH0 KECCAK256 DUP1 SLOAD SWAP1 POP DUP5 LT PUSH2 0x61F JUMPI PUSH1 0x40 MLOAD PUSH32 0x8C379A000000000000000000000000000000000000000000000000000000000 DUP2 MSTORE PUSH1 0x4 ADD PUSH2 0x616 SWAP1 PUSH2 0xF9F JUMP JUMPDEST PUSH1 0x40 MLOAD DUP1 SWAP2 SUB SWAP1 REVERT JUMPDEST PUSH0 DUP1 PUSH0 CALLER PUSH20 0xFFFFFFFFFFFFFFFFFFFFFFFFFFFFFFFFFFFFFFFF AND PUSH20 0xFFFFFFFFFFFFFFFFFFFFFFFFFFFFFFFFFFFFFFFF AND DUP2 MSTORE PUSH1 0x20 ADD SWAP1 DUP2 MSTORE PUSH1 0x20 ADD PUSH0 KECCAK256 DUP6 DUP2 SLOAD DUP2 LT PUSH2 0x66E JUMPI PUSH2 0x66D PUSH2 0xFBD JUMP JUMPDEST JUMPDEST SWAP1 PUSH0 MSTORE PUSH1 0x20 PUSH0 KECCAK256 SWAP1 PUSH1 0x3 MUL ADD PUSH1 0x40 MLOAD DUP1 PUSH1 0x60 ADD PUSH1 0x40 MSTORE SWAP1 DUP2 PUSH0 DUP3 ADD DUP1 SLOAD PUSH2 0x694 SWAP1 PUSH2 0xC8B JUMP JUMPDEST DUP1 PUSH1 0x1F ADD PUSH1 0x20 DUP1 SWAP2 DIV MUL PUSH1 0x20 ADD PUSH1 0x40 MLOAD SWAP1 DUP2 ADD PUSH1 0x40 MSTORE DUP1 SWAP3 SWAP2 SWAP1 DUP2 DUP2 MSTORE PUSH1 0x20 ADD DUP3 DUP1 SLOAD PUSH2 0x6C0 SWAP1 PUSH2 0xC8B JUMP JUMPDEST DUP1 ISZERO PUSH2 0x70B JUMPI DUP1 PUSH1 0x1F LT PUSH2 0x6E2 JUMPI PUSH2 0x100 DUP1 DUP4 SLOAD DIV MUL DUP4 MSTORE SWAP2 PUSH1 0x20 ADD SWAP2 PUSH2 0x70B JUMP JUMPDEST DUP3 ADD SWAP2 SWAP1 PUSH0 MSTORE PUSH1 0x20 PUSH0 KECCAK256 SWAP1 JUMPDEST DUP2 SLOAD DUP2 MSTORE SWAP1 PUSH1 0x1 ADD SWAP1 PUSH1 0x20 ADD DUP1 DUP4 GT PUSH2 0x6EE JUMPI DUP3 SWAP1 SUB PUSH1 0x1F AND DUP3 ADD SWAP2 JUMPDEST POP POP POP POP POP DUP2 MSTORE PUSH1 0x20 ADD PUSH1 0x1 DUP3 ADD SLOAD DUP2 MSTORE PUSH1 0x20 ADD PUSH1 0x2 DUP3 ADD PUSH0 SWAP1 SLOAD SWAP1 PUSH2 0x100 EXP SWAP1 DIV PUSH1 0xFF AND ISZERO ISZERO ISZERO ISZERO DUP2 MSTORE POP POP SWAP1 POP DUP1 PUSH0 ADD MLOAD DUP2 PUSH1 0x20 ADD MLOAD DUP3 PUSH1 0x40 ADD MLOAD SWAP4 POP SWAP4 POP SWAP4 POP POP SWAP2 SWAP4 SWAP1 SWAP3 POP JUMP JUMPDEST PUSH0 PUSH1 0x40 MLOAD SWAP1 POP SWAP1 JUMP JUMPDEST PUSH0 DUP1 REVERT JUMPDEST PUSH0 DUP1 REVERT JUMPDEST PUSH0 PUSH20 0xFFFFFFFFFFFFFFFFFFFFFFFFFFFFFFFFFFFFFFFF DUP3 AND SWAP1 POP SWAP2 SWAP1 POP JUMP JUMPDEST PUSH0 PUSH2 0x790 DUP3 PUSH2 0x767 JUMP JUMPDEST SWAP1 POP SWAP2 SWAP1 POP JUMP JUMPDEST PUSH2 0x7A0 DUP2 PUSH2 0x786 JUMP JUMPDEST DUP2 EQ PUSH2 0x7AA JUMPI PUSH0 DUP1 REVERT JUMPDEST POP JUMP JUMPDEST PUSH0 DUP2 CALLDATALOAD SWAP1 POP PUSH2 0x7BB DUP2 PUSH2 0x797 JUMP JUMPDEST SWAP3 SWAP2 POP POP JUMP JUMPDEST PUSH0 DUP2 SWAP1 POP SWAP2 SWAP1 POP JUMP JUMPDEST PUSH2 0x7D3 DUP2 PUSH2 0x7C1 JUMP JUMPDEST DUP2 EQ PUSH2 0x7DD JUMPI PUSH0 DUP1 REVERT JUMPDEST POP JUMP JUMPDEST PUSH0 DUP2 CALLDATALOAD SWAP1 POP PUSH2 0x7EE DUP2 PUSH2 0x7CA JUMP JUMPDEST SWAP3 SWAP2 POP POP JUMP JUMPDEST PUSH0 DUP1 PUSH1 0x40 DUP4 DUP6 SUB SLT ISZERO PUSH2 0x80A JUMPI PUSH2 0x809 PUSH2 0x75F JUMP JUMPDEST JUMPDEST PUSH0 PUSH2 0x817 DUP6 DUP3 DUP7 ADD PUSH2 0x7AD JUMP JUMPDEST SWAP3 POP POP PUSH1 0x20 PUSH2 0x828 DUP6 DUP3 DUP7 ADD PUSH2 0x7E0 JUMP JUMPDEST SWAP2 POP POP SWAP3 POP SWAP3 SWAP1 POP JUMP JUMPDEST PUSH0 DUP2 MLOAD SWAP1 POP SWAP2 SWAP1 POP JUMP JUMPDEST PUSH0 DUP3 DUP3 MSTORE PUSH1 0x20 DUP3 ADD SWAP1 POP SWAP3 SWAP2 POP POP JUMP JUMPDEST DUP3 DUP2 DUP4 MCOPY PUSH0 DUP4 DUP4 ADD MSTORE POP POP POP JUMP JUMPDEST PUSH0 PUSH1 0x1F NOT PUSH1 0x1F DUP4 ADD AND SWAP1 POP SWAP2 SWAP1 POP JUMP JUMPDEST PUSH0 PUSH2 0x874 DUP3 PUSH2 0x832 JUMP JUMPDEST PUSH2 0x87E DUP2 DUP6 PUSH2 0x83C JUMP JUMPDEST SWAP4 POP PUSH2 0x88E DUP2 DUP6 PUSH1 0x20 DUP7 ADD PUSH2 0x84C JUMP JUMPDEST PUSH2 0x897 DUP2 PUSH2 0x85A JUMP JUMPDEST DUP5 ADD SWAP2 POP POP SWAP3 SWAP2 POP POP JUMP JUMPDEST PUSH2 0x8AB DUP2 PUSH2 0x7C1 JUMP JUMPDEST DUP3 MSTORE POP POP JUMP JUMPDEST PUSH0 DUP2 ISZERO ISZERO SWAP1 POP SWAP2 SWAP1 POP JUMP JUMPDEST PUSH2 0x8C5 DUP2 PUSH2 0x8B1 JUMP JUMPDEST DUP3 MSTORE POP POP JUMP JUMPDEST PUSH0 PUSH1 0x60 DUP3 ADD SWAP1 POP DUP2 DUP2 SUB PUSH0 DUP4 ADD MSTORE PUSH2 0x8E3 DUP2 DUP7 PUSH2 0x86A JUMP JUMPDEST SWAP1 POP PUSH2 0x8F2 PUSH1 0x20 DUP4 ADD DUP6 PUSH2 0x8A2 JUMP JUMPDEST PUSH2 0x8FF PUSH1 0x40 DUP4 ADD DUP5 PUSH2 0x8BC JUMP JUMPDEST SWAP5 SWAP4 POP POP POP POP JUMP JUMPDEST PUSH0 DUP1 REVERT JUMPDEST PUSH0 DUP1 REVERT JUMPDEST PUSH32 0x4E487B7100000000000000000000000000000000000000000000000000000000 PUSH0 MSTORE PUSH1 0x41 PUSH1 0x4 MSTORE PUSH1 0x24 PUSH0 REVERT JUMPDEST PUSH2 0x945 DUP3 PUSH2 0x85A JUMP JUMPDEST DUP2 ADD DUP2 DUP2 LT PUSH8 0xFFFFFFFFFFFFFFFF DUP3 GT OR ISZERO PUSH2 0x964 JUMPI PUSH2 0x963 PUSH2 0x90F JUMP JUMPDEST JUMPDEST DUP1 PUSH1 0x40 MSTORE POP POP POP JUMP JUMPDEST PUSH0 PUSH2 0x976 PUSH2 0x756 JUMP JUMPDEST SWAP1 POP PUSH2 0x982 DUP3 DUP3 PUSH2 0x93C JUMP JUMPDEST SWAP2 SWAP1 POP JUMP JUMPDEST PUSH0 PUSH8 0xFFFFFFFFFFFFFFFF DUP3 GT ISZERO PUSH2 0x9A1 JUMPI PUSH2 0x9A0 PUSH2 0x90F JUMP JUMPDEST JUMPDEST PUSH2 0x9AA DUP3 PUSH2 0x85A JUMP JUMPDEST SWAP1 POP PUSH1 0x20 DUP2 ADD SWAP1 POP SWAP2 SWAP1 POP JUMP JUMPDEST DUP3 DUP2 DUP4 CALLDATACOPY PUSH0 DUP4 DUP4 ADD MSTORE POP POP POP JUMP JUMPDEST PUSH0 PUSH2 0x9D7 PUSH2 0x9D2 DUP5 PUSH2 0x987 JUMP JUMPDEST PUSH2 0x96D JUMP JUMPDEST SWAP1 POP DUP3 DUP2 MSTORE PUSH1 0x20 DUP2 ADD DUP5 DUP5 DUP5 ADD GT ISZERO PUSH2 0x9F3 JUMPI PUSH2 0x9F2 PUSH2 0x90B JUMP JUMPDEST JUMPDEST PUSH2 0x9FE DUP5 DUP3 DUP6 PUSH2 0x9B7 JUMP JUMPDEST POP SWAP4 SWAP3 POP POP POP JUMP JUMPDEST PUSH0 DUP3 PUSH1 0x1F DUP4 ADD SLT PUSH2 0xA1A JUMPI PUSH2 0xA19 PUSH2 0x907 JUMP JUMPDEST JUMPDEST DUP2 CALLDATALOAD PUSH2 0xA2A DUP5 DUP3 PUSH1 0x20 DUP7 ADD PUSH2 0x9C5 JUMP JUMPDEST SWAP2 POP POP SWAP3 SWAP2 POP POP JUMP JUMPDEST PUSH0 PUSH1 0x20 DUP3 DUP5 SUB SLT ISZERO PUSH2 0xA48 JUMPI PUSH2 0xA47 PUSH2 0x75F JUMP JUMPDEST JUMPDEST PUSH0 DUP3 ADD CALLDATALOAD PUSH8 0xFFFFFFFFFFFFFFFF DUP2 GT ISZERO PUSH2 0xA65 JUMPI PUSH2 0xA64 PUSH2 0x763 JUMP JUMPDEST JUMPDEST PUSH2 0xA71 DUP5 DUP3 DUP6 ADD PUSH2 0xA06 JUMP JUMPDEST SWAP2 POP POP SWAP3 SWAP2 POP POP JUMP JUMPDEST PUSH0 PUSH1 0x20 DUP3 DUP5 SUB SLT ISZERO PUSH2 0xA8F JUMPI PUSH2 0xA8E PUSH2 0x75F JUMP JUMPDEST JUMPDEST PUSH0 PUSH2 0xA9C DUP5 DUP3 DUP6 ADD PUSH2 0x7AD JUMP JUMPDEST SWAP2 POP POP SWAP3 SWAP2 POP POP JUMP JUMPDEST PUSH0 DUP2 MLOAD SWAP1 POP SWAP2 SWAP1 POP JUMP JUMPDEST PUSH0 DUP3 DUP3 MSTORE PUSH1 0x20 DUP3 ADD SWAP1 POP SWAP3 SWAP2 POP POP JUMP JUMPDEST PUSH0 DUP2 SWAP1 POP PUSH1 0x20 DUP3 ADD SWAP1 POP SWAP2 SWAP1 POP JUMP JUMPDEST PUSH0 DUP3 DUP3 MSTORE PUSH1 0x20 DUP3 ADD SWAP1 POP SWAP3 SWAP2 POP POP JUMP JUMPDEST PUSH0 PUSH2 0xAE8 DUP3 PUSH2 0x832 JUMP JUMPDEST PUSH2 0xAF2 DUP2 DUP6 PUSH2 0xACE JUMP JUMPDEST SWAP4 POP PUSH2 0xB02 DUP2 DUP6 PUSH1 0x20 DUP7 ADD PUSH2 0x84C JUMP JUMPDEST PUSH2 0xB0B DUP2 PUSH2 0x85A JUMP JUMPDEST DUP5 ADD SWAP2 POP POP SWAP3 SWAP2 POP POP JUMP JUMPDEST PUSH2 0xB1F DUP2 PUSH2 0x7C1 JUMP JUMPDEST DUP3 MSTORE POP POP JUMP JUMPDEST PUSH2 0xB2E DUP2 PUSH2 0x8B1 JUMP JUMPDEST DUP3 MSTORE POP POP JUMP JUMPDEST PUSH0 PUSH1 0x60 DUP4 ADD PUSH0 DUP4 ADD MLOAD DUP5 DUP3 SUB PUSH0 DUP7 ADD MSTORE PUSH2 0xB4E DUP3 DUP3 PUSH2 0xADE JUMP JUMPDEST SWAP2 POP POP PUSH1 0x20 DUP4 ADD MLOAD PUSH2 0xB63 PUSH1 0x20 DUP7 ADD DUP3 PUSH2 0xB16 JUMP JUMPDEST POP PUSH1 0x40 DUP4 ADD MLOAD PUSH2 0xB76 PUSH1 0x40 DUP7 ADD DUP3 PUSH2 0xB25 JUMP JUMPDEST POP DUP1 SWAP2 POP POP SWAP3 SWAP2 POP POP JUMP JUMPDEST PUSH0 PUSH2 0xB8C DUP4 DUP4 PUSH2 0xB34 JUMP JUMPDEST SWAP1 POP SWAP3 SWAP2 POP POP JUMP JUMPDEST PUSH0 PUSH1 0x20 DUP3 ADD SWAP1 POP SWAP2 SWAP1 POP JUMP JUMPDEST PUSH0 PUSH2 0xBAA DUP3 PUSH2 0xAA5 JUMP JUMPDEST PUSH2 0xBB4 DUP2 DUP6 PUSH2 0xAAF JUMP JUMPDEST SWAP4 POP DUP4 PUSH1 0x20 DUP3 MUL DUP6 ADD PUSH2 0xBC6 DUP6 PUSH2 0xABF JUMP JUMPDEST DUP1 PUSH0 JUMPDEST DUP6 DUP2 LT ISZERO PUSH2 0xC01 JUMPI DUP5 DUP5 SUB DUP10 MSTORE DUP2 MLOAD PUSH2 0xBE2 DUP6 DUP3 PUSH2 0xB81 JUMP JUMPDEST SWAP5 POP PUSH2 0xBED DUP4 PUSH2 0xB94 JUMP JUMPDEST SWAP3 POP PUSH1 0x20 DUP11 ADD SWAP10 POP POP PUSH1 0x1 DUP2 ADD SWAP1 POP PUSH2 0xBC9 JUMP JUMPDEST POP DUP3 SWAP8 POP DUP8 SWAP6 POP POP POP POP POP POP SWAP3 SWAP2 POP POP JUMP JUMPDEST PUSH0 PUSH1 0x20 DUP3 ADD SWAP1 POP DUP2 DUP2 SUB PUSH0 DUP4 ADD MSTORE PUSH2 0xC2B DUP2 DUP5 PUSH2 0xBA0 JUMP JUMPDEST SWAP1 POP SWAP3 SWAP2 POP POP JUMP JUMPDEST PUSH0 PUSH1 0x20 DUP3 DUP5 SUB SLT ISZERO PUSH2 0xC48 JUMPI PUSH2 0xC47 PUSH2 0x75F JUMP JUMPDEST JUMPDEST PUSH0 PUSH2 0xC55 DUP5 DUP3 DUP6 ADD PUSH2 0x7E0 JUMP JUMPDEST SWAP2 POP POP SWAP3 SWAP2 POP POP JUMP JUMPDEST PUSH32 0x4E487B7100000000000000000000000000000000000000000000000000000000 PUSH0 MSTORE PUSH1 0x22 PUSH1 0x4 MSTORE PUSH1 0x24 PUSH0 REVERT JUMPDEST PUSH0 PUSH1 0x2 DUP3 DIV SWAP1 POP PUSH1 0x1 DUP3 AND DUP1 PUSH2 0xCA2 JUMPI PUSH1 0x7F DUP3 AND SWAP2 POP JUMPDEST PUSH1 0x20 DUP3 LT DUP2 SUB PUSH2 0xCB5 JUMPI PUSH2 0xCB4 PUSH2 0xC5E JUMP JUMPDEST JUMPDEST POP SWAP2 SWAP1 POP JUMP JUMPDEST PUSH0 DUP2 SWAP1 POP DUP2 PUSH0 MSTORE PUSH1 0x20 PUSH0 KECCAK256 SWAP1 POP SWAP2 SWAP1 POP JUMP JUMPDEST PUSH0 PUSH1 0x20 PUSH1 0x1F DUP4 ADD DIV SWAP1 POP SWAP2 SWAP1 POP JUMP JUMPDEST PUSH0 DUP3 DUP3 SHL SWAP1 POP SWAP3 SWAP2 POP POP JUMP JUMPDEST PUSH0 PUSH1 0x8 DUP4 MUL PUSH2 0xD17 PUSH32 0xFFFFFFFFFFFFFFFFFFFFFFFFFFFFFFFFFFFFFFFFFFFFFFFFFFFFFFFFFFFFFFFF DUP3 PUSH2 0xCDC JUMP JUMPDEST PUSH2 0xD21 DUP7 DUP4 PUSH2 0xCDC JUMP JUMPDEST SWAP6 POP DUP1 NOT DUP5 AND SWAP4 POP DUP1 DUP7 AND DUP5 OR SWAP3 POP POP POP SWAP4 SWAP3 POP POP POP JUMP JUMPDEST PUSH0 DUP2 SWAP1 POP SWAP2 SWAP1 POP JUMP JUMPDEST PUSH0 PUSH2 0xD5C PUSH2 0xD57 PUSH2 0xD52 DUP5 PUSH2 0x7C1 JUMP JUMPDEST PUSH2 0xD39 JUMP JUMPDEST PUSH2 0x7C1 JUMP JUMPDEST SWAP1 POP SWAP2 SWAP1 POP JUMP JUMPDEST PUSH0 DUP2 SWAP1 POP SWAP2 SWAP1 POP JUMP JUMPDEST PUSH2 0xD75 DUP4 PUSH2 0xD42 JUMP JUMPDEST PUSH2 0xD89 PUSH2 0xD81 DUP3 PUSH2 0xD63 JUMP JUMPDEST DUP5 DUP5 SLOAD PUSH2 0xCE8 JUMP JUMPDEST DUP3 SSTORE POP POP POP POP JUMP JUMPDEST PUSH0 SWAP1 JUMP JUMPDEST PUSH2 0xD9D PUSH2 0xD91 JUMP JUMPDEST PUSH2 0xDA8 DUP2 DUP5 DUP5 PUSH2 0xD6C JUMP JUMPDEST POP POP POP JUMP JUMPDEST JUMPDEST DUP2 DUP2 LT ISZERO PUSH2 0xDCB JUMPI PUSH2 0xDC0 PUSH0 DUP3 PUSH2 0xD95 JUMP JUMPDEST PUSH1 0x1 DUP2 ADD SWAP1 POP PUSH2 0xDAE JUMP JUMPDEST POP POP JUMP JUMPDEST PUSH1 0x1F DUP3 GT ISZERO PUSH2 0xE10 JUMPI PUSH2 0xDE1 DUP2 PUSH2 0xCBB JUMP JUMPDEST PUSH2 0xDEA DUP5 PUSH2 0xCCD JUMP JUMPDEST DUP2 ADD PUSH1 0x20 DUP6 LT ISZERO PUSH2 0xDF9 JUMPI DUP2 SWAP1 POP JUMPDEST PUSH2 0xE0D PUSH2 0xE05 DUP6 PUSH2 0xCCD JUMP JUMPDEST DUP4 ADD DUP3 PUSH2 0xDAD JUMP JUMPDEST POP POP JUMPDEST POP POP POP JUMP JUMPDEST PUSH0 DUP3 DUP3 SHR SWAP1 POP SWAP3 SWAP2 POP POP JUMP JUMPDEST PUSH0 PUSH2 0xE30 PUSH0 NOT DUP5 PUSH1 0x8 MUL PUSH2 0xE15 JUMP JUMPDEST NOT DUP1 DUP4 AND SWAP2 POP POP SWAP3 SWAP2 POP POP JUMP JUMPDEST PUSH0 PUSH2 0xE48 DUP4 DUP4 PUSH2 0xE21 JUMP JUMPDEST SWAP2 POP DUP3 PUSH1 0x2 MUL DUP3 OR SWAP1 POP SWAP3 SWAP2 POP POP JUMP JUMPDEST PUSH2 0xE61 DUP3 PUSH2 0x832 JUMP JUMPDEST PUSH8 0xFFFFFFFFFFFFFFFF DUP2 GT ISZERO PUSH2 0xE7A JUMPI PUSH2 0xE79 PUSH2 0x90F JUMP JUMPDEST JUMPDEST PUSH2 0xE84 DUP3 SLOAD PUSH2 0xC8B JUMP JUMPDEST PUSH2 0xE8F DUP3 DUP3 DUP6 PUSH2 0xDCF JUMP JUMPDEST PUSH0 PUSH1 0x20 SWAP1 POP PUSH1 0x1F DUP4 GT PUSH1 0x1 DUP2 EQ PUSH2 0xEC0 JUMPI PUSH0 DUP5 ISZERO PUSH2 0xEAE JUMPI DUP3 DUP8 ADD MLOAD SWAP1 POP JUMPDEST PUSH2 0xEB8 DUP6 DUP3 PUSH2 0xE3D JUMP JUMPDEST DUP7 SSTORE POP PUSH2 0xF1F JUMP JUMPDEST PUSH1 0x1F NOT DUP5 AND PUSH2 0xECE DUP7 PUSH2 0xCBB JUMP JUMPDEST PUSH0 JUMPDEST DUP3 DUP2 LT ISZERO PUSH2 0xEF5 JUMPI DUP5 DUP10 ADD MLOAD DUP3 SSTORE PUSH1 0x1 DUP3 ADD SWAP2 POP PUSH1 0x20 DUP6 ADD SWAP5 POP PUSH1 0x20 DUP2 ADD SWAP1 POP PUSH2 0xED0 JUMP JUMPDEST DUP7 DUP4 LT ISZERO PUSH2 0xF12 JUMPI DUP5 DUP10 ADD MLOAD PUSH2 0xF0E PUSH1 0x1F DUP10 AND DUP3 PUSH2 0xE21 JUMP JUMPDEST DUP4 SSTORE POP JUMPDEST PUSH1 0x1 PUSH1 0x2 DUP9 MUL ADD DUP9 SSTORE POP POP POP JUMPDEST POP POP POP POP POP POP JUMP JUMPDEST PUSH0 PUSH1 0x40 DUP3 ADD SWAP1 POP DUP2 DUP2 SUB PUSH0 DUP4 ADD MSTORE PUSH2 0xF3F DUP2 DUP6 PUSH2 0x86A JUMP JUMPDEST SWAP1 POP PUSH2 0xF4E PUSH1 0x20 DUP4 ADD DUP5 PUSH2 0x8A2 JUMP JUMPDEST SWAP4 SWAP3 POP POP POP JUMP JUMPDEST PUSH32 0x496E76616C69642045485220696E646578000000000000000000000000000000 PUSH0 DUP3 ADD MSTORE POP JUMP JUMPDEST PUSH0 PUSH2 0xF89 PUSH1 0x11 DUP4 PUSH2 0x83C JUMP JUMPDEST SWAP2 POP PUSH2 0xF94 DUP3 PUSH2 0xF55 JUMP JUMPDEST PUSH1 0x20 DUP3 ADD SWAP1 POP SWAP2 SWAP1 POP JUMP JUMPDEST PUSH0 PUSH1 0x20 DUP3 ADD SWAP1 POP DUP2 DUP2 SUB PUSH0 DUP4 ADD MSTORE PUSH2 0xFB6 DUP2 PUSH2 0xF7D JUMP JUMPDEST SWAP1 POP SWAP2 SWAP1 POP JUMP JUMPDEST PUSH32 0x4E487B7100000000000000000000000000000000000000000000000000000000 PUSH0 MSTORE PUSH1 0x32 PUSH1 0x4 MSTORE PUSH1 0x24 PUSH0 REVERT JUMPDEST PUSH0 PUSH1 0x20 DUP3 ADD SWAP1 POP PUSH2 0xFFD PUSH0 DUP4 ADD DUP5 PUSH2 0x8A2 JUMP JUMPDEST SWAP3 SWAP2 POP POP JUMP INVALID LOG2 PUSH5 0x6970667358 0x22 SLT KECCAK256 CODECOPY 0xB8 0xAC 0xC5 0xE5 CALLCODE DUP10 SAR SWAP2 0xD9 LT 0xD5 OR COINBASE 0xD0 DUP11 0xC6 0xEB PUSH6 0x171F262D1815 GASPRICE SWAP16 CALLDATALOAD 0xBA EXTCODECOPY MSIZE 0xC6 PUSH5 0x736F6C6343 STOP ADDMOD BYTE STOP CALLER LOG2 PUSH5 0x6970667358 0x22 SLT KECCAK256 0xC0 0xC8 0x2A ISZERO NUMBER 0xDB PUSH9 0x318ED4553A97CBDA31 0x29 0xB7 BASEFEE LOG4 SSTORE BASEFEE ISZERO 0xE0 0xD6 PUSH22 0xD3F8D67C896164736F6C634300081A00330000000000 "
				},
				"gasEstimates": {
					"creation": {
						"codeDepositCost": "1723600",
						"executionCost": "1811",
						"totalCost": "1725411"
					},
					"external": {
						"createEHRStorageContract()": "infinite",
						"hospitalStorageContracts(address)": "infinite",
						"sfGetAllEHRs()": "infinite",
						"sfGetEHR(uint256)": "infinite",
						"sfStoreEHR(string)": "infinite"
					}
				},
				"methodIdentifiers": {
					"createEHRStorageContract()": "25d1c9fa",
					"hospitalStorageContracts(address)": "c104aa5f",
					"sfGetAllEHRs()": "57b4a12f",
					"sfGetEHR(uint256)": "44d89c51",
					"sfStoreEHR(string)": "0544c1dd"
				}
			},
			"storageLayout": {
				"storage": [
					{
						"astId": 152,
						"contract": "MTP/StorageFactory.sol:StorageFactory",
						"label": "hospitalStorageContracts",
						"offset": 0,
						"slot": "0",
						"type": "t_mapping(t_address,t_contract(EHRStorage)143)"
					}
				],
				"types": {
					"t_address": {
						"encoding": "inplace",
						"label": "address",
						"numberOfBytes": "20"
					},
					"t_contract(EHRStorage)143": {
						"encoding": "inplace",
						"label": "contract EHRStorage",
						"numberOfBytes": "20"
					},
					"t_mapping(t_address,t_contract(EHRStorage)143)": {
						"encoding": "mapping",
						"key": "t_address",
						"label": "mapping(address => contract EHRStorage)",
						"numberOfBytes": "32",
						"value": "t_contract(EHRStorage)143"
					}
				}
			},
			"userdoc": {
				"kind": "user",
				"methods": {},
				"version": 1
			}
		}
	}
}