{
	"MTP/RoleManagement.sol": {
		"RoleManagement": {
			"abi": [
				{
					"inputs": [],
					"stateMutability": "nonpayable",
					"type": "constructor"
				},
				{
					"anonymous": false,
					"inputs": [
						{
							"indexed": true,
							"internalType": "address",
							"name": "requestor",
							"type": "address"
						},
						{
							"indexed": false,
							"internalType": "enum RoleManagement.Role",
							"name": "role",
							"type": "uint8"
						}
					],
					"name": "RoleApproved",
					"type": "event"
				},
				{
					"anonymous": false,
					"inputs": [
						{
							"indexed": true,
							"internalType": "address",
							"name": "requestor",
							"type": "address"
						}
					],
					"name": "RoleRejected",
					"type": "event"
				},
				{
					"anonymous": false,
					"inputs": [
						{
							"indexed": true,
							"internalType": "address",
							"name": "requestor",
							"type": "address"
						},
						{
							"indexed": false,
							"internalType": "string",
							"name": "registrationId",
							"type": "string"
						},
						{
							"indexed": false,
							"internalType": "enum RoleManagement.Role",
							"name": "role",
							"type": "uint8"
						}
					],
					"name": "RoleRequested",
					"type": "event"
				},
				{
					"anonymous": false,
					"inputs": [
						{
							"indexed": true,
							"internalType": "address",
							"name": "user",
							"type": "address"
						},
						{
							"indexed": false,
							"internalType": "enum RoleManagement.Role",
							"name": "role",
							"type": "uint8"
						}
					],
					"name": "RoleRevoked",
					"type": "event"
				},
				{
					"inputs": [],
					"name": "admin",
					"outputs": [
						{
							"internalType": "address",
							"name": "",
							"type": "address"
						}
					],
					"stateMutability": "view",
					"type": "function"
				},
				{
					"inputs": [],
					"name": "getPendingRequests",
					"outputs": [
						{
							"internalType": "address[]",
							"name": "",
							"type": "address[]"
						}
					],
					"stateMutability": "view",
					"type": "function"
				},
				{
					"inputs": [],
					"name": "getRequestStatus",
					"outputs": [
						{
							"internalType": "string",
							"name": "",
							"type": "string"
						},
						{
							"internalType": "string",
							"name": "",
							"type": "string"
						}
					],
					"stateMutability": "view",
					"type": "function"
				},
				{
					"inputs": [
						{
							"internalType": "address",
							"name": "user",
							"type": "address"
						}
					],
					"name": "getRole",
					"outputs": [
						{
							"internalType": "enum RoleManagement.Role",
							"name": "",
							"type": "uint8"
						}
					],
					"stateMutability": "view",
					"type": "function"
				},
				{
					"inputs": [
						{
							"internalType": "uint256",
							"name": "",
							"type": "uint256"
						}
					],
					"name": "pendingRequests",
					"outputs": [
						{
							"internalType": "address",
							"name": "",
							"type": "address"
						}
					],
					"stateMutability": "view",
					"type": "function"
				},
				{
					"inputs": [
						{
							"internalType": "address",
							"name": "_requestor",
							"type": "address"
						}
					],
					"name": "rejectRole",
					"outputs": [],
					"stateMutability": "nonpayable",
					"type": "function"
				},
				{
					"inputs": [
						{
							"internalType": "string",
							"name": "_registrationId",
							"type": "string"
						}
					],
					"name": "requestDataAuditorRole",
					"outputs": [],
					"stateMutability": "nonpayable",
					"type": "function"
				},
				{
					"inputs": [
						{
							"internalType": "string",
							"name": "_registrationId",
							"type": "string"
						}
					],
					"name": "requestHospitalRole",
					"outputs": [],
					"stateMutability": "nonpayable",
					"type": "function"
				},
				{
					"inputs": [
						{
							"internalType": "string",
							"name": "_registrationId",
							"type": "string"
						}
					],
					"name": "requestIPFSNodeRole",
					"outputs": [],
					"stateMutability": "nonpayable",
					"type": "function"
				},
				{
					"inputs": [
						{
							"internalType": "string",
							"name": "_registrationId",
							"type": "string"
						}
					],
					"name": "requestResearcherRole",
					"outputs": [],
					"stateMutability": "nonpayable",
					"type": "function"
				},
				{
					"inputs": [
						{
							"internalType": "address",
							"name": "_user",
							"type": "address"
						}
					],
					"name": "revokeRole",
					"outputs": [],
					"stateMutability": "nonpayable",
					"type": "function"
				},
				{
					"inputs": [
						{
							"internalType": "address",
							"name": "",
							"type": "address"
						}
					],
					"name": "roleRequests",
					"outputs": [
						{
							"internalType": "string",
							"name": "registrationId",
							"type": "string"
						},
						{
							"internalType": "enum RoleManagement.RequestStatus",
							"name": "status",
							"type": "uint8"
						}
					],
					"stateMutability": "view",
					"type": "function"
				},
				{
					"inputs": [
						{
							"internalType": "address",
							"name": "",
							"type": "address"
						}
					],
					"name": "roles",
					"outputs": [
						{
							"internalType": "enum RoleManagement.Role",
							"name": "",
							"type": "uint8"
						}
					],
					"stateMutability": "view",
					"type": "function"
				},
				{
					"inputs": [
						{
							"internalType": "uint256",
							"name": "",
							"type": "uint256"
						}
					],
					"name": "verifiedAuditors",
					"outputs": [
						{
							"internalType": "address",
							"name": "userAddress",
							"type": "address"
						},
						{
							"internalType": "enum RoleManagement.Role",
							"name": "role",
							"type": "uint8"
						},
						{
							"internalType": "string",
							"name": "registrationId",
							"type": "string"
						}
					],
					"stateMutability": "view",
					"type": "function"
				},
				{
					"inputs": [
						{
							"internalType": "uint256",
							"name": "",
							"type": "uint256"
						}
					],
					"name": "verifiedHospitals",
					"outputs": [
						{
							"internalType": "address",
							"name": "userAddress",
							"type": "address"
						},
						{
							"internalType": "enum RoleManagement.Role",
							"name": "role",
							"type": "uint8"
						},
						{
							"internalType": "string",
							"name": "registrationId",
							"type": "string"
						}
					],
					"stateMutability": "view",
					"type": "function"
				},
				{
					"inputs": [
						{
							"internalType": "uint256",
							"name": "",
							"type": "uint256"
						}
					],
					"name": "verifiedIPFSNodes",
					"outputs": [
						{
							"internalType": "address",
							"name": "userAddress",
							"type": "address"
						},
						{
							"internalType": "enum RoleManagement.Role",
							"name": "role",
							"type": "uint8"
						},
						{
							"internalType": "string",
							"name": "registrationId",
							"type": "string"
						}
					],
					"stateMutability": "view",
					"type": "function"
				},
				{
					"inputs": [
						{
							"internalType": "uint256",
							"name": "",
							"type": "uint256"
						}
					],
					"name": "verifiedResearchers",
					"outputs": [
						{
							"internalType": "address",
							"name": "userAddress",
							"type": "address"
						},
						{
							"internalType": "enum RoleManagement.Role",
							"name": "role",
							"type": "uint8"
						},
						{
							"internalType": "string",
							"name": "registrationId",
							"type": "string"
						}
					],
					"stateMutability": "view",
					"type": "function"
				},
				{
					"inputs": [
						{
							"internalType": "address",
							"name": "_requestor",
							"type": "address"
						}
					],
					"name": "verifyDataAuditorRole",
					"outputs": [],
					"stateMutability": "nonpayable",
					"type": "function"
				},
				{
					"inputs": [
						{
							"internalType": "address",
							"name": "_requestor",
							"type": "address"
						}
					],
					"name": "verifyHospitalRole",
					"outputs": [],
					"stateMutability": "nonpayable",
					"type": "function"
				},
				{
					"inputs": [
						{
							"internalType": "address",
							"name": "_requestor",
							"type": "address"
						}
					],
					"name": "verifyIPFSNodeRole",
					"outputs": [],
					"stateMutability": "nonpayable",
					"type": "function"
				},
				{
					"inputs": [
						{
							"internalType": "address",
							"name": "_requestor",
							"type": "address"
						}
					],
					"name": "verifyResearcherRole",
					"outputs": [],
					"stateMutability": "nonpayable",
					"type": "function"
				}
			],
			"devdoc": {
				"kind": "dev",
				"methods": {},
				"version": 1
			},
			"evm": {
				"assembly": "    /* \"MTP/RoleManagement.sol\":60:8578  contract RoleManagement {... */\n  mstore(0x40, 0x80)\n    /* \"MTP/RoleManagement.sol\":1380:1472  constructor() {... */\n  callvalue\n  dup1\n  iszero\n  tag_1\n  jumpi\n  0x00\n  dup1\n  revert\ntag_1:\n  pop\n    /* \"MTP/RoleManagement.sol\":1413:1423  msg.sender */\n  caller\n    /* \"MTP/RoleManagement.sol\":1405:1410  admin */\n  0x02\n  0x00\n    /* \"MTP/RoleManagement.sol\":1405:1423  admin = msg.sender */\n  0x0100\n  exp\n  dup2\n  sload\n  dup2\n  0xffffffffffffffffffffffffffffffffffffffff\n  mul\n  not\n  and\n  swap1\n  dup4\n  0xffffffffffffffffffffffffffffffffffffffff\n  and\n  mul\n  or\n  swap1\n  sstore\n  pop\n    /* \"MTP/RoleManagement.sol\":60:8578  contract RoleManagement {... */\n  dataSize(sub_0)\n  dup1\n  dataOffset(sub_0)\n  0x00\n  codecopy\n  0x00\n  return\nstop\n\nsub_0: assembly {\n        /* \"MTP/RoleManagement.sol\":60:8578  contract RoleManagement {... */\n      mstore(0x40, 0x80)\n      callvalue\n      dup1\n      iszero\n      tag_1\n      jumpi\n      0x00\n      dup1\n      revert\n    tag_1:\n      pop\n      jumpi(tag_2, lt(calldatasize, 0x04))\n      shr(0xe0, calldataload(0x00))\n      dup1\n      0x80e52e3f\n      gt\n      tag_24\n      jumpi\n      dup1\n      0xc11df8e7\n      gt\n      tag_25\n      jumpi\n      dup1\n      0xc11df8e7\n      eq\n      tag_18\n      jumpi\n      dup1\n      0xd1061fef\n      eq\n      tag_19\n      jumpi\n      dup1\n      0xdf2ca8d0\n      eq\n      tag_20\n      jumpi\n      dup1\n      0xe1023b88\n      eq\n      tag_21\n      jumpi\n      dup1\n      0xf04f8de7\n      eq\n      tag_22\n      jumpi\n      dup1\n      0xf851a440\n      eq\n      tag_23\n      jumpi\n      jump(tag_2)\n    tag_25:\n      dup1\n      0x80e52e3f\n      eq\n      tag_13\n      jumpi\n      dup1\n      0x893c94d6\n      eq\n      tag_14\n      jumpi\n      dup1\n      0x8f81779f\n      eq\n      tag_15\n      jumpi\n      dup1\n      0x99374642\n      eq\n      tag_16\n      jumpi\n      dup1\n      0xb3d41f95\n      eq\n      tag_17\n      jumpi\n      jump(tag_2)\n    tag_24:\n      dup1\n      0x44276733\n      gt\n      tag_26\n      jumpi\n      dup1\n      0x44276733\n      eq\n      tag_8\n      jumpi\n      dup1\n      0x6edc684f\n      eq\n      tag_9\n      jumpi\n      dup1\n      0x7253575d\n      eq\n      tag_10\n      jumpi\n      dup1\n      0x772e50bf\n      eq\n      tag_11\n      jumpi\n      dup1\n      0x80a1f712\n      eq\n      tag_12\n      jumpi\n      jump(tag_2)\n    tag_26:\n      dup1\n      0xc00016\n      eq\n      tag_3\n      jumpi\n      dup1\n      0x14c9fb0c\n      eq\n      tag_4\n      jumpi\n      dup1\n      0x1d5b9a73\n      eq\n      tag_5\n      jumpi\n      dup1\n      0x33b7fa5e\n      eq\n      tag_6\n      jumpi\n      dup1\n      0x3c652a9a\n      eq\n      tag_7\n      jumpi\n    tag_2:\n      0x00\n      dup1\n      revert\n        /* \"MTP/RoleManagement.sol\":4514:5106  function verifyDataAuditorRole(address _requestor) public onlyAdmin {... */\n    tag_3:\n      tag_27\n      0x04\n      dup1\n      calldatasize\n      sub\n      dup2\n      add\n      swap1\n      tag_28\n      swap2\n      swap1\n      tag_29\n      jump\t// in\n    tag_28:\n      tag_30\n      jump\t// in\n    tag_27:\n      stop\n        /* \"MTP/RoleManagement.sol\":1521:2050  function requestHospitalRole(string memory _registrationId) public {... */\n    tag_4:\n      tag_31\n      0x04\n      dup1\n      calldatasize\n      sub\n      dup2\n      add\n      swap1\n      tag_32\n      swap2\n      swap1\n      tag_33\n      jump\t// in\n    tag_32:\n      tag_34\n      jump\t// in\n    tag_31:\n      stop\n        /* \"MTP/RoleManagement.sol\":655:694  VerifiedRole[] public verifiedHospitals */\n    tag_5:\n      tag_35\n      0x04\n      dup1\n      calldatasize\n      sub\n      dup2\n      add\n      swap1\n      tag_36\n      swap2\n      swap1\n      tag_37\n      jump\t// in\n    tag_36:\n      tag_38\n      jump\t// in\n    tag_35:\n      mload(0x40)\n      tag_39\n      swap4\n      swap3\n      swap2\n      swap1\n      tag_40\n      jump\t// in\n    tag_39:\n      mload(0x40)\n      dup1\n      swap2\n      sub\n      swap1\n      return\n        /* \"MTP/RoleManagement.sol\":794:833  VerifiedRole[] public verifiedIPFSNodes */\n    tag_6:\n      tag_41\n      0x04\n      dup1\n      calldatasize\n      sub\n      dup2\n      add\n      swap1\n      tag_42\n      swap2\n      swap1\n      tag_37\n      jump\t// in\n    tag_42:\n      tag_43\n      jump\t// in\n    tag_41:\n      mload(0x40)\n      tag_44\n      swap4\n      swap3\n      swap2\n      swap1\n      tag_40\n      jump\t// in\n    tag_44:\n      mload(0x40)\n      dup1\n      swap2\n      sub\n      swap1\n      return\n        /* \"MTP/RoleManagement.sol\":571:603  address[] public pendingRequests */\n    tag_7:\n      tag_45\n      0x04\n      dup1\n      calldatasize\n      sub\n      dup2\n      add\n      swap1\n      tag_46\n      swap2\n      swap1\n      tag_37\n      jump\t// in\n    tag_46:\n      tag_47\n      jump\t// in\n    tag_45:\n      mload(0x40)\n      tag_48\n      swap2\n      swap1\n      tag_49\n      jump\t// in\n    tag_48:\n      mload(0x40)\n      dup1\n      swap2\n      sub\n      swap1\n      return\n        /* \"MTP/RoleManagement.sol\":7291:7386  function getRole(address user) public view returns (Role) {... */\n    tag_8:\n      tag_50\n      0x04\n      dup1\n      calldatasize\n      sub\n      dup2\n      add\n      swap1\n      tag_51\n      swap2\n      swap1\n      tag_29\n      jump\t// in\n    tag_51:\n      tag_52\n      jump\t// in\n    tag_50:\n      mload(0x40)\n      tag_53\n      swap2\n      swap1\n      tag_54\n      jump\t// in\n    tag_53:\n      mload(0x40)\n      dup1\n      swap2\n      sub\n      swap1\n      return\n        /* \"MTP/RoleManagement.sol\":3282:3811  function requestIPFSNodeRole(string memory _registrationId) public {... */\n    tag_9:\n      tag_55\n      0x04\n      dup1\n      calldatasize\n      sub\n      dup2\n      add\n      swap1\n      tag_56\n      swap2\n      swap1\n      tag_33\n      jump\t// in\n    tag_56:\n      tag_57\n      jump\t// in\n    tag_55:\n      stop\n        /* \"MTP/RoleManagement.sol\":7469:8129  function getRequestStatus() public view returns (string memory, string memory) {... */\n    tag_10:\n      tag_58\n      tag_59\n      jump\t// in\n    tag_58:\n      mload(0x40)\n      tag_60\n      swap3\n      swap2\n      swap1\n      tag_61\n      jump\t// in\n    tag_60:\n      mload(0x40)\n      dup1\n      swap2\n      sub\n      swap1\n      return\n        /* \"MTP/RoleManagement.sol\":746:787  VerifiedRole[] public verifiedResearchers */\n    tag_11:\n      tag_62\n      0x04\n      dup1\n      calldatasize\n      sub\n      dup2\n      add\n      swap1\n      tag_63\n      swap2\n      swap1\n      tag_37\n      jump\t// in\n    tag_63:\n      tag_64\n      jump\t// in\n    tag_62:\n      mload(0x40)\n      tag_65\n      swap4\n      swap3\n      swap2\n      swap1\n      tag_40\n      jump\t// in\n    tag_65:\n      mload(0x40)\n      dup1\n      swap2\n      sub\n      swap1\n      return\n        /* \"MTP/RoleManagement.sol\":7119:7239  function getPendingRequests() public view onlyAdmin returns (address[] memory) {... */\n    tag_12:\n      tag_66\n      tag_67\n      jump\t// in\n    tag_66:\n      mload(0x40)\n      tag_68\n      swap2\n      swap1\n      tag_69\n      jump\t// in\n    tag_68:\n      mload(0x40)\n      dup1\n      swap2\n      sub\n      swap1\n      return\n        /* \"MTP/RoleManagement.sol\":6812:7074  function revokeRole(address _user) public onlyAdmin {... */\n    tag_13:\n      tag_70\n      0x04\n      dup1\n      calldatasize\n      sub\n      dup2\n      add\n      swap1\n      tag_71\n      swap2\n      swap1\n      tag_29\n      jump\t// in\n    tag_71:\n      tag_72\n      jump\t// in\n    tag_70:\n      stop\n        /* \"MTP/RoleManagement.sol\":5167:5758  function verifyResearcherRole(address _requestor) public onlyAdmin {... */\n    tag_14:\n      tag_73\n      0x04\n      dup1\n      calldatasize\n      sub\n      dup2\n      add\n      swap1\n      tag_74\n      swap2\n      swap1\n      tag_29\n      jump\t// in\n    tag_74:\n      tag_75\n      jump\t// in\n    tag_73:\n      stop\n        /* \"MTP/RoleManagement.sol\":3870:4451  function verifyHospitalRole(address _requestor) public onlyAdmin {... */\n    tag_15:\n      tag_76\n      0x04\n      dup1\n      calldatasize\n      sub\n      dup2\n      add\n      swap1\n      tag_77\n      swap2\n      swap1\n      tag_29\n      jump\t// in\n    tag_77:\n      tag_78\n      jump\t// in\n    tag_76:\n      stop\n        /* \"MTP/RoleManagement.sol\":442:479  mapping(address => Role) public roles */\n    tag_16:\n      tag_79\n      0x04\n      dup1\n      calldatasize\n      sub\n      dup2\n      add\n      swap1\n      tag_80\n      swap2\n      swap1\n      tag_29\n      jump\t// in\n    tag_80:\n      tag_81\n      jump\t// in\n    tag_79:\n      mload(0x40)\n      tag_82\n      swap2\n      swap1\n      tag_54\n      jump\t// in\n    tag_82:\n      mload(0x40)\n      dup1\n      swap2\n      sub\n      swap1\n      return\n        /* \"MTP/RoleManagement.sol\":2698:3231  function requestResearcherRole(string memory _registrationId) public {... */\n    tag_17:\n      tag_83\n      0x04\n      dup1\n      calldatasize\n      sub\n      dup2\n      add\n      swap1\n      tag_84\n      swap2\n      swap1\n      tag_33\n      jump\t// in\n    tag_84:\n      tag_85\n      jump\t// in\n    tag_83:\n      stop\n        /* \"MTP/RoleManagement.sol\":2112:2647  function requestDataAuditorRole(string memory _registrationId) public {... */\n    tag_18:\n      tag_86\n      0x04\n      dup1\n      calldatasize\n      sub\n      dup2\n      add\n      swap1\n      tag_87\n      swap2\n      swap1\n      tag_33\n      jump\t// in\n    tag_87:\n      tag_88\n      jump\t// in\n    tag_86:\n      stop\n        /* \"MTP/RoleManagement.sol\":486:537  mapping(address => RoleRequest) public roleRequests */\n    tag_19:\n      tag_89\n      0x04\n      dup1\n      calldatasize\n      sub\n      dup2\n      add\n      swap1\n      tag_90\n      swap2\n      swap1\n      tag_29\n      jump\t// in\n    tag_90:\n      tag_91\n      jump\t// in\n    tag_89:\n      mload(0x40)\n      tag_92\n      swap3\n      swap2\n      swap1\n      tag_93\n      jump\t// in\n    tag_92:\n      mload(0x40)\n      dup1\n      swap2\n      sub\n      swap1\n      return\n        /* \"MTP/RoleManagement.sol\":5819:6400  function verifyIPFSNodeRole(address _requestor) public onlyAdmin {... */\n    tag_20:\n      tag_94\n      0x04\n      dup1\n      calldatasize\n      sub\n      dup2\n      add\n      swap1\n      tag_95\n      swap2\n      swap1\n      tag_29\n      jump\t// in\n    tag_95:\n      tag_96\n      jump\t// in\n    tag_94:\n      stop\n        /* \"MTP/RoleManagement.sol\":6449:6771  function rejectRole(address _requestor) public onlyAdmin {... */\n    tag_21:\n      tag_97\n      0x04\n      dup1\n      calldatasize\n      sub\n      dup2\n      add\n      swap1\n      tag_98\n      swap2\n      swap1\n      tag_29\n      jump\t// in\n    tag_98:\n      tag_99\n      jump\t// in\n    tag_97:\n      stop\n        /* \"MTP/RoleManagement.sol\":701:739  VerifiedRole[] public verifiedAuditors */\n    tag_22:\n      tag_100\n      0x04\n      dup1\n      calldatasize\n      sub\n      dup2\n      add\n      swap1\n      tag_101\n      swap2\n      swap1\n      tag_37\n      jump\t// in\n    tag_101:\n      tag_102\n      jump\t// in\n    tag_100:\n      mload(0x40)\n      tag_103\n      swap4\n      swap3\n      swap2\n      swap1\n      tag_40\n      jump\t// in\n    tag_103:\n      mload(0x40)\n      dup1\n      swap2\n      sub\n      swap1\n      return\n        /* \"MTP/RoleManagement.sol\":544:564  address public admin */\n    tag_23:\n      tag_104\n      tag_105\n      jump\t// in\n    tag_104:\n      mload(0x40)\n      tag_106\n      swap2\n      swap1\n      tag_49\n      jump\t// in\n    tag_106:\n      mload(0x40)\n      dup1\n      swap2\n      sub\n      swap1\n      return\n        /* \"MTP/RoleManagement.sol\":4514:5106  function verifyDataAuditorRole(address _requestor) public onlyAdmin {... */\n    tag_30:\n        /* \"MTP/RoleManagement.sol\":1157:1162  admin */\n      0x02\n      0x00\n      swap1\n      sload\n      swap1\n      0x0100\n      exp\n      swap1\n      div\n      0xffffffffffffffffffffffffffffffffffffffff\n      and\n        /* \"MTP/RoleManagement.sol\":1143:1162  msg.sender == admin */\n      0xffffffffffffffffffffffffffffffffffffffff\n      and\n        /* \"MTP/RoleManagement.sol\":1143:1153  msg.sender */\n      caller\n        /* \"MTP/RoleManagement.sol\":1143:1162  msg.sender == admin */\n      0xffffffffffffffffffffffffffffffffffffffff\n      and\n      eq\n        /* \"MTP/RoleManagement.sol\":1135:1201  require(msg.sender == admin, \"Only admin can perform this action\") */\n      tag_108\n      jumpi\n      mload(0x40)\n      0x08c379a000000000000000000000000000000000000000000000000000000000\n      dup2\n      mstore\n      0x04\n      add\n      tag_109\n      swap1\n      tag_110\n      jump\t// in\n    tag_109:\n      mload(0x40)\n      dup1\n      swap2\n      sub\n      swap1\n      revert\n    tag_108:\n        /* \"MTP/RoleManagement.sol\":4636:4659  RequestStatus.Requested */\n      0x01\n        /* \"MTP/RoleManagement.sol\":4601:4659  roleRequests[_requestor].status == RequestStatus.Requested */\n      0x03\n      dup2\n      gt\n      iszero\n      tag_112\n      jumpi\n      tag_113\n      tag_114\n      jump\t// in\n    tag_113:\n    tag_112:\n        /* \"MTP/RoleManagement.sol\":4601:4613  roleRequests */\n      0x01\n        /* \"MTP/RoleManagement.sol\":4601:4625  roleRequests[_requestor] */\n      0x00\n        /* \"MTP/RoleManagement.sol\":4614:4624  _requestor */\n      dup4\n        /* \"MTP/RoleManagement.sol\":4601:4625  roleRequests[_requestor] */\n      0xffffffffffffffffffffffffffffffffffffffff\n      and\n      0xffffffffffffffffffffffffffffffffffffffff\n      and\n      dup2\n      mstore\n      0x20\n      add\n      swap1\n      dup2\n      mstore\n      0x20\n      add\n      0x00\n      keccak256\n        /* \"MTP/RoleManagement.sol\":4601:4632  roleRequests[_requestor].status */\n      0x01\n      add\n      0x00\n      swap1\n      sload\n      swap1\n      0x0100\n      exp\n      swap1\n      div\n      0xff\n      and\n        /* \"MTP/RoleManagement.sol\":4601:4659  roleRequests[_requestor].status == RequestStatus.Requested */\n      0x03\n      dup2\n      gt\n      iszero\n      tag_115\n      jumpi\n      tag_116\n      tag_114\n      jump\t// in\n    tag_116:\n    tag_115:\n      eq\n        /* \"MTP/RoleManagement.sol\":4593:4684  require(roleRequests[_requestor].status == RequestStatus.Requested, \"No request to verify\") */\n      tag_117\n      jumpi\n      mload(0x40)\n      0x08c379a000000000000000000000000000000000000000000000000000000000\n      dup2\n      mstore\n      0x04\n      add\n      tag_118\n      swap1\n      tag_119\n      jump\t// in\n    tag_118:\n      mload(0x40)\n      dup1\n      swap2\n      sub\n      swap1\n      revert\n    tag_117:\n        /* \"MTP/RoleManagement.sol\":4724:4733  Role.None */\n      0x00\n        /* \"MTP/RoleManagement.sol\":4703:4733  roles[_requestor] == Role.None */\n      0x04\n      dup2\n      gt\n      iszero\n      tag_120\n      jumpi\n      tag_121\n      tag_114\n      jump\t// in\n    tag_121:\n    tag_120:\n        /* \"MTP/RoleManagement.sol\":4703:4708  roles */\n      0x00\n        /* \"MTP/RoleManagement.sol\":4703:4720  roles[_requestor] */\n      dup1\n        /* \"MTP/RoleManagement.sol\":4709:4719  _requestor */\n      dup4\n        /* \"MTP/RoleManagement.sol\":4703:4720  roles[_requestor] */\n      0xffffffffffffffffffffffffffffffffffffffff\n      and\n      0xffffffffffffffffffffffffffffffffffffffff\n      and\n      dup2\n      mstore\n      0x20\n      add\n      swap1\n      dup2\n      mstore\n      0x20\n      add\n      0x00\n      keccak256\n      0x00\n      swap1\n      sload\n      swap1\n      0x0100\n      exp\n      swap1\n      div\n      0xff\n      and\n        /* \"MTP/RoleManagement.sol\":4703:4733  roles[_requestor] == Role.None */\n      0x04\n      dup2\n      gt\n      iszero\n      tag_122\n      jumpi\n      tag_123\n      tag_114\n      jump\t// in\n    tag_123:\n    tag_122:\n      eq\n        /* \"MTP/RoleManagement.sol\":4695:4759  require(roles[_requestor] == Role.None, \"Role already assigned\") */\n      tag_124\n      jumpi\n      mload(0x40)\n      0x08c379a000000000000000000000000000000000000000000000000000000000\n      dup2\n      mstore\n      0x04\n      add\n      tag_125\n      swap1\n      tag_126\n      jump\t// in\n    tag_125:\n      mload(0x40)\n      dup1\n      swap2\n      sub\n      swap1\n      revert\n    tag_124:\n        /* \"MTP/RoleManagement.sol\":4792:4808  Role.DataAuditor */\n      0x02\n        /* \"MTP/RoleManagement.sol\":4772:4777  roles */\n      0x00\n        /* \"MTP/RoleManagement.sol\":4772:4789  roles[_requestor] */\n      dup1\n        /* \"MTP/RoleManagement.sol\":4778:4788  _requestor */\n      dup4\n        /* \"MTP/RoleManagement.sol\":4772:4789  roles[_requestor] */\n      0xffffffffffffffffffffffffffffffffffffffff\n      and\n      0xffffffffffffffffffffffffffffffffffffffff\n      and\n      dup2\n      mstore\n      0x20\n      add\n      swap1\n      dup2\n      mstore\n      0x20\n      add\n      0x00\n      keccak256\n      0x00\n        /* \"MTP/RoleManagement.sol\":4772:4808  roles[_requestor] = Role.DataAuditor */\n      0x0100\n      exp\n      dup2\n      sload\n      dup2\n      0xff\n      mul\n      not\n      and\n      swap1\n      dup4\n      0x04\n      dup2\n      gt\n      iszero\n      tag_127\n      jumpi\n      tag_128\n      tag_114\n      jump\t// in\n    tag_128:\n    tag_127:\n      mul\n      or\n      swap1\n      sstore\n      pop\n        /* \"MTP/RoleManagement.sol\":4853:4875  RequestStatus.Approved */\n      0x02\n        /* \"MTP/RoleManagement.sol\":4819:4831  roleRequests */\n      0x01\n        /* \"MTP/RoleManagement.sol\":4819:4843  roleRequests[_requestor] */\n      0x00\n        /* \"MTP/RoleManagement.sol\":4832:4842  _requestor */\n      dup4\n        /* \"MTP/RoleManagement.sol\":4819:4843  roleRequests[_requestor] */\n      0xffffffffffffffffffffffffffffffffffffffff\n      and\n      0xffffffffffffffffffffffffffffffffffffffff\n      and\n      dup2\n      mstore\n      0x20\n      add\n      swap1\n      dup2\n      mstore\n      0x20\n      add\n      0x00\n      keccak256\n        /* \"MTP/RoleManagement.sol\":4819:4850  roleRequests[_requestor].status */\n      0x01\n      add\n      0x00\n        /* \"MTP/RoleManagement.sol\":4819:4875  roleRequests[_requestor].status = RequestStatus.Approved */\n      0x0100\n      exp\n      dup2\n      sload\n      dup2\n      0xff\n      mul\n      not\n      and\n      swap1\n      dup4\n      0x03\n      dup2\n      gt\n      iszero\n      tag_129\n      jumpi\n      tag_130\n      tag_114\n      jump\t// in\n    tag_130:\n    tag_129:\n      mul\n      or\n      swap1\n      sstore\n      pop\n        /* \"MTP/RoleManagement.sol\":4888:4904  verifiedAuditors */\n      0x05\n        /* \"MTP/RoleManagement.sol\":4910:4993  VerifiedRole(_requestor, Role.DataAuditor, roleRequests[_requestor].registrationId) */\n      mload(0x40)\n      dup1\n      0x60\n      add\n      0x40\n      mstore\n      dup1\n        /* \"MTP/RoleManagement.sol\":4923:4933  _requestor */\n      dup4\n        /* \"MTP/RoleManagement.sol\":4910:4993  VerifiedRole(_requestor, Role.DataAuditor, roleRequests[_requestor].registrationId) */\n      0xffffffffffffffffffffffffffffffffffffffff\n      and\n      dup2\n      mstore\n      0x20\n      add\n        /* \"MTP/RoleManagement.sol\":4935:4951  Role.DataAuditor */\n      0x02\n        /* \"MTP/RoleManagement.sol\":4910:4993  VerifiedRole(_requestor, Role.DataAuditor, roleRequests[_requestor].registrationId) */\n      0x04\n      dup2\n      gt\n      iszero\n      tag_131\n      jumpi\n      tag_132\n      tag_114\n      jump\t// in\n    tag_132:\n    tag_131:\n      dup2\n      mstore\n      0x20\n      add\n        /* \"MTP/RoleManagement.sol\":4953:4965  roleRequests */\n      0x01\n        /* \"MTP/RoleManagement.sol\":4953:4977  roleRequests[_requestor] */\n      0x00\n        /* \"MTP/RoleManagement.sol\":4966:4976  _requestor */\n      dup6\n        /* \"MTP/RoleManagement.sol\":4953:4977  roleRequests[_requestor] */\n      0xffffffffffffffffffffffffffffffffffffffff\n      and\n      0xffffffffffffffffffffffffffffffffffffffff\n      and\n      dup2\n      mstore\n      0x20\n      add\n      swap1\n      dup2\n      mstore\n      0x20\n      add\n      0x00\n      keccak256\n        /* \"MTP/RoleManagement.sol\":4953:4992  roleRequests[_requestor].registrationId */\n      0x00\n      add\n        /* \"MTP/RoleManagement.sol\":4910:4993  VerifiedRole(_requestor, Role.DataAuditor, roleRequests[_requestor].registrationId) */\n      dup1\n      sload\n      tag_133\n      swap1\n      tag_134\n      jump\t// in\n    tag_133:\n      dup1\n      0x1f\n      add\n      0x20\n      dup1\n      swap2\n      div\n      mul\n      0x20\n      add\n      mload(0x40)\n      swap1\n      dup2\n      add\n      0x40\n      mstore\n      dup1\n      swap3\n      swap2\n      swap1\n      dup2\n      dup2\n      mstore\n      0x20\n      add\n      dup3\n      dup1\n      sload\n      tag_135\n      swap1\n      tag_134\n      jump\t// in\n    tag_135:\n      dup1\n      iszero\n      tag_136\n      jumpi\n      dup1\n      0x1f\n      lt\n      tag_137\n      jumpi\n      0x0100\n      dup1\n      dup4\n      sload\n      div\n      mul\n      dup4\n      mstore\n      swap2\n      0x20\n      add\n      swap2\n      jump(tag_136)\n    tag_137:\n      dup3\n      add\n      swap2\n      swap1\n      0x00\n      mstore\n      keccak256(0x00, 0x20)\n      swap1\n    tag_138:\n      dup2\n      sload\n      dup2\n      mstore\n      swap1\n      0x01\n      add\n      swap1\n      0x20\n      add\n      dup1\n      dup4\n      gt\n      tag_138\n      jumpi\n      dup3\n      swap1\n      sub\n      0x1f\n      and\n      dup3\n      add\n      swap2\n    tag_136:\n      pop\n      pop\n      pop\n      pop\n      pop\n      dup2\n      mstore\n      pop\n        /* \"MTP/RoleManagement.sol\":4888:4994  verifiedAuditors.push(VerifiedRole(_requestor, Role.DataAuditor, roleRequests[_requestor].registrationId)) */\n      swap1\n      dup1\n      0x01\n      dup2\n      sload\n      add\n      dup1\n      dup3\n      sstore\n      dup1\n      swap2\n      pop\n      pop\n      0x01\n      swap1\n      sub\n      swap1\n      0x00\n      mstore\n      keccak256(0x00, 0x20)\n      swap1\n      0x02\n      mul\n      add\n      0x00\n      swap1\n      swap2\n      swap1\n      swap2\n      swap1\n      swap2\n      pop\n      0x00\n      dup3\n      add\n      mload\n      dup2\n      0x00\n      add\n      exp(0x0100, 0x00)\n      dup2\n      sload\n      dup2\n      0xffffffffffffffffffffffffffffffffffffffff\n      mul\n      not\n      and\n      swap1\n      dup4\n      0xffffffffffffffffffffffffffffffffffffffff\n      and\n      mul\n      or\n      swap1\n      sstore\n      pop\n      0x20\n      dup3\n      add\n      mload\n      dup2\n      0x00\n      add\n      exp(0x0100, 0x14)\n      dup2\n      sload\n      dup2\n      0xff\n      mul\n      not\n      and\n      swap1\n      dup4\n      0x04\n      dup2\n      gt\n      iszero\n      tag_140\n      jumpi\n      tag_141\n      tag_114\n      jump\t// in\n    tag_141:\n    tag_140:\n      mul\n      or\n      swap1\n      sstore\n      pop\n      0x40\n      dup3\n      add\n      mload\n      dup2\n      0x01\n      add\n      swap1\n      dup2\n      tag_142\n      swap2\n      swap1\n      tag_143\n      jump\t// in\n    tag_142:\n      pop\n      pop\n      pop\n        /* \"MTP/RoleManagement.sol\":5005:5038  _removePendingRequest(_requestor) */\n      tag_144\n        /* \"MTP/RoleManagement.sol\":5027:5037  _requestor */\n      dup2\n        /* \"MTP/RoleManagement.sol\":5005:5026  _removePendingRequest */\n      tag_145\n        /* \"MTP/RoleManagement.sol\":5005:5038  _removePendingRequest(_requestor) */\n      jump\t// in\n    tag_144:\n        /* \"MTP/RoleManagement.sol\":5069:5079  _requestor */\n      dup1\n        /* \"MTP/RoleManagement.sol\":5056:5098  RoleApproved(_requestor, Role.DataAuditor) */\n      0xffffffffffffffffffffffffffffffffffffffff\n      and\n      0x042f52f18ca9258767cef802b6283a39f6c1053fbd02bee367edc363da679f86\n        /* \"MTP/RoleManagement.sol\":5081:5097  Role.DataAuditor */\n      0x02\n        /* \"MTP/RoleManagement.sol\":5056:5098  RoleApproved(_requestor, Role.DataAuditor) */\n      mload(0x40)\n      tag_146\n      swap2\n      swap1\n      tag_54\n      jump\t// in\n    tag_146:\n      mload(0x40)\n      dup1\n      swap2\n      sub\n      swap1\n      log2\n        /* \"MTP/RoleManagement.sol\":4514:5106  function verifyDataAuditorRole(address _requestor) public onlyAdmin {... */\n      pop\n      jump\t// out\n        /* \"MTP/RoleManagement.sol\":1521:2050  function requestHospitalRole(string memory _registrationId) public {... */\n    tag_34:\n        /* \"MTP/RoleManagement.sol\":1628:1637  Role.None */\n      0x00\n        /* \"MTP/RoleManagement.sol\":1607:1637  roles[msg.sender] == Role.None */\n      0x04\n      dup2\n      gt\n      iszero\n      tag_148\n      jumpi\n      tag_149\n      tag_114\n      jump\t// in\n    tag_149:\n    tag_148:\n        /* \"MTP/RoleManagement.sol\":1607:1612  roles */\n      0x00\n        /* \"MTP/RoleManagement.sol\":1607:1624  roles[msg.sender] */\n      dup1\n        /* \"MTP/RoleManagement.sol\":1613:1623  msg.sender */\n      caller\n        /* \"MTP/RoleManagement.sol\":1607:1624  roles[msg.sender] */\n      0xffffffffffffffffffffffffffffffffffffffff\n      and\n      0xffffffffffffffffffffffffffffffffffffffff\n      and\n      dup2\n      mstore\n      0x20\n      add\n      swap1\n      dup2\n      mstore\n      0x20\n      add\n      0x00\n      keccak256\n      0x00\n      swap1\n      sload\n      swap1\n      0x0100\n      exp\n      swap1\n      div\n      0xff\n      and\n        /* \"MTP/RoleManagement.sol\":1607:1637  roles[msg.sender] == Role.None */\n      0x04\n      dup2\n      gt\n      iszero\n      tag_150\n      jumpi\n      tag_151\n      tag_114\n      jump\t// in\n    tag_151:\n    tag_150:\n      eq\n        /* \"MTP/RoleManagement.sol\":1599:1663  require(roles[msg.sender] == Role.None, \"Role already assigned\") */\n      tag_152\n      jumpi\n      mload(0x40)\n      0x08c379a000000000000000000000000000000000000000000000000000000000\n      dup2\n      mstore\n      0x04\n      add\n      tag_153\n      swap1\n      tag_126\n      jump\t// in\n    tag_153:\n      mload(0x40)\n      dup1\n      swap2\n      sub\n      swap1\n      revert\n    tag_152:\n        /* \"MTP/RoleManagement.sol\":1717:1735  RequestStatus.None */\n      0x00\n        /* \"MTP/RoleManagement.sol\":1682:1735  roleRequests[msg.sender].status == RequestStatus.None */\n      0x03\n      dup2\n      gt\n      iszero\n      tag_154\n      jumpi\n      tag_155\n      tag_114\n      jump\t// in\n    tag_155:\n    tag_154:\n        /* \"MTP/RoleManagement.sol\":1682:1694  roleRequests */\n      0x01\n        /* \"MTP/RoleManagement.sol\":1682:1706  roleRequests[msg.sender] */\n      0x00\n        /* \"MTP/RoleManagement.sol\":1695:1705  msg.sender */\n      caller\n        /* \"MTP/RoleManagement.sol\":1682:1706  roleRequests[msg.sender] */\n      0xffffffffffffffffffffffffffffffffffffffff\n      and\n      0xffffffffffffffffffffffffffffffffffffffff\n      and\n      dup2\n      mstore\n      0x20\n      add\n      swap1\n      dup2\n      mstore\n      0x20\n      add\n      0x00\n      keccak256\n        /* \"MTP/RoleManagement.sol\":1682:1713  roleRequests[msg.sender].status */\n      0x01\n      add\n      0x00\n      swap1\n      sload\n      swap1\n      0x0100\n      exp\n      swap1\n      div\n      0xff\n      and\n        /* \"MTP/RoleManagement.sol\":1682:1735  roleRequests[msg.sender].status == RequestStatus.None */\n      0x03\n      dup2\n      gt\n      iszero\n      tag_156\n      jumpi\n      tag_157\n      tag_114\n      jump\t// in\n    tag_157:\n    tag_156:\n      eq\n        /* \"MTP/RoleManagement.sol\":1674:1768  require(roleRequests[msg.sender].status == RequestStatus.None, \"Role request already pending\") */\n      tag_158\n      jumpi\n      mload(0x40)\n      0x08c379a000000000000000000000000000000000000000000000000000000000\n      dup2\n      mstore\n      0x04\n      add\n      tag_159\n      swap1\n      tag_160\n      jump\t// in\n    tag_159:\n      mload(0x40)\n      dup1\n      swap2\n      sub\n      swap1\n      revert\n    tag_158:\n        /* \"MTP/RoleManagement.sol\":1808:1924  RoleRequest({... */\n      mload(0x40)\n      dup1\n      0x40\n      add\n      0x40\n      mstore\n      dup1\n        /* \"MTP/RoleManagement.sol\":1851:1866  _registrationId */\n      dup3\n        /* \"MTP/RoleManagement.sol\":1808:1924  RoleRequest({... */\n      dup2\n      mstore\n      0x20\n      add\n        /* \"MTP/RoleManagement.sol\":1889:1912  RequestStatus.Requested */\n      0x01\n        /* \"MTP/RoleManagement.sol\":1808:1924  RoleRequest({... */\n      0x03\n      dup2\n      gt\n      iszero\n      tag_161\n      jumpi\n      tag_162\n      tag_114\n      jump\t// in\n    tag_162:\n    tag_161:\n      dup2\n      mstore\n      pop\n        /* \"MTP/RoleManagement.sol\":1781:1793  roleRequests */\n      0x01\n        /* \"MTP/RoleManagement.sol\":1781:1805  roleRequests[msg.sender] */\n      0x00\n        /* \"MTP/RoleManagement.sol\":1794:1804  msg.sender */\n      caller\n        /* \"MTP/RoleManagement.sol\":1781:1805  roleRequests[msg.sender] */\n      0xffffffffffffffffffffffffffffffffffffffff\n      and\n      0xffffffffffffffffffffffffffffffffffffffff\n      and\n      dup2\n      mstore\n      0x20\n      add\n      swap1\n      dup2\n      mstore\n      0x20\n      add\n      0x00\n      keccak256\n        /* \"MTP/RoleManagement.sol\":1781:1924  roleRequests[msg.sender] = RoleRequest({... */\n      0x00\n      dup3\n      add\n      mload\n      dup2\n      0x00\n      add\n      swap1\n      dup2\n      tag_163\n      swap2\n      swap1\n      tag_143\n      jump\t// in\n    tag_163:\n      pop\n      0x20\n      dup3\n      add\n      mload\n      dup2\n      0x01\n      add\n      exp(0x0100, 0x00)\n      dup2\n      sload\n      dup2\n      0xff\n      mul\n      not\n      and\n      swap1\n      dup4\n      0x03\n      dup2\n      gt\n      iszero\n      tag_164\n      jumpi\n      tag_165\n      tag_114\n      jump\t// in\n    tag_165:\n    tag_164:\n      mul\n      or\n      swap1\n      sstore\n      pop\n      swap1\n      pop\n      pop\n        /* \"MTP/RoleManagement.sol\":1937:1952  pendingRequests */\n      0x03\n        /* \"MTP/RoleManagement.sol\":1958:1968  msg.sender */\n      caller\n        /* \"MTP/RoleManagement.sol\":1937:1969  pendingRequests.push(msg.sender) */\n      swap1\n      dup1\n      0x01\n      dup2\n      sload\n      add\n      dup1\n      dup3\n      sstore\n      dup1\n      swap2\n      pop\n      pop\n      0x01\n      swap1\n      sub\n      swap1\n      0x00\n      mstore\n      keccak256(0x00, 0x20)\n      add\n      0x00\n      swap1\n      swap2\n      swap1\n      swap2\n      swap1\n      swap2\n      0x0100\n      exp\n      dup2\n      sload\n      dup2\n      0xffffffffffffffffffffffffffffffffffffffff\n      mul\n      not\n      and\n      swap1\n      dup4\n      0xffffffffffffffffffffffffffffffffffffffff\n      and\n      mul\n      or\n      swap1\n      sstore\n      pop\n        /* \"MTP/RoleManagement.sol\":1999:2009  msg.sender */\n      caller\n        /* \"MTP/RoleManagement.sol\":1985:2042  RoleRequested(msg.sender, _registrationId, Role.Hospital) */\n      0xffffffffffffffffffffffffffffffffffffffff\n      and\n      0x5c8e9edc72d072388931db2631b495f2ce13d46af59a06e2a24e0e514db7904b\n        /* \"MTP/RoleManagement.sol\":2011:2026  _registrationId */\n      dup3\n        /* \"MTP/RoleManagement.sol\":2028:2041  Role.Hospital */\n      0x01\n        /* \"MTP/RoleManagement.sol\":1985:2042  RoleRequested(msg.sender, _registrationId, Role.Hospital) */\n      mload(0x40)\n      tag_167\n      swap3\n      swap2\n      swap1\n      tag_168\n      jump\t// in\n    tag_167:\n      mload(0x40)\n      dup1\n      swap2\n      sub\n      swap1\n      log2\n        /* \"MTP/RoleManagement.sol\":1521:2050  function requestHospitalRole(string memory _registrationId) public {... */\n      pop\n      jump\t// out\n        /* \"MTP/RoleManagement.sol\":655:694  VerifiedRole[] public verifiedHospitals */\n    tag_38:\n      0x04\n      dup2\n      dup2\n      sload\n      dup2\n      lt\n      tag_169\n      jumpi\n      0x00\n      dup1\n      revert\n    tag_169:\n      swap1\n      0x00\n      mstore\n      keccak256(0x00, 0x20)\n      swap1\n      0x02\n      mul\n      add\n      0x00\n      swap2\n      pop\n      swap1\n      pop\n      dup1\n      0x00\n      add\n      0x00\n      swap1\n      sload\n      swap1\n      0x0100\n      exp\n      swap1\n      div\n      0xffffffffffffffffffffffffffffffffffffffff\n      and\n      swap1\n      dup1\n      0x00\n      add\n      0x14\n      swap1\n      sload\n      swap1\n      0x0100\n      exp\n      swap1\n      div\n      0xff\n      and\n      swap1\n      dup1\n      0x01\n      add\n      dup1\n      sload\n      tag_171\n      swap1\n      tag_134\n      jump\t// in\n    tag_171:\n      dup1\n      0x1f\n      add\n      0x20\n      dup1\n      swap2\n      div\n      mul\n      0x20\n      add\n      mload(0x40)\n      swap1\n      dup2\n      add\n      0x40\n      mstore\n      dup1\n      swap3\n      swap2\n      swap1\n      dup2\n      dup2\n      mstore\n      0x20\n      add\n      dup3\n      dup1\n      sload\n      tag_172\n      swap1\n      tag_134\n      jump\t// in\n    tag_172:\n      dup1\n      iszero\n      tag_173\n      jumpi\n      dup1\n      0x1f\n      lt\n      tag_174\n      jumpi\n      0x0100\n      dup1\n      dup4\n      sload\n      div\n      mul\n      dup4\n      mstore\n      swap2\n      0x20\n      add\n      swap2\n      jump(tag_173)\n    tag_174:\n      dup3\n      add\n      swap2\n      swap1\n      0x00\n      mstore\n      keccak256(0x00, 0x20)\n      swap1\n    tag_175:\n      dup2\n      sload\n      dup2\n      mstore\n      swap1\n      0x01\n      add\n      swap1\n      0x20\n      add\n      dup1\n      dup4\n      gt\n      tag_175\n      jumpi\n      dup3\n      swap1\n      sub\n      0x1f\n      and\n      dup3\n      add\n      swap2\n    tag_173:\n      pop\n      pop\n      pop\n      pop\n      pop\n      swap1\n      pop\n      dup4\n      jump\t// out\n        /* \"MTP/RoleManagement.sol\":794:833  VerifiedRole[] public verifiedIPFSNodes */\n    tag_43:\n      0x07\n      dup2\n      dup2\n      sload\n      dup2\n      lt\n      tag_176\n      jumpi\n      0x00\n      dup1\n      revert\n    tag_176:\n      swap1\n      0x00\n      mstore\n      keccak256(0x00, 0x20)\n      swap1\n      0x02\n      mul\n      add\n      0x00\n      swap2\n      pop\n      swap1\n      pop\n      dup1\n      0x00\n      add\n      0x00\n      swap1\n      sload\n      swap1\n      0x0100\n      exp\n      swap1\n      div\n      0xffffffffffffffffffffffffffffffffffffffff\n      and\n      swap1\n      dup1\n      0x00\n      add\n      0x14\n      swap1\n      sload\n      swap1\n      0x0100\n      exp\n      swap1\n      div\n      0xff\n      and\n      swap1\n      dup1\n      0x01\n      add\n      dup1\n      sload\n      tag_178\n      swap1\n      tag_134\n      jump\t// in\n    tag_178:\n      dup1\n      0x1f\n      add\n      0x20\n      dup1\n      swap2\n      div\n      mul\n      0x20\n      add\n      mload(0x40)\n      swap1\n      dup2\n      add\n      0x40\n      mstore\n      dup1\n      swap3\n      swap2\n      swap1\n      dup2\n      dup2\n      mstore\n      0x20\n      add\n      dup3\n      dup1\n      sload\n      tag_179\n      swap1\n      tag_134\n      jump\t// in\n    tag_179:\n      dup1\n      iszero\n      tag_180\n      jumpi\n      dup1\n      0x1f\n      lt\n      tag_181\n      jumpi\n      0x0100\n      dup1\n      dup4\n      sload\n      div\n      mul\n      dup4\n      mstore\n      swap2\n      0x20\n      add\n      swap2\n      jump(tag_180)\n    tag_181:\n      dup3\n      add\n      swap2\n      swap1\n      0x00\n      mstore\n      keccak256(0x00, 0x20)\n      swap1\n    tag_182:\n      dup2\n      sload\n      dup2\n      mstore\n      swap1\n      0x01\n      add\n      swap1\n      0x20\n      add\n      dup1\n      dup4\n      gt\n      tag_182\n      jumpi\n      dup3\n      swap1\n      sub\n      0x1f\n      and\n      dup3\n      add\n      swap2\n    tag_180:\n      pop\n      pop\n      pop\n      pop\n      pop\n      swap1\n      pop\n      dup4\n      jump\t// out\n        /* \"MTP/RoleManagement.sol\":571:603  address[] public pendingRequests */\n    tag_47:\n      0x03\n      dup2\n      dup2\n      sload\n      dup2\n      lt\n      tag_183\n      jumpi\n      0x00\n      dup1\n      revert\n    tag_183:\n      swap1\n      0x00\n      mstore\n      keccak256(0x00, 0x20)\n      add\n      0x00\n      swap2\n      pop\n      sload\n      swap1\n      0x0100\n      exp\n      swap1\n      div\n      0xffffffffffffffffffffffffffffffffffffffff\n      and\n      dup2\n      jump\t// out\n        /* \"MTP/RoleManagement.sol\":7291:7386  function getRole(address user) public view returns (Role) {... */\n    tag_52:\n        /* \"MTP/RoleManagement.sol\":7343:7347  Role */\n      0x00\n        /* \"MTP/RoleManagement.sol\":7367:7372  roles */\n      dup1\n        /* \"MTP/RoleManagement.sol\":7367:7378  roles[user] */\n      0x00\n        /* \"MTP/RoleManagement.sol\":7373:7377  user */\n      dup4\n        /* \"MTP/RoleManagement.sol\":7367:7378  roles[user] */\n      0xffffffffffffffffffffffffffffffffffffffff\n      and\n      0xffffffffffffffffffffffffffffffffffffffff\n      and\n      dup2\n      mstore\n      0x20\n      add\n      swap1\n      dup2\n      mstore\n      0x20\n      add\n      0x00\n      keccak256\n      0x00\n      swap1\n      sload\n      swap1\n      0x0100\n      exp\n      swap1\n      div\n      0xff\n      and\n        /* \"MTP/RoleManagement.sol\":7360:7378  return roles[user] */\n      swap1\n      pop\n        /* \"MTP/RoleManagement.sol\":7291:7386  function getRole(address user) public view returns (Role) {... */\n      swap2\n      swap1\n      pop\n      jump\t// out\n        /* \"MTP/RoleManagement.sol\":3282:3811  function requestIPFSNodeRole(string memory _registrationId) public {... */\n    tag_57:\n        /* \"MTP/RoleManagement.sol\":3389:3398  Role.None */\n      0x00\n        /* \"MTP/RoleManagement.sol\":3368:3398  roles[msg.sender] == Role.None */\n      0x04\n      dup2\n      gt\n      iszero\n      tag_187\n      jumpi\n      tag_188\n      tag_114\n      jump\t// in\n    tag_188:\n    tag_187:\n        /* \"MTP/RoleManagement.sol\":3368:3373  roles */\n      0x00\n        /* \"MTP/RoleManagement.sol\":3368:3385  roles[msg.sender] */\n      dup1\n        /* \"MTP/RoleManagement.sol\":3374:3384  msg.sender */\n      caller\n        /* \"MTP/RoleManagement.sol\":3368:3385  roles[msg.sender] */\n      0xffffffffffffffffffffffffffffffffffffffff\n      and\n      0xffffffffffffffffffffffffffffffffffffffff\n      and\n      dup2\n      mstore\n      0x20\n      add\n      swap1\n      dup2\n      mstore\n      0x20\n      add\n      0x00\n      keccak256\n      0x00\n      swap1\n      sload\n      swap1\n      0x0100\n      exp\n      swap1\n      div\n      0xff\n      and\n        /* \"MTP/RoleManagement.sol\":3368:3398  roles[msg.sender] == Role.None */\n      0x04\n      dup2\n      gt\n      iszero\n      tag_189\n      jumpi\n      tag_190\n      tag_114\n      jump\t// in\n    tag_190:\n    tag_189:\n      eq\n        /* \"MTP/RoleManagement.sol\":3360:3424  require(roles[msg.sender] == Role.None, \"Role already assigned\") */\n      tag_191\n      jumpi\n      mload(0x40)\n      0x08c379a000000000000000000000000000000000000000000000000000000000\n      dup2\n      mstore\n      0x04\n      add\n      tag_192\n      swap1\n      tag_126\n      jump\t// in\n    tag_192:\n      mload(0x40)\n      dup1\n      swap2\n      sub\n      swap1\n      revert\n    tag_191:\n        /* \"MTP/RoleManagement.sol\":3478:3496  RequestStatus.None */\n      0x00\n        /* \"MTP/RoleManagement.sol\":3443:3496  roleRequests[msg.sender].status == RequestStatus.None */\n      0x03\n      dup2\n      gt\n      iszero\n      tag_193\n      jumpi\n      tag_194\n      tag_114\n      jump\t// in\n    tag_194:\n    tag_193:\n        /* \"MTP/RoleManagement.sol\":3443:3455  roleRequests */\n      0x01\n        /* \"MTP/RoleManagement.sol\":3443:3467  roleRequests[msg.sender] */\n      0x00\n        /* \"MTP/RoleManagement.sol\":3456:3466  msg.sender */\n      caller\n        /* \"MTP/RoleManagement.sol\":3443:3467  roleRequests[msg.sender] */\n      0xffffffffffffffffffffffffffffffffffffffff\n      and\n      0xffffffffffffffffffffffffffffffffffffffff\n      and\n      dup2\n      mstore\n      0x20\n      add\n      swap1\n      dup2\n      mstore\n      0x20\n      add\n      0x00\n      keccak256\n        /* \"MTP/RoleManagement.sol\":3443:3474  roleRequests[msg.sender].status */\n      0x01\n      add\n      0x00\n      swap1\n      sload\n      swap1\n      0x0100\n      exp\n      swap1\n      div\n      0xff\n      and\n        /* \"MTP/RoleManagement.sol\":3443:3496  roleRequests[msg.sender].status == RequestStatus.None */\n      0x03\n      dup2\n      gt\n      iszero\n      tag_195\n      jumpi\n      tag_196\n      tag_114\n      jump\t// in\n    tag_196:\n    tag_195:\n      eq\n        /* \"MTP/RoleManagement.sol\":3435:3529  require(roleRequests[msg.sender].status == RequestStatus.None, \"Role request already pending\") */\n      tag_197\n      jumpi\n      mload(0x40)\n      0x08c379a000000000000000000000000000000000000000000000000000000000\n      dup2\n      mstore\n      0x04\n      add\n      tag_198\n      swap1\n      tag_160\n      jump\t// in\n    tag_198:\n      mload(0x40)\n      dup1\n      swap2\n      sub\n      swap1\n      revert\n    tag_197:\n        /* \"MTP/RoleManagement.sol\":3569:3685  RoleRequest({... */\n      mload(0x40)\n      dup1\n      0x40\n      add\n      0x40\n      mstore\n      dup1\n        /* \"MTP/RoleManagement.sol\":3612:3627  _registrationId */\n      dup3\n        /* \"MTP/RoleManagement.sol\":3569:3685  RoleRequest({... */\n      dup2\n      mstore\n      0x20\n      add\n        /* \"MTP/RoleManagement.sol\":3650:3673  RequestStatus.Requested */\n      0x01\n        /* \"MTP/RoleManagement.sol\":3569:3685  RoleRequest({... */\n      0x03\n      dup2\n      gt\n      iszero\n      tag_199\n      jumpi\n      tag_200\n      tag_114\n      jump\t// in\n    tag_200:\n    tag_199:\n      dup2\n      mstore\n      pop\n        /* \"MTP/RoleManagement.sol\":3542:3554  roleRequests */\n      0x01\n        /* \"MTP/RoleManagement.sol\":3542:3566  roleRequests[msg.sender] */\n      0x00\n        /* \"MTP/RoleManagement.sol\":3555:3565  msg.sender */\n      caller\n        /* \"MTP/RoleManagement.sol\":3542:3566  roleRequests[msg.sender] */\n      0xffffffffffffffffffffffffffffffffffffffff\n      and\n      0xffffffffffffffffffffffffffffffffffffffff\n      and\n      dup2\n      mstore\n      0x20\n      add\n      swap1\n      dup2\n      mstore\n      0x20\n      add\n      0x00\n      keccak256\n        /* \"MTP/RoleManagement.sol\":3542:3685  roleRequests[msg.sender] = RoleRequest({... */\n      0x00\n      dup3\n      add\n      mload\n      dup2\n      0x00\n      add\n      swap1\n      dup2\n      tag_201\n      swap2\n      swap1\n      tag_143\n      jump\t// in\n    tag_201:\n      pop\n      0x20\n      dup3\n      add\n      mload\n      dup2\n      0x01\n      add\n      exp(0x0100, 0x00)\n      dup2\n      sload\n      dup2\n      0xff\n      mul\n      not\n      and\n      swap1\n      dup4\n      0x03\n      dup2\n      gt\n      iszero\n      tag_202\n      jumpi\n      tag_203\n      tag_114\n      jump\t// in\n    tag_203:\n    tag_202:\n      mul\n      or\n      swap1\n      sstore\n      pop\n      swap1\n      pop\n      pop\n        /* \"MTP/RoleManagement.sol\":3698:3713  pendingRequests */\n      0x03\n        /* \"MTP/RoleManagement.sol\":3719:3729  msg.sender */\n      caller\n        /* \"MTP/RoleManagement.sol\":3698:3730  pendingRequests.push(msg.sender) */\n      swap1\n      dup1\n      0x01\n      dup2\n      sload\n      add\n      dup1\n      dup3\n      sstore\n      dup1\n      swap2\n      pop\n      pop\n      0x01\n      swap1\n      sub\n      swap1\n      0x00\n      mstore\n      keccak256(0x00, 0x20)\n      add\n      0x00\n      swap1\n      swap2\n      swap1\n      swap2\n      swap1\n      swap2\n      0x0100\n      exp\n      dup2\n      sload\n      dup2\n      0xffffffffffffffffffffffffffffffffffffffff\n      mul\n      not\n      and\n      swap1\n      dup4\n      0xffffffffffffffffffffffffffffffffffffffff\n      and\n      mul\n      or\n      swap1\n      sstore\n      pop\n        /* \"MTP/RoleManagement.sol\":3760:3770  msg.sender */\n      caller\n        /* \"MTP/RoleManagement.sol\":3746:3803  RoleRequested(msg.sender, _registrationId, Role.IPFSNode) */\n      0xffffffffffffffffffffffffffffffffffffffff\n      and\n      0x5c8e9edc72d072388931db2631b495f2ce13d46af59a06e2a24e0e514db7904b\n        /* \"MTP/RoleManagement.sol\":3772:3787  _registrationId */\n      dup3\n        /* \"MTP/RoleManagement.sol\":3789:3802  Role.IPFSNode */\n      0x04\n        /* \"MTP/RoleManagement.sol\":3746:3803  RoleRequested(msg.sender, _registrationId, Role.IPFSNode) */\n      mload(0x40)\n      tag_205\n      swap3\n      swap2\n      swap1\n      tag_168\n      jump\t// in\n    tag_205:\n      mload(0x40)\n      dup1\n      swap2\n      sub\n      swap1\n      log2\n        /* \"MTP/RoleManagement.sol\":3282:3811  function requestIPFSNodeRole(string memory _registrationId) public {... */\n      pop\n      jump\t// out\n        /* \"MTP/RoleManagement.sol\":7469:8129  function getRequestStatus() public view returns (string memory, string memory) {... */\n    tag_59:\n        /* \"MTP/RoleManagement.sol\":7518:7531  string memory */\n      0x60\n        /* \"MTP/RoleManagement.sol\":7533:7546  string memory */\n      dup1\n        /* \"MTP/RoleManagement.sol\":7559:7585  RoleRequest memory request */\n      0x00\n        /* \"MTP/RoleManagement.sol\":7588:7600  roleRequests */\n      0x01\n        /* \"MTP/RoleManagement.sol\":7588:7612  roleRequests[msg.sender] */\n      0x00\n        /* \"MTP/RoleManagement.sol\":7601:7611  msg.sender */\n      caller\n        /* \"MTP/RoleManagement.sol\":7588:7612  roleRequests[msg.sender] */\n      0xffffffffffffffffffffffffffffffffffffffff\n      and\n      0xffffffffffffffffffffffffffffffffffffffff\n      and\n      dup2\n      mstore\n      0x20\n      add\n      swap1\n      dup2\n      mstore\n      0x20\n      add\n      0x00\n      keccak256\n        /* \"MTP/RoleManagement.sol\":7559:7612  RoleRequest memory request = roleRequests[msg.sender] */\n      mload(0x40)\n      dup1\n      0x40\n      add\n      0x40\n      mstore\n      swap1\n      dup2\n      0x00\n      dup3\n      add\n      dup1\n      sload\n      tag_207\n      swap1\n      tag_134\n      jump\t// in\n    tag_207:\n      dup1\n      0x1f\n      add\n      0x20\n      dup1\n      swap2\n      div\n      mul\n      0x20\n      add\n      mload(0x40)\n      swap1\n      dup2\n      add\n      0x40\n      mstore\n      dup1\n      swap3\n      swap2\n      swap1\n      dup2\n      dup2\n      mstore\n      0x20\n      add\n      dup3\n      dup1\n      sload\n      tag_208\n      swap1\n      tag_134\n      jump\t// in\n    tag_208:\n      dup1\n      iszero\n      tag_209\n      jumpi\n      dup1\n      0x1f\n      lt\n      tag_210\n      jumpi\n      0x0100\n      dup1\n      dup4\n      sload\n      div\n      mul\n      dup4\n      mstore\n      swap2\n      0x20\n      add\n      swap2\n      jump(tag_209)\n    tag_210:\n      dup3\n      add\n      swap2\n      swap1\n      0x00\n      mstore\n      keccak256(0x00, 0x20)\n      swap1\n    tag_211:\n      dup2\n      sload\n      dup2\n      mstore\n      swap1\n      0x01\n      add\n      swap1\n      0x20\n      add\n      dup1\n      dup4\n      gt\n      tag_211\n      jumpi\n      dup3\n      swap1\n      sub\n      0x1f\n      and\n      dup3\n      add\n      swap2\n    tag_209:\n      pop\n      pop\n      pop\n      pop\n      pop\n      dup2\n      mstore\n      0x20\n      add\n      0x01\n      dup3\n      add\n      0x00\n      swap1\n      sload\n      swap1\n      0x0100\n      exp\n      swap1\n      div\n      0xff\n      and\n      0x03\n      dup2\n      gt\n      iszero\n      tag_212\n      jumpi\n      tag_213\n      tag_114\n      jump\t// in\n    tag_213:\n    tag_212:\n      0x03\n      dup2\n      gt\n      iszero\n      tag_214\n      jumpi\n      tag_215\n      tag_114\n      jump\t// in\n    tag_215:\n    tag_214:\n      dup2\n      mstore\n      pop\n      pop\n      swap1\n      pop\n        /* \"MTP/RoleManagement.sol\":7623:7649  string memory statusString */\n      0x60\n        /* \"MTP/RoleManagement.sol\":7684:7702  RequestStatus.None */\n      0x00\n        /* \"MTP/RoleManagement.sol\":7666:7702  request.status == RequestStatus.None */\n      0x03\n      dup2\n      gt\n      iszero\n      tag_216\n      jumpi\n      tag_217\n      tag_114\n      jump\t// in\n    tag_217:\n    tag_216:\n        /* \"MTP/RoleManagement.sol\":7666:7673  request */\n      dup3\n        /* \"MTP/RoleManagement.sol\":7666:7680  request.status */\n      0x20\n      add\n      mload\n        /* \"MTP/RoleManagement.sol\":7666:7702  request.status == RequestStatus.None */\n      0x03\n      dup2\n      gt\n      iszero\n      tag_218\n      jumpi\n      tag_219\n      tag_114\n      jump\t// in\n    tag_219:\n    tag_218:\n      sub\n        /* \"MTP/RoleManagement.sol\":7662:8064  if (request.status == RequestStatus.None) {... */\n      tag_220\n      jumpi\n        /* \"MTP/RoleManagement.sol\":7719:7740  statusString = \"None\" */\n      mload(0x40)\n      dup1\n      0x40\n      add\n      0x40\n      mstore\n      dup1\n      0x04\n      dup2\n      mstore\n      0x20\n      add\n      0x4e6f6e6500000000000000000000000000000000000000000000000000000000\n      dup2\n      mstore\n      pop\n      swap1\n      pop\n        /* \"MTP/RoleManagement.sol\":7662:8064  if (request.status == RequestStatus.None) {... */\n      jump(tag_221)\n    tag_220:\n        /* \"MTP/RoleManagement.sol\":7780:7803  RequestStatus.Requested */\n      0x01\n        /* \"MTP/RoleManagement.sol\":7762:7803  request.status == RequestStatus.Requested */\n      0x03\n      dup2\n      gt\n      iszero\n      tag_222\n      jumpi\n      tag_223\n      tag_114\n      jump\t// in\n    tag_223:\n    tag_222:\n        /* \"MTP/RoleManagement.sol\":7762:7769  request */\n      dup3\n        /* \"MTP/RoleManagement.sol\":7762:7776  request.status */\n      0x20\n      add\n      mload\n        /* \"MTP/RoleManagement.sol\":7762:7803  request.status == RequestStatus.Requested */\n      0x03\n      dup2\n      gt\n      iszero\n      tag_224\n      jumpi\n      tag_225\n      tag_114\n      jump\t// in\n    tag_225:\n    tag_224:\n      sub\n        /* \"MTP/RoleManagement.sol\":7758:8064  if (request.status == RequestStatus.Requested) {... */\n      tag_226\n      jumpi\n        /* \"MTP/RoleManagement.sol\":7820:7844  statusString = \"Pending\" */\n      mload(0x40)\n      dup1\n      0x40\n      add\n      0x40\n      mstore\n      dup1\n      0x07\n      dup2\n      mstore\n      0x20\n      add\n      0x50656e64696e6700000000000000000000000000000000000000000000000000\n      dup2\n      mstore\n      pop\n      swap1\n      pop\n        /* \"MTP/RoleManagement.sol\":7758:8064  if (request.status == RequestStatus.Requested) {... */\n      jump(tag_227)\n    tag_226:\n        /* \"MTP/RoleManagement.sol\":7884:7906  RequestStatus.Approved */\n      0x02\n        /* \"MTP/RoleManagement.sol\":7866:7906  request.status == RequestStatus.Approved */\n      0x03\n      dup2\n      gt\n      iszero\n      tag_228\n      jumpi\n      tag_229\n      tag_114\n      jump\t// in\n    tag_229:\n    tag_228:\n        /* \"MTP/RoleManagement.sol\":7866:7873  request */\n      dup3\n        /* \"MTP/RoleManagement.sol\":7866:7880  request.status */\n      0x20\n      add\n      mload\n        /* \"MTP/RoleManagement.sol\":7866:7906  request.status == RequestStatus.Approved */\n      0x03\n      dup2\n      gt\n      iszero\n      tag_230\n      jumpi\n      tag_231\n      tag_114\n      jump\t// in\n    tag_231:\n    tag_230:\n      sub\n        /* \"MTP/RoleManagement.sol\":7862:8064  if (request.status == RequestStatus.Approved) {... */\n      tag_232\n      jumpi\n        /* \"MTP/RoleManagement.sol\":7923:7948  statusString = \"Approved\" */\n      mload(0x40)\n      dup1\n      0x40\n      add\n      0x40\n      mstore\n      dup1\n      0x08\n      dup2\n      mstore\n      0x20\n      add\n      0x417070726f766564000000000000000000000000000000000000000000000000\n      dup2\n      mstore\n      pop\n      swap1\n      pop\n        /* \"MTP/RoleManagement.sol\":7862:8064  if (request.status == RequestStatus.Approved) {... */\n      jump(tag_233)\n    tag_232:\n        /* \"MTP/RoleManagement.sol\":7988:8010  RequestStatus.Rejected */\n      0x03\n        /* \"MTP/RoleManagement.sol\":7970:8010  request.status == RequestStatus.Rejected */\n      dup1\n      dup2\n      gt\n      iszero\n      tag_234\n      jumpi\n      tag_235\n      tag_114\n      jump\t// in\n    tag_235:\n    tag_234:\n        /* \"MTP/RoleManagement.sol\":7970:7977  request */\n      dup3\n        /* \"MTP/RoleManagement.sol\":7970:7984  request.status */\n      0x20\n      add\n      mload\n        /* \"MTP/RoleManagement.sol\":7970:8010  request.status == RequestStatus.Rejected */\n      0x03\n      dup2\n      gt\n      iszero\n      tag_236\n      jumpi\n      tag_237\n      tag_114\n      jump\t// in\n    tag_237:\n    tag_236:\n      sub\n        /* \"MTP/RoleManagement.sol\":7966:8064  if (request.status == RequestStatus.Rejected) {... */\n      tag_238\n      jumpi\n        /* \"MTP/RoleManagement.sol\":8027:8052  statusString = \"Rejected\" */\n      mload(0x40)\n      dup1\n      0x40\n      add\n      0x40\n      mstore\n      dup1\n      0x08\n      dup2\n      mstore\n      0x20\n      add\n      0x52656a6563746564000000000000000000000000000000000000000000000000\n      dup2\n      mstore\n      pop\n      swap1\n      pop\n        /* \"MTP/RoleManagement.sol\":7966:8064  if (request.status == RequestStatus.Rejected) {... */\n    tag_238:\n        /* \"MTP/RoleManagement.sol\":7862:8064  if (request.status == RequestStatus.Approved) {... */\n    tag_233:\n        /* \"MTP/RoleManagement.sol\":7758:8064  if (request.status == RequestStatus.Requested) {... */\n    tag_227:\n        /* \"MTP/RoleManagement.sol\":7662:8064  if (request.status == RequestStatus.None) {... */\n    tag_221:\n        /* \"MTP/RoleManagement.sol\":8084:8096  statusString */\n      dup1\n        /* \"MTP/RoleManagement.sol\":8098:8105  request */\n      dup3\n        /* \"MTP/RoleManagement.sol\":8098:8120  request.registrationId */\n      0x00\n      add\n      mload\n        /* \"MTP/RoleManagement.sol\":8076:8121  return (statusString, request.registrationId) */\n      swap4\n      pop\n      swap4\n      pop\n      pop\n      pop\n        /* \"MTP/RoleManagement.sol\":7469:8129  function getRequestStatus() public view returns (string memory, string memory) {... */\n      swap1\n      swap2\n      jump\t// out\n        /* \"MTP/RoleManagement.sol\":746:787  VerifiedRole[] public verifiedResearchers */\n    tag_64:\n      0x06\n      dup2\n      dup2\n      sload\n      dup2\n      lt\n      tag_239\n      jumpi\n      0x00\n      dup1\n      revert\n    tag_239:\n      swap1\n      0x00\n      mstore\n      keccak256(0x00, 0x20)\n      swap1\n      0x02\n      mul\n      add\n      0x00\n      swap2\n      pop\n      swap1\n      pop\n      dup1\n      0x00\n      add\n      0x00\n      swap1\n      sload\n      swap1\n      0x0100\n      exp\n      swap1\n      div\n      0xffffffffffffffffffffffffffffffffffffffff\n      and\n      swap1\n      dup1\n      0x00\n      add\n      0x14\n      swap1\n      sload\n      swap1\n      0x0100\n      exp\n      swap1\n      div\n      0xff\n      and\n      swap1\n      dup1\n      0x01\n      add\n      dup1\n      sload\n      tag_241\n      swap1\n      tag_134\n      jump\t// in\n    tag_241:\n      dup1\n      0x1f\n      add\n      0x20\n      dup1\n      swap2\n      div\n      mul\n      0x20\n      add\n      mload(0x40)\n      swap1\n      dup2\n      add\n      0x40\n      mstore\n      dup1\n      swap3\n      swap2\n      swap1\n      dup2\n      dup2\n      mstore\n      0x20\n      add\n      dup3\n      dup1\n      sload\n      tag_242\n      swap1\n      tag_134\n      jump\t// in\n    tag_242:\n      dup1\n      iszero\n      tag_243\n      jumpi\n      dup1\n      0x1f\n      lt\n      tag_244\n      jumpi\n      0x0100\n      dup1\n      dup4\n      sload\n      div\n      mul\n      dup4\n      mstore\n      swap2\n      0x20\n      add\n      swap2\n      jump(tag_243)\n    tag_244:\n      dup3\n      add\n      swap2\n      swap1\n      0x00\n      mstore\n      keccak256(0x00, 0x20)\n      swap1\n    tag_245:\n      dup2\n      sload\n      dup2\n      mstore\n      swap1\n      0x01\n      add\n      swap1\n      0x20\n      add\n      dup1\n      dup4\n      gt\n      tag_245\n      jumpi\n      dup3\n      swap1\n      sub\n      0x1f\n      and\n      dup3\n      add\n      swap2\n    tag_243:\n      pop\n      pop\n      pop\n      pop\n      pop\n      swap1\n      pop\n      dup4\n      jump\t// out\n        /* \"MTP/RoleManagement.sol\":7119:7239  function getPendingRequests() public view onlyAdmin returns (address[] memory) {... */\n    tag_67:\n        /* \"MTP/RoleManagement.sol\":7180:7196  address[] memory */\n      0x60\n        /* \"MTP/RoleManagement.sol\":1157:1162  admin */\n      0x02\n      0x00\n      swap1\n      sload\n      swap1\n      0x0100\n      exp\n      swap1\n      div\n      0xffffffffffffffffffffffffffffffffffffffff\n      and\n        /* \"MTP/RoleManagement.sol\":1143:1162  msg.sender == admin */\n      0xffffffffffffffffffffffffffffffffffffffff\n      and\n        /* \"MTP/RoleManagement.sol\":1143:1153  msg.sender */\n      caller\n        /* \"MTP/RoleManagement.sol\":1143:1162  msg.sender == admin */\n      0xffffffffffffffffffffffffffffffffffffffff\n      and\n      eq\n        /* \"MTP/RoleManagement.sol\":1135:1201  require(msg.sender == admin, \"Only admin can perform this action\") */\n      tag_247\n      jumpi\n      mload(0x40)\n      0x08c379a000000000000000000000000000000000000000000000000000000000\n      dup2\n      mstore\n      0x04\n      add\n      tag_248\n      swap1\n      tag_110\n      jump\t// in\n    tag_248:\n      mload(0x40)\n      dup1\n      swap2\n      sub\n      swap1\n      revert\n    tag_247:\n        /* \"MTP/RoleManagement.sol\":7216:7231  pendingRequests */\n      0x03\n        /* \"MTP/RoleManagement.sol\":7209:7231  return pendingRequests */\n      dup1\n      sload\n      dup1\n      0x20\n      mul\n      0x20\n      add\n      mload(0x40)\n      swap1\n      dup2\n      add\n      0x40\n      mstore\n      dup1\n      swap3\n      swap2\n      swap1\n      dup2\n      dup2\n      mstore\n      0x20\n      add\n      dup3\n      dup1\n      sload\n      dup1\n      iszero\n      tag_250\n      jumpi\n      0x20\n      mul\n      dup3\n      add\n      swap2\n      swap1\n      0x00\n      mstore\n      keccak256(0x00, 0x20)\n      swap1\n    tag_251:\n      dup2\n      0x00\n      swap1\n      sload\n      swap1\n      0x0100\n      exp\n      swap1\n      div\n      0xffffffffffffffffffffffffffffffffffffffff\n      and\n      0xffffffffffffffffffffffffffffffffffffffff\n      and\n      dup2\n      mstore\n      0x20\n      add\n      swap1\n      0x01\n      add\n      swap1\n      dup1\n      dup4\n      gt\n      tag_251\n      jumpi\n    tag_250:\n      pop\n      pop\n      pop\n      pop\n      pop\n      swap1\n      pop\n        /* \"MTP/RoleManagement.sol\":7119:7239  function getPendingRequests() public view onlyAdmin returns (address[] memory) {... */\n      swap1\n      jump\t// out\n        /* \"MTP/RoleManagement.sol\":6812:7074  function revokeRole(address _user) public onlyAdmin {... */\n    tag_72:\n        /* \"MTP/RoleManagement.sol\":1157:1162  admin */\n      0x02\n      0x00\n      swap1\n      sload\n      swap1\n      0x0100\n      exp\n      swap1\n      div\n      0xffffffffffffffffffffffffffffffffffffffff\n      and\n        /* \"MTP/RoleManagement.sol\":1143:1162  msg.sender == admin */\n      0xffffffffffffffffffffffffffffffffffffffff\n      and\n        /* \"MTP/RoleManagement.sol\":1143:1153  msg.sender */\n      caller\n        /* \"MTP/RoleManagement.sol\":1143:1162  msg.sender == admin */\n      0xffffffffffffffffffffffffffffffffffffffff\n      and\n      eq\n        /* \"MTP/RoleManagement.sol\":1135:1201  require(msg.sender == admin, \"Only admin can perform this action\") */\n      tag_253\n      jumpi\n      mload(0x40)\n      0x08c379a000000000000000000000000000000000000000000000000000000000\n      dup2\n      mstore\n      0x04\n      add\n      tag_254\n      swap1\n      tag_110\n      jump\t// in\n    tag_254:\n      mload(0x40)\n      dup1\n      swap2\n      sub\n      swap1\n      revert\n    tag_253:\n        /* \"MTP/RoleManagement.sol\":6899:6908  Role.None */\n      0x00\n        /* \"MTP/RoleManagement.sol\":6883:6908  roles[_user] != Role.None */\n      0x04\n      dup2\n      gt\n      iszero\n      tag_256\n      jumpi\n      tag_257\n      tag_114\n      jump\t// in\n    tag_257:\n    tag_256:\n        /* \"MTP/RoleManagement.sol\":6883:6888  roles */\n      0x00\n        /* \"MTP/RoleManagement.sol\":6883:6895  roles[_user] */\n      dup1\n        /* \"MTP/RoleManagement.sol\":6889:6894  _user */\n      dup4\n        /* \"MTP/RoleManagement.sol\":6883:6895  roles[_user] */\n      0xffffffffffffffffffffffffffffffffffffffff\n      and\n      0xffffffffffffffffffffffffffffffffffffffff\n      and\n      dup2\n      mstore\n      0x20\n      add\n      swap1\n      dup2\n      mstore\n      0x20\n      add\n      0x00\n      keccak256\n      0x00\n      swap1\n      sload\n      swap1\n      0x0100\n      exp\n      swap1\n      div\n      0xff\n      and\n        /* \"MTP/RoleManagement.sol\":6883:6908  roles[_user] != Role.None */\n      0x04\n      dup2\n      gt\n      iszero\n      tag_258\n      jumpi\n      tag_259\n      tag_114\n      jump\t// in\n    tag_259:\n    tag_258:\n      sub\n        /* \"MTP/RoleManagement.sol\":6875:6938  require(roles[_user] != Role.None, \"User has no assigned role\") */\n      tag_260\n      jumpi\n      mload(0x40)\n      0x08c379a000000000000000000000000000000000000000000000000000000000\n      dup2\n      mstore\n      0x04\n      add\n      tag_261\n      swap1\n      tag_262\n      jump\t// in\n    tag_261:\n      mload(0x40)\n      dup1\n      swap2\n      sub\n      swap1\n      revert\n    tag_260:\n        /* \"MTP/RoleManagement.sol\":6951:6967  Role revokedRole */\n      0x00\n        /* \"MTP/RoleManagement.sol\":6970:6975  roles */\n      dup1\n        /* \"MTP/RoleManagement.sol\":6970:6982  roles[_user] */\n      0x00\n        /* \"MTP/RoleManagement.sol\":6976:6981  _user */\n      dup4\n        /* \"MTP/RoleManagement.sol\":6970:6982  roles[_user] */\n      0xffffffffffffffffffffffffffffffffffffffff\n      and\n      0xffffffffffffffffffffffffffffffffffffffff\n      and\n      dup2\n      mstore\n      0x20\n      add\n      swap1\n      dup2\n      mstore\n      0x20\n      add\n      0x00\n      keccak256\n      0x00\n      swap1\n      sload\n      swap1\n      0x0100\n      exp\n      swap1\n      div\n      0xff\n      and\n        /* \"MTP/RoleManagement.sol\":6951:6982  Role revokedRole = roles[_user] */\n      swap1\n      pop\n        /* \"MTP/RoleManagement.sol\":7008:7017  Role.None */\n      0x00\n        /* \"MTP/RoleManagement.sol\":6993:6998  roles */\n      dup1\n        /* \"MTP/RoleManagement.sol\":6993:7005  roles[_user] */\n      0x00\n        /* \"MTP/RoleManagement.sol\":6999:7004  _user */\n      dup5\n        /* \"MTP/RoleManagement.sol\":6993:7005  roles[_user] */\n      0xffffffffffffffffffffffffffffffffffffffff\n      and\n      0xffffffffffffffffffffffffffffffffffffffff\n      and\n      dup2\n      mstore\n      0x20\n      add\n      swap1\n      dup2\n      mstore\n      0x20\n      add\n      0x00\n      keccak256\n      0x00\n        /* \"MTP/RoleManagement.sol\":6993:7017  roles[_user] = Role.None */\n      0x0100\n      exp\n      dup2\n      sload\n      dup2\n      0xff\n      mul\n      not\n      and\n      swap1\n      dup4\n      0x04\n      dup2\n      gt\n      iszero\n      tag_263\n      jumpi\n      tag_264\n      tag_114\n      jump\t// in\n    tag_264:\n    tag_263:\n      mul\n      or\n      swap1\n      sstore\n      pop\n        /* \"MTP/RoleManagement.sol\":7047:7052  _user */\n      dup2\n        /* \"MTP/RoleManagement.sol\":7035:7066  RoleRevoked(_user, revokedRole) */\n      0xffffffffffffffffffffffffffffffffffffffff\n      and\n      0x34a1009b84e077aee5bc8197faf7105e54f9ba6879e2a51a716e4156ea9ad769\n        /* \"MTP/RoleManagement.sol\":7054:7065  revokedRole */\n      dup3\n        /* \"MTP/RoleManagement.sol\":7035:7066  RoleRevoked(_user, revokedRole) */\n      mload(0x40)\n      tag_265\n      swap2\n      swap1\n      tag_54\n      jump\t// in\n    tag_265:\n      mload(0x40)\n      dup1\n      swap2\n      sub\n      swap1\n      log2\n        /* \"MTP/RoleManagement.sol\":6864:7074  {... */\n      pop\n        /* \"MTP/RoleManagement.sol\":6812:7074  function revokeRole(address _user) public onlyAdmin {... */\n      pop\n      jump\t// out\n        /* \"MTP/RoleManagement.sol\":5167:5758  function verifyResearcherRole(address _requestor) public onlyAdmin {... */\n    tag_75:\n        /* \"MTP/RoleManagement.sol\":1157:1162  admin */\n      0x02\n      0x00\n      swap1\n      sload\n      swap1\n      0x0100\n      exp\n      swap1\n      div\n      0xffffffffffffffffffffffffffffffffffffffff\n      and\n        /* \"MTP/RoleManagement.sol\":1143:1162  msg.sender == admin */\n      0xffffffffffffffffffffffffffffffffffffffff\n      and\n        /* \"MTP/RoleManagement.sol\":1143:1153  msg.sender */\n      caller\n        /* \"MTP/RoleManagement.sol\":1143:1162  msg.sender == admin */\n      0xffffffffffffffffffffffffffffffffffffffff\n      and\n      eq\n        /* \"MTP/RoleManagement.sol\":1135:1201  require(msg.sender == admin, \"Only admin can perform this action\") */\n      tag_267\n      jumpi\n      mload(0x40)\n      0x08c379a000000000000000000000000000000000000000000000000000000000\n      dup2\n      mstore\n      0x04\n      add\n      tag_268\n      swap1\n      tag_110\n      jump\t// in\n    tag_268:\n      mload(0x40)\n      dup1\n      swap2\n      sub\n      swap1\n      revert\n    tag_267:\n        /* \"MTP/RoleManagement.sol\":5288:5311  RequestStatus.Requested */\n      0x01\n        /* \"MTP/RoleManagement.sol\":5253:5311  roleRequests[_requestor].status == RequestStatus.Requested */\n      0x03\n      dup2\n      gt\n      iszero\n      tag_270\n      jumpi\n      tag_271\n      tag_114\n      jump\t// in\n    tag_271:\n    tag_270:\n        /* \"MTP/RoleManagement.sol\":5253:5265  roleRequests */\n      0x01\n        /* \"MTP/RoleManagement.sol\":5253:5277  roleRequests[_requestor] */\n      0x00\n        /* \"MTP/RoleManagement.sol\":5266:5276  _requestor */\n      dup4\n        /* \"MTP/RoleManagement.sol\":5253:5277  roleRequests[_requestor] */\n      0xffffffffffffffffffffffffffffffffffffffff\n      and\n      0xffffffffffffffffffffffffffffffffffffffff\n      and\n      dup2\n      mstore\n      0x20\n      add\n      swap1\n      dup2\n      mstore\n      0x20\n      add\n      0x00\n      keccak256\n        /* \"MTP/RoleManagement.sol\":5253:5284  roleRequests[_requestor].status */\n      0x01\n      add\n      0x00\n      swap1\n      sload\n      swap1\n      0x0100\n      exp\n      swap1\n      div\n      0xff\n      and\n        /* \"MTP/RoleManagement.sol\":5253:5311  roleRequests[_requestor].status == RequestStatus.Requested */\n      0x03\n      dup2\n      gt\n      iszero\n      tag_272\n      jumpi\n      tag_273\n      tag_114\n      jump\t// in\n    tag_273:\n    tag_272:\n      eq\n        /* \"MTP/RoleManagement.sol\":5245:5336  require(roleRequests[_requestor].status == RequestStatus.Requested, \"No request to verify\") */\n      tag_274\n      jumpi\n      mload(0x40)\n      0x08c379a000000000000000000000000000000000000000000000000000000000\n      dup2\n      mstore\n      0x04\n      add\n      tag_275\n      swap1\n      tag_119\n      jump\t// in\n    tag_275:\n      mload(0x40)\n      dup1\n      swap2\n      sub\n      swap1\n      revert\n    tag_274:\n        /* \"MTP/RoleManagement.sol\":5376:5385  Role.None */\n      0x00\n        /* \"MTP/RoleManagement.sol\":5355:5385  roles[_requestor] == Role.None */\n      0x04\n      dup2\n      gt\n      iszero\n      tag_276\n      jumpi\n      tag_277\n      tag_114\n      jump\t// in\n    tag_277:\n    tag_276:\n        /* \"MTP/RoleManagement.sol\":5355:5360  roles */\n      0x00\n        /* \"MTP/RoleManagement.sol\":5355:5372  roles[_requestor] */\n      dup1\n        /* \"MTP/RoleManagement.sol\":5361:5371  _requestor */\n      dup4\n        /* \"MTP/RoleManagement.sol\":5355:5372  roles[_requestor] */\n      0xffffffffffffffffffffffffffffffffffffffff\n      and\n      0xffffffffffffffffffffffffffffffffffffffff\n      and\n      dup2\n      mstore\n      0x20\n      add\n      swap1\n      dup2\n      mstore\n      0x20\n      add\n      0x00\n      keccak256\n      0x00\n      swap1\n      sload\n      swap1\n      0x0100\n      exp\n      swap1\n      div\n      0xff\n      and\n        /* \"MTP/RoleManagement.sol\":5355:5385  roles[_requestor] == Role.None */\n      0x04\n      dup2\n      gt\n      iszero\n      tag_278\n      jumpi\n      tag_279\n      tag_114\n      jump\t// in\n    tag_279:\n    tag_278:\n      eq\n        /* \"MTP/RoleManagement.sol\":5347:5411  require(roles[_requestor] == Role.None, \"Role already assigned\") */\n      tag_280\n      jumpi\n      mload(0x40)\n      0x08c379a000000000000000000000000000000000000000000000000000000000\n      dup2\n      mstore\n      0x04\n      add\n      tag_281\n      swap1\n      tag_126\n      jump\t// in\n    tag_281:\n      mload(0x40)\n      dup1\n      swap2\n      sub\n      swap1\n      revert\n    tag_280:\n        /* \"MTP/RoleManagement.sol\":5444:5459  Role.Researcher */\n      0x03\n        /* \"MTP/RoleManagement.sol\":5424:5429  roles */\n      0x00\n        /* \"MTP/RoleManagement.sol\":5424:5441  roles[_requestor] */\n      dup1\n        /* \"MTP/RoleManagement.sol\":5430:5440  _requestor */\n      dup4\n        /* \"MTP/RoleManagement.sol\":5424:5441  roles[_requestor] */\n      0xffffffffffffffffffffffffffffffffffffffff\n      and\n      0xffffffffffffffffffffffffffffffffffffffff\n      and\n      dup2\n      mstore\n      0x20\n      add\n      swap1\n      dup2\n      mstore\n      0x20\n      add\n      0x00\n      keccak256\n      0x00\n        /* \"MTP/RoleManagement.sol\":5424:5459  roles[_requestor] = Role.Researcher */\n      0x0100\n      exp\n      dup2\n      sload\n      dup2\n      0xff\n      mul\n      not\n      and\n      swap1\n      dup4\n      0x04\n      dup2\n      gt\n      iszero\n      tag_282\n      jumpi\n      tag_283\n      tag_114\n      jump\t// in\n    tag_283:\n    tag_282:\n      mul\n      or\n      swap1\n      sstore\n      pop\n        /* \"MTP/RoleManagement.sol\":5504:5526  RequestStatus.Approved */\n      0x02\n        /* \"MTP/RoleManagement.sol\":5470:5482  roleRequests */\n      0x01\n        /* \"MTP/RoleManagement.sol\":5470:5494  roleRequests[_requestor] */\n      0x00\n        /* \"MTP/RoleManagement.sol\":5483:5493  _requestor */\n      dup4\n        /* \"MTP/RoleManagement.sol\":5470:5494  roleRequests[_requestor] */\n      0xffffffffffffffffffffffffffffffffffffffff\n      and\n      0xffffffffffffffffffffffffffffffffffffffff\n      and\n      dup2\n      mstore\n      0x20\n      add\n      swap1\n      dup2\n      mstore\n      0x20\n      add\n      0x00\n      keccak256\n        /* \"MTP/RoleManagement.sol\":5470:5501  roleRequests[_requestor].status */\n      0x01\n      add\n      0x00\n        /* \"MTP/RoleManagement.sol\":5470:5526  roleRequests[_requestor].status = RequestStatus.Approved */\n      0x0100\n      exp\n      dup2\n      sload\n      dup2\n      0xff\n      mul\n      not\n      and\n      swap1\n      dup4\n      0x03\n      dup2\n      gt\n      iszero\n      tag_284\n      jumpi\n      tag_285\n      tag_114\n      jump\t// in\n    tag_285:\n    tag_284:\n      mul\n      or\n      swap1\n      sstore\n      pop\n        /* \"MTP/RoleManagement.sol\":5539:5558  verifiedResearchers */\n      0x06\n        /* \"MTP/RoleManagement.sol\":5564:5646  VerifiedRole(_requestor, Role.Researcher, roleRequests[_requestor].registrationId) */\n      mload(0x40)\n      dup1\n      0x60\n      add\n      0x40\n      mstore\n      dup1\n        /* \"MTP/RoleManagement.sol\":5577:5587  _requestor */\n      dup4\n        /* \"MTP/RoleManagement.sol\":5564:5646  VerifiedRole(_requestor, Role.Researcher, roleRequests[_requestor].registrationId) */\n      0xffffffffffffffffffffffffffffffffffffffff\n      and\n      dup2\n      mstore\n      0x20\n      add\n        /* \"MTP/RoleManagement.sol\":5589:5604  Role.Researcher */\n      0x03\n        /* \"MTP/RoleManagement.sol\":5564:5646  VerifiedRole(_requestor, Role.Researcher, roleRequests[_requestor].registrationId) */\n      0x04\n      dup2\n      gt\n      iszero\n      tag_286\n      jumpi\n      tag_287\n      tag_114\n      jump\t// in\n    tag_287:\n    tag_286:\n      dup2\n      mstore\n      0x20\n      add\n        /* \"MTP/RoleManagement.sol\":5606:5618  roleRequests */\n      0x01\n        /* \"MTP/RoleManagement.sol\":5606:5630  roleRequests[_requestor] */\n      0x00\n        /* \"MTP/RoleManagement.sol\":5619:5629  _requestor */\n      dup6\n        /* \"MTP/RoleManagement.sol\":5606:5630  roleRequests[_requestor] */\n      0xffffffffffffffffffffffffffffffffffffffff\n      and\n      0xffffffffffffffffffffffffffffffffffffffff\n      and\n      dup2\n      mstore\n      0x20\n      add\n      swap1\n      dup2\n      mstore\n      0x20\n      add\n      0x00\n      keccak256\n        /* \"MTP/RoleManagement.sol\":5606:5645  roleRequests[_requestor].registrationId */\n      0x00\n      add\n        /* \"MTP/RoleManagement.sol\":5564:5646  VerifiedRole(_requestor, Role.Researcher, roleRequests[_requestor].registrationId) */\n      dup1\n      sload\n      tag_288\n      swap1\n      tag_134\n      jump\t// in\n    tag_288:\n      dup1\n      0x1f\n      add\n      0x20\n      dup1\n      swap2\n      div\n      mul\n      0x20\n      add\n      mload(0x40)\n      swap1\n      dup2\n      add\n      0x40\n      mstore\n      dup1\n      swap3\n      swap2\n      swap1\n      dup2\n      dup2\n      mstore\n      0x20\n      add\n      dup3\n      dup1\n      sload\n      tag_289\n      swap1\n      tag_134\n      jump\t// in\n    tag_289:\n      dup1\n      iszero\n      tag_290\n      jumpi\n      dup1\n      0x1f\n      lt\n      tag_291\n      jumpi\n      0x0100\n      dup1\n      dup4\n      sload\n      div\n      mul\n      dup4\n      mstore\n      swap2\n      0x20\n      add\n      swap2\n      jump(tag_290)\n    tag_291:\n      dup3\n      add\n      swap2\n      swap1\n      0x00\n      mstore\n      keccak256(0x00, 0x20)\n      swap1\n    tag_292:\n      dup2\n      sload\n      dup2\n      mstore\n      swap1\n      0x01\n      add\n      swap1\n      0x20\n      add\n      dup1\n      dup4\n      gt\n      tag_292\n      jumpi\n      dup3\n      swap1\n      sub\n      0x1f\n      and\n      dup3\n      add\n      swap2\n    tag_290:\n      pop\n      pop\n      pop\n      pop\n      pop\n      dup2\n      mstore\n      pop\n        /* \"MTP/RoleManagement.sol\":5539:5647  verifiedResearchers.push(VerifiedRole(_requestor, Role.Researcher, roleRequests[_requestor].registrationId)) */\n      swap1\n      dup1\n      0x01\n      dup2\n      sload\n      add\n      dup1\n      dup3\n      sstore\n      dup1\n      swap2\n      pop\n      pop\n      0x01\n      swap1\n      sub\n      swap1\n      0x00\n      mstore\n      keccak256(0x00, 0x20)\n      swap1\n      0x02\n      mul\n      add\n      0x00\n      swap1\n      swap2\n      swap1\n      swap2\n      swap1\n      swap2\n      pop\n      0x00\n      dup3\n      add\n      mload\n      dup2\n      0x00\n      add\n      exp(0x0100, 0x00)\n      dup2\n      sload\n      dup2\n      0xffffffffffffffffffffffffffffffffffffffff\n      mul\n      not\n      and\n      swap1\n      dup4\n      0xffffffffffffffffffffffffffffffffffffffff\n      and\n      mul\n      or\n      swap1\n      sstore\n      pop\n      0x20\n      dup3\n      add\n      mload\n      dup2\n      0x00\n      add\n      exp(0x0100, 0x14)\n      dup2\n      sload\n      dup2\n      0xff\n      mul\n      not\n      and\n      swap1\n      dup4\n      0x04\n      dup2\n      gt\n      iszero\n      tag_294\n      jumpi\n      tag_295\n      tag_114\n      jump\t// in\n    tag_295:\n    tag_294:\n      mul\n      or\n      swap1\n      sstore\n      pop\n      0x40\n      dup3\n      add\n      mload\n      dup2\n      0x01\n      add\n      swap1\n      dup2\n      tag_296\n      swap2\n      swap1\n      tag_143\n      jump\t// in\n    tag_296:\n      pop\n      pop\n      pop\n        /* \"MTP/RoleManagement.sol\":5658:5691  _removePendingRequest(_requestor) */\n      tag_297\n        /* \"MTP/RoleManagement.sol\":5680:5690  _requestor */\n      dup2\n        /* \"MTP/RoleManagement.sol\":5658:5679  _removePendingRequest */\n      tag_145\n        /* \"MTP/RoleManagement.sol\":5658:5691  _removePendingRequest(_requestor) */\n      jump\t// in\n    tag_297:\n        /* \"MTP/RoleManagement.sol\":5722:5732  _requestor */\n      dup1\n        /* \"MTP/RoleManagement.sol\":5709:5750  RoleApproved(_requestor, Role.Researcher) */\n      0xffffffffffffffffffffffffffffffffffffffff\n      and\n      0x042f52f18ca9258767cef802b6283a39f6c1053fbd02bee367edc363da679f86\n        /* \"MTP/RoleManagement.sol\":5734:5749  Role.Researcher */\n      0x03\n        /* \"MTP/RoleManagement.sol\":5709:5750  RoleApproved(_requestor, Role.Researcher) */\n      mload(0x40)\n      tag_298\n      swap2\n      swap1\n      tag_54\n      jump\t// in\n    tag_298:\n      mload(0x40)\n      dup1\n      swap2\n      sub\n      swap1\n      log2\n        /* \"MTP/RoleManagement.sol\":5167:5758  function verifyResearcherRole(address _requestor) public onlyAdmin {... */\n      pop\n      jump\t// out\n        /* \"MTP/RoleManagement.sol\":3870:4451  function verifyHospitalRole(address _requestor) public onlyAdmin {... */\n    tag_78:\n        /* \"MTP/RoleManagement.sol\":1157:1162  admin */\n      0x02\n      0x00\n      swap1\n      sload\n      swap1\n      0x0100\n      exp\n      swap1\n      div\n      0xffffffffffffffffffffffffffffffffffffffff\n      and\n        /* \"MTP/RoleManagement.sol\":1143:1162  msg.sender == admin */\n      0xffffffffffffffffffffffffffffffffffffffff\n      and\n        /* \"MTP/RoleManagement.sol\":1143:1153  msg.sender */\n      caller\n        /* \"MTP/RoleManagement.sol\":1143:1162  msg.sender == admin */\n      0xffffffffffffffffffffffffffffffffffffffff\n      and\n      eq\n        /* \"MTP/RoleManagement.sol\":1135:1201  require(msg.sender == admin, \"Only admin can perform this action\") */\n      tag_300\n      jumpi\n      mload(0x40)\n      0x08c379a000000000000000000000000000000000000000000000000000000000\n      dup2\n      mstore\n      0x04\n      add\n      tag_301\n      swap1\n      tag_110\n      jump\t// in\n    tag_301:\n      mload(0x40)\n      dup1\n      swap2\n      sub\n      swap1\n      revert\n    tag_300:\n        /* \"MTP/RoleManagement.sol\":3989:4012  RequestStatus.Requested */\n      0x01\n        /* \"MTP/RoleManagement.sol\":3954:4012  roleRequests[_requestor].status == RequestStatus.Requested */\n      0x03\n      dup2\n      gt\n      iszero\n      tag_303\n      jumpi\n      tag_304\n      tag_114\n      jump\t// in\n    tag_304:\n    tag_303:\n        /* \"MTP/RoleManagement.sol\":3954:3966  roleRequests */\n      0x01\n        /* \"MTP/RoleManagement.sol\":3954:3978  roleRequests[_requestor] */\n      0x00\n        /* \"MTP/RoleManagement.sol\":3967:3977  _requestor */\n      dup4\n        /* \"MTP/RoleManagement.sol\":3954:3978  roleRequests[_requestor] */\n      0xffffffffffffffffffffffffffffffffffffffff\n      and\n      0xffffffffffffffffffffffffffffffffffffffff\n      and\n      dup2\n      mstore\n      0x20\n      add\n      swap1\n      dup2\n      mstore\n      0x20\n      add\n      0x00\n      keccak256\n        /* \"MTP/RoleManagement.sol\":3954:3985  roleRequests[_requestor].status */\n      0x01\n      add\n      0x00\n      swap1\n      sload\n      swap1\n      0x0100\n      exp\n      swap1\n      div\n      0xff\n      and\n        /* \"MTP/RoleManagement.sol\":3954:4012  roleRequests[_requestor].status == RequestStatus.Requested */\n      0x03\n      dup2\n      gt\n      iszero\n      tag_305\n      jumpi\n      tag_306\n      tag_114\n      jump\t// in\n    tag_306:\n    tag_305:\n      eq\n        /* \"MTP/RoleManagement.sol\":3946:4037  require(roleRequests[_requestor].status == RequestStatus.Requested, \"No request to verify\") */\n      tag_307\n      jumpi\n      mload(0x40)\n      0x08c379a000000000000000000000000000000000000000000000000000000000\n      dup2\n      mstore\n      0x04\n      add\n      tag_308\n      swap1\n      tag_119\n      jump\t// in\n    tag_308:\n      mload(0x40)\n      dup1\n      swap2\n      sub\n      swap1\n      revert\n    tag_307:\n        /* \"MTP/RoleManagement.sol\":4077:4086  Role.None */\n      0x00\n        /* \"MTP/RoleManagement.sol\":4056:4086  roles[_requestor] == Role.None */\n      0x04\n      dup2\n      gt\n      iszero\n      tag_309\n      jumpi\n      tag_310\n      tag_114\n      jump\t// in\n    tag_310:\n    tag_309:\n        /* \"MTP/RoleManagement.sol\":4056:4061  roles */\n      0x00\n        /* \"MTP/RoleManagement.sol\":4056:4073  roles[_requestor] */\n      dup1\n        /* \"MTP/RoleManagement.sol\":4062:4072  _requestor */\n      dup4\n        /* \"MTP/RoleManagement.sol\":4056:4073  roles[_requestor] */\n      0xffffffffffffffffffffffffffffffffffffffff\n      and\n      0xffffffffffffffffffffffffffffffffffffffff\n      and\n      dup2\n      mstore\n      0x20\n      add\n      swap1\n      dup2\n      mstore\n      0x20\n      add\n      0x00\n      keccak256\n      0x00\n      swap1\n      sload\n      swap1\n      0x0100\n      exp\n      swap1\n      div\n      0xff\n      and\n        /* \"MTP/RoleManagement.sol\":4056:4086  roles[_requestor] == Role.None */\n      0x04\n      dup2\n      gt\n      iszero\n      tag_311\n      jumpi\n      tag_312\n      tag_114\n      jump\t// in\n    tag_312:\n    tag_311:\n      eq\n        /* \"MTP/RoleManagement.sol\":4048:4112  require(roles[_requestor] == Role.None, \"Role already assigned\") */\n      tag_313\n      jumpi\n      mload(0x40)\n      0x08c379a000000000000000000000000000000000000000000000000000000000\n      dup2\n      mstore\n      0x04\n      add\n      tag_314\n      swap1\n      tag_126\n      jump\t// in\n    tag_314:\n      mload(0x40)\n      dup1\n      swap2\n      sub\n      swap1\n      revert\n    tag_313:\n        /* \"MTP/RoleManagement.sol\":4145:4158  Role.Hospital */\n      0x01\n        /* \"MTP/RoleManagement.sol\":4125:4130  roles */\n      0x00\n        /* \"MTP/RoleManagement.sol\":4125:4142  roles[_requestor] */\n      dup1\n        /* \"MTP/RoleManagement.sol\":4131:4141  _requestor */\n      dup4\n        /* \"MTP/RoleManagement.sol\":4125:4142  roles[_requestor] */\n      0xffffffffffffffffffffffffffffffffffffffff\n      and\n      0xffffffffffffffffffffffffffffffffffffffff\n      and\n      dup2\n      mstore\n      0x20\n      add\n      swap1\n      dup2\n      mstore\n      0x20\n      add\n      0x00\n      keccak256\n      0x00\n        /* \"MTP/RoleManagement.sol\":4125:4158  roles[_requestor] = Role.Hospital */\n      0x0100\n      exp\n      dup2\n      sload\n      dup2\n      0xff\n      mul\n      not\n      and\n      swap1\n      dup4\n      0x04\n      dup2\n      gt\n      iszero\n      tag_315\n      jumpi\n      tag_316\n      tag_114\n      jump\t// in\n    tag_316:\n    tag_315:\n      mul\n      or\n      swap1\n      sstore\n      pop\n        /* \"MTP/RoleManagement.sol\":4203:4225  RequestStatus.Approved */\n      0x02\n        /* \"MTP/RoleManagement.sol\":4169:4181  roleRequests */\n      0x01\n        /* \"MTP/RoleManagement.sol\":4169:4193  roleRequests[_requestor] */\n      0x00\n        /* \"MTP/RoleManagement.sol\":4182:4192  _requestor */\n      dup4\n        /* \"MTP/RoleManagement.sol\":4169:4193  roleRequests[_requestor] */\n      0xffffffffffffffffffffffffffffffffffffffff\n      and\n      0xffffffffffffffffffffffffffffffffffffffff\n      and\n      dup2\n      mstore\n      0x20\n      add\n      swap1\n      dup2\n      mstore\n      0x20\n      add\n      0x00\n      keccak256\n        /* \"MTP/RoleManagement.sol\":4169:4200  roleRequests[_requestor].status */\n      0x01\n      add\n      0x00\n        /* \"MTP/RoleManagement.sol\":4169:4225  roleRequests[_requestor].status = RequestStatus.Approved */\n      0x0100\n      exp\n      dup2\n      sload\n      dup2\n      0xff\n      mul\n      not\n      and\n      swap1\n      dup4\n      0x03\n      dup2\n      gt\n      iszero\n      tag_317\n      jumpi\n      tag_318\n      tag_114\n      jump\t// in\n    tag_318:\n    tag_317:\n      mul\n      or\n      swap1\n      sstore\n      pop\n        /* \"MTP/RoleManagement.sol\":4238:4255  verifiedHospitals */\n      0x04\n        /* \"MTP/RoleManagement.sol\":4261:4341  VerifiedRole(_requestor, Role.Hospital, roleRequests[_requestor].registrationId) */\n      mload(0x40)\n      dup1\n      0x60\n      add\n      0x40\n      mstore\n      dup1\n        /* \"MTP/RoleManagement.sol\":4274:4284  _requestor */\n      dup4\n        /* \"MTP/RoleManagement.sol\":4261:4341  VerifiedRole(_requestor, Role.Hospital, roleRequests[_requestor].registrationId) */\n      0xffffffffffffffffffffffffffffffffffffffff\n      and\n      dup2\n      mstore\n      0x20\n      add\n        /* \"MTP/RoleManagement.sol\":4286:4299  Role.Hospital */\n      0x01\n        /* \"MTP/RoleManagement.sol\":4261:4341  VerifiedRole(_requestor, Role.Hospital, roleRequests[_requestor].registrationId) */\n      0x04\n      dup2\n      gt\n      iszero\n      tag_319\n      jumpi\n      tag_320\n      tag_114\n      jump\t// in\n    tag_320:\n    tag_319:\n      dup2\n      mstore\n      0x20\n      add\n        /* \"MTP/RoleManagement.sol\":4301:4313  roleRequests */\n      0x01\n        /* \"MTP/RoleManagement.sol\":4301:4325  roleRequests[_requestor] */\n      0x00\n        /* \"MTP/RoleManagement.sol\":4314:4324  _requestor */\n      dup6\n        /* \"MTP/RoleManagement.sol\":4301:4325  roleRequests[_requestor] */\n      0xffffffffffffffffffffffffffffffffffffffff\n      and\n      0xffffffffffffffffffffffffffffffffffffffff\n      and\n      dup2\n      mstore\n      0x20\n      add\n      swap1\n      dup2\n      mstore\n      0x20\n      add\n      0x00\n      keccak256\n        /* \"MTP/RoleManagement.sol\":4301:4340  roleRequests[_requestor].registrationId */\n      0x00\n      add\n        /* \"MTP/RoleManagement.sol\":4261:4341  VerifiedRole(_requestor, Role.Hospital, roleRequests[_requestor].registrationId) */\n      dup1\n      sload\n      tag_321\n      swap1\n      tag_134\n      jump\t// in\n    tag_321:\n      dup1\n      0x1f\n      add\n      0x20\n      dup1\n      swap2\n      div\n      mul\n      0x20\n      add\n      mload(0x40)\n      swap1\n      dup2\n      add\n      0x40\n      mstore\n      dup1\n      swap3\n      swap2\n      swap1\n      dup2\n      dup2\n      mstore\n      0x20\n      add\n      dup3\n      dup1\n      sload\n      tag_322\n      swap1\n      tag_134\n      jump\t// in\n    tag_322:\n      dup1\n      iszero\n      tag_323\n      jumpi\n      dup1\n      0x1f\n      lt\n      tag_324\n      jumpi\n      0x0100\n      dup1\n      dup4\n      sload\n      div\n      mul\n      dup4\n      mstore\n      swap2\n      0x20\n      add\n      swap2\n      jump(tag_323)\n    tag_324:\n      dup3\n      add\n      swap2\n      swap1\n      0x00\n      mstore\n      keccak256(0x00, 0x20)\n      swap1\n    tag_325:\n      dup2\n      sload\n      dup2\n      mstore\n      swap1\n      0x01\n      add\n      swap1\n      0x20\n      add\n      dup1\n      dup4\n      gt\n      tag_325\n      jumpi\n      dup3\n      swap1\n      sub\n      0x1f\n      and\n      dup3\n      add\n      swap2\n    tag_323:\n      pop\n      pop\n      pop\n      pop\n      pop\n      dup2\n      mstore\n      pop\n        /* \"MTP/RoleManagement.sol\":4238:4342  verifiedHospitals.push(VerifiedRole(_requestor, Role.Hospital, roleRequests[_requestor].registrationId)) */\n      swap1\n      dup1\n      0x01\n      dup2\n      sload\n      add\n      dup1\n      dup3\n      sstore\n      dup1\n      swap2\n      pop\n      pop\n      0x01\n      swap1\n      sub\n      swap1\n      0x00\n      mstore\n      keccak256(0x00, 0x20)\n      swap1\n      0x02\n      mul\n      add\n      0x00\n      swap1\n      swap2\n      swap1\n      swap2\n      swap1\n      swap2\n      pop\n      0x00\n      dup3\n      add\n      mload\n      dup2\n      0x00\n      add\n      exp(0x0100, 0x00)\n      dup2\n      sload\n      dup2\n      0xffffffffffffffffffffffffffffffffffffffff\n      mul\n      not\n      and\n      swap1\n      dup4\n      0xffffffffffffffffffffffffffffffffffffffff\n      and\n      mul\n      or\n      swap1\n      sstore\n      pop\n      0x20\n      dup3\n      add\n      mload\n      dup2\n      0x00\n      add\n      exp(0x0100, 0x14)\n      dup2\n      sload\n      dup2\n      0xff\n      mul\n      not\n      and\n      swap1\n      dup4\n      0x04\n      dup2\n      gt\n      iszero\n      tag_327\n      jumpi\n      tag_328\n      tag_114\n      jump\t// in\n    tag_328:\n    tag_327:\n      mul\n      or\n      swap1\n      sstore\n      pop\n      0x40\n      dup3\n      add\n      mload\n      dup2\n      0x01\n      add\n      swap1\n      dup2\n      tag_329\n      swap2\n      swap1\n      tag_143\n      jump\t// in\n    tag_329:\n      pop\n      pop\n      pop\n        /* \"MTP/RoleManagement.sol\":4353:4386  _removePendingRequest(_requestor) */\n      tag_330\n        /* \"MTP/RoleManagement.sol\":4375:4385  _requestor */\n      dup2\n        /* \"MTP/RoleManagement.sol\":4353:4374  _removePendingRequest */\n      tag_145\n        /* \"MTP/RoleManagement.sol\":4353:4386  _removePendingRequest(_requestor) */\n      jump\t// in\n    tag_330:\n        /* \"MTP/RoleManagement.sol\":4417:4427  _requestor */\n      dup1\n        /* \"MTP/RoleManagement.sol\":4404:4443  RoleApproved(_requestor, Role.Hospital) */\n      0xffffffffffffffffffffffffffffffffffffffff\n      and\n      0x042f52f18ca9258767cef802b6283a39f6c1053fbd02bee367edc363da679f86\n        /* \"MTP/RoleManagement.sol\":4429:4442  Role.Hospital */\n      0x01\n        /* \"MTP/RoleManagement.sol\":4404:4443  RoleApproved(_requestor, Role.Hospital) */\n      mload(0x40)\n      tag_331\n      swap2\n      swap1\n      tag_54\n      jump\t// in\n    tag_331:\n      mload(0x40)\n      dup1\n      swap2\n      sub\n      swap1\n      log2\n        /* \"MTP/RoleManagement.sol\":3870:4451  function verifyHospitalRole(address _requestor) public onlyAdmin {... */\n      pop\n      jump\t// out\n        /* \"MTP/RoleManagement.sol\":442:479  mapping(address => Role) public roles */\n    tag_81:\n      mstore(0x20, 0x00)\n      dup1\n      0x00\n      mstore\n      keccak256(0x00, 0x40)\n      0x00\n      swap2\n      pop\n      sload\n      swap1\n      0x0100\n      exp\n      swap1\n      div\n      0xff\n      and\n      dup2\n      jump\t// out\n        /* \"MTP/RoleManagement.sol\":2698:3231  function requestResearcherRole(string memory _registrationId) public {... */\n    tag_85:\n        /* \"MTP/RoleManagement.sol\":2807:2816  Role.None */\n      0x00\n        /* \"MTP/RoleManagement.sol\":2786:2816  roles[msg.sender] == Role.None */\n      0x04\n      dup2\n      gt\n      iszero\n      tag_333\n      jumpi\n      tag_334\n      tag_114\n      jump\t// in\n    tag_334:\n    tag_333:\n        /* \"MTP/RoleManagement.sol\":2786:2791  roles */\n      0x00\n        /* \"MTP/RoleManagement.sol\":2786:2803  roles[msg.sender] */\n      dup1\n        /* \"MTP/RoleManagement.sol\":2792:2802  msg.sender */\n      caller\n        /* \"MTP/RoleManagement.sol\":2786:2803  roles[msg.sender] */\n      0xffffffffffffffffffffffffffffffffffffffff\n      and\n      0xffffffffffffffffffffffffffffffffffffffff\n      and\n      dup2\n      mstore\n      0x20\n      add\n      swap1\n      dup2\n      mstore\n      0x20\n      add\n      0x00\n      keccak256\n      0x00\n      swap1\n      sload\n      swap1\n      0x0100\n      exp\n      swap1\n      div\n      0xff\n      and\n        /* \"MTP/RoleManagement.sol\":2786:2816  roles[msg.sender] == Role.None */\n      0x04\n      dup2\n      gt\n      iszero\n      tag_335\n      jumpi\n      tag_336\n      tag_114\n      jump\t// in\n    tag_336:\n    tag_335:\n      eq\n        /* \"MTP/RoleManagement.sol\":2778:2842  require(roles[msg.sender] == Role.None, \"Role already assigned\") */\n      tag_337\n      jumpi\n      mload(0x40)\n      0x08c379a000000000000000000000000000000000000000000000000000000000\n      dup2\n      mstore\n      0x04\n      add\n      tag_338\n      swap1\n      tag_126\n      jump\t// in\n    tag_338:\n      mload(0x40)\n      dup1\n      swap2\n      sub\n      swap1\n      revert\n    tag_337:\n        /* \"MTP/RoleManagement.sol\":2896:2914  RequestStatus.None */\n      0x00\n        /* \"MTP/RoleManagement.sol\":2861:2914  roleRequests[msg.sender].status == RequestStatus.None */\n      0x03\n      dup2\n      gt\n      iszero\n      tag_339\n      jumpi\n      tag_340\n      tag_114\n      jump\t// in\n    tag_340:\n    tag_339:\n        /* \"MTP/RoleManagement.sol\":2861:2873  roleRequests */\n      0x01\n        /* \"MTP/RoleManagement.sol\":2861:2885  roleRequests[msg.sender] */\n      0x00\n        /* \"MTP/RoleManagement.sol\":2874:2884  msg.sender */\n      caller\n        /* \"MTP/RoleManagement.sol\":2861:2885  roleRequests[msg.sender] */\n      0xffffffffffffffffffffffffffffffffffffffff\n      and\n      0xffffffffffffffffffffffffffffffffffffffff\n      and\n      dup2\n      mstore\n      0x20\n      add\n      swap1\n      dup2\n      mstore\n      0x20\n      add\n      0x00\n      keccak256\n        /* \"MTP/RoleManagement.sol\":2861:2892  roleRequests[msg.sender].status */\n      0x01\n      add\n      0x00\n      swap1\n      sload\n      swap1\n      0x0100\n      exp\n      swap1\n      div\n      0xff\n      and\n        /* \"MTP/RoleManagement.sol\":2861:2914  roleRequests[msg.sender].status == RequestStatus.None */\n      0x03\n      dup2\n      gt\n      iszero\n      tag_341\n      jumpi\n      tag_342\n      tag_114\n      jump\t// in\n    tag_342:\n    tag_341:\n      eq\n        /* \"MTP/RoleManagement.sol\":2853:2947  require(roleRequests[msg.sender].status == RequestStatus.None, \"Role request already pending\") */\n      tag_343\n      jumpi\n      mload(0x40)\n      0x08c379a000000000000000000000000000000000000000000000000000000000\n      dup2\n      mstore\n      0x04\n      add\n      tag_344\n      swap1\n      tag_160\n      jump\t// in\n    tag_344:\n      mload(0x40)\n      dup1\n      swap2\n      sub\n      swap1\n      revert\n    tag_343:\n        /* \"MTP/RoleManagement.sol\":2987:3103  RoleRequest({... */\n      mload(0x40)\n      dup1\n      0x40\n      add\n      0x40\n      mstore\n      dup1\n        /* \"MTP/RoleManagement.sol\":3030:3045  _registrationId */\n      dup3\n        /* \"MTP/RoleManagement.sol\":2987:3103  RoleRequest({... */\n      dup2\n      mstore\n      0x20\n      add\n        /* \"MTP/RoleManagement.sol\":3068:3091  RequestStatus.Requested */\n      0x01\n        /* \"MTP/RoleManagement.sol\":2987:3103  RoleRequest({... */\n      0x03\n      dup2\n      gt\n      iszero\n      tag_345\n      jumpi\n      tag_346\n      tag_114\n      jump\t// in\n    tag_346:\n    tag_345:\n      dup2\n      mstore\n      pop\n        /* \"MTP/RoleManagement.sol\":2960:2972  roleRequests */\n      0x01\n        /* \"MTP/RoleManagement.sol\":2960:2984  roleRequests[msg.sender] */\n      0x00\n        /* \"MTP/RoleManagement.sol\":2973:2983  msg.sender */\n      caller\n        /* \"MTP/RoleManagement.sol\":2960:2984  roleRequests[msg.sender] */\n      0xffffffffffffffffffffffffffffffffffffffff\n      and\n      0xffffffffffffffffffffffffffffffffffffffff\n      and\n      dup2\n      mstore\n      0x20\n      add\n      swap1\n      dup2\n      mstore\n      0x20\n      add\n      0x00\n      keccak256\n        /* \"MTP/RoleManagement.sol\":2960:3103  roleRequests[msg.sender] = RoleRequest({... */\n      0x00\n      dup3\n      add\n      mload\n      dup2\n      0x00\n      add\n      swap1\n      dup2\n      tag_347\n      swap2\n      swap1\n      tag_143\n      jump\t// in\n    tag_347:\n      pop\n      0x20\n      dup3\n      add\n      mload\n      dup2\n      0x01\n      add\n      exp(0x0100, 0x00)\n      dup2\n      sload\n      dup2\n      0xff\n      mul\n      not\n      and\n      swap1\n      dup4\n      0x03\n      dup2\n      gt\n      iszero\n      tag_348\n      jumpi\n      tag_349\n      tag_114\n      jump\t// in\n    tag_349:\n    tag_348:\n      mul\n      or\n      swap1\n      sstore\n      pop\n      swap1\n      pop\n      pop\n        /* \"MTP/RoleManagement.sol\":3116:3131  pendingRequests */\n      0x03\n        /* \"MTP/RoleManagement.sol\":3137:3147  msg.sender */\n      caller\n        /* \"MTP/RoleManagement.sol\":3116:3148  pendingRequests.push(msg.sender) */\n      swap1\n      dup1\n      0x01\n      dup2\n      sload\n      add\n      dup1\n      dup3\n      sstore\n      dup1\n      swap2\n      pop\n      pop\n      0x01\n      swap1\n      sub\n      swap1\n      0x00\n      mstore\n      keccak256(0x00, 0x20)\n      add\n      0x00\n      swap1\n      swap2\n      swap1\n      swap2\n      swap1\n      swap2\n      0x0100\n      exp\n      dup2\n      sload\n      dup2\n      0xffffffffffffffffffffffffffffffffffffffff\n      mul\n      not\n      and\n      swap1\n      dup4\n      0xffffffffffffffffffffffffffffffffffffffff\n      and\n      mul\n      or\n      swap1\n      sstore\n      pop\n        /* \"MTP/RoleManagement.sol\":3178:3188  msg.sender */\n      caller\n        /* \"MTP/RoleManagement.sol\":3164:3223  RoleRequested(msg.sender, _registrationId, Role.Researcher) */\n      0xffffffffffffffffffffffffffffffffffffffff\n      and\n      0x5c8e9edc72d072388931db2631b495f2ce13d46af59a06e2a24e0e514db7904b\n        /* \"MTP/RoleManagement.sol\":3190:3205  _registrationId */\n      dup3\n        /* \"MTP/RoleManagement.sol\":3207:3222  Role.Researcher */\n      0x03\n        /* \"MTP/RoleManagement.sol\":3164:3223  RoleRequested(msg.sender, _registrationId, Role.Researcher) */\n      mload(0x40)\n      tag_351\n      swap3\n      swap2\n      swap1\n      tag_168\n      jump\t// in\n    tag_351:\n      mload(0x40)\n      dup1\n      swap2\n      sub\n      swap1\n      log2\n        /* \"MTP/RoleManagement.sol\":2698:3231  function requestResearcherRole(string memory _registrationId) public {... */\n      pop\n      jump\t// out\n        /* \"MTP/RoleManagement.sol\":2112:2647  function requestDataAuditorRole(string memory _registrationId) public {... */\n    tag_88:\n        /* \"MTP/RoleManagement.sol\":2222:2231  Role.None */\n      0x00\n        /* \"MTP/RoleManagement.sol\":2201:2231  roles[msg.sender] == Role.None */\n      0x04\n      dup2\n      gt\n      iszero\n      tag_353\n      jumpi\n      tag_354\n      tag_114\n      jump\t// in\n    tag_354:\n    tag_353:\n        /* \"MTP/RoleManagement.sol\":2201:2206  roles */\n      0x00\n        /* \"MTP/RoleManagement.sol\":2201:2218  roles[msg.sender] */\n      dup1\n        /* \"MTP/RoleManagement.sol\":2207:2217  msg.sender */\n      caller\n        /* \"MTP/RoleManagement.sol\":2201:2218  roles[msg.sender] */\n      0xffffffffffffffffffffffffffffffffffffffff\n      and\n      0xffffffffffffffffffffffffffffffffffffffff\n      and\n      dup2\n      mstore\n      0x20\n      add\n      swap1\n      dup2\n      mstore\n      0x20\n      add\n      0x00\n      keccak256\n      0x00\n      swap1\n      sload\n      swap1\n      0x0100\n      exp\n      swap1\n      div\n      0xff\n      and\n        /* \"MTP/RoleManagement.sol\":2201:2231  roles[msg.sender] == Role.None */\n      0x04\n      dup2\n      gt\n      iszero\n      tag_355\n      jumpi\n      tag_356\n      tag_114\n      jump\t// in\n    tag_356:\n    tag_355:\n      eq\n        /* \"MTP/RoleManagement.sol\":2193:2257  require(roles[msg.sender] == Role.None, \"Role already assigned\") */\n      tag_357\n      jumpi\n      mload(0x40)\n      0x08c379a000000000000000000000000000000000000000000000000000000000\n      dup2\n      mstore\n      0x04\n      add\n      tag_358\n      swap1\n      tag_126\n      jump\t// in\n    tag_358:\n      mload(0x40)\n      dup1\n      swap2\n      sub\n      swap1\n      revert\n    tag_357:\n        /* \"MTP/RoleManagement.sol\":2311:2329  RequestStatus.None */\n      0x00\n        /* \"MTP/RoleManagement.sol\":2276:2329  roleRequests[msg.sender].status == RequestStatus.None */\n      0x03\n      dup2\n      gt\n      iszero\n      tag_359\n      jumpi\n      tag_360\n      tag_114\n      jump\t// in\n    tag_360:\n    tag_359:\n        /* \"MTP/RoleManagement.sol\":2276:2288  roleRequests */\n      0x01\n        /* \"MTP/RoleManagement.sol\":2276:2300  roleRequests[msg.sender] */\n      0x00\n        /* \"MTP/RoleManagement.sol\":2289:2299  msg.sender */\n      caller\n        /* \"MTP/RoleManagement.sol\":2276:2300  roleRequests[msg.sender] */\n      0xffffffffffffffffffffffffffffffffffffffff\n      and\n      0xffffffffffffffffffffffffffffffffffffffff\n      and\n      dup2\n      mstore\n      0x20\n      add\n      swap1\n      dup2\n      mstore\n      0x20\n      add\n      0x00\n      keccak256\n        /* \"MTP/RoleManagement.sol\":2276:2307  roleRequests[msg.sender].status */\n      0x01\n      add\n      0x00\n      swap1\n      sload\n      swap1\n      0x0100\n      exp\n      swap1\n      div\n      0xff\n      and\n        /* \"MTP/RoleManagement.sol\":2276:2329  roleRequests[msg.sender].status == RequestStatus.None */\n      0x03\n      dup2\n      gt\n      iszero\n      tag_361\n      jumpi\n      tag_362\n      tag_114\n      jump\t// in\n    tag_362:\n    tag_361:\n      eq\n        /* \"MTP/RoleManagement.sol\":2268:2362  require(roleRequests[msg.sender].status == RequestStatus.None, \"Role request already pending\") */\n      tag_363\n      jumpi\n      mload(0x40)\n      0x08c379a000000000000000000000000000000000000000000000000000000000\n      dup2\n      mstore\n      0x04\n      add\n      tag_364\n      swap1\n      tag_160\n      jump\t// in\n    tag_364:\n      mload(0x40)\n      dup1\n      swap2\n      sub\n      swap1\n      revert\n    tag_363:\n        /* \"MTP/RoleManagement.sol\":2402:2518  RoleRequest({... */\n      mload(0x40)\n      dup1\n      0x40\n      add\n      0x40\n      mstore\n      dup1\n        /* \"MTP/RoleManagement.sol\":2445:2460  _registrationId */\n      dup3\n        /* \"MTP/RoleManagement.sol\":2402:2518  RoleRequest({... */\n      dup2\n      mstore\n      0x20\n      add\n        /* \"MTP/RoleManagement.sol\":2483:2506  RequestStatus.Requested */\n      0x01\n        /* \"MTP/RoleManagement.sol\":2402:2518  RoleRequest({... */\n      0x03\n      dup2\n      gt\n      iszero\n      tag_365\n      jumpi\n      tag_366\n      tag_114\n      jump\t// in\n    tag_366:\n    tag_365:\n      dup2\n      mstore\n      pop\n        /* \"MTP/RoleManagement.sol\":2375:2387  roleRequests */\n      0x01\n        /* \"MTP/RoleManagement.sol\":2375:2399  roleRequests[msg.sender] */\n      0x00\n        /* \"MTP/RoleManagement.sol\":2388:2398  msg.sender */\n      caller\n        /* \"MTP/RoleManagement.sol\":2375:2399  roleRequests[msg.sender] */\n      0xffffffffffffffffffffffffffffffffffffffff\n      and\n      0xffffffffffffffffffffffffffffffffffffffff\n      and\n      dup2\n      mstore\n      0x20\n      add\n      swap1\n      dup2\n      mstore\n      0x20\n      add\n      0x00\n      keccak256\n        /* \"MTP/RoleManagement.sol\":2375:2518  roleRequests[msg.sender] = RoleRequest({... */\n      0x00\n      dup3\n      add\n      mload\n      dup2\n      0x00\n      add\n      swap1\n      dup2\n      tag_367\n      swap2\n      swap1\n      tag_143\n      jump\t// in\n    tag_367:\n      pop\n      0x20\n      dup3\n      add\n      mload\n      dup2\n      0x01\n      add\n      exp(0x0100, 0x00)\n      dup2\n      sload\n      dup2\n      0xff\n      mul\n      not\n      and\n      swap1\n      dup4\n      0x03\n      dup2\n      gt\n      iszero\n      tag_368\n      jumpi\n      tag_369\n      tag_114\n      jump\t// in\n    tag_369:\n    tag_368:\n      mul\n      or\n      swap1\n      sstore\n      pop\n      swap1\n      pop\n      pop\n        /* \"MTP/RoleManagement.sol\":2531:2546  pendingRequests */\n      0x03\n        /* \"MTP/RoleManagement.sol\":2552:2562  msg.sender */\n      caller\n        /* \"MTP/RoleManagement.sol\":2531:2563  pendingRequests.push(msg.sender) */\n      swap1\n      dup1\n      0x01\n      dup2\n      sload\n      add\n      dup1\n      dup3\n      sstore\n      dup1\n      swap2\n      pop\n      pop\n      0x01\n      swap1\n      sub\n      swap1\n      0x00\n      mstore\n      keccak256(0x00, 0x20)\n      add\n      0x00\n      swap1\n      swap2\n      swap1\n      swap2\n      swap1\n      swap2\n      0x0100\n      exp\n      dup2\n      sload\n      dup2\n      0xffffffffffffffffffffffffffffffffffffffff\n      mul\n      not\n      and\n      swap1\n      dup4\n      0xffffffffffffffffffffffffffffffffffffffff\n      and\n      mul\n      or\n      swap1\n      sstore\n      pop\n        /* \"MTP/RoleManagement.sol\":2593:2603  msg.sender */\n      caller\n        /* \"MTP/RoleManagement.sol\":2579:2639  RoleRequested(msg.sender, _registrationId, Role.DataAuditor) */\n      0xffffffffffffffffffffffffffffffffffffffff\n      and\n      0x5c8e9edc72d072388931db2631b495f2ce13d46af59a06e2a24e0e514db7904b\n        /* \"MTP/RoleManagement.sol\":2605:2620  _registrationId */\n      dup3\n        /* \"MTP/RoleManagement.sol\":2622:2638  Role.DataAuditor */\n      0x02\n        /* \"MTP/RoleManagement.sol\":2579:2639  RoleRequested(msg.sender, _registrationId, Role.DataAuditor) */\n      mload(0x40)\n      tag_371\n      swap3\n      swap2\n      swap1\n      tag_168\n      jump\t// in\n    tag_371:\n      mload(0x40)\n      dup1\n      swap2\n      sub\n      swap1\n      log2\n        /* \"MTP/RoleManagement.sol\":2112:2647  function requestDataAuditorRole(string memory _registrationId) public {... */\n      pop\n      jump\t// out\n        /* \"MTP/RoleManagement.sol\":486:537  mapping(address => RoleRequest) public roleRequests */\n    tag_91:\n      mstore(0x20, 0x01)\n      dup1\n      0x00\n      mstore\n      keccak256(0x00, 0x40)\n      0x00\n      swap2\n      pop\n      swap1\n      pop\n      dup1\n      0x00\n      add\n      dup1\n      sload\n      tag_372\n      swap1\n      tag_134\n      jump\t// in\n    tag_372:\n      dup1\n      0x1f\n      add\n      0x20\n      dup1\n      swap2\n      div\n      mul\n      0x20\n      add\n      mload(0x40)\n      swap1\n      dup2\n      add\n      0x40\n      mstore\n      dup1\n      swap3\n      swap2\n      swap1\n      dup2\n      dup2\n      mstore\n      0x20\n      add\n      dup3\n      dup1\n      sload\n      tag_373\n      swap1\n      tag_134\n      jump\t// in\n    tag_373:\n      dup1\n      iszero\n      tag_374\n      jumpi\n      dup1\n      0x1f\n      lt\n      tag_375\n      jumpi\n      0x0100\n      dup1\n      dup4\n      sload\n      div\n      mul\n      dup4\n      mstore\n      swap2\n      0x20\n      add\n      swap2\n      jump(tag_374)\n    tag_375:\n      dup3\n      add\n      swap2\n      swap1\n      0x00\n      mstore\n      keccak256(0x00, 0x20)\n      swap1\n    tag_376:\n      dup2\n      sload\n      dup2\n      mstore\n      swap1\n      0x01\n      add\n      swap1\n      0x20\n      add\n      dup1\n      dup4\n      gt\n      tag_376\n      jumpi\n      dup3\n      swap1\n      sub\n      0x1f\n      and\n      dup3\n      add\n      swap2\n    tag_374:\n      pop\n      pop\n      pop\n      pop\n      pop\n      swap1\n      dup1\n      0x01\n      add\n      0x00\n      swap1\n      sload\n      swap1\n      0x0100\n      exp\n      swap1\n      div\n      0xff\n      and\n      swap1\n      pop\n      dup3\n      jump\t// out\n        /* \"MTP/RoleManagement.sol\":5819:6400  function verifyIPFSNodeRole(address _requestor) public onlyAdmin {... */\n    tag_96:\n        /* \"MTP/RoleManagement.sol\":1157:1162  admin */\n      0x02\n      0x00\n      swap1\n      sload\n      swap1\n      0x0100\n      exp\n      swap1\n      div\n      0xffffffffffffffffffffffffffffffffffffffff\n      and\n        /* \"MTP/RoleManagement.sol\":1143:1162  msg.sender == admin */\n      0xffffffffffffffffffffffffffffffffffffffff\n      and\n        /* \"MTP/RoleManagement.sol\":1143:1153  msg.sender */\n      caller\n        /* \"MTP/RoleManagement.sol\":1143:1162  msg.sender == admin */\n      0xffffffffffffffffffffffffffffffffffffffff\n      and\n      eq\n        /* \"MTP/RoleManagement.sol\":1135:1201  require(msg.sender == admin, \"Only admin can perform this action\") */\n      tag_378\n      jumpi\n      mload(0x40)\n      0x08c379a000000000000000000000000000000000000000000000000000000000\n      dup2\n      mstore\n      0x04\n      add\n      tag_379\n      swap1\n      tag_110\n      jump\t// in\n    tag_379:\n      mload(0x40)\n      dup1\n      swap2\n      sub\n      swap1\n      revert\n    tag_378:\n        /* \"MTP/RoleManagement.sol\":5938:5961  RequestStatus.Requested */\n      0x01\n        /* \"MTP/RoleManagement.sol\":5903:5961  roleRequests[_requestor].status == RequestStatus.Requested */\n      0x03\n      dup2\n      gt\n      iszero\n      tag_381\n      jumpi\n      tag_382\n      tag_114\n      jump\t// in\n    tag_382:\n    tag_381:\n        /* \"MTP/RoleManagement.sol\":5903:5915  roleRequests */\n      0x01\n        /* \"MTP/RoleManagement.sol\":5903:5927  roleRequests[_requestor] */\n      0x00\n        /* \"MTP/RoleManagement.sol\":5916:5926  _requestor */\n      dup4\n        /* \"MTP/RoleManagement.sol\":5903:5927  roleRequests[_requestor] */\n      0xffffffffffffffffffffffffffffffffffffffff\n      and\n      0xffffffffffffffffffffffffffffffffffffffff\n      and\n      dup2\n      mstore\n      0x20\n      add\n      swap1\n      dup2\n      mstore\n      0x20\n      add\n      0x00\n      keccak256\n        /* \"MTP/RoleManagement.sol\":5903:5934  roleRequests[_requestor].status */\n      0x01\n      add\n      0x00\n      swap1\n      sload\n      swap1\n      0x0100\n      exp\n      swap1\n      div\n      0xff\n      and\n        /* \"MTP/RoleManagement.sol\":5903:5961  roleRequests[_requestor].status == RequestStatus.Requested */\n      0x03\n      dup2\n      gt\n      iszero\n      tag_383\n      jumpi\n      tag_384\n      tag_114\n      jump\t// in\n    tag_384:\n    tag_383:\n      eq\n        /* \"MTP/RoleManagement.sol\":5895:5986  require(roleRequests[_requestor].status == RequestStatus.Requested, \"No request to verify\") */\n      tag_385\n      jumpi\n      mload(0x40)\n      0x08c379a000000000000000000000000000000000000000000000000000000000\n      dup2\n      mstore\n      0x04\n      add\n      tag_386\n      swap1\n      tag_119\n      jump\t// in\n    tag_386:\n      mload(0x40)\n      dup1\n      swap2\n      sub\n      swap1\n      revert\n    tag_385:\n        /* \"MTP/RoleManagement.sol\":6026:6035  Role.None */\n      0x00\n        /* \"MTP/RoleManagement.sol\":6005:6035  roles[_requestor] == Role.None */\n      0x04\n      dup2\n      gt\n      iszero\n      tag_387\n      jumpi\n      tag_388\n      tag_114\n      jump\t// in\n    tag_388:\n    tag_387:\n        /* \"MTP/RoleManagement.sol\":6005:6010  roles */\n      0x00\n        /* \"MTP/RoleManagement.sol\":6005:6022  roles[_requestor] */\n      dup1\n        /* \"MTP/RoleManagement.sol\":6011:6021  _requestor */\n      dup4\n        /* \"MTP/RoleManagement.sol\":6005:6022  roles[_requestor] */\n      0xffffffffffffffffffffffffffffffffffffffff\n      and\n      0xffffffffffffffffffffffffffffffffffffffff\n      and\n      dup2\n      mstore\n      0x20\n      add\n      swap1\n      dup2\n      mstore\n      0x20\n      add\n      0x00\n      keccak256\n      0x00\n      swap1\n      sload\n      swap1\n      0x0100\n      exp\n      swap1\n      div\n      0xff\n      and\n        /* \"MTP/RoleManagement.sol\":6005:6035  roles[_requestor] == Role.None */\n      0x04\n      dup2\n      gt\n      iszero\n      tag_389\n      jumpi\n      tag_390\n      tag_114\n      jump\t// in\n    tag_390:\n    tag_389:\n      eq\n        /* \"MTP/RoleManagement.sol\":5997:6061  require(roles[_requestor] == Role.None, \"Role already assigned\") */\n      tag_391\n      jumpi\n      mload(0x40)\n      0x08c379a000000000000000000000000000000000000000000000000000000000\n      dup2\n      mstore\n      0x04\n      add\n      tag_392\n      swap1\n      tag_126\n      jump\t// in\n    tag_392:\n      mload(0x40)\n      dup1\n      swap2\n      sub\n      swap1\n      revert\n    tag_391:\n        /* \"MTP/RoleManagement.sol\":6094:6107  Role.IPFSNode */\n      0x04\n        /* \"MTP/RoleManagement.sol\":6074:6079  roles */\n      0x00\n        /* \"MTP/RoleManagement.sol\":6074:6091  roles[_requestor] */\n      dup1\n        /* \"MTP/RoleManagement.sol\":6080:6090  _requestor */\n      dup4\n        /* \"MTP/RoleManagement.sol\":6074:6091  roles[_requestor] */\n      0xffffffffffffffffffffffffffffffffffffffff\n      and\n      0xffffffffffffffffffffffffffffffffffffffff\n      and\n      dup2\n      mstore\n      0x20\n      add\n      swap1\n      dup2\n      mstore\n      0x20\n      add\n      0x00\n      keccak256\n      0x00\n        /* \"MTP/RoleManagement.sol\":6074:6107  roles[_requestor] = Role.IPFSNode */\n      0x0100\n      exp\n      dup2\n      sload\n      dup2\n      0xff\n      mul\n      not\n      and\n      swap1\n      dup4\n      0x04\n      dup2\n      gt\n      iszero\n      tag_393\n      jumpi\n      tag_394\n      tag_114\n      jump\t// in\n    tag_394:\n    tag_393:\n      mul\n      or\n      swap1\n      sstore\n      pop\n        /* \"MTP/RoleManagement.sol\":6152:6174  RequestStatus.Approved */\n      0x02\n        /* \"MTP/RoleManagement.sol\":6118:6130  roleRequests */\n      0x01\n        /* \"MTP/RoleManagement.sol\":6118:6142  roleRequests[_requestor] */\n      0x00\n        /* \"MTP/RoleManagement.sol\":6131:6141  _requestor */\n      dup4\n        /* \"MTP/RoleManagement.sol\":6118:6142  roleRequests[_requestor] */\n      0xffffffffffffffffffffffffffffffffffffffff\n      and\n      0xffffffffffffffffffffffffffffffffffffffff\n      and\n      dup2\n      mstore\n      0x20\n      add\n      swap1\n      dup2\n      mstore\n      0x20\n      add\n      0x00\n      keccak256\n        /* \"MTP/RoleManagement.sol\":6118:6149  roleRequests[_requestor].status */\n      0x01\n      add\n      0x00\n        /* \"MTP/RoleManagement.sol\":6118:6174  roleRequests[_requestor].status = RequestStatus.Approved */\n      0x0100\n      exp\n      dup2\n      sload\n      dup2\n      0xff\n      mul\n      not\n      and\n      swap1\n      dup4\n      0x03\n      dup2\n      gt\n      iszero\n      tag_395\n      jumpi\n      tag_396\n      tag_114\n      jump\t// in\n    tag_396:\n    tag_395:\n      mul\n      or\n      swap1\n      sstore\n      pop\n        /* \"MTP/RoleManagement.sol\":6187:6204  verifiedIPFSNodes */\n      0x07\n        /* \"MTP/RoleManagement.sol\":6210:6290  VerifiedRole(_requestor, Role.IPFSNode, roleRequests[_requestor].registrationId) */\n      mload(0x40)\n      dup1\n      0x60\n      add\n      0x40\n      mstore\n      dup1\n        /* \"MTP/RoleManagement.sol\":6223:6233  _requestor */\n      dup4\n        /* \"MTP/RoleManagement.sol\":6210:6290  VerifiedRole(_requestor, Role.IPFSNode, roleRequests[_requestor].registrationId) */\n      0xffffffffffffffffffffffffffffffffffffffff\n      and\n      dup2\n      mstore\n      0x20\n      add\n        /* \"MTP/RoleManagement.sol\":6235:6248  Role.IPFSNode */\n      0x04\n        /* \"MTP/RoleManagement.sol\":6210:6290  VerifiedRole(_requestor, Role.IPFSNode, roleRequests[_requestor].registrationId) */\n      dup1\n      dup2\n      gt\n      iszero\n      tag_397\n      jumpi\n      tag_398\n      tag_114\n      jump\t// in\n    tag_398:\n    tag_397:\n      dup2\n      mstore\n      0x20\n      add\n        /* \"MTP/RoleManagement.sol\":6250:6262  roleRequests */\n      0x01\n        /* \"MTP/RoleManagement.sol\":6250:6274  roleRequests[_requestor] */\n      0x00\n        /* \"MTP/RoleManagement.sol\":6263:6273  _requestor */\n      dup6\n        /* \"MTP/RoleManagement.sol\":6250:6274  roleRequests[_requestor] */\n      0xffffffffffffffffffffffffffffffffffffffff\n      and\n      0xffffffffffffffffffffffffffffffffffffffff\n      and\n      dup2\n      mstore\n      0x20\n      add\n      swap1\n      dup2\n      mstore\n      0x20\n      add\n      0x00\n      keccak256\n        /* \"MTP/RoleManagement.sol\":6250:6289  roleRequests[_requestor].registrationId */\n      0x00\n      add\n        /* \"MTP/RoleManagement.sol\":6210:6290  VerifiedRole(_requestor, Role.IPFSNode, roleRequests[_requestor].registrationId) */\n      dup1\n      sload\n      tag_399\n      swap1\n      tag_134\n      jump\t// in\n    tag_399:\n      dup1\n      0x1f\n      add\n      0x20\n      dup1\n      swap2\n      div\n      mul\n      0x20\n      add\n      mload(0x40)\n      swap1\n      dup2\n      add\n      0x40\n      mstore\n      dup1\n      swap3\n      swap2\n      swap1\n      dup2\n      dup2\n      mstore\n      0x20\n      add\n      dup3\n      dup1\n      sload\n      tag_400\n      swap1\n      tag_134\n      jump\t// in\n    tag_400:\n      dup1\n      iszero\n      tag_401\n      jumpi\n      dup1\n      0x1f\n      lt\n      tag_402\n      jumpi\n      0x0100\n      dup1\n      dup4\n      sload\n      div\n      mul\n      dup4\n      mstore\n      swap2\n      0x20\n      add\n      swap2\n      jump(tag_401)\n    tag_402:\n      dup3\n      add\n      swap2\n      swap1\n      0x00\n      mstore\n      keccak256(0x00, 0x20)\n      swap1\n    tag_403:\n      dup2\n      sload\n      dup2\n      mstore\n      swap1\n      0x01\n      add\n      swap1\n      0x20\n      add\n      dup1\n      dup4\n      gt\n      tag_403\n      jumpi\n      dup3\n      swap1\n      sub\n      0x1f\n      and\n      dup3\n      add\n      swap2\n    tag_401:\n      pop\n      pop\n      pop\n      pop\n      pop\n      dup2\n      mstore\n      pop\n        /* \"MTP/RoleManagement.sol\":6187:6291  verifiedIPFSNodes.push(VerifiedRole(_requestor, Role.IPFSNode, roleRequests[_requestor].registrationId)) */\n      swap1\n      dup1\n      0x01\n      dup2\n      sload\n      add\n      dup1\n      dup3\n      sstore\n      dup1\n      swap2\n      pop\n      pop\n      0x01\n      swap1\n      sub\n      swap1\n      0x00\n      mstore\n      keccak256(0x00, 0x20)\n      swap1\n      0x02\n      mul\n      add\n      0x00\n      swap1\n      swap2\n      swap1\n      swap2\n      swap1\n      swap2\n      pop\n      0x00\n      dup3\n      add\n      mload\n      dup2\n      0x00\n      add\n      exp(0x0100, 0x00)\n      dup2\n      sload\n      dup2\n      0xffffffffffffffffffffffffffffffffffffffff\n      mul\n      not\n      and\n      swap1\n      dup4\n      0xffffffffffffffffffffffffffffffffffffffff\n      and\n      mul\n      or\n      swap1\n      sstore\n      pop\n      0x20\n      dup3\n      add\n      mload\n      dup2\n      0x00\n      add\n      exp(0x0100, 0x14)\n      dup2\n      sload\n      dup2\n      0xff\n      mul\n      not\n      and\n      swap1\n      dup4\n      0x04\n      dup2\n      gt\n      iszero\n      tag_405\n      jumpi\n      tag_406\n      tag_114\n      jump\t// in\n    tag_406:\n    tag_405:\n      mul\n      or\n      swap1\n      sstore\n      pop\n      0x40\n      dup3\n      add\n      mload\n      dup2\n      0x01\n      add\n      swap1\n      dup2\n      tag_407\n      swap2\n      swap1\n      tag_143\n      jump\t// in\n    tag_407:\n      pop\n      pop\n      pop\n        /* \"MTP/RoleManagement.sol\":6302:6335  _removePendingRequest(_requestor) */\n      tag_408\n        /* \"MTP/RoleManagement.sol\":6324:6334  _requestor */\n      dup2\n        /* \"MTP/RoleManagement.sol\":6302:6323  _removePendingRequest */\n      tag_145\n        /* \"MTP/RoleManagement.sol\":6302:6335  _removePendingRequest(_requestor) */\n      jump\t// in\n    tag_408:\n        /* \"MTP/RoleManagement.sol\":6366:6376  _requestor */\n      dup1\n        /* \"MTP/RoleManagement.sol\":6353:6392  RoleApproved(_requestor, Role.IPFSNode) */\n      0xffffffffffffffffffffffffffffffffffffffff\n      and\n      0x042f52f18ca9258767cef802b6283a39f6c1053fbd02bee367edc363da679f86\n        /* \"MTP/RoleManagement.sol\":6378:6391  Role.IPFSNode */\n      0x04\n        /* \"MTP/RoleManagement.sol\":6353:6392  RoleApproved(_requestor, Role.IPFSNode) */\n      mload(0x40)\n      tag_409\n      swap2\n      swap1\n      tag_54\n      jump\t// in\n    tag_409:\n      mload(0x40)\n      dup1\n      swap2\n      sub\n      swap1\n      log2\n        /* \"MTP/RoleManagement.sol\":5819:6400  function verifyIPFSNodeRole(address _requestor) public onlyAdmin {... */\n      pop\n      jump\t// out\n        /* \"MTP/RoleManagement.sol\":6449:6771  function rejectRole(address _requestor) public onlyAdmin {... */\n    tag_99:\n        /* \"MTP/RoleManagement.sol\":1157:1162  admin */\n      0x02\n      0x00\n      swap1\n      sload\n      swap1\n      0x0100\n      exp\n      swap1\n      div\n      0xffffffffffffffffffffffffffffffffffffffff\n      and\n        /* \"MTP/RoleManagement.sol\":1143:1162  msg.sender == admin */\n      0xffffffffffffffffffffffffffffffffffffffff\n      and\n        /* \"MTP/RoleManagement.sol\":1143:1153  msg.sender */\n      caller\n        /* \"MTP/RoleManagement.sol\":1143:1162  msg.sender == admin */\n      0xffffffffffffffffffffffffffffffffffffffff\n      and\n      eq\n        /* \"MTP/RoleManagement.sol\":1135:1201  require(msg.sender == admin, \"Only admin can perform this action\") */\n      tag_411\n      jumpi\n      mload(0x40)\n      0x08c379a000000000000000000000000000000000000000000000000000000000\n      dup2\n      mstore\n      0x04\n      add\n      tag_412\n      swap1\n      tag_110\n      jump\t// in\n    tag_412:\n      mload(0x40)\n      dup1\n      swap2\n      sub\n      swap1\n      revert\n    tag_411:\n        /* \"MTP/RoleManagement.sol\":6560:6583  RequestStatus.Requested */\n      0x01\n        /* \"MTP/RoleManagement.sol\":6525:6583  roleRequests[_requestor].status == RequestStatus.Requested */\n      0x03\n      dup2\n      gt\n      iszero\n      tag_414\n      jumpi\n      tag_415\n      tag_114\n      jump\t// in\n    tag_415:\n    tag_414:\n        /* \"MTP/RoleManagement.sol\":6525:6537  roleRequests */\n      0x01\n        /* \"MTP/RoleManagement.sol\":6525:6549  roleRequests[_requestor] */\n      0x00\n        /* \"MTP/RoleManagement.sol\":6538:6548  _requestor */\n      dup4\n        /* \"MTP/RoleManagement.sol\":6525:6549  roleRequests[_requestor] */\n      0xffffffffffffffffffffffffffffffffffffffff\n      and\n      0xffffffffffffffffffffffffffffffffffffffff\n      and\n      dup2\n      mstore\n      0x20\n      add\n      swap1\n      dup2\n      mstore\n      0x20\n      add\n      0x00\n      keccak256\n        /* \"MTP/RoleManagement.sol\":6525:6556  roleRequests[_requestor].status */\n      0x01\n      add\n      0x00\n      swap1\n      sload\n      swap1\n      0x0100\n      exp\n      swap1\n      div\n      0xff\n      and\n        /* \"MTP/RoleManagement.sol\":6525:6583  roleRequests[_requestor].status == RequestStatus.Requested */\n      0x03\n      dup2\n      gt\n      iszero\n      tag_416\n      jumpi\n      tag_417\n      tag_114\n      jump\t// in\n    tag_417:\n    tag_416:\n      eq\n        /* \"MTP/RoleManagement.sol\":6517:6608  require(roleRequests[_requestor].status == RequestStatus.Requested, \"No request to reject\") */\n      tag_418\n      jumpi\n      mload(0x40)\n      0x08c379a000000000000000000000000000000000000000000000000000000000\n      dup2\n      mstore\n      0x04\n      add\n      tag_419\n      swap1\n      tag_420\n      jump\t// in\n    tag_419:\n      mload(0x40)\n      dup1\n      swap2\n      sub\n      swap1\n      revert\n    tag_418:\n        /* \"MTP/RoleManagement.sol\":6655:6677  RequestStatus.Rejected */\n      0x03\n        /* \"MTP/RoleManagement.sol\":6621:6633  roleRequests */\n      0x01\n        /* \"MTP/RoleManagement.sol\":6621:6645  roleRequests[_requestor] */\n      0x00\n        /* \"MTP/RoleManagement.sol\":6634:6644  _requestor */\n      dup4\n        /* \"MTP/RoleManagement.sol\":6621:6645  roleRequests[_requestor] */\n      0xffffffffffffffffffffffffffffffffffffffff\n      and\n      0xffffffffffffffffffffffffffffffffffffffff\n      and\n      dup2\n      mstore\n      0x20\n      add\n      swap1\n      dup2\n      mstore\n      0x20\n      add\n      0x00\n      keccak256\n        /* \"MTP/RoleManagement.sol\":6621:6652  roleRequests[_requestor].status */\n      0x01\n      add\n      0x00\n        /* \"MTP/RoleManagement.sol\":6621:6677  roleRequests[_requestor].status = RequestStatus.Rejected */\n      0x0100\n      exp\n      dup2\n      sload\n      dup2\n      0xff\n      mul\n      not\n      and\n      swap1\n      dup4\n      0x03\n      dup2\n      gt\n      iszero\n      tag_421\n      jumpi\n      tag_422\n      tag_114\n      jump\t// in\n    tag_422:\n    tag_421:\n      mul\n      or\n      swap1\n      sstore\n      pop\n        /* \"MTP/RoleManagement.sol\":6688:6721  _removePendingRequest(_requestor) */\n      tag_423\n        /* \"MTP/RoleManagement.sol\":6710:6720  _requestor */\n      dup2\n        /* \"MTP/RoleManagement.sol\":6688:6709  _removePendingRequest */\n      tag_145\n        /* \"MTP/RoleManagement.sol\":6688:6721  _removePendingRequest(_requestor) */\n      jump\t// in\n    tag_423:\n        /* \"MTP/RoleManagement.sol\":6752:6762  _requestor */\n      dup1\n        /* \"MTP/RoleManagement.sol\":6739:6763  RoleRejected(_requestor) */\n      0xffffffffffffffffffffffffffffffffffffffff\n      and\n      0x82b1566ce0bdfb0cfb0387f61899ebef3513a2a7718d2a3ba352becb8f32ebdd\n      mload(0x40)\n      mload(0x40)\n      dup1\n      swap2\n      sub\n      swap1\n      log2\n        /* \"MTP/RoleManagement.sol\":6449:6771  function rejectRole(address _requestor) public onlyAdmin {... */\n      pop\n      jump\t// out\n        /* \"MTP/RoleManagement.sol\":701:739  VerifiedRole[] public verifiedAuditors */\n    tag_102:\n      0x05\n      dup2\n      dup2\n      sload\n      dup2\n      lt\n      tag_424\n      jumpi\n      0x00\n      dup1\n      revert\n    tag_424:\n      swap1\n      0x00\n      mstore\n      keccak256(0x00, 0x20)\n      swap1\n      0x02\n      mul\n      add\n      0x00\n      swap2\n      pop\n      swap1\n      pop\n      dup1\n      0x00\n      add\n      0x00\n      swap1\n      sload\n      swap1\n      0x0100\n      exp\n      swap1\n      div\n      0xffffffffffffffffffffffffffffffffffffffff\n      and\n      swap1\n      dup1\n      0x00\n      add\n      0x14\n      swap1\n      sload\n      swap1\n      0x0100\n      exp\n      swap1\n      div\n      0xff\n      and\n      swap1\n      dup1\n      0x01\n      add\n      dup1\n      sload\n      tag_426\n      swap1\n      tag_134\n      jump\t// in\n    tag_426:\n      dup1\n      0x1f\n      add\n      0x20\n      dup1\n      swap2\n      div\n      mul\n      0x20\n      add\n      mload(0x40)\n      swap1\n      dup2\n      add\n      0x40\n      mstore\n      dup1\n      swap3\n      swap2\n      swap1\n      dup2\n      dup2\n      mstore\n      0x20\n      add\n      dup3\n      dup1\n      sload\n      tag_427\n      swap1\n      tag_134\n      jump\t// in\n    tag_427:\n      dup1\n      iszero\n      tag_428\n      jumpi\n      dup1\n      0x1f\n      lt\n      tag_429\n      jumpi\n      0x0100\n      dup1\n      dup4\n      sload\n      div\n      mul\n      dup4\n      mstore\n      swap2\n      0x20\n      add\n      swap2\n      jump(tag_428)\n    tag_429:\n      dup3\n      add\n      swap2\n      swap1\n      0x00\n      mstore\n      keccak256(0x00, 0x20)\n      swap1\n    tag_430:\n      dup2\n      sload\n      dup2\n      mstore\n      swap1\n      0x01\n      add\n      swap1\n      0x20\n      add\n      dup1\n      dup4\n      gt\n      tag_430\n      jumpi\n      dup3\n      swap1\n      sub\n      0x1f\n      and\n      dup3\n      add\n      swap2\n    tag_428:\n      pop\n      pop\n      pop\n      pop\n      pop\n      swap1\n      pop\n      dup4\n      jump\t// out\n        /* \"MTP/RoleManagement.sol\":544:564  address public admin */\n    tag_105:\n      0x02\n      0x00\n      swap1\n      sload\n      swap1\n      0x0100\n      exp\n      swap1\n      div\n      0xffffffffffffffffffffffffffffffffffffffff\n      and\n      dup2\n      jump\t// out\n        /* \"MTP/RoleManagement.sol\":8220:8575  function _removePendingRequest(address _requestor) internal {... */\n    tag_145:\n        /* \"MTP/RoleManagement.sol\":8296:8302  uint i */\n      0x00\n        /* \"MTP/RoleManagement.sol\":8291:8568  for (uint i = 0; i < pendingRequests.length; i++) {... */\n    tag_432:\n        /* \"MTP/RoleManagement.sol\":8312:8327  pendingRequests */\n      0x03\n        /* \"MTP/RoleManagement.sol\":8312:8334  pendingRequests.length */\n      dup1\n      sload\n      swap1\n      pop\n        /* \"MTP/RoleManagement.sol\":8308:8309  i */\n      dup2\n        /* \"MTP/RoleManagement.sol\":8308:8334  i < pendingRequests.length */\n      lt\n        /* \"MTP/RoleManagement.sol\":8291:8568  for (uint i = 0; i < pendingRequests.length; i++) {... */\n      iszero\n      tag_433\n      jumpi\n        /* \"MTP/RoleManagement.sol\":8382:8392  _requestor */\n      dup2\n        /* \"MTP/RoleManagement.sol\":8360:8392  pendingRequests[i] == _requestor */\n      0xffffffffffffffffffffffffffffffffffffffff\n      and\n        /* \"MTP/RoleManagement.sol\":8360:8375  pendingRequests */\n      0x03\n        /* \"MTP/RoleManagement.sol\":8376:8377  i */\n      dup3\n        /* \"MTP/RoleManagement.sol\":8360:8378  pendingRequests[i] */\n      dup2\n      sload\n      dup2\n      lt\n      tag_435\n      jumpi\n      tag_436\n      tag_437\n      jump\t// in\n    tag_436:\n    tag_435:\n      swap1\n      0x00\n      mstore\n      keccak256(0x00, 0x20)\n      add\n      0x00\n      swap1\n      sload\n      swap1\n      0x0100\n      exp\n      swap1\n      div\n      0xffffffffffffffffffffffffffffffffffffffff\n      and\n        /* \"MTP/RoleManagement.sol\":8360:8392  pendingRequests[i] == _requestor */\n      0xffffffffffffffffffffffffffffffffffffffff\n      and\n      sub\n        /* \"MTP/RoleManagement.sol\":8356:8557  if (pendingRequests[i] == _requestor) {... */\n      tag_439\n      jumpi\n        /* \"MTP/RoleManagement.sol\":8434:8449  pendingRequests */\n      0x03\n        /* \"MTP/RoleManagement.sol\":8475:8476  1 */\n      0x01\n        /* \"MTP/RoleManagement.sol\":8450:8465  pendingRequests */\n      0x03\n        /* \"MTP/RoleManagement.sol\":8450:8472  pendingRequests.length */\n      dup1\n      sload\n      swap1\n      pop\n        /* \"MTP/RoleManagement.sol\":8450:8476  pendingRequests.length - 1 */\n      tag_440\n      swap2\n      swap1\n      tag_441\n      jump\t// in\n    tag_440:\n        /* \"MTP/RoleManagement.sol\":8434:8477  pendingRequests[pendingRequests.length - 1] */\n      dup2\n      sload\n      dup2\n      lt\n      tag_442\n      jumpi\n      tag_443\n      tag_437\n      jump\t// in\n    tag_443:\n    tag_442:\n      swap1\n      0x00\n      mstore\n      keccak256(0x00, 0x20)\n      add\n      0x00\n      swap1\n      sload\n      swap1\n      0x0100\n      exp\n      swap1\n      div\n      0xffffffffffffffffffffffffffffffffffffffff\n      and\n        /* \"MTP/RoleManagement.sol\":8413:8428  pendingRequests */\n      0x03\n        /* \"MTP/RoleManagement.sol\":8429:8430  i */\n      dup3\n        /* \"MTP/RoleManagement.sol\":8413:8431  pendingRequests[i] */\n      dup2\n      sload\n      dup2\n      lt\n      tag_445\n      jumpi\n      tag_446\n      tag_437\n      jump\t// in\n    tag_446:\n    tag_445:\n      swap1\n      0x00\n      mstore\n      keccak256(0x00, 0x20)\n      add\n      0x00\n        /* \"MTP/RoleManagement.sol\":8413:8477  pendingRequests[i] = pendingRequests[pendingRequests.length - 1] */\n      0x0100\n      exp\n      dup2\n      sload\n      dup2\n      0xffffffffffffffffffffffffffffffffffffffff\n      mul\n      not\n      and\n      swap1\n      dup4\n      0xffffffffffffffffffffffffffffffffffffffff\n      and\n      mul\n      or\n      swap1\n      sstore\n      pop\n        /* \"MTP/RoleManagement.sol\":8496:8511  pendingRequests */\n      0x03\n        /* \"MTP/RoleManagement.sol\":8496:8517  pendingRequests.pop() */\n      dup1\n      sload\n      dup1\n      tag_448\n      jumpi\n      tag_449\n      tag_450\n      jump\t// in\n    tag_449:\n    tag_448:\n      0x01\n      swap1\n      sub\n      dup2\n      dup2\n      swap1\n      0x00\n      mstore\n      keccak256(0x00, 0x20)\n      add\n      exp(0x0100, 0x00)\n      dup2\n      sload\n      swap1\n      0xffffffffffffffffffffffffffffffffffffffff\n      mul\n      not\n      and\n      swap1\n      sstore\n      swap1\n      sstore\n        /* \"MTP/RoleManagement.sol\":8536:8541  break */\n      jump(tag_433)\n        /* \"MTP/RoleManagement.sol\":8356:8557  if (pendingRequests[i] == _requestor) {... */\n    tag_439:\n        /* \"MTP/RoleManagement.sol\":8336:8339  i++ */\n      dup1\n      dup1\n      0x01\n      add\n      swap2\n      pop\n      pop\n        /* \"MTP/RoleManagement.sol\":8291:8568  for (uint i = 0; i < pendingRequests.length; i++) {... */\n      jump(tag_432)\n    tag_433:\n      pop\n        /* \"MTP/RoleManagement.sol\":8220:8575  function _removePendingRequest(address _requestor) internal {... */\n      pop\n      jump\t// out\n        /* \"#utility.yul\":7:82   */\n    tag_452:\n        /* \"#utility.yul\":40:46   */\n      0x00\n        /* \"#utility.yul\":73:75   */\n      0x40\n        /* \"#utility.yul\":67:76   */\n      mload\n        /* \"#utility.yul\":57:76   */\n      swap1\n      pop\n        /* \"#utility.yul\":7:82   */\n      swap1\n      jump\t// out\n        /* \"#utility.yul\":88:205   */\n    tag_453:\n        /* \"#utility.yul\":197:198   */\n      0x00\n        /* \"#utility.yul\":194:195   */\n      dup1\n        /* \"#utility.yul\":187:199   */\n      revert\n        /* \"#utility.yul\":211:328   */\n    tag_454:\n        /* \"#utility.yul\":320:321   */\n      0x00\n        /* \"#utility.yul\":317:318   */\n      dup1\n        /* \"#utility.yul\":310:322   */\n      revert\n        /* \"#utility.yul\":334:460   */\n    tag_455:\n        /* \"#utility.yul\":371:378   */\n      0x00\n        /* \"#utility.yul\":411:453   */\n      0xffffffffffffffffffffffffffffffffffffffff\n        /* \"#utility.yul\":404:409   */\n      dup3\n        /* \"#utility.yul\":400:454   */\n      and\n        /* \"#utility.yul\":389:454   */\n      swap1\n      pop\n        /* \"#utility.yul\":334:460   */\n      swap2\n      swap1\n      pop\n      jump\t// out\n        /* \"#utility.yul\":466:562   */\n    tag_456:\n        /* \"#utility.yul\":503:510   */\n      0x00\n        /* \"#utility.yul\":532:556   */\n      tag_527\n        /* \"#utility.yul\":550:555   */\n      dup3\n        /* \"#utility.yul\":532:556   */\n      tag_455\n      jump\t// in\n    tag_527:\n        /* \"#utility.yul\":521:556   */\n      swap1\n      pop\n        /* \"#utility.yul\":466:562   */\n      swap2\n      swap1\n      pop\n      jump\t// out\n        /* \"#utility.yul\":568:690   */\n    tag_457:\n        /* \"#utility.yul\":641:665   */\n      tag_529\n        /* \"#utility.yul\":659:664   */\n      dup2\n        /* \"#utility.yul\":641:665   */\n      tag_456\n      jump\t// in\n    tag_529:\n        /* \"#utility.yul\":634:639   */\n      dup2\n        /* \"#utility.yul\":631:666   */\n      eq\n        /* \"#utility.yul\":621:684   */\n      tag_530\n      jumpi\n        /* \"#utility.yul\":680:681   */\n      0x00\n        /* \"#utility.yul\":677:678   */\n      dup1\n        /* \"#utility.yul\":670:682   */\n      revert\n        /* \"#utility.yul\":621:684   */\n    tag_530:\n        /* \"#utility.yul\":568:690   */\n      pop\n      jump\t// out\n        /* \"#utility.yul\":696:835   */\n    tag_458:\n        /* \"#utility.yul\":742:747   */\n      0x00\n        /* \"#utility.yul\":780:786   */\n      dup2\n        /* \"#utility.yul\":767:787   */\n      calldataload\n        /* \"#utility.yul\":758:787   */\n      swap1\n      pop\n        /* \"#utility.yul\":796:829   */\n      tag_532\n        /* \"#utility.yul\":823:828   */\n      dup2\n        /* \"#utility.yul\":796:829   */\n      tag_457\n      jump\t// in\n    tag_532:\n        /* \"#utility.yul\":696:835   */\n      swap3\n      swap2\n      pop\n      pop\n      jump\t// out\n        /* \"#utility.yul\":841:1170   */\n    tag_29:\n        /* \"#utility.yul\":900:906   */\n      0x00\n        /* \"#utility.yul\":949:951   */\n      0x20\n        /* \"#utility.yul\":937:946   */\n      dup3\n        /* \"#utility.yul\":928:935   */\n      dup5\n        /* \"#utility.yul\":924:947   */\n      sub\n        /* \"#utility.yul\":920:952   */\n      slt\n        /* \"#utility.yul\":917:1036   */\n      iszero\n      tag_534\n      jumpi\n        /* \"#utility.yul\":955:1034   */\n      tag_535\n      tag_453\n      jump\t// in\n    tag_535:\n        /* \"#utility.yul\":917:1036   */\n    tag_534:\n        /* \"#utility.yul\":1075:1076   */\n      0x00\n        /* \"#utility.yul\":1100:1153   */\n      tag_536\n        /* \"#utility.yul\":1145:1152   */\n      dup5\n        /* \"#utility.yul\":1136:1142   */\n      dup3\n        /* \"#utility.yul\":1125:1134   */\n      dup6\n        /* \"#utility.yul\":1121:1143   */\n      add\n        /* \"#utility.yul\":1100:1153   */\n      tag_458\n      jump\t// in\n    tag_536:\n        /* \"#utility.yul\":1090:1153   */\n      swap2\n      pop\n        /* \"#utility.yul\":1046:1163   */\n      pop\n        /* \"#utility.yul\":841:1170   */\n      swap3\n      swap2\n      pop\n      pop\n      jump\t// out\n        /* \"#utility.yul\":1176:1293   */\n    tag_459:\n        /* \"#utility.yul\":1285:1286   */\n      0x00\n        /* \"#utility.yul\":1282:1283   */\n      dup1\n        /* \"#utility.yul\":1275:1287   */\n      revert\n        /* \"#utility.yul\":1299:1416   */\n    tag_460:\n        /* \"#utility.yul\":1408:1409   */\n      0x00\n        /* \"#utility.yul\":1405:1406   */\n      dup1\n        /* \"#utility.yul\":1398:1410   */\n      revert\n        /* \"#utility.yul\":1422:1524   */\n    tag_461:\n        /* \"#utility.yul\":1463:1469   */\n      0x00\n        /* \"#utility.yul\":1514:1516   */\n      0x1f\n        /* \"#utility.yul\":1510:1517   */\n      not\n        /* \"#utility.yul\":1505:1507   */\n      0x1f\n        /* \"#utility.yul\":1498:1503   */\n      dup4\n        /* \"#utility.yul\":1494:1508   */\n      add\n        /* \"#utility.yul\":1490:1518   */\n      and\n        /* \"#utility.yul\":1480:1518   */\n      swap1\n      pop\n        /* \"#utility.yul\":1422:1524   */\n      swap2\n      swap1\n      pop\n      jump\t// out\n        /* \"#utility.yul\":1530:1710   */\n    tag_462:\n        /* \"#utility.yul\":1578:1655   */\n      0x4e487b7100000000000000000000000000000000000000000000000000000000\n        /* \"#utility.yul\":1575:1576   */\n      0x00\n        /* \"#utility.yul\":1568:1656   */\n      mstore\n        /* \"#utility.yul\":1675:1679   */\n      0x41\n        /* \"#utility.yul\":1672:1673   */\n      0x04\n        /* \"#utility.yul\":1665:1680   */\n      mstore\n        /* \"#utility.yul\":1699:1703   */\n      0x24\n        /* \"#utility.yul\":1696:1697   */\n      0x00\n        /* \"#utility.yul\":1689:1704   */\n      revert\n        /* \"#utility.yul\":1716:1997   */\n    tag_463:\n        /* \"#utility.yul\":1799:1826   */\n      tag_542\n        /* \"#utility.yul\":1821:1825   */\n      dup3\n        /* \"#utility.yul\":1799:1826   */\n      tag_461\n      jump\t// in\n    tag_542:\n        /* \"#utility.yul\":1791:1797   */\n      dup2\n        /* \"#utility.yul\":1787:1827   */\n      add\n        /* \"#utility.yul\":1929:1935   */\n      dup2\n        /* \"#utility.yul\":1917:1927   */\n      dup2\n        /* \"#utility.yul\":1914:1936   */\n      lt\n        /* \"#utility.yul\":1893:1911   */\n      0xffffffffffffffff\n        /* \"#utility.yul\":1881:1891   */\n      dup3\n        /* \"#utility.yul\":1878:1912   */\n      gt\n        /* \"#utility.yul\":1875:1937   */\n      or\n        /* \"#utility.yul\":1872:1960   */\n      iszero\n      tag_543\n      jumpi\n        /* \"#utility.yul\":1940:1958   */\n      tag_544\n      tag_462\n      jump\t// in\n    tag_544:\n        /* \"#utility.yul\":1872:1960   */\n    tag_543:\n        /* \"#utility.yul\":1980:1990   */\n      dup1\n        /* \"#utility.yul\":1976:1978   */\n      0x40\n        /* \"#utility.yul\":1969:1991   */\n      mstore\n        /* \"#utility.yul\":1759:1997   */\n      pop\n        /* \"#utility.yul\":1716:1997   */\n      pop\n      pop\n      jump\t// out\n        /* \"#utility.yul\":2003:2132   */\n    tag_464:\n        /* \"#utility.yul\":2037:2043   */\n      0x00\n        /* \"#utility.yul\":2064:2084   */\n      tag_546\n      tag_452\n      jump\t// in\n    tag_546:\n        /* \"#utility.yul\":2054:2084   */\n      swap1\n      pop\n        /* \"#utility.yul\":2093:2126   */\n      tag_547\n        /* \"#utility.yul\":2121:2125   */\n      dup3\n        /* \"#utility.yul\":2113:2119   */\n      dup3\n        /* \"#utility.yul\":2093:2126   */\n      tag_463\n      jump\t// in\n    tag_547:\n        /* \"#utility.yul\":2003:2132   */\n      swap2\n      swap1\n      pop\n      jump\t// out\n        /* \"#utility.yul\":2138:2446   */\n    tag_465:\n        /* \"#utility.yul\":2200:2204   */\n      0x00\n        /* \"#utility.yul\":2290:2308   */\n      0xffffffffffffffff\n        /* \"#utility.yul\":2282:2288   */\n      dup3\n        /* \"#utility.yul\":2279:2309   */\n      gt\n        /* \"#utility.yul\":2276:2332   */\n      iszero\n      tag_549\n      jumpi\n        /* \"#utility.yul\":2312:2330   */\n      tag_550\n      tag_462\n      jump\t// in\n    tag_550:\n        /* \"#utility.yul\":2276:2332   */\n    tag_549:\n        /* \"#utility.yul\":2350:2379   */\n      tag_551\n        /* \"#utility.yul\":2372:2378   */\n      dup3\n        /* \"#utility.yul\":2350:2379   */\n      tag_461\n      jump\t// in\n    tag_551:\n        /* \"#utility.yul\":2342:2379   */\n      swap1\n      pop\n        /* \"#utility.yul\":2434:2438   */\n      0x20\n        /* \"#utility.yul\":2428:2432   */\n      dup2\n        /* \"#utility.yul\":2424:2439   */\n      add\n        /* \"#utility.yul\":2416:2439   */\n      swap1\n      pop\n        /* \"#utility.yul\":2138:2446   */\n      swap2\n      swap1\n      pop\n      jump\t// out\n        /* \"#utility.yul\":2452:2600   */\n    tag_466:\n        /* \"#utility.yul\":2550:2556   */\n      dup3\n        /* \"#utility.yul\":2545:2548   */\n      dup2\n        /* \"#utility.yul\":2540:2543   */\n      dup4\n        /* \"#utility.yul\":2527:2557   */\n      calldatacopy\n        /* \"#utility.yul\":2591:2592   */\n      0x00\n        /* \"#utility.yul\":2582:2588   */\n      dup4\n        /* \"#utility.yul\":2577:2580   */\n      dup4\n        /* \"#utility.yul\":2573:2589   */\n      add\n        /* \"#utility.yul\":2566:2593   */\n      mstore\n        /* \"#utility.yul\":2452:2600   */\n      pop\n      pop\n      pop\n      jump\t// out\n        /* \"#utility.yul\":2606:3031   */\n    tag_467:\n        /* \"#utility.yul\":2684:2689   */\n      0x00\n        /* \"#utility.yul\":2709:2775   */\n      tag_554\n        /* \"#utility.yul\":2725:2774   */\n      tag_555\n        /* \"#utility.yul\":2767:2773   */\n      dup5\n        /* \"#utility.yul\":2725:2774   */\n      tag_465\n      jump\t// in\n    tag_555:\n        /* \"#utility.yul\":2709:2775   */\n      tag_464\n      jump\t// in\n    tag_554:\n        /* \"#utility.yul\":2700:2775   */\n      swap1\n      pop\n        /* \"#utility.yul\":2798:2804   */\n      dup3\n        /* \"#utility.yul\":2791:2796   */\n      dup2\n        /* \"#utility.yul\":2784:2805   */\n      mstore\n        /* \"#utility.yul\":2836:2840   */\n      0x20\n        /* \"#utility.yul\":2829:2834   */\n      dup2\n        /* \"#utility.yul\":2825:2841   */\n      add\n        /* \"#utility.yul\":2874:2877   */\n      dup5\n        /* \"#utility.yul\":2865:2871   */\n      dup5\n        /* \"#utility.yul\":2860:2863   */\n      dup5\n        /* \"#utility.yul\":2856:2872   */\n      add\n        /* \"#utility.yul\":2853:2878   */\n      gt\n        /* \"#utility.yul\":2850:2962   */\n      iszero\n      tag_556\n      jumpi\n        /* \"#utility.yul\":2881:2960   */\n      tag_557\n      tag_460\n      jump\t// in\n    tag_557:\n        /* \"#utility.yul\":2850:2962   */\n    tag_556:\n        /* \"#utility.yul\":2971:3025   */\n      tag_558\n        /* \"#utility.yul\":3018:3024   */\n      dup5\n        /* \"#utility.yul\":3013:3016   */\n      dup3\n        /* \"#utility.yul\":3008:3011   */\n      dup6\n        /* \"#utility.yul\":2971:3025   */\n      tag_466\n      jump\t// in\n    tag_558:\n        /* \"#utility.yul\":2690:3031   */\n      pop\n        /* \"#utility.yul\":2606:3031   */\n      swap4\n      swap3\n      pop\n      pop\n      pop\n      jump\t// out\n        /* \"#utility.yul\":3051:3391   */\n    tag_468:\n        /* \"#utility.yul\":3107:3112   */\n      0x00\n        /* \"#utility.yul\":3156:3159   */\n      dup3\n        /* \"#utility.yul\":3149:3153   */\n      0x1f\n        /* \"#utility.yul\":3141:3147   */\n      dup4\n        /* \"#utility.yul\":3137:3154   */\n      add\n        /* \"#utility.yul\":3133:3160   */\n      slt\n        /* \"#utility.yul\":3123:3245   */\n      tag_560\n      jumpi\n        /* \"#utility.yul\":3164:3243   */\n      tag_561\n      tag_459\n      jump\t// in\n    tag_561:\n        /* \"#utility.yul\":3123:3245   */\n    tag_560:\n        /* \"#utility.yul\":3281:3287   */\n      dup2\n        /* \"#utility.yul\":3268:3288   */\n      calldataload\n        /* \"#utility.yul\":3306:3385   */\n      tag_562\n        /* \"#utility.yul\":3381:3384   */\n      dup5\n        /* \"#utility.yul\":3373:3379   */\n      dup3\n        /* \"#utility.yul\":3366:3370   */\n      0x20\n        /* \"#utility.yul\":3358:3364   */\n      dup7\n        /* \"#utility.yul\":3354:3371   */\n      add\n        /* \"#utility.yul\":3306:3385   */\n      tag_467\n      jump\t// in\n    tag_562:\n        /* \"#utility.yul\":3297:3385   */\n      swap2\n      pop\n        /* \"#utility.yul\":3113:3391   */\n      pop\n        /* \"#utility.yul\":3051:3391   */\n      swap3\n      swap2\n      pop\n      pop\n      jump\t// out\n        /* \"#utility.yul\":3397:3906   */\n    tag_33:\n        /* \"#utility.yul\":3466:3472   */\n      0x00\n        /* \"#utility.yul\":3515:3517   */\n      0x20\n        /* \"#utility.yul\":3503:3512   */\n      dup3\n        /* \"#utility.yul\":3494:3501   */\n      dup5\n        /* \"#utility.yul\":3490:3513   */\n      sub\n        /* \"#utility.yul\":3486:3518   */\n      slt\n        /* \"#utility.yul\":3483:3602   */\n      iszero\n      tag_564\n      jumpi\n        /* \"#utility.yul\":3521:3600   */\n      tag_565\n      tag_453\n      jump\t// in\n    tag_565:\n        /* \"#utility.yul\":3483:3602   */\n    tag_564:\n        /* \"#utility.yul\":3669:3670   */\n      0x00\n        /* \"#utility.yul\":3658:3667   */\n      dup3\n        /* \"#utility.yul\":3654:3671   */\n      add\n        /* \"#utility.yul\":3641:3672   */\n      calldataload\n        /* \"#utility.yul\":3699:3717   */\n      0xffffffffffffffff\n        /* \"#utility.yul\":3691:3697   */\n      dup2\n        /* \"#utility.yul\":3688:3718   */\n      gt\n        /* \"#utility.yul\":3685:3802   */\n      iszero\n      tag_566\n      jumpi\n        /* \"#utility.yul\":3721:3800   */\n      tag_567\n      tag_454\n      jump\t// in\n    tag_567:\n        /* \"#utility.yul\":3685:3802   */\n    tag_566:\n        /* \"#utility.yul\":3826:3889   */\n      tag_568\n        /* \"#utility.yul\":3881:3888   */\n      dup5\n        /* \"#utility.yul\":3872:3878   */\n      dup3\n        /* \"#utility.yul\":3861:3870   */\n      dup6\n        /* \"#utility.yul\":3857:3879   */\n      add\n        /* \"#utility.yul\":3826:3889   */\n      tag_468\n      jump\t// in\n    tag_568:\n        /* \"#utility.yul\":3816:3889   */\n      swap2\n      pop\n        /* \"#utility.yul\":3612:3899   */\n      pop\n        /* \"#utility.yul\":3397:3906   */\n      swap3\n      swap2\n      pop\n      pop\n      jump\t// out\n        /* \"#utility.yul\":3912:3989   */\n    tag_469:\n        /* \"#utility.yul\":3949:3956   */\n      0x00\n        /* \"#utility.yul\":3978:3983   */\n      dup2\n        /* \"#utility.yul\":3967:3983   */\n      swap1\n      pop\n        /* \"#utility.yul\":3912:3989   */\n      swap2\n      swap1\n      pop\n      jump\t// out\n        /* \"#utility.yul\":3995:4117   */\n    tag_470:\n        /* \"#utility.yul\":4068:4092   */\n      tag_571\n        /* \"#utility.yul\":4086:4091   */\n      dup2\n        /* \"#utility.yul\":4068:4092   */\n      tag_469\n      jump\t// in\n    tag_571:\n        /* \"#utility.yul\":4061:4066   */\n      dup2\n        /* \"#utility.yul\":4058:4093   */\n      eq\n        /* \"#utility.yul\":4048:4111   */\n      tag_572\n      jumpi\n        /* \"#utility.yul\":4107:4108   */\n      0x00\n        /* \"#utility.yul\":4104:4105   */\n      dup1\n        /* \"#utility.yul\":4097:4109   */\n      revert\n        /* \"#utility.yul\":4048:4111   */\n    tag_572:\n        /* \"#utility.yul\":3995:4117   */\n      pop\n      jump\t// out\n        /* \"#utility.yul\":4123:4262   */\n    tag_471:\n        /* \"#utility.yul\":4169:4174   */\n      0x00\n        /* \"#utility.yul\":4207:4213   */\n      dup2\n        /* \"#utility.yul\":4194:4214   */\n      calldataload\n        /* \"#utility.yul\":4185:4214   */\n      swap1\n      pop\n        /* \"#utility.yul\":4223:4256   */\n      tag_574\n        /* \"#utility.yul\":4250:4255   */\n      dup2\n        /* \"#utility.yul\":4223:4256   */\n      tag_470\n      jump\t// in\n    tag_574:\n        /* \"#utility.yul\":4123:4262   */\n      swap3\n      swap2\n      pop\n      pop\n      jump\t// out\n        /* \"#utility.yul\":4268:4597   */\n    tag_37:\n        /* \"#utility.yul\":4327:4333   */\n      0x00\n        /* \"#utility.yul\":4376:4378   */\n      0x20\n        /* \"#utility.yul\":4364:4373   */\n      dup3\n        /* \"#utility.yul\":4355:4362   */\n      dup5\n        /* \"#utility.yul\":4351:4374   */\n      sub\n        /* \"#utility.yul\":4347:4379   */\n      slt\n        /* \"#utility.yul\":4344:4463   */\n      iszero\n      tag_576\n      jumpi\n        /* \"#utility.yul\":4382:4461   */\n      tag_577\n      tag_453\n      jump\t// in\n    tag_577:\n        /* \"#utility.yul\":4344:4463   */\n    tag_576:\n        /* \"#utility.yul\":4502:4503   */\n      0x00\n        /* \"#utility.yul\":4527:4580   */\n      tag_578\n        /* \"#utility.yul\":4572:4579   */\n      dup5\n        /* \"#utility.yul\":4563:4569   */\n      dup3\n        /* \"#utility.yul\":4552:4561   */\n      dup6\n        /* \"#utility.yul\":4548:4570   */\n      add\n        /* \"#utility.yul\":4527:4580   */\n      tag_471\n      jump\t// in\n    tag_578:\n        /* \"#utility.yul\":4517:4580   */\n      swap2\n      pop\n        /* \"#utility.yul\":4473:4590   */\n      pop\n        /* \"#utility.yul\":4268:4597   */\n      swap3\n      swap2\n      pop\n      pop\n      jump\t// out\n        /* \"#utility.yul\":4603:4721   */\n    tag_472:\n        /* \"#utility.yul\":4690:4714   */\n      tag_580\n        /* \"#utility.yul\":4708:4713   */\n      dup2\n        /* \"#utility.yul\":4690:4714   */\n      tag_456\n      jump\t// in\n    tag_580:\n        /* \"#utility.yul\":4685:4688   */\n      dup3\n        /* \"#utility.yul\":4678:4715   */\n      mstore\n        /* \"#utility.yul\":4603:4721   */\n      pop\n      pop\n      jump\t// out\n        /* \"#utility.yul\":4727:4907   */\n    tag_114:\n        /* \"#utility.yul\":4775:4852   */\n      0x4e487b7100000000000000000000000000000000000000000000000000000000\n        /* \"#utility.yul\":4772:4773   */\n      0x00\n        /* \"#utility.yul\":4765:4853   */\n      mstore\n        /* \"#utility.yul\":4872:4876   */\n      0x21\n        /* \"#utility.yul\":4869:4870   */\n      0x04\n        /* \"#utility.yul\":4862:4877   */\n      mstore\n        /* \"#utility.yul\":4896:4900   */\n      0x24\n        /* \"#utility.yul\":4893:4894   */\n      0x00\n        /* \"#utility.yul\":4886:4901   */\n      revert\n        /* \"#utility.yul\":4913:5024   */\n    tag_473:\n        /* \"#utility.yul\":4992:4993   */\n      0x05\n        /* \"#utility.yul\":4985:4990   */\n      dup2\n        /* \"#utility.yul\":4982:4994   */\n      lt\n        /* \"#utility.yul\":4972:5018   */\n      tag_583\n      jumpi\n        /* \"#utility.yul\":4998:5016   */\n      tag_584\n      tag_114\n      jump\t// in\n    tag_584:\n        /* \"#utility.yul\":4972:5018   */\n    tag_583:\n        /* \"#utility.yul\":4913:5024   */\n      pop\n      jump\t// out\n        /* \"#utility.yul\":5030:5153   */\n    tag_474:\n        /* \"#utility.yul\":5073:5080   */\n      0x00\n        /* \"#utility.yul\":5102:5107   */\n      dup2\n        /* \"#utility.yul\":5091:5107   */\n      swap1\n      pop\n        /* \"#utility.yul\":5108:5147   */\n      tag_586\n        /* \"#utility.yul\":5141:5146   */\n      dup3\n        /* \"#utility.yul\":5108:5147   */\n      tag_473\n      jump\t// in\n    tag_586:\n        /* \"#utility.yul\":5030:5153   */\n      swap2\n      swap1\n      pop\n      jump\t// out\n        /* \"#utility.yul\":5159:5282   */\n    tag_475:\n        /* \"#utility.yul\":5213:5222   */\n      0x00\n        /* \"#utility.yul\":5246:5276   */\n      tag_588\n        /* \"#utility.yul\":5270:5275   */\n      dup3\n        /* \"#utility.yul\":5246:5276   */\n      tag_474\n      jump\t// in\n    tag_588:\n        /* \"#utility.yul\":5233:5276   */\n      swap1\n      pop\n        /* \"#utility.yul\":5159:5282   */\n      swap2\n      swap1\n      pop\n      jump\t// out\n        /* \"#utility.yul\":5288:5427   */\n    tag_476:\n        /* \"#utility.yul\":5379:5420   */\n      tag_590\n        /* \"#utility.yul\":5414:5419   */\n      dup2\n        /* \"#utility.yul\":5379:5420   */\n      tag_475\n      jump\t// in\n    tag_590:\n        /* \"#utility.yul\":5374:5377   */\n      dup3\n        /* \"#utility.yul\":5367:5421   */\n      mstore\n        /* \"#utility.yul\":5288:5427   */\n      pop\n      pop\n      jump\t// out\n        /* \"#utility.yul\":5433:5532   */\n    tag_477:\n        /* \"#utility.yul\":5485:5491   */\n      0x00\n        /* \"#utility.yul\":5519:5524   */\n      dup2\n        /* \"#utility.yul\":5513:5525   */\n      mload\n        /* \"#utility.yul\":5503:5525   */\n      swap1\n      pop\n        /* \"#utility.yul\":5433:5532   */\n      swap2\n      swap1\n      pop\n      jump\t// out\n        /* \"#utility.yul\":5538:5707   */\n    tag_478:\n        /* \"#utility.yul\":5622:5633   */\n      0x00\n        /* \"#utility.yul\":5656:5662   */\n      dup3\n        /* \"#utility.yul\":5651:5654   */\n      dup3\n        /* \"#utility.yul\":5644:5663   */\n      mstore\n        /* \"#utility.yul\":5696:5700   */\n      0x20\n        /* \"#utility.yul\":5691:5694   */\n      dup3\n        /* \"#utility.yul\":5687:5701   */\n      add\n        /* \"#utility.yul\":5672:5701   */\n      swap1\n      pop\n        /* \"#utility.yul\":5538:5707   */\n      swap3\n      swap2\n      pop\n      pop\n      jump\t// out\n        /* \"#utility.yul\":5713:5852   */\n    tag_479:\n        /* \"#utility.yul\":5802:5808   */\n      dup3\n        /* \"#utility.yul\":5797:5800   */\n      dup2\n        /* \"#utility.yul\":5792:5795   */\n      dup4\n        /* \"#utility.yul\":5786:5809   */\n      mcopy\n        /* \"#utility.yul\":5843:5844   */\n      0x00\n        /* \"#utility.yul\":5834:5840   */\n      dup4\n        /* \"#utility.yul\":5829:5832   */\n      dup4\n        /* \"#utility.yul\":5825:5841   */\n      add\n        /* \"#utility.yul\":5818:5845   */\n      mstore\n        /* \"#utility.yul\":5713:5852   */\n      pop\n      pop\n      pop\n      jump\t// out\n        /* \"#utility.yul\":5858:6235   */\n    tag_480:\n        /* \"#utility.yul\":5946:5949   */\n      0x00\n        /* \"#utility.yul\":5974:6013   */\n      tag_595\n        /* \"#utility.yul\":6007:6012   */\n      dup3\n        /* \"#utility.yul\":5974:6013   */\n      tag_477\n      jump\t// in\n    tag_595:\n        /* \"#utility.yul\":6029:6100   */\n      tag_596\n        /* \"#utility.yul\":6093:6099   */\n      dup2\n        /* \"#utility.yul\":6088:6091   */\n      dup6\n        /* \"#utility.yul\":6029:6100   */\n      tag_478\n      jump\t// in\n    tag_596:\n        /* \"#utility.yul\":6022:6100   */\n      swap4\n      pop\n        /* \"#utility.yul\":6109:6174   */\n      tag_597\n        /* \"#utility.yul\":6167:6173   */\n      dup2\n        /* \"#utility.yul\":6162:6165   */\n      dup6\n        /* \"#utility.yul\":6155:6159   */\n      0x20\n        /* \"#utility.yul\":6148:6153   */\n      dup7\n        /* \"#utility.yul\":6144:6160   */\n      add\n        /* \"#utility.yul\":6109:6174   */\n      tag_479\n      jump\t// in\n    tag_597:\n        /* \"#utility.yul\":6199:6228   */\n      tag_598\n        /* \"#utility.yul\":6221:6227   */\n      dup2\n        /* \"#utility.yul\":6199:6228   */\n      tag_461\n      jump\t// in\n    tag_598:\n        /* \"#utility.yul\":6194:6197   */\n      dup5\n        /* \"#utility.yul\":6190:6229   */\n      add\n        /* \"#utility.yul\":6183:6229   */\n      swap2\n      pop\n        /* \"#utility.yul\":5950:6235   */\n      pop\n        /* \"#utility.yul\":5858:6235   */\n      swap3\n      swap2\n      pop\n      pop\n      jump\t// out\n        /* \"#utility.yul\":6241:6782   */\n    tag_40:\n        /* \"#utility.yul\":6414:6418   */\n      0x00\n        /* \"#utility.yul\":6452:6454   */\n      0x60\n        /* \"#utility.yul\":6441:6450   */\n      dup3\n        /* \"#utility.yul\":6437:6455   */\n      add\n        /* \"#utility.yul\":6429:6455   */\n      swap1\n      pop\n        /* \"#utility.yul\":6465:6536   */\n      tag_600\n        /* \"#utility.yul\":6533:6534   */\n      0x00\n        /* \"#utility.yul\":6522:6531   */\n      dup4\n        /* \"#utility.yul\":6518:6535   */\n      add\n        /* \"#utility.yul\":6509:6515   */\n      dup7\n        /* \"#utility.yul\":6465:6536   */\n      tag_472\n      jump\t// in\n    tag_600:\n        /* \"#utility.yul\":6546:6622   */\n      tag_601\n        /* \"#utility.yul\":6618:6620   */\n      0x20\n        /* \"#utility.yul\":6607:6616   */\n      dup4\n        /* \"#utility.yul\":6603:6621   */\n      add\n        /* \"#utility.yul\":6594:6600   */\n      dup6\n        /* \"#utility.yul\":6546:6622   */\n      tag_476\n      jump\t// in\n    tag_601:\n        /* \"#utility.yul\":6669:6678   */\n      dup2\n        /* \"#utility.yul\":6663:6667   */\n      dup2\n        /* \"#utility.yul\":6659:6679   */\n      sub\n        /* \"#utility.yul\":6654:6656   */\n      0x40\n        /* \"#utility.yul\":6643:6652   */\n      dup4\n        /* \"#utility.yul\":6639:6657   */\n      add\n        /* \"#utility.yul\":6632:6680   */\n      mstore\n        /* \"#utility.yul\":6697:6775   */\n      tag_602\n        /* \"#utility.yul\":6770:6774   */\n      dup2\n        /* \"#utility.yul\":6761:6767   */\n      dup5\n        /* \"#utility.yul\":6697:6775   */\n      tag_480\n      jump\t// in\n    tag_602:\n        /* \"#utility.yul\":6689:6775   */\n      swap1\n      pop\n        /* \"#utility.yul\":6241:6782   */\n      swap5\n      swap4\n      pop\n      pop\n      pop\n      pop\n      jump\t// out\n        /* \"#utility.yul\":6788:7010   */\n    tag_49:\n        /* \"#utility.yul\":6881:6885   */\n      0x00\n        /* \"#utility.yul\":6919:6921   */\n      0x20\n        /* \"#utility.yul\":6908:6917   */\n      dup3\n        /* \"#utility.yul\":6904:6922   */\n      add\n        /* \"#utility.yul\":6896:6922   */\n      swap1\n      pop\n        /* \"#utility.yul\":6932:7003   */\n      tag_604\n        /* \"#utility.yul\":7000:7001   */\n      0x00\n        /* \"#utility.yul\":6989:6998   */\n      dup4\n        /* \"#utility.yul\":6985:7002   */\n      add\n        /* \"#utility.yul\":6976:6982   */\n      dup5\n        /* \"#utility.yul\":6932:7003   */\n      tag_472\n      jump\t// in\n    tag_604:\n        /* \"#utility.yul\":6788:7010   */\n      swap3\n      swap2\n      pop\n      pop\n      jump\t// out\n        /* \"#utility.yul\":7016:7246   */\n    tag_54:\n        /* \"#utility.yul\":7113:7117   */\n      0x00\n        /* \"#utility.yul\":7151:7153   */\n      0x20\n        /* \"#utility.yul\":7140:7149   */\n      dup3\n        /* \"#utility.yul\":7136:7154   */\n      add\n        /* \"#utility.yul\":7128:7154   */\n      swap1\n      pop\n        /* \"#utility.yul\":7164:7239   */\n      tag_606\n        /* \"#utility.yul\":7236:7237   */\n      0x00\n        /* \"#utility.yul\":7225:7234   */\n      dup4\n        /* \"#utility.yul\":7221:7238   */\n      add\n        /* \"#utility.yul\":7212:7218   */\n      dup5\n        /* \"#utility.yul\":7164:7239   */\n      tag_476\n      jump\t// in\n    tag_606:\n        /* \"#utility.yul\":7016:7246   */\n      swap3\n      swap2\n      pop\n      pop\n      jump\t// out\n        /* \"#utility.yul\":7252:7766   */\n    tag_61:\n        /* \"#utility.yul\":7413:7417   */\n      0x00\n        /* \"#utility.yul\":7451:7453   */\n      0x40\n        /* \"#utility.yul\":7440:7449   */\n      dup3\n        /* \"#utility.yul\":7436:7454   */\n      add\n        /* \"#utility.yul\":7428:7454   */\n      swap1\n      pop\n        /* \"#utility.yul\":7500:7509   */\n      dup2\n        /* \"#utility.yul\":7494:7498   */\n      dup2\n        /* \"#utility.yul\":7490:7510   */\n      sub\n        /* \"#utility.yul\":7486:7487   */\n      0x00\n        /* \"#utility.yul\":7475:7484   */\n      dup4\n        /* \"#utility.yul\":7471:7488   */\n      add\n        /* \"#utility.yul\":7464:7511   */\n      mstore\n        /* \"#utility.yul\":7528:7606   */\n      tag_608\n        /* \"#utility.yul\":7601:7605   */\n      dup2\n        /* \"#utility.yul\":7592:7598   */\n      dup6\n        /* \"#utility.yul\":7528:7606   */\n      tag_480\n      jump\t// in\n    tag_608:\n        /* \"#utility.yul\":7520:7606   */\n      swap1\n      pop\n        /* \"#utility.yul\":7653:7662   */\n      dup2\n        /* \"#utility.yul\":7647:7651   */\n      dup2\n        /* \"#utility.yul\":7643:7663   */\n      sub\n        /* \"#utility.yul\":7638:7640   */\n      0x20\n        /* \"#utility.yul\":7627:7636   */\n      dup4\n        /* \"#utility.yul\":7623:7641   */\n      add\n        /* \"#utility.yul\":7616:7664   */\n      mstore\n        /* \"#utility.yul\":7681:7759   */\n      tag_609\n        /* \"#utility.yul\":7754:7758   */\n      dup2\n        /* \"#utility.yul\":7745:7751   */\n      dup5\n        /* \"#utility.yul\":7681:7759   */\n      tag_480\n      jump\t// in\n    tag_609:\n        /* \"#utility.yul\":7673:7759   */\n      swap1\n      pop\n        /* \"#utility.yul\":7252:7766   */\n      swap4\n      swap3\n      pop\n      pop\n      pop\n      jump\t// out\n        /* \"#utility.yul\":7772:7886   */\n    tag_481:\n        /* \"#utility.yul\":7839:7845   */\n      0x00\n        /* \"#utility.yul\":7873:7878   */\n      dup2\n        /* \"#utility.yul\":7867:7879   */\n      mload\n        /* \"#utility.yul\":7857:7879   */\n      swap1\n      pop\n        /* \"#utility.yul\":7772:7886   */\n      swap2\n      swap1\n      pop\n      jump\t// out\n        /* \"#utility.yul\":7892:8076   */\n    tag_482:\n        /* \"#utility.yul\":7991:8002   */\n      0x00\n        /* \"#utility.yul\":8025:8031   */\n      dup3\n        /* \"#utility.yul\":8020:8023   */\n      dup3\n        /* \"#utility.yul\":8013:8032   */\n      mstore\n        /* \"#utility.yul\":8065:8069   */\n      0x20\n        /* \"#utility.yul\":8060:8063   */\n      dup3\n        /* \"#utility.yul\":8056:8070   */\n      add\n        /* \"#utility.yul\":8041:8070   */\n      swap1\n      pop\n        /* \"#utility.yul\":7892:8076   */\n      swap3\n      swap2\n      pop\n      pop\n      jump\t// out\n        /* \"#utility.yul\":8082:8214   */\n    tag_483:\n        /* \"#utility.yul\":8149:8153   */\n      0x00\n        /* \"#utility.yul\":8172:8175   */\n      dup2\n        /* \"#utility.yul\":8164:8175   */\n      swap1\n      pop\n        /* \"#utility.yul\":8202:8206   */\n      0x20\n        /* \"#utility.yul\":8197:8200   */\n      dup3\n        /* \"#utility.yul\":8193:8207   */\n      add\n        /* \"#utility.yul\":8185:8207   */\n      swap1\n      pop\n        /* \"#utility.yul\":8082:8214   */\n      swap2\n      swap1\n      pop\n      jump\t// out\n        /* \"#utility.yul\":8220:8328   */\n    tag_484:\n        /* \"#utility.yul\":8297:8321   */\n      tag_614\n        /* \"#utility.yul\":8315:8320   */\n      dup2\n        /* \"#utility.yul\":8297:8321   */\n      tag_456\n      jump\t// in\n    tag_614:\n        /* \"#utility.yul\":8292:8295   */\n      dup3\n        /* \"#utility.yul\":8285:8322   */\n      mstore\n        /* \"#utility.yul\":8220:8328   */\n      pop\n      pop\n      jump\t// out\n        /* \"#utility.yul\":8334:8513   */\n    tag_485:\n        /* \"#utility.yul\":8403:8413   */\n      0x00\n        /* \"#utility.yul\":8424:8470   */\n      tag_616\n        /* \"#utility.yul\":8466:8469   */\n      dup4\n        /* \"#utility.yul\":8458:8464   */\n      dup4\n        /* \"#utility.yul\":8424:8470   */\n      tag_484\n      jump\t// in\n    tag_616:\n        /* \"#utility.yul\":8502:8506   */\n      0x20\n        /* \"#utility.yul\":8497:8500   */\n      dup4\n        /* \"#utility.yul\":8493:8507   */\n      add\n        /* \"#utility.yul\":8479:8507   */\n      swap1\n      pop\n        /* \"#utility.yul\":8334:8513   */\n      swap3\n      swap2\n      pop\n      pop\n      jump\t// out\n        /* \"#utility.yul\":8519:8632   */\n    tag_486:\n        /* \"#utility.yul\":8589:8593   */\n      0x00\n        /* \"#utility.yul\":8621:8625   */\n      0x20\n        /* \"#utility.yul\":8616:8619   */\n      dup3\n        /* \"#utility.yul\":8612:8626   */\n      add\n        /* \"#utility.yul\":8604:8626   */\n      swap1\n      pop\n        /* \"#utility.yul\":8519:8632   */\n      swap2\n      swap1\n      pop\n      jump\t// out\n        /* \"#utility.yul\":8668:9400   */\n    tag_487:\n        /* \"#utility.yul\":8787:8790   */\n      0x00\n        /* \"#utility.yul\":8816:8870   */\n      tag_619\n        /* \"#utility.yul\":8864:8869   */\n      dup3\n        /* \"#utility.yul\":8816:8870   */\n      tag_481\n      jump\t// in\n    tag_619:\n        /* \"#utility.yul\":8886:8972   */\n      tag_620\n        /* \"#utility.yul\":8965:8971   */\n      dup2\n        /* \"#utility.yul\":8960:8963   */\n      dup6\n        /* \"#utility.yul\":8886:8972   */\n      tag_482\n      jump\t// in\n    tag_620:\n        /* \"#utility.yul\":8879:8972   */\n      swap4\n      pop\n        /* \"#utility.yul\":8996:9052   */\n      tag_621\n        /* \"#utility.yul\":9046:9051   */\n      dup4\n        /* \"#utility.yul\":8996:9052   */\n      tag_483\n      jump\t// in\n    tag_621:\n        /* \"#utility.yul\":9075:9082   */\n      dup1\n        /* \"#utility.yul\":9106:9107   */\n      0x00\n        /* \"#utility.yul\":9091:9375   */\n    tag_622:\n        /* \"#utility.yul\":9116:9122   */\n      dup4\n        /* \"#utility.yul\":9113:9114   */\n      dup2\n        /* \"#utility.yul\":9110:9123   */\n      lt\n        /* \"#utility.yul\":9091:9375   */\n      iszero\n      tag_624\n      jumpi\n        /* \"#utility.yul\":9192:9198   */\n      dup2\n        /* \"#utility.yul\":9186:9199   */\n      mload\n        /* \"#utility.yul\":9219:9282   */\n      tag_625\n        /* \"#utility.yul\":9278:9281   */\n      dup9\n        /* \"#utility.yul\":9263:9276   */\n      dup3\n        /* \"#utility.yul\":9219:9282   */\n      tag_485\n      jump\t// in\n    tag_625:\n        /* \"#utility.yul\":9212:9282   */\n      swap8\n      pop\n        /* \"#utility.yul\":9305:9365   */\n      tag_626\n        /* \"#utility.yul\":9358:9364   */\n      dup4\n        /* \"#utility.yul\":9305:9365   */\n      tag_486\n      jump\t// in\n    tag_626:\n        /* \"#utility.yul\":9295:9365   */\n      swap3\n      pop\n        /* \"#utility.yul\":9151:9375   */\n      pop\n        /* \"#utility.yul\":9138:9139   */\n      0x01\n        /* \"#utility.yul\":9135:9136   */\n      dup2\n        /* \"#utility.yul\":9131:9140   */\n      add\n        /* \"#utility.yul\":9126:9140   */\n      swap1\n      pop\n        /* \"#utility.yul\":9091:9375   */\n      jump(tag_622)\n    tag_624:\n        /* \"#utility.yul\":9095:9109   */\n      pop\n        /* \"#utility.yul\":9391:9394   */\n      dup6\n        /* \"#utility.yul\":9384:9394   */\n      swap4\n      pop\n        /* \"#utility.yul\":8792:9400   */\n      pop\n      pop\n      pop\n        /* \"#utility.yul\":8668:9400   */\n      swap3\n      swap2\n      pop\n      pop\n      jump\t// out\n        /* \"#utility.yul\":9406:9779   */\n    tag_69:\n        /* \"#utility.yul\":9549:9553   */\n      0x00\n        /* \"#utility.yul\":9587:9589   */\n      0x20\n        /* \"#utility.yul\":9576:9585   */\n      dup3\n        /* \"#utility.yul\":9572:9590   */\n      add\n        /* \"#utility.yul\":9564:9590   */\n      swap1\n      pop\n        /* \"#utility.yul\":9636:9645   */\n      dup2\n        /* \"#utility.yul\":9630:9634   */\n      dup2\n        /* \"#utility.yul\":9626:9646   */\n      sub\n        /* \"#utility.yul\":9622:9623   */\n      0x00\n        /* \"#utility.yul\":9611:9620   */\n      dup4\n        /* \"#utility.yul\":9607:9624   */\n      add\n        /* \"#utility.yul\":9600:9647   */\n      mstore\n        /* \"#utility.yul\":9664:9772   */\n      tag_628\n        /* \"#utility.yul\":9767:9771   */\n      dup2\n        /* \"#utility.yul\":9758:9764   */\n      dup5\n        /* \"#utility.yul\":9664:9772   */\n      tag_487\n      jump\t// in\n    tag_628:\n        /* \"#utility.yul\":9656:9772   */\n      swap1\n      pop\n        /* \"#utility.yul\":9406:9779   */\n      swap3\n      swap2\n      pop\n      pop\n      jump\t// out\n        /* \"#utility.yul\":9785:9906   */\n    tag_488:\n        /* \"#utility.yul\":9874:9875   */\n      0x04\n        /* \"#utility.yul\":9867:9872   */\n      dup2\n        /* \"#utility.yul\":9864:9876   */\n      lt\n        /* \"#utility.yul\":9854:9900   */\n      tag_630\n      jumpi\n        /* \"#utility.yul\":9880:9898   */\n      tag_631\n      tag_114\n      jump\t// in\n    tag_631:\n        /* \"#utility.yul\":9854:9900   */\n    tag_630:\n        /* \"#utility.yul\":9785:9906   */\n      pop\n      jump\t// out\n        /* \"#utility.yul\":9912:10055   */\n    tag_489:\n        /* \"#utility.yul\":9965:9972   */\n      0x00\n        /* \"#utility.yul\":9994:9999   */\n      dup2\n        /* \"#utility.yul\":9983:9999   */\n      swap1\n      pop\n        /* \"#utility.yul\":10000:10049   */\n      tag_633\n        /* \"#utility.yul\":10043:10048   */\n      dup3\n        /* \"#utility.yul\":10000:10049   */\n      tag_488\n      jump\t// in\n    tag_633:\n        /* \"#utility.yul\":9912:10055   */\n      swap2\n      swap1\n      pop\n      jump\t// out\n        /* \"#utility.yul\":10061:10204   */\n    tag_490:\n        /* \"#utility.yul\":10125:10134   */\n      0x00\n        /* \"#utility.yul\":10158:10198   */\n      tag_635\n        /* \"#utility.yul\":10192:10197   */\n      dup3\n        /* \"#utility.yul\":10158:10198   */\n      tag_489\n      jump\t// in\n    tag_635:\n        /* \"#utility.yul\":10145:10198   */\n      swap1\n      pop\n        /* \"#utility.yul\":10061:10204   */\n      swap2\n      swap1\n      pop\n      jump\t// out\n        /* \"#utility.yul\":10210:10369   */\n    tag_491:\n        /* \"#utility.yul\":10311:10362   */\n      tag_637\n        /* \"#utility.yul\":10356:10361   */\n      dup2\n        /* \"#utility.yul\":10311:10362   */\n      tag_490\n      jump\t// in\n    tag_637:\n        /* \"#utility.yul\":10306:10309   */\n      dup3\n        /* \"#utility.yul\":10299:10363   */\n      mstore\n        /* \"#utility.yul\":10210:10369   */\n      pop\n      pop\n      jump\t// out\n        /* \"#utility.yul\":10375:10826   */\n    tag_93:\n        /* \"#utility.yul\":10530:10534   */\n      0x00\n        /* \"#utility.yul\":10568:10570   */\n      0x40\n        /* \"#utility.yul\":10557:10566   */\n      dup3\n        /* \"#utility.yul\":10553:10571   */\n      add\n        /* \"#utility.yul\":10545:10571   */\n      swap1\n      pop\n        /* \"#utility.yul\":10617:10626   */\n      dup2\n        /* \"#utility.yul\":10611:10615   */\n      dup2\n        /* \"#utility.yul\":10607:10627   */\n      sub\n        /* \"#utility.yul\":10603:10604   */\n      0x00\n        /* \"#utility.yul\":10592:10601   */\n      dup4\n        /* \"#utility.yul\":10588:10605   */\n      add\n        /* \"#utility.yul\":10581:10628   */\n      mstore\n        /* \"#utility.yul\":10645:10723   */\n      tag_639\n        /* \"#utility.yul\":10718:10722   */\n      dup2\n        /* \"#utility.yul\":10709:10715   */\n      dup6\n        /* \"#utility.yul\":10645:10723   */\n      tag_480\n      jump\t// in\n    tag_639:\n        /* \"#utility.yul\":10637:10723   */\n      swap1\n      pop\n        /* \"#utility.yul\":10733:10819   */\n      tag_640\n        /* \"#utility.yul\":10815:10817   */\n      0x20\n        /* \"#utility.yul\":10804:10813   */\n      dup4\n        /* \"#utility.yul\":10800:10818   */\n      add\n        /* \"#utility.yul\":10791:10797   */\n      dup5\n        /* \"#utility.yul\":10733:10819   */\n      tag_491\n      jump\t// in\n    tag_640:\n        /* \"#utility.yul\":10375:10826   */\n      swap4\n      swap3\n      pop\n      pop\n      pop\n      jump\t// out\n        /* \"#utility.yul\":10832:11053   */\n    tag_492:\n        /* \"#utility.yul\":10972:11006   */\n      0x4f6e6c792061646d696e2063616e20706572666f726d20746869732061637469\n        /* \"#utility.yul\":10968:10969   */\n      0x00\n        /* \"#utility.yul\":10960:10966   */\n      dup3\n        /* \"#utility.yul\":10956:10970   */\n      add\n        /* \"#utility.yul\":10949:11007   */\n      mstore\n        /* \"#utility.yul\":11041:11045   */\n      0x6f6e000000000000000000000000000000000000000000000000000000000000\n        /* \"#utility.yul\":11036:11038   */\n      0x20\n        /* \"#utility.yul\":11028:11034   */\n      dup3\n        /* \"#utility.yul\":11024:11039   */\n      add\n        /* \"#utility.yul\":11017:11046   */\n      mstore\n        /* \"#utility.yul\":10832:11053   */\n      pop\n      jump\t// out\n        /* \"#utility.yul\":11059:11425   */\n    tag_493:\n        /* \"#utility.yul\":11201:11204   */\n      0x00\n        /* \"#utility.yul\":11222:11289   */\n      tag_643\n        /* \"#utility.yul\":11286:11288   */\n      0x22\n        /* \"#utility.yul\":11281:11284   */\n      dup4\n        /* \"#utility.yul\":11222:11289   */\n      tag_478\n      jump\t// in\n    tag_643:\n        /* \"#utility.yul\":11215:11289   */\n      swap2\n      pop\n        /* \"#utility.yul\":11298:11391   */\n      tag_644\n        /* \"#utility.yul\":11387:11390   */\n      dup3\n        /* \"#utility.yul\":11298:11391   */\n      tag_492\n      jump\t// in\n    tag_644:\n        /* \"#utility.yul\":11416:11418   */\n      0x40\n        /* \"#utility.yul\":11411:11414   */\n      dup3\n        /* \"#utility.yul\":11407:11419   */\n      add\n        /* \"#utility.yul\":11400:11419   */\n      swap1\n      pop\n        /* \"#utility.yul\":11059:11425   */\n      swap2\n      swap1\n      pop\n      jump\t// out\n        /* \"#utility.yul\":11431:11850   */\n    tag_110:\n        /* \"#utility.yul\":11597:11601   */\n      0x00\n        /* \"#utility.yul\":11635:11637   */\n      0x20\n        /* \"#utility.yul\":11624:11633   */\n      dup3\n        /* \"#utility.yul\":11620:11638   */\n      add\n        /* \"#utility.yul\":11612:11638   */\n      swap1\n      pop\n        /* \"#utility.yul\":11684:11693   */\n      dup2\n        /* \"#utility.yul\":11678:11682   */\n      dup2\n        /* \"#utility.yul\":11674:11694   */\n      sub\n        /* \"#utility.yul\":11670:11671   */\n      0x00\n        /* \"#utility.yul\":11659:11668   */\n      dup4\n        /* \"#utility.yul\":11655:11672   */\n      add\n        /* \"#utility.yul\":11648:11695   */\n      mstore\n        /* \"#utility.yul\":11712:11843   */\n      tag_646\n        /* \"#utility.yul\":11838:11842   */\n      dup2\n        /* \"#utility.yul\":11712:11843   */\n      tag_493\n      jump\t// in\n    tag_646:\n        /* \"#utility.yul\":11704:11843   */\n      swap1\n      pop\n        /* \"#utility.yul\":11431:11850   */\n      swap2\n      swap1\n      pop\n      jump\t// out\n        /* \"#utility.yul\":11856:12026   */\n    tag_494:\n        /* \"#utility.yul\":11996:12018   */\n      0x4e6f207265717565737420746f20766572696679000000000000000000000000\n        /* \"#utility.yul\":11992:11993   */\n      0x00\n        /* \"#utility.yul\":11984:11990   */\n      dup3\n        /* \"#utility.yul\":11980:11994   */\n      add\n        /* \"#utility.yul\":11973:12019   */\n      mstore\n        /* \"#utility.yul\":11856:12026   */\n      pop\n      jump\t// out\n        /* \"#utility.yul\":12032:12398   */\n    tag_495:\n        /* \"#utility.yul\":12174:12177   */\n      0x00\n        /* \"#utility.yul\":12195:12262   */\n      tag_649\n        /* \"#utility.yul\":12259:12261   */\n      0x14\n        /* \"#utility.yul\":12254:12257   */\n      dup4\n        /* \"#utility.yul\":12195:12262   */\n      tag_478\n      jump\t// in\n    tag_649:\n        /* \"#utility.yul\":12188:12262   */\n      swap2\n      pop\n        /* \"#utility.yul\":12271:12364   */\n      tag_650\n        /* \"#utility.yul\":12360:12363   */\n      dup3\n        /* \"#utility.yul\":12271:12364   */\n      tag_494\n      jump\t// in\n    tag_650:\n        /* \"#utility.yul\":12389:12391   */\n      0x20\n        /* \"#utility.yul\":12384:12387   */\n      dup3\n        /* \"#utility.yul\":12380:12392   */\n      add\n        /* \"#utility.yul\":12373:12392   */\n      swap1\n      pop\n        /* \"#utility.yul\":12032:12398   */\n      swap2\n      swap1\n      pop\n      jump\t// out\n        /* \"#utility.yul\":12404:12823   */\n    tag_119:\n        /* \"#utility.yul\":12570:12574   */\n      0x00\n        /* \"#utility.yul\":12608:12610   */\n      0x20\n        /* \"#utility.yul\":12597:12606   */\n      dup3\n        /* \"#utility.yul\":12593:12611   */\n      add\n        /* \"#utility.yul\":12585:12611   */\n      swap1\n      pop\n        /* \"#utility.yul\":12657:12666   */\n      dup2\n        /* \"#utility.yul\":12651:12655   */\n      dup2\n        /* \"#utility.yul\":12647:12667   */\n      sub\n        /* \"#utility.yul\":12643:12644   */\n      0x00\n        /* \"#utility.yul\":12632:12641   */\n      dup4\n        /* \"#utility.yul\":12628:12645   */\n      add\n        /* \"#utility.yul\":12621:12668   */\n      mstore\n        /* \"#utility.yul\":12685:12816   */\n      tag_652\n        /* \"#utility.yul\":12811:12815   */\n      dup2\n        /* \"#utility.yul\":12685:12816   */\n      tag_495\n      jump\t// in\n    tag_652:\n        /* \"#utility.yul\":12677:12816   */\n      swap1\n      pop\n        /* \"#utility.yul\":12404:12823   */\n      swap2\n      swap1\n      pop\n      jump\t// out\n        /* \"#utility.yul\":12829:13000   */\n    tag_496:\n        /* \"#utility.yul\":12969:12992   */\n      0x526f6c6520616c72656164792061737369676e65640000000000000000000000\n        /* \"#utility.yul\":12965:12966   */\n      0x00\n        /* \"#utility.yul\":12957:12963   */\n      dup3\n        /* \"#utility.yul\":12953:12967   */\n      add\n        /* \"#utility.yul\":12946:12993   */\n      mstore\n        /* \"#utility.yul\":12829:13000   */\n      pop\n      jump\t// out\n        /* \"#utility.yul\":13006:13372   */\n    tag_497:\n        /* \"#utility.yul\":13148:13151   */\n      0x00\n        /* \"#utility.yul\":13169:13236   */\n      tag_655\n        /* \"#utility.yul\":13233:13235   */\n      0x15\n        /* \"#utility.yul\":13228:13231   */\n      dup4\n        /* \"#utility.yul\":13169:13236   */\n      tag_478\n      jump\t// in\n    tag_655:\n        /* \"#utility.yul\":13162:13236   */\n      swap2\n      pop\n        /* \"#utility.yul\":13245:13338   */\n      tag_656\n        /* \"#utility.yul\":13334:13337   */\n      dup3\n        /* \"#utility.yul\":13245:13338   */\n      tag_496\n      jump\t// in\n    tag_656:\n        /* \"#utility.yul\":13363:13365   */\n      0x20\n        /* \"#utility.yul\":13358:13361   */\n      dup3\n        /* \"#utility.yul\":13354:13366   */\n      add\n        /* \"#utility.yul\":13347:13366   */\n      swap1\n      pop\n        /* \"#utility.yul\":13006:13372   */\n      swap2\n      swap1\n      pop\n      jump\t// out\n        /* \"#utility.yul\":13378:13797   */\n    tag_126:\n        /* \"#utility.yul\":13544:13548   */\n      0x00\n        /* \"#utility.yul\":13582:13584   */\n      0x20\n        /* \"#utility.yul\":13571:13580   */\n      dup3\n        /* \"#utility.yul\":13567:13585   */\n      add\n        /* \"#utility.yul\":13559:13585   */\n      swap1\n      pop\n        /* \"#utility.yul\":13631:13640   */\n      dup2\n        /* \"#utility.yul\":13625:13629   */\n      dup2\n        /* \"#utility.yul\":13621:13641   */\n      sub\n        /* \"#utility.yul\":13617:13618   */\n      0x00\n        /* \"#utility.yul\":13606:13615   */\n      dup4\n        /* \"#utility.yul\":13602:13619   */\n      add\n        /* \"#utility.yul\":13595:13642   */\n      mstore\n        /* \"#utility.yul\":13659:13790   */\n      tag_658\n        /* \"#utility.yul\":13785:13789   */\n      dup2\n        /* \"#utility.yul\":13659:13790   */\n      tag_497\n      jump\t// in\n    tag_658:\n        /* \"#utility.yul\":13651:13790   */\n      swap1\n      pop\n        /* \"#utility.yul\":13378:13797   */\n      swap2\n      swap1\n      pop\n      jump\t// out\n        /* \"#utility.yul\":13803:13983   */\n    tag_498:\n        /* \"#utility.yul\":13851:13928   */\n      0x4e487b7100000000000000000000000000000000000000000000000000000000\n        /* \"#utility.yul\":13848:13849   */\n      0x00\n        /* \"#utility.yul\":13841:13929   */\n      mstore\n        /* \"#utility.yul\":13948:13952   */\n      0x22\n        /* \"#utility.yul\":13945:13946   */\n      0x04\n        /* \"#utility.yul\":13938:13953   */\n      mstore\n        /* \"#utility.yul\":13972:13976   */\n      0x24\n        /* \"#utility.yul\":13969:13970   */\n      0x00\n        /* \"#utility.yul\":13962:13977   */\n      revert\n        /* \"#utility.yul\":13989:14309   */\n    tag_134:\n        /* \"#utility.yul\":14033:14039   */\n      0x00\n        /* \"#utility.yul\":14070:14071   */\n      0x02\n        /* \"#utility.yul\":14064:14068   */\n      dup3\n        /* \"#utility.yul\":14060:14072   */\n      div\n        /* \"#utility.yul\":14050:14072   */\n      swap1\n      pop\n        /* \"#utility.yul\":14117:14118   */\n      0x01\n        /* \"#utility.yul\":14111:14115   */\n      dup3\n        /* \"#utility.yul\":14107:14119   */\n      and\n        /* \"#utility.yul\":14138:14156   */\n      dup1\n        /* \"#utility.yul\":14128:14209   */\n      tag_661\n      jumpi\n        /* \"#utility.yul\":14194:14198   */\n      0x7f\n        /* \"#utility.yul\":14186:14192   */\n      dup3\n        /* \"#utility.yul\":14182:14199   */\n      and\n        /* \"#utility.yul\":14172:14199   */\n      swap2\n      pop\n        /* \"#utility.yul\":14128:14209   */\n    tag_661:\n        /* \"#utility.yul\":14256:14258   */\n      0x20\n        /* \"#utility.yul\":14248:14254   */\n      dup3\n        /* \"#utility.yul\":14245:14259   */\n      lt\n        /* \"#utility.yul\":14225:14243   */\n      dup2\n        /* \"#utility.yul\":14222:14260   */\n      sub\n        /* \"#utility.yul\":14219:14303   */\n      tag_662\n      jumpi\n        /* \"#utility.yul\":14275:14293   */\n      tag_663\n      tag_498\n      jump\t// in\n    tag_663:\n        /* \"#utility.yul\":14219:14303   */\n    tag_662:\n        /* \"#utility.yul\":14040:14309   */\n      pop\n        /* \"#utility.yul\":13989:14309   */\n      swap2\n      swap1\n      pop\n      jump\t// out\n        /* \"#utility.yul\":14315:14456   */\n    tag_499:\n        /* \"#utility.yul\":14364:14368   */\n      0x00\n        /* \"#utility.yul\":14387:14390   */\n      dup2\n        /* \"#utility.yul\":14379:14390   */\n      swap1\n      pop\n        /* \"#utility.yul\":14410:14413   */\n      dup2\n        /* \"#utility.yul\":14407:14408   */\n      0x00\n        /* \"#utility.yul\":14400:14414   */\n      mstore\n        /* \"#utility.yul\":14444:14448   */\n      0x20\n        /* \"#utility.yul\":14441:14442   */\n      0x00\n        /* \"#utility.yul\":14431:14449   */\n      keccak256\n        /* \"#utility.yul\":14423:14449   */\n      swap1\n      pop\n        /* \"#utility.yul\":14315:14456   */\n      swap2\n      swap1\n      pop\n      jump\t// out\n        /* \"#utility.yul\":14462:14555   */\n    tag_500:\n        /* \"#utility.yul\":14499:14505   */\n      0x00\n        /* \"#utility.yul\":14546:14548   */\n      0x20\n        /* \"#utility.yul\":14541:14543   */\n      0x1f\n        /* \"#utility.yul\":14534:14539   */\n      dup4\n        /* \"#utility.yul\":14530:14544   */\n      add\n        /* \"#utility.yul\":14526:14549   */\n      div\n        /* \"#utility.yul\":14516:14549   */\n      swap1\n      pop\n        /* \"#utility.yul\":14462:14555   */\n      swap2\n      swap1\n      pop\n      jump\t// out\n        /* \"#utility.yul\":14561:14668   */\n    tag_501:\n        /* \"#utility.yul\":14605:14613   */\n      0x00\n        /* \"#utility.yul\":14655:14660   */\n      dup3\n        /* \"#utility.yul\":14649:14653   */\n      dup3\n        /* \"#utility.yul\":14645:14661   */\n      shl\n        /* \"#utility.yul\":14624:14661   */\n      swap1\n      pop\n        /* \"#utility.yul\":14561:14668   */\n      swap3\n      swap2\n      pop\n      pop\n      jump\t// out\n        /* \"#utility.yul\":14674:15067   */\n    tag_502:\n        /* \"#utility.yul\":14743:14749   */\n      0x00\n        /* \"#utility.yul\":14793:14794   */\n      0x08\n        /* \"#utility.yul\":14781:14791   */\n      dup4\n        /* \"#utility.yul\":14777:14795   */\n      mul\n        /* \"#utility.yul\":14816:14913   */\n      tag_668\n        /* \"#utility.yul\":14846:14912   */\n      0xffffffffffffffffffffffffffffffffffffffffffffffffffffffffffffffff\n        /* \"#utility.yul\":14835:14844   */\n      dup3\n        /* \"#utility.yul\":14816:14913   */\n      tag_501\n      jump\t// in\n    tag_668:\n        /* \"#utility.yul\":14934:14973   */\n      tag_669\n        /* \"#utility.yul\":14964:14972   */\n      dup7\n        /* \"#utility.yul\":14953:14962   */\n      dup4\n        /* \"#utility.yul\":14934:14973   */\n      tag_501\n      jump\t// in\n    tag_669:\n        /* \"#utility.yul\":14922:14973   */\n      swap6\n      pop\n        /* \"#utility.yul\":15006:15010   */\n      dup1\n        /* \"#utility.yul\":15002:15011   */\n      not\n        /* \"#utility.yul\":14995:15000   */\n      dup5\n        /* \"#utility.yul\":14991:15012   */\n      and\n        /* \"#utility.yul\":14982:15012   */\n      swap4\n      pop\n        /* \"#utility.yul\":15055:15059   */\n      dup1\n        /* \"#utility.yul\":15045:15053   */\n      dup7\n        /* \"#utility.yul\":15041:15060   */\n      and\n        /* \"#utility.yul\":15034:15039   */\n      dup5\n        /* \"#utility.yul\":15031:15061   */\n      or\n        /* \"#utility.yul\":15021:15061   */\n      swap3\n      pop\n        /* \"#utility.yul\":14750:15067   */\n      pop\n      pop\n        /* \"#utility.yul\":14674:15067   */\n      swap4\n      swap3\n      pop\n      pop\n      pop\n      jump\t// out\n        /* \"#utility.yul\":15073:15133   */\n    tag_503:\n        /* \"#utility.yul\":15101:15104   */\n      0x00\n        /* \"#utility.yul\":15122:15127   */\n      dup2\n        /* \"#utility.yul\":15115:15127   */\n      swap1\n      pop\n        /* \"#utility.yul\":15073:15133   */\n      swap2\n      swap1\n      pop\n      jump\t// out\n        /* \"#utility.yul\":15139:15281   */\n    tag_504:\n        /* \"#utility.yul\":15189:15198   */\n      0x00\n        /* \"#utility.yul\":15222:15275   */\n      tag_672\n        /* \"#utility.yul\":15240:15274   */\n      tag_673\n        /* \"#utility.yul\":15249:15273   */\n      tag_674\n        /* \"#utility.yul\":15267:15272   */\n      dup5\n        /* \"#utility.yul\":15249:15273   */\n      tag_469\n      jump\t// in\n    tag_674:\n        /* \"#utility.yul\":15240:15274   */\n      tag_503\n      jump\t// in\n    tag_673:\n        /* \"#utility.yul\":15222:15275   */\n      tag_469\n      jump\t// in\n    tag_672:\n        /* \"#utility.yul\":15209:15275   */\n      swap1\n      pop\n        /* \"#utility.yul\":15139:15281   */\n      swap2\n      swap1\n      pop\n      jump\t// out\n        /* \"#utility.yul\":15287:15362   */\n    tag_505:\n        /* \"#utility.yul\":15330:15333   */\n      0x00\n        /* \"#utility.yul\":15351:15356   */\n      dup2\n        /* \"#utility.yul\":15344:15356   */\n      swap1\n      pop\n        /* \"#utility.yul\":15287:15362   */\n      swap2\n      swap1\n      pop\n      jump\t// out\n        /* \"#utility.yul\":15368:15637   */\n    tag_506:\n        /* \"#utility.yul\":15478:15517   */\n      tag_677\n        /* \"#utility.yul\":15509:15516   */\n      dup4\n        /* \"#utility.yul\":15478:15517   */\n      tag_504\n      jump\t// in\n    tag_677:\n        /* \"#utility.yul\":15539:15630   */\n      tag_678\n        /* \"#utility.yul\":15588:15629   */\n      tag_679\n        /* \"#utility.yul\":15612:15628   */\n      dup3\n        /* \"#utility.yul\":15588:15629   */\n      tag_505\n      jump\t// in\n    tag_679:\n        /* \"#utility.yul\":15580:15586   */\n      dup5\n        /* \"#utility.yul\":15573:15577   */\n      dup5\n        /* \"#utility.yul\":15567:15578   */\n      sload\n        /* \"#utility.yul\":15539:15630   */\n      tag_502\n      jump\t// in\n    tag_678:\n        /* \"#utility.yul\":15533:15537   */\n      dup3\n        /* \"#utility.yul\":15526:15631   */\n      sstore\n        /* \"#utility.yul\":15444:15637   */\n      pop\n        /* \"#utility.yul\":15368:15637   */\n      pop\n      pop\n      pop\n      jump\t// out\n        /* \"#utility.yul\":15643:15716   */\n    tag_507:\n        /* \"#utility.yul\":15688:15691   */\n      0x00\n        /* \"#utility.yul\":15643:15716   */\n      swap1\n      jump\t// out\n        /* \"#utility.yul\":15722:15911   */\n    tag_508:\n        /* \"#utility.yul\":15799:15831   */\n      tag_682\n      tag_507\n      jump\t// in\n    tag_682:\n        /* \"#utility.yul\":15840:15905   */\n      tag_683\n        /* \"#utility.yul\":15898:15904   */\n      dup2\n        /* \"#utility.yul\":15890:15896   */\n      dup5\n        /* \"#utility.yul\":15884:15888   */\n      dup5\n        /* \"#utility.yul\":15840:15905   */\n      tag_506\n      jump\t// in\n    tag_683:\n        /* \"#utility.yul\":15775:15911   */\n      pop\n        /* \"#utility.yul\":15722:15911   */\n      pop\n      pop\n      jump\t// out\n        /* \"#utility.yul\":15917:16103   */\n    tag_509:\n        /* \"#utility.yul\":15977:16097   */\n    tag_685:\n        /* \"#utility.yul\":15994:15997   */\n      dup2\n        /* \"#utility.yul\":15987:15992   */\n      dup2\n        /* \"#utility.yul\":15984:15998   */\n      lt\n        /* \"#utility.yul\":15977:16097   */\n      iszero\n      tag_687\n      jumpi\n        /* \"#utility.yul\":16048:16087   */\n      tag_688\n        /* \"#utility.yul\":16085:16086   */\n      0x00\n        /* \"#utility.yul\":16078:16083   */\n      dup3\n        /* \"#utility.yul\":16048:16087   */\n      tag_508\n      jump\t// in\n    tag_688:\n        /* \"#utility.yul\":16021:16022   */\n      0x01\n        /* \"#utility.yul\":16014:16019   */\n      dup2\n        /* \"#utility.yul\":16010:16023   */\n      add\n        /* \"#utility.yul\":16001:16023   */\n      swap1\n      pop\n        /* \"#utility.yul\":15977:16097   */\n      jump(tag_685)\n    tag_687:\n        /* \"#utility.yul\":15917:16103   */\n      pop\n      pop\n      jump\t// out\n        /* \"#utility.yul\":16109:16652   */\n    tag_510:\n        /* \"#utility.yul\":16210:16212   */\n      0x1f\n        /* \"#utility.yul\":16205:16208   */\n      dup3\n        /* \"#utility.yul\":16202:16213   */\n      gt\n        /* \"#utility.yul\":16199:16645   */\n      iszero\n      tag_690\n      jumpi\n        /* \"#utility.yul\":16244:16282   */\n      tag_691\n        /* \"#utility.yul\":16276:16281   */\n      dup2\n        /* \"#utility.yul\":16244:16282   */\n      tag_499\n      jump\t// in\n    tag_691:\n        /* \"#utility.yul\":16328:16357   */\n      tag_692\n        /* \"#utility.yul\":16346:16356   */\n      dup5\n        /* \"#utility.yul\":16328:16357   */\n      tag_500\n      jump\t// in\n    tag_692:\n        /* \"#utility.yul\":16318:16326   */\n      dup2\n        /* \"#utility.yul\":16314:16358   */\n      add\n        /* \"#utility.yul\":16511:16513   */\n      0x20\n        /* \"#utility.yul\":16499:16509   */\n      dup6\n        /* \"#utility.yul\":16496:16514   */\n      lt\n        /* \"#utility.yul\":16493:16542   */\n      iszero\n      tag_693\n      jumpi\n        /* \"#utility.yul\":16532:16540   */\n      dup2\n        /* \"#utility.yul\":16517:16540   */\n      swap1\n      pop\n        /* \"#utility.yul\":16493:16542   */\n    tag_693:\n        /* \"#utility.yul\":16555:16635   */\n      tag_694\n        /* \"#utility.yul\":16611:16633   */\n      tag_695\n        /* \"#utility.yul\":16629:16632   */\n      dup6\n        /* \"#utility.yul\":16611:16633   */\n      tag_500\n      jump\t// in\n    tag_695:\n        /* \"#utility.yul\":16601:16609   */\n      dup4\n        /* \"#utility.yul\":16597:16634   */\n      add\n        /* \"#utility.yul\":16584:16595   */\n      dup3\n        /* \"#utility.yul\":16555:16635   */\n      tag_509\n      jump\t// in\n    tag_694:\n        /* \"#utility.yul\":16214:16645   */\n      pop\n      pop\n        /* \"#utility.yul\":16199:16645   */\n    tag_690:\n        /* \"#utility.yul\":16109:16652   */\n      pop\n      pop\n      pop\n      jump\t// out\n        /* \"#utility.yul\":16658:16775   */\n    tag_511:\n        /* \"#utility.yul\":16712:16720   */\n      0x00\n        /* \"#utility.yul\":16762:16767   */\n      dup3\n        /* \"#utility.yul\":16756:16760   */\n      dup3\n        /* \"#utility.yul\":16752:16768   */\n      shr\n        /* \"#utility.yul\":16731:16768   */\n      swap1\n      pop\n        /* \"#utility.yul\":16658:16775   */\n      swap3\n      swap2\n      pop\n      pop\n      jump\t// out\n        /* \"#utility.yul\":16781:16950   */\n    tag_512:\n        /* \"#utility.yul\":16825:16831   */\n      0x00\n        /* \"#utility.yul\":16858:16909   */\n      tag_698\n        /* \"#utility.yul\":16906:16907   */\n      0x00\n        /* \"#utility.yul\":16902:16908   */\n      not\n        /* \"#utility.yul\":16894:16899   */\n      dup5\n        /* \"#utility.yul\":16891:16892   */\n      0x08\n        /* \"#utility.yul\":16887:16900   */\n      mul\n        /* \"#utility.yul\":16858:16909   */\n      tag_511\n      jump\t// in\n    tag_698:\n        /* \"#utility.yul\":16854:16910   */\n      not\n        /* \"#utility.yul\":16939:16943   */\n      dup1\n        /* \"#utility.yul\":16933:16937   */\n      dup4\n        /* \"#utility.yul\":16929:16944   */\n      and\n        /* \"#utility.yul\":16919:16944   */\n      swap2\n      pop\n        /* \"#utility.yul\":16832:16950   */\n      pop\n        /* \"#utility.yul\":16781:16950   */\n      swap3\n      swap2\n      pop\n      pop\n      jump\t// out\n        /* \"#utility.yul\":16955:17250   */\n    tag_513:\n        /* \"#utility.yul\":17031:17035   */\n      0x00\n        /* \"#utility.yul\":17177:17206   */\n      tag_700\n        /* \"#utility.yul\":17202:17205   */\n      dup4\n        /* \"#utility.yul\":17196:17200   */\n      dup4\n        /* \"#utility.yul\":17177:17206   */\n      tag_512\n      jump\t// in\n    tag_700:\n        /* \"#utility.yul\":17169:17206   */\n      swap2\n      pop\n        /* \"#utility.yul\":17239:17242   */\n      dup3\n        /* \"#utility.yul\":17236:17237   */\n      0x02\n        /* \"#utility.yul\":17232:17243   */\n      mul\n        /* \"#utility.yul\":17226:17230   */\n      dup3\n        /* \"#utility.yul\":17223:17244   */\n      or\n        /* \"#utility.yul\":17215:17244   */\n      swap1\n      pop\n        /* \"#utility.yul\":16955:17250   */\n      swap3\n      swap2\n      pop\n      pop\n      jump\t// out\n        /* \"#utility.yul\":17255:18650   */\n    tag_143:\n        /* \"#utility.yul\":17372:17409   */\n      tag_702\n        /* \"#utility.yul\":17405:17408   */\n      dup3\n        /* \"#utility.yul\":17372:17409   */\n      tag_477\n      jump\t// in\n    tag_702:\n        /* \"#utility.yul\":17474:17492   */\n      0xffffffffffffffff\n        /* \"#utility.yul\":17466:17472   */\n      dup2\n        /* \"#utility.yul\":17463:17493   */\n      gt\n        /* \"#utility.yul\":17460:17516   */\n      iszero\n      tag_703\n      jumpi\n        /* \"#utility.yul\":17496:17514   */\n      tag_704\n      tag_462\n      jump\t// in\n    tag_704:\n        /* \"#utility.yul\":17460:17516   */\n    tag_703:\n        /* \"#utility.yul\":17540:17578   */\n      tag_705\n        /* \"#utility.yul\":17572:17576   */\n      dup3\n        /* \"#utility.yul\":17566:17577   */\n      sload\n        /* \"#utility.yul\":17540:17578   */\n      tag_134\n      jump\t// in\n    tag_705:\n        /* \"#utility.yul\":17625:17692   */\n      tag_706\n        /* \"#utility.yul\":17685:17691   */\n      dup3\n        /* \"#utility.yul\":17677:17683   */\n      dup3\n        /* \"#utility.yul\":17671:17675   */\n      dup6\n        /* \"#utility.yul\":17625:17692   */\n      tag_510\n      jump\t// in\n    tag_706:\n        /* \"#utility.yul\":17719:17720   */\n      0x00\n        /* \"#utility.yul\":17743:17747   */\n      0x20\n        /* \"#utility.yul\":17730:17747   */\n      swap1\n      pop\n        /* \"#utility.yul\":17775:17777   */\n      0x1f\n        /* \"#utility.yul\":17767:17773   */\n      dup4\n        /* \"#utility.yul\":17764:17778   */\n      gt\n        /* \"#utility.yul\":17792:17793   */\n      0x01\n        /* \"#utility.yul\":17787:18405   */\n      dup2\n      eq\n      tag_708\n      jumpi\n        /* \"#utility.yul\":18449:18450   */\n      0x00\n        /* \"#utility.yul\":18466:18472   */\n      dup5\n        /* \"#utility.yul\":18463:18540   */\n      iszero\n      tag_709\n      jumpi\n        /* \"#utility.yul\":18515:18524   */\n      dup3\n        /* \"#utility.yul\":18510:18513   */\n      dup8\n        /* \"#utility.yul\":18506:18525   */\n      add\n        /* \"#utility.yul\":18500:18526   */\n      mload\n        /* \"#utility.yul\":18491:18526   */\n      swap1\n      pop\n        /* \"#utility.yul\":18463:18540   */\n    tag_709:\n        /* \"#utility.yul\":18566:18633   */\n      tag_710\n        /* \"#utility.yul\":18626:18632   */\n      dup6\n        /* \"#utility.yul\":18619:18624   */\n      dup3\n        /* \"#utility.yul\":18566:18633   */\n      tag_513\n      jump\t// in\n    tag_710:\n        /* \"#utility.yul\":18560:18564   */\n      dup7\n        /* \"#utility.yul\":18553:18634   */\n      sstore\n        /* \"#utility.yul\":18422:18644   */\n      pop\n        /* \"#utility.yul\":17757:18644   */\n      jump(tag_707)\n        /* \"#utility.yul\":17787:18405   */\n    tag_708:\n        /* \"#utility.yul\":17839:17843   */\n      0x1f\n        /* \"#utility.yul\":17835:17844   */\n      not\n        /* \"#utility.yul\":17827:17833   */\n      dup5\n        /* \"#utility.yul\":17823:17845   */\n      and\n        /* \"#utility.yul\":17873:17910   */\n      tag_711\n        /* \"#utility.yul\":17905:17909   */\n      dup7\n        /* \"#utility.yul\":17873:17910   */\n      tag_499\n      jump\t// in\n    tag_711:\n        /* \"#utility.yul\":17932:17933   */\n      0x00\n        /* \"#utility.yul\":17946:18154   */\n    tag_712:\n        /* \"#utility.yul\":17960:17967   */\n      dup3\n        /* \"#utility.yul\":17957:17958   */\n      dup2\n        /* \"#utility.yul\":17954:17968   */\n      lt\n        /* \"#utility.yul\":17946:18154   */\n      iszero\n      tag_714\n      jumpi\n        /* \"#utility.yul\":18039:18048   */\n      dup5\n        /* \"#utility.yul\":18034:18037   */\n      dup10\n        /* \"#utility.yul\":18030:18049   */\n      add\n        /* \"#utility.yul\":18024:18050   */\n      mload\n        /* \"#utility.yul\":18016:18022   */\n      dup3\n        /* \"#utility.yul\":18009:18051   */\n      sstore\n        /* \"#utility.yul\":18090:18091   */\n      0x01\n        /* \"#utility.yul\":18082:18088   */\n      dup3\n        /* \"#utility.yul\":18078:18092   */\n      add\n        /* \"#utility.yul\":18068:18092   */\n      swap2\n      pop\n        /* \"#utility.yul\":18137:18139   */\n      0x20\n        /* \"#utility.yul\":18126:18135   */\n      dup6\n        /* \"#utility.yul\":18122:18140   */\n      add\n        /* \"#utility.yul\":18109:18140   */\n      swap5\n      pop\n        /* \"#utility.yul\":17983:17987   */\n      0x20\n        /* \"#utility.yul\":17980:17981   */\n      dup2\n        /* \"#utility.yul\":17976:17988   */\n      add\n        /* \"#utility.yul\":17971:17988   */\n      swap1\n      pop\n        /* \"#utility.yul\":17946:18154   */\n      jump(tag_712)\n    tag_714:\n        /* \"#utility.yul\":18182:18188   */\n      dup7\n        /* \"#utility.yul\":18173:18180   */\n      dup4\n        /* \"#utility.yul\":18170:18189   */\n      lt\n        /* \"#utility.yul\":18167:18346   */\n      iszero\n      tag_715\n      jumpi\n        /* \"#utility.yul\":18240:18249   */\n      dup5\n        /* \"#utility.yul\":18235:18238   */\n      dup10\n        /* \"#utility.yul\":18231:18250   */\n      add\n        /* \"#utility.yul\":18225:18251   */\n      mload\n        /* \"#utility.yul\":18283:18331   */\n      tag_716\n        /* \"#utility.yul\":18325:18329   */\n      0x1f\n        /* \"#utility.yul\":18317:18323   */\n      dup10\n        /* \"#utility.yul\":18313:18330   */\n      and\n        /* \"#utility.yul\":18302:18311   */\n      dup3\n        /* \"#utility.yul\":18283:18331   */\n      tag_512\n      jump\t// in\n    tag_716:\n        /* \"#utility.yul\":18275:18281   */\n      dup4\n        /* \"#utility.yul\":18268:18332   */\n      sstore\n        /* \"#utility.yul\":18190:18346   */\n      pop\n        /* \"#utility.yul\":18167:18346   */\n    tag_715:\n        /* \"#utility.yul\":18392:18393   */\n      0x01\n        /* \"#utility.yul\":18388:18389   */\n      0x02\n        /* \"#utility.yul\":18380:18386   */\n      dup9\n        /* \"#utility.yul\":18376:18390   */\n      mul\n        /* \"#utility.yul\":18372:18394   */\n      add\n        /* \"#utility.yul\":18366:18370   */\n      dup9\n        /* \"#utility.yul\":18359:18395   */\n      sstore\n        /* \"#utility.yul\":17794:18405   */\n      pop\n      pop\n      pop\n        /* \"#utility.yul\":17757:18644   */\n    tag_707:\n      pop\n        /* \"#utility.yul\":17347:18650   */\n      pop\n      pop\n      pop\n        /* \"#utility.yul\":17255:18650   */\n      pop\n      pop\n      jump\t// out\n        /* \"#utility.yul\":18656:18834   */\n    tag_514:\n        /* \"#utility.yul\":18796:18826   */\n      0x526f6c65207265717565737420616c72656164792070656e64696e6700000000\n        /* \"#utility.yul\":18792:18793   */\n      0x00\n        /* \"#utility.yul\":18784:18790   */\n      dup3\n        /* \"#utility.yul\":18780:18794   */\n      add\n        /* \"#utility.yul\":18773:18827   */\n      mstore\n        /* \"#utility.yul\":18656:18834   */\n      pop\n      jump\t// out\n        /* \"#utility.yul\":18840:19206   */\n    tag_515:\n        /* \"#utility.yul\":18982:18985   */\n      0x00\n        /* \"#utility.yul\":19003:19070   */\n      tag_719\n        /* \"#utility.yul\":19067:19069   */\n      0x1c\n        /* \"#utility.yul\":19062:19065   */\n      dup4\n        /* \"#utility.yul\":19003:19070   */\n      tag_478\n      jump\t// in\n    tag_719:\n        /* \"#utility.yul\":18996:19070   */\n      swap2\n      pop\n        /* \"#utility.yul\":19079:19172   */\n      tag_720\n        /* \"#utility.yul\":19168:19171   */\n      dup3\n        /* \"#utility.yul\":19079:19172   */\n      tag_514\n      jump\t// in\n    tag_720:\n        /* \"#utility.yul\":19197:19199   */\n      0x20\n        /* \"#utility.yul\":19192:19195   */\n      dup3\n        /* \"#utility.yul\":19188:19200   */\n      add\n        /* \"#utility.yul\":19181:19200   */\n      swap1\n      pop\n        /* \"#utility.yul\":18840:19206   */\n      swap2\n      swap1\n      pop\n      jump\t// out\n        /* \"#utility.yul\":19212:19631   */\n    tag_160:\n        /* \"#utility.yul\":19378:19382   */\n      0x00\n        /* \"#utility.yul\":19416:19418   */\n      0x20\n        /* \"#utility.yul\":19405:19414   */\n      dup3\n        /* \"#utility.yul\":19401:19419   */\n      add\n        /* \"#utility.yul\":19393:19419   */\n      swap1\n      pop\n        /* \"#utility.yul\":19465:19474   */\n      dup2\n        /* \"#utility.yul\":19459:19463   */\n      dup2\n        /* \"#utility.yul\":19455:19475   */\n      sub\n        /* \"#utility.yul\":19451:19452   */\n      0x00\n        /* \"#utility.yul\":19440:19449   */\n      dup4\n        /* \"#utility.yul\":19436:19453   */\n      add\n        /* \"#utility.yul\":19429:19476   */\n      mstore\n        /* \"#utility.yul\":19493:19624   */\n      tag_722\n        /* \"#utility.yul\":19619:19623   */\n      dup2\n        /* \"#utility.yul\":19493:19624   */\n      tag_515\n      jump\t// in\n    tag_722:\n        /* \"#utility.yul\":19485:19624   */\n      swap1\n      pop\n        /* \"#utility.yul\":19212:19631   */\n      swap2\n      swap1\n      pop\n      jump\t// out\n        /* \"#utility.yul\":19637:20068   */\n    tag_168:\n        /* \"#utility.yul\":19782:19786   */\n      0x00\n        /* \"#utility.yul\":19820:19822   */\n      0x40\n        /* \"#utility.yul\":19809:19818   */\n      dup3\n        /* \"#utility.yul\":19805:19823   */\n      add\n        /* \"#utility.yul\":19797:19823   */\n      swap1\n      pop\n        /* \"#utility.yul\":19869:19878   */\n      dup2\n        /* \"#utility.yul\":19863:19867   */\n      dup2\n        /* \"#utility.yul\":19859:19879   */\n      sub\n        /* \"#utility.yul\":19855:19856   */\n      0x00\n        /* \"#utility.yul\":19844:19853   */\n      dup4\n        /* \"#utility.yul\":19840:19857   */\n      add\n        /* \"#utility.yul\":19833:19880   */\n      mstore\n        /* \"#utility.yul\":19897:19975   */\n      tag_724\n        /* \"#utility.yul\":19970:19974   */\n      dup2\n        /* \"#utility.yul\":19961:19967   */\n      dup6\n        /* \"#utility.yul\":19897:19975   */\n      tag_480\n      jump\t// in\n    tag_724:\n        /* \"#utility.yul\":19889:19975   */\n      swap1\n      pop\n        /* \"#utility.yul\":19985:20061   */\n      tag_725\n        /* \"#utility.yul\":20057:20059   */\n      0x20\n        /* \"#utility.yul\":20046:20055   */\n      dup4\n        /* \"#utility.yul\":20042:20060   */\n      add\n        /* \"#utility.yul\":20033:20039   */\n      dup5\n        /* \"#utility.yul\":19985:20061   */\n      tag_476\n      jump\t// in\n    tag_725:\n        /* \"#utility.yul\":19637:20068   */\n      swap4\n      swap3\n      pop\n      pop\n      pop\n      jump\t// out\n        /* \"#utility.yul\":20074:20249   */\n    tag_516:\n        /* \"#utility.yul\":20214:20241   */\n      0x5573657220686173206e6f2061737369676e656420726f6c6500000000000000\n        /* \"#utility.yul\":20210:20211   */\n      0x00\n        /* \"#utility.yul\":20202:20208   */\n      dup3\n        /* \"#utility.yul\":20198:20212   */\n      add\n        /* \"#utility.yul\":20191:20242   */\n      mstore\n        /* \"#utility.yul\":20074:20249   */\n      pop\n      jump\t// out\n        /* \"#utility.yul\":20255:20621   */\n    tag_517:\n        /* \"#utility.yul\":20397:20400   */\n      0x00\n        /* \"#utility.yul\":20418:20485   */\n      tag_728\n        /* \"#utility.yul\":20482:20484   */\n      0x19\n        /* \"#utility.yul\":20477:20480   */\n      dup4\n        /* \"#utility.yul\":20418:20485   */\n      tag_478\n      jump\t// in\n    tag_728:\n        /* \"#utility.yul\":20411:20485   */\n      swap2\n      pop\n        /* \"#utility.yul\":20494:20587   */\n      tag_729\n        /* \"#utility.yul\":20583:20586   */\n      dup3\n        /* \"#utility.yul\":20494:20587   */\n      tag_516\n      jump\t// in\n    tag_729:\n        /* \"#utility.yul\":20612:20614   */\n      0x20\n        /* \"#utility.yul\":20607:20610   */\n      dup3\n        /* \"#utility.yul\":20603:20615   */\n      add\n        /* \"#utility.yul\":20596:20615   */\n      swap1\n      pop\n        /* \"#utility.yul\":20255:20621   */\n      swap2\n      swap1\n      pop\n      jump\t// out\n        /* \"#utility.yul\":20627:21046   */\n    tag_262:\n        /* \"#utility.yul\":20793:20797   */\n      0x00\n        /* \"#utility.yul\":20831:20833   */\n      0x20\n        /* \"#utility.yul\":20820:20829   */\n      dup3\n        /* \"#utility.yul\":20816:20834   */\n      add\n        /* \"#utility.yul\":20808:20834   */\n      swap1\n      pop\n        /* \"#utility.yul\":20880:20889   */\n      dup2\n        /* \"#utility.yul\":20874:20878   */\n      dup2\n        /* \"#utility.yul\":20870:20890   */\n      sub\n        /* \"#utility.yul\":20866:20867   */\n      0x00\n        /* \"#utility.yul\":20855:20864   */\n      dup4\n        /* \"#utility.yul\":20851:20868   */\n      add\n        /* \"#utility.yul\":20844:20891   */\n      mstore\n        /* \"#utility.yul\":20908:21039   */\n      tag_731\n        /* \"#utility.yul\":21034:21038   */\n      dup2\n        /* \"#utility.yul\":20908:21039   */\n      tag_517\n      jump\t// in\n    tag_731:\n        /* \"#utility.yul\":20900:21039   */\n      swap1\n      pop\n        /* \"#utility.yul\":20627:21046   */\n      swap2\n      swap1\n      pop\n      jump\t// out\n        /* \"#utility.yul\":21052:21222   */\n    tag_518:\n        /* \"#utility.yul\":21192:21214   */\n      0x4e6f207265717565737420746f2072656a656374000000000000000000000000\n        /* \"#utility.yul\":21188:21189   */\n      0x00\n        /* \"#utility.yul\":21180:21186   */\n      dup3\n        /* \"#utility.yul\":21176:21190   */\n      add\n        /* \"#utility.yul\":21169:21215   */\n      mstore\n        /* \"#utility.yul\":21052:21222   */\n      pop\n      jump\t// out\n        /* \"#utility.yul\":21228:21594   */\n    tag_519:\n        /* \"#utility.yul\":21370:21373   */\n      0x00\n        /* \"#utility.yul\":21391:21458   */\n      tag_734\n        /* \"#utility.yul\":21455:21457   */\n      0x14\n        /* \"#utility.yul\":21450:21453   */\n      dup4\n        /* \"#utility.yul\":21391:21458   */\n      tag_478\n      jump\t// in\n    tag_734:\n        /* \"#utility.yul\":21384:21458   */\n      swap2\n      pop\n        /* \"#utility.yul\":21467:21560   */\n      tag_735\n        /* \"#utility.yul\":21556:21559   */\n      dup3\n        /* \"#utility.yul\":21467:21560   */\n      tag_518\n      jump\t// in\n    tag_735:\n        /* \"#utility.yul\":21585:21587   */\n      0x20\n        /* \"#utility.yul\":21580:21583   */\n      dup3\n        /* \"#utility.yul\":21576:21588   */\n      add\n        /* \"#utility.yul\":21569:21588   */\n      swap1\n      pop\n        /* \"#utility.yul\":21228:21594   */\n      swap2\n      swap1\n      pop\n      jump\t// out\n        /* \"#utility.yul\":21600:22019   */\n    tag_420:\n        /* \"#utility.yul\":21766:21770   */\n      0x00\n        /* \"#utility.yul\":21804:21806   */\n      0x20\n        /* \"#utility.yul\":21793:21802   */\n      dup3\n        /* \"#utility.yul\":21789:21807   */\n      add\n        /* \"#utility.yul\":21781:21807   */\n      swap1\n      pop\n        /* \"#utility.yul\":21853:21862   */\n      dup2\n        /* \"#utility.yul\":21847:21851   */\n      dup2\n        /* \"#utility.yul\":21843:21863   */\n      sub\n        /* \"#utility.yul\":21839:21840   */\n      0x00\n        /* \"#utility.yul\":21828:21837   */\n      dup4\n        /* \"#utility.yul\":21824:21841   */\n      add\n        /* \"#utility.yul\":21817:21864   */\n      mstore\n        /* \"#utility.yul\":21881:22012   */\n      tag_737\n        /* \"#utility.yul\":22007:22011   */\n      dup2\n        /* \"#utility.yul\":21881:22012   */\n      tag_519\n      jump\t// in\n    tag_737:\n        /* \"#utility.yul\":21873:22012   */\n      swap1\n      pop\n        /* \"#utility.yul\":21600:22019   */\n      swap2\n      swap1\n      pop\n      jump\t// out\n        /* \"#utility.yul\":22025:22205   */\n    tag_437:\n        /* \"#utility.yul\":22073:22150   */\n      0x4e487b7100000000000000000000000000000000000000000000000000000000\n        /* \"#utility.yul\":22070:22071   */\n      0x00\n        /* \"#utility.yul\":22063:22151   */\n      mstore\n        /* \"#utility.yul\":22170:22174   */\n      0x32\n        /* \"#utility.yul\":22167:22168   */\n      0x04\n        /* \"#utility.yul\":22160:22175   */\n      mstore\n        /* \"#utility.yul\":22194:22198   */\n      0x24\n        /* \"#utility.yul\":22191:22192   */\n      0x00\n        /* \"#utility.yul\":22184:22199   */\n      revert\n        /* \"#utility.yul\":22211:22391   */\n    tag_520:\n        /* \"#utility.yul\":22259:22336   */\n      0x4e487b7100000000000000000000000000000000000000000000000000000000\n        /* \"#utility.yul\":22256:22257   */\n      0x00\n        /* \"#utility.yul\":22249:22337   */\n      mstore\n        /* \"#utility.yul\":22356:22360   */\n      0x11\n        /* \"#utility.yul\":22353:22354   */\n      0x04\n        /* \"#utility.yul\":22346:22361   */\n      mstore\n        /* \"#utility.yul\":22380:22384   */\n      0x24\n        /* \"#utility.yul\":22377:22378   */\n      0x00\n        /* \"#utility.yul\":22370:22385   */\n      revert\n        /* \"#utility.yul\":22397:22591   */\n    tag_441:\n        /* \"#utility.yul\":22437:22441   */\n      0x00\n        /* \"#utility.yul\":22457:22477   */\n      tag_741\n        /* \"#utility.yul\":22475:22476   */\n      dup3\n        /* \"#utility.yul\":22457:22477   */\n      tag_469\n      jump\t// in\n    tag_741:\n        /* \"#utility.yul\":22452:22477   */\n      swap2\n      pop\n        /* \"#utility.yul\":22491:22511   */\n      tag_742\n        /* \"#utility.yul\":22509:22510   */\n      dup4\n        /* \"#utility.yul\":22491:22511   */\n      tag_469\n      jump\t// in\n    tag_742:\n        /* \"#utility.yul\":22486:22511   */\n      swap3\n      pop\n        /* \"#utility.yul\":22535:22536   */\n      dup3\n        /* \"#utility.yul\":22532:22533   */\n      dup3\n        /* \"#utility.yul\":22528:22537   */\n      sub\n        /* \"#utility.yul\":22520:22537   */\n      swap1\n      pop\n        /* \"#utility.yul\":22559:22560   */\n      dup2\n        /* \"#utility.yul\":22553:22557   */\n      dup2\n        /* \"#utility.yul\":22550:22561   */\n      gt\n        /* \"#utility.yul\":22547:22584   */\n      iszero\n      tag_743\n      jumpi\n        /* \"#utility.yul\":22564:22582   */\n      tag_744\n      tag_520\n      jump\t// in\n    tag_744:\n        /* \"#utility.yul\":22547:22584   */\n    tag_743:\n        /* \"#utility.yul\":22397:22591   */\n      swap3\n      swap2\n      pop\n      pop\n      jump\t// out\n        /* \"#utility.yul\":22597:22777   */\n    tag_450:\n        /* \"#utility.yul\":22645:22722   */\n      0x4e487b7100000000000000000000000000000000000000000000000000000000\n        /* \"#utility.yul\":22642:22643   */\n      0x00\n        /* \"#utility.yul\":22635:22723   */\n      mstore\n        /* \"#utility.yul\":22742:22746   */\n      0x31\n        /* \"#utility.yul\":22739:22740   */\n      0x04\n        /* \"#utility.yul\":22732:22747   */\n      mstore\n        /* \"#utility.yul\":22766:22770   */\n      0x24\n        /* \"#utility.yul\":22763:22764   */\n      0x00\n        /* \"#utility.yul\":22756:22771   */\n      revert\n\n    auxdata: 0xa2646970667358221220117fd183afe79abbe1c13b663f6216fa7e1d2cfe9ca2a1e0225792939bd0ba4164736f6c634300081a0033\n}\n",
				"bytecode": {
					"linkReferences": {},
					"object": "6080604052348015600e575f80fd5b503360025f6101000a81548173ffffffffffffffffffffffffffffffffffffffff021916908373ffffffffffffffffffffffffffffffffffffffff160217905550613cfd8061005c5f395ff3fe608060405234801561000f575f80fd5b5060043610610134575f3560e01c806380e52e3f116100b6578063c11df8e71161007a578063c11df8e71461035f578063d1061fef1461037b578063df2ca8d0146103ac578063e1023b88146103c8578063f04f8de7146103e4578063f851a4401461041657610134565b806380e52e3f146102bf578063893c94d6146102db5780638f81779f146102f75780639937464214610313578063b3d41f951461034357610134565b806344276733116100fd57806344276733146102045780636edc684f146102345780637253575d14610250578063772e50bf1461026f57806380a1f712146102a157610134565b8062c000161461013857806314c9fb0c146101545780631d5b9a731461017057806333b7fa5e146101a25780633c652a9a146101d4575b5f80fd5b610152600480360381019061014d91906131a4565b610434565b005b61016e6004803603810190610169919061330b565b610907565b005b61018a60048036038101906101859190613385565b610bc6565b60405161019993929190613492565b60405180910390f35b6101bc60048036038101906101b79190613385565b610cac565b6040516101cb93929190613492565b60405180910390f35b6101ee60048036038101906101e99190613385565b610d92565b6040516101fb91906134ce565b60405180910390f35b61021e600480360381019061021991906131a4565b610dcd565b60405161022b91906134e7565b60405180910390f35b61024e6004803603810190610249919061330b565b610e1e565b005b6102586110dd565b604051610266929190613500565b60405180910390f35b61028960048036038101906102849190613385565b6113b6565b60405161029893929190613492565b60405180910390f35b6102a961149c565b6040516102b691906135ec565b60405180910390f35b6102d960048036038101906102d491906131a4565b6115b6565b005b6102f560048036038101906102f091906131a4565b6117f4565b005b610311600480360381019061030c91906131a4565b611cc7565b005b61032d600480360381019061032891906131a4565b61219a565b60405161033a91906134e7565b60405180910390f35b61035d6004803603810190610358919061330b565b6121b6565b005b6103796004803603810190610374919061330b565b612475565b005b610395600480360381019061039091906131a4565b612734565b6040516103a3929190613652565b60405180910390f35b6103c660048036038101906103c191906131a4565b6127e6565b005b6103e260048036038101906103dd91906131a4565b612cb8565b005b6103fe60048036038101906103f99190613385565b612eb1565b60405161040d93929190613492565b60405180910390f35b61041e612f97565b60405161042b91906134ce565b60405180910390f35b60025f9054906101000a900473ffffffffffffffffffffffffffffffffffffffff1673ffffffffffffffffffffffffffffffffffffffff163373ffffffffffffffffffffffffffffffffffffffff16146104c3576040517f08c379a00000000000000000000000000000000000000000000000000000000081526004016104ba906136f0565b60405180910390fd5b600160038111156104d7576104d66133bf565b5b60015f8373ffffffffffffffffffffffffffffffffffffffff1673ffffffffffffffffffffffffffffffffffffffff1681526020019081526020015f206001015f9054906101000a900460ff166003811115610536576105356133bf565b5b14610576576040517f08c379a000000000000000000000000000000000000000000000000000000000815260040161056d90613758565b60405180910390fd5b5f6004811115610589576105886133bf565b5b5f808373ffffffffffffffffffffffffffffffffffffffff1673ffffffffffffffffffffffffffffffffffffffff1681526020019081526020015f205f9054906101000a900460ff1660048111156105e4576105e36133bf565b5b14610624576040517f08c379a000000000000000000000000000000000000000000000000000000000815260040161061b906137c0565b60405180910390fd5b60025f808373ffffffffffffffffffffffffffffffffffffffff1673ffffffffffffffffffffffffffffffffffffffff1681526020019081526020015f205f6101000a81548160ff02191690836004811115610683576106826133bf565b5b0217905550600260015f8373ffffffffffffffffffffffffffffffffffffffff1673ffffffffffffffffffffffffffffffffffffffff1681526020019081526020015f206001015f6101000a81548160ff021916908360038111156106eb576106ea6133bf565b5b0217905550600560405180606001604052808373ffffffffffffffffffffffffffffffffffffffff1681526020016002600481111561072d5761072c6133bf565b5b815260200160015f8573ffffffffffffffffffffffffffffffffffffffff1673ffffffffffffffffffffffffffffffffffffffff1681526020019081526020015f205f01805461077c9061380b565b80601f01602080910402602001604051908101604052809291908181526020018280546107a89061380b565b80156107f35780601f106107ca576101008083540402835291602001916107f3565b820191905f5260205f20905b8154815290600101906020018083116107d657829003601f168201915b5050505050815250908060018154018082558091505060019003905f5260205f2090600202015f909190919091505f820151815f015f6101000a81548173ffffffffffffffffffffffffffffffffffffffff021916908373ffffffffffffffffffffffffffffffffffffffff1602179055506020820151815f0160146101000a81548160ff0219169083600481111561088f5761088e6133bf565b5b021790555060408201518160010190816108a991906139d8565b5050506108b581612fbc565b8073ffffffffffffffffffffffffffffffffffffffff167f042f52f18ca9258767cef802b6283a39f6c1053fbd02bee367edc363da679f8660026040516108fc91906134e7565b60405180910390a250565b5f600481111561091a576109196133bf565b5b5f803373ffffffffffffffffffffffffffffffffffffffff1673ffffffffffffffffffffffffffffffffffffffff1681526020019081526020015f205f9054906101000a900460ff166004811115610975576109746133bf565b5b146109b5576040517f08c379a00000000000000000000000000000000000000000000000000000000081526004016109ac906137c0565b60405180910390fd5b5f60038111156109c8576109c76133bf565b5b60015f3373ffffffffffffffffffffffffffffffffffffffff1673ffffffffffffffffffffffffffffffffffffffff1681526020019081526020015f206001015f9054906101000a900460ff166003811115610a2757610a266133bf565b5b14610a67576040517f08c379a0000000000000000000000000000000000000000000000000000000008152600401610a5e90613af1565b60405180910390fd5b604051806040016040528082815260200160016003811115610a8c57610a8b6133bf565b5b81525060015f3373ffffffffffffffffffffffffffffffffffffffff1673ffffffffffffffffffffffffffffffffffffffff1681526020019081526020015f205f820151815f019081610adf91906139d8565b506020820151816001015f6101000a81548160ff02191690836003811115610b0a57610b096133bf565b5b0217905550905050600333908060018154018082558091505060019003905f5260205f20015f9091909190916101000a81548173ffffffffffffffffffffffffffffffffffffffff021916908373ffffffffffffffffffffffffffffffffffffffff1602179055503373ffffffffffffffffffffffffffffffffffffffff167f5c8e9edc72d072388931db2631b495f2ce13d46af59a06e2a24e0e514db7904b826001604051610bbb929190613b0f565b60405180910390a250565b60048181548110610bd5575f80fd5b905f5260205f2090600202015f91509050805f015f9054906101000a900473ffffffffffffffffffffffffffffffffffffffff1690805f0160149054906101000a900460ff1690806001018054610c2b9061380b565b80601f0160208091040260200160405190810160405280929190818152602001828054610c579061380b565b8015610ca25780601f10610c7957610100808354040283529160200191610ca2565b820191905f5260205f20905b815481529060010190602001808311610c8557829003601f168201915b5050505050905083565b60078181548110610cbb575f80fd5b905f5260205f2090600202015f91509050805f015f9054906101000a900473ffffffffffffffffffffffffffffffffffffffff1690805f0160149054906101000a900460ff1690806001018054610d119061380b565b80601f0160208091040260200160405190810160405280929190818152602001828054610d3d9061380b565b8015610d885780601f10610d5f57610100808354040283529160200191610d88565b820191905f5260205f20905b815481529060010190602001808311610d6b57829003601f168201915b5050505050905083565b60038181548110610da1575f80fd5b905f5260205f20015f915054906101000a900473ffffffffffffffffffffffffffffffffffffffff1681565b5f805f8373ffffffffffffffffffffffffffffffffffffffff1673ffffffffffffffffffffffffffffffffffffffff1681526020019081526020015f205f9054906101000a900460ff169050919050565b5f6004811115610e3157610e306133bf565b5b5f803373ffffffffffffffffffffffffffffffffffffffff1673ffffffffffffffffffffffffffffffffffffffff1681526020019081526020015f205f9054906101000a900460ff166004811115610e8c57610e8b6133bf565b5b14610ecc576040517f08c379a0000000000000000000000000000000000000000000000000000000008152600401610ec3906137c0565b60405180910390fd5b5f6003811115610edf57610ede6133bf565b5b60015f3373ffffffffffffffffffffffffffffffffffffffff1673ffffffffffffffffffffffffffffffffffffffff1681526020019081526020015f206001015f9054906101000a900460ff166003811115610f3e57610f3d6133bf565b5b14610f7e576040517f08c379a0000000000000000000000000000000000000000000000000000000008152600401610f7590613af1565b60405180910390fd5b604051806040016040528082815260200160016003811115610fa357610fa26133bf565b5b81525060015f3373ffffffffffffffffffffffffffffffffffffffff1673ffffffffffffffffffffffffffffffffffffffff1681526020019081526020015f205f820151815f019081610ff691906139d8565b506020820151816001015f6101000a81548160ff02191690836003811115611021576110206133bf565b5b0217905550905050600333908060018154018082558091505060019003905f5260205f20015f9091909190916101000a81548173ffffffffffffffffffffffffffffffffffffffff021916908373ffffffffffffffffffffffffffffffffffffffff1602179055503373ffffffffffffffffffffffffffffffffffffffff167f5c8e9edc72d072388931db2631b495f2ce13d46af59a06e2a24e0e514db7904b8260046040516110d2929190613b0f565b60405180910390a250565b6060805f60015f3373ffffffffffffffffffffffffffffffffffffffff1673ffffffffffffffffffffffffffffffffffffffff1681526020019081526020015f206040518060400160405290815f820180546111389061380b565b80601f01602080910402602001604051908101604052809291908181526020018280546111649061380b565b80156111af5780601f10611186576101008083540402835291602001916111af565b820191905f5260205f20905b81548152906001019060200180831161119257829003601f168201915b50505050508152602001600182015f9054906101000a900460ff1660038111156111dc576111db6133bf565b5b60038111156111ee576111ed6133bf565b5b81525050905060605f6003811115611209576112086133bf565b5b826020015160038111156112205761121f6133bf565b5b03611262576040518060400160405280600481526020017f4e6f6e650000000000000000000000000000000000000000000000000000000081525090506113a7565b60016003811115611276576112756133bf565b5b8260200151600381111561128d5761128c6133bf565b5b036112cf576040518060400160405280600781526020017f50656e64696e670000000000000000000000000000000000000000000000000081525090506113a6565b600260038111156112e3576112e26133bf565b5b826020015160038111156112fa576112f96133bf565b5b0361133c576040518060400160405280600881526020017f417070726f76656400000000000000000000000000000000000000000000000081525090506113a5565b60038081111561134f5761134e6133bf565b5b82602001516003811115611366576113656133bf565b5b036113a4576040518060400160405280600881526020017f52656a656374656400000000000000000000000000000000000000000000000081525090505b5b5b5b80825f01519350935050509091565b600681815481106113c5575f80fd5b905f5260205f2090600202015f91509050805f015f9054906101000a900473ffffffffffffffffffffffffffffffffffffffff1690805f0160149054906101000a900460ff169080600101805461141b9061380b565b80601f01602080910402602001604051908101604052809291908181526020018280546114479061380b565b80156114925780601f1061146957610100808354040283529160200191611492565b820191905f5260205f20905b81548152906001019060200180831161147557829003601f168201915b5050505050905083565b606060025f9054906101000a900473ffffffffffffffffffffffffffffffffffffffff1673ffffffffffffffffffffffffffffffffffffffff163373ffffffffffffffffffffffffffffffffffffffff161461152d576040517f08c379a0000000000000000000000000000000000000000000000000000000008152600401611524906136f0565b60405180910390fd5b60038054806020026020016040519081016040528092919081815260200182805480156115ac57602002820191905f5260205f20905b815f9054906101000a900473ffffffffffffffffffffffffffffffffffffffff1673ffffffffffffffffffffffffffffffffffffffff1681526020019060010190808311611563575b5050505050905090565b60025f9054906101000a900473ffffffffffffffffffffffffffffffffffffffff1673ffffffffffffffffffffffffffffffffffffffff163373ffffffffffffffffffffffffffffffffffffffff1614611645576040517f08c379a000000000000000000000000000000000000000000000000000000000815260040161163c906136f0565b60405180910390fd5b5f6004811115611658576116576133bf565b5b5f808373ffffffffffffffffffffffffffffffffffffffff1673ffffffffffffffffffffffffffffffffffffffff1681526020019081526020015f205f9054906101000a900460ff1660048111156116b3576116b26133bf565b5b036116f3576040517f08c379a00000000000000000000000000000000000000000000000000000000081526004016116ea90613b87565b60405180910390fd5b5f805f8373ffffffffffffffffffffffffffffffffffffffff1673ffffffffffffffffffffffffffffffffffffffff1681526020019081526020015f205f9054906101000a900460ff1690505f805f8473ffffffffffffffffffffffffffffffffffffffff1673ffffffffffffffffffffffffffffffffffffffff1681526020019081526020015f205f6101000a81548160ff0219169083600481111561179d5761179c6133bf565b5b02179055508173ffffffffffffffffffffffffffffffffffffffff167f34a1009b84e077aee5bc8197faf7105e54f9ba6879e2a51a716e4156ea9ad769826040516117e891906134e7565b60405180910390a25050565b60025f9054906101000a900473ffffffffffffffffffffffffffffffffffffffff1673ffffffffffffffffffffffffffffffffffffffff163373ffffffffffffffffffffffffffffffffffffffff1614611883576040517f08c379a000000000000000000000000000000000000000000000000000000000815260040161187a906136f0565b60405180910390fd5b60016003811115611897576118966133bf565b5b60015f8373ffffffffffffffffffffffffffffffffffffffff1673ffffffffffffffffffffffffffffffffffffffff1681526020019081526020015f206001015f9054906101000a900460ff1660038111156118f6576118f56133bf565b5b14611936576040517f08c379a000000000000000000000000000000000000000000000000000000000815260040161192d90613758565b60405180910390fd5b5f6004811115611949576119486133bf565b5b5f808373ffffffffffffffffffffffffffffffffffffffff1673ffffffffffffffffffffffffffffffffffffffff1681526020019081526020015f205f9054906101000a900460ff1660048111156119a4576119a36133bf565b5b146119e4576040517f08c379a00000000000000000000000000000000000000000000000000000000081526004016119db906137c0565b60405180910390fd5b60035f808373ffffffffffffffffffffffffffffffffffffffff1673ffffffffffffffffffffffffffffffffffffffff1681526020019081526020015f205f6101000a81548160ff02191690836004811115611a4357611a426133bf565b5b0217905550600260015f8373ffffffffffffffffffffffffffffffffffffffff1673ffffffffffffffffffffffffffffffffffffffff1681526020019081526020015f206001015f6101000a81548160ff02191690836003811115611aab57611aaa6133bf565b5b0217905550600660405180606001604052808373ffffffffffffffffffffffffffffffffffffffff16815260200160036004811115611aed57611aec6133bf565b5b815260200160015f8573ffffffffffffffffffffffffffffffffffffffff1673ffffffffffffffffffffffffffffffffffffffff1681526020019081526020015f205f018054611b3c9061380b565b80601f0160208091040260200160405190810160405280929190818152602001828054611b689061380b565b8015611bb35780601f10611b8a57610100808354040283529160200191611bb3565b820191905f5260205f20905b815481529060010190602001808311611b9657829003601f168201915b5050505050815250908060018154018082558091505060019003905f5260205f2090600202015f909190919091505f820151815f015f6101000a81548173ffffffffffffffffffffffffffffffffffffffff021916908373ffffffffffffffffffffffffffffffffffffffff1602179055506020820151815f0160146101000a81548160ff02191690836004811115611c4f57611c4e6133bf565b5b02179055506040820151816001019081611c6991906139d8565b505050611c7581612fbc565b8073ffffffffffffffffffffffffffffffffffffffff167f042f52f18ca9258767cef802b6283a39f6c1053fbd02bee367edc363da679f866003604051611cbc91906134e7565b60405180910390a250565b60025f9054906101000a900473ffffffffffffffffffffffffffffffffffffffff1673ffffffffffffffffffffffffffffffffffffffff163373ffffffffffffffffffffffffffffffffffffffff1614611d56576040517f08c379a0000000000000000000000000000000000000000000000000000000008152600401611d4d906136f0565b60405180910390fd5b60016003811115611d6a57611d696133bf565b5b60015f8373ffffffffffffffffffffffffffffffffffffffff1673ffffffffffffffffffffffffffffffffffffffff1681526020019081526020015f206001015f9054906101000a900460ff166003811115611dc957611dc86133bf565b5b14611e09576040517f08c379a0000000000000000000000000000000000000000000000000000000008152600401611e0090613758565b60405180910390fd5b5f6004811115611e1c57611e1b6133bf565b5b5f808373ffffffffffffffffffffffffffffffffffffffff1673ffffffffffffffffffffffffffffffffffffffff1681526020019081526020015f205f9054906101000a900460ff166004811115611e7757611e766133bf565b5b14611eb7576040517f08c379a0000000000000000000000000000000000000000000000000000000008152600401611eae906137c0565b60405180910390fd5b60015f808373ffffffffffffffffffffffffffffffffffffffff1673ffffffffffffffffffffffffffffffffffffffff1681526020019081526020015f205f6101000a81548160ff02191690836004811115611f1657611f156133bf565b5b0217905550600260015f8373ffffffffffffffffffffffffffffffffffffffff1673ffffffffffffffffffffffffffffffffffffffff1681526020019081526020015f206001015f6101000a81548160ff02191690836003811115611f7e57611f7d6133bf565b5b0217905550600460405180606001604052808373ffffffffffffffffffffffffffffffffffffffff16815260200160016004811115611fc057611fbf6133bf565b5b815260200160015f8573ffffffffffffffffffffffffffffffffffffffff1673ffffffffffffffffffffffffffffffffffffffff1681526020019081526020015f205f01805461200f9061380b565b80601f016020809104026020016040519081016040528092919081815260200182805461203b9061380b565b80156120865780601f1061205d57610100808354040283529160200191612086565b820191905f5260205f20905b81548152906001019060200180831161206957829003601f168201915b5050505050815250908060018154018082558091505060019003905f5260205f2090600202015f909190919091505f820151815f015f6101000a81548173ffffffffffffffffffffffffffffffffffffffff021916908373ffffffffffffffffffffffffffffffffffffffff1602179055506020820151815f0160146101000a81548160ff02191690836004811115612122576121216133bf565b5b0217905550604082015181600101908161213c91906139d8565b50505061214881612fbc565b8073ffffffffffffffffffffffffffffffffffffffff167f042f52f18ca9258767cef802b6283a39f6c1053fbd02bee367edc363da679f86600160405161218f91906134e7565b60405180910390a250565b5f602052805f5260405f205f915054906101000a900460ff1681565b5f60048111156121c9576121c86133bf565b5b5f803373ffffffffffffffffffffffffffffffffffffffff1673ffffffffffffffffffffffffffffffffffffffff1681526020019081526020015f205f9054906101000a900460ff166004811115612224576122236133bf565b5b14612264576040517f08c379a000000000000000000000000000000000000000000000000000000000815260040161225b906137c0565b60405180910390fd5b5f6003811115612277576122766133bf565b5b60015f3373ffffffffffffffffffffffffffffffffffffffff1673ffffffffffffffffffffffffffffffffffffffff1681526020019081526020015f206001015f9054906101000a900460ff1660038111156122d6576122d56133bf565b5b14612316576040517f08c379a000000000000000000000000000000000000000000000000000000000815260040161230d90613af1565b60405180910390fd5b60405180604001604052808281526020016001600381111561233b5761233a6133bf565b5b81525060015f3373ffffffffffffffffffffffffffffffffffffffff1673ffffffffffffffffffffffffffffffffffffffff1681526020019081526020015f205f820151815f01908161238e91906139d8565b506020820151816001015f6101000a81548160ff021916908360038111156123b9576123b86133bf565b5b0217905550905050600333908060018154018082558091505060019003905f5260205f20015f9091909190916101000a81548173ffffffffffffffffffffffffffffffffffffffff021916908373ffffffffffffffffffffffffffffffffffffffff1602179055503373ffffffffffffffffffffffffffffffffffffffff167f5c8e9edc72d072388931db2631b495f2ce13d46af59a06e2a24e0e514db7904b82600360405161246a929190613b0f565b60405180910390a250565b5f6004811115612488576124876133bf565b5b5f803373ffffffffffffffffffffffffffffffffffffffff1673ffffffffffffffffffffffffffffffffffffffff1681526020019081526020015f205f9054906101000a900460ff1660048111156124e3576124e26133bf565b5b14612523576040517f08c379a000000000000000000000000000000000000000000000000000000000815260040161251a906137c0565b60405180910390fd5b5f6003811115612536576125356133bf565b5b60015f3373ffffffffffffffffffffffffffffffffffffffff1673ffffffffffffffffffffffffffffffffffffffff1681526020019081526020015f206001015f9054906101000a900460ff166003811115612595576125946133bf565b5b146125d5576040517f08c379a00000000000000000000000000000000000000000000000000000000081526004016125cc90613af1565b60405180910390fd5b6040518060400160405280828152602001600160038111156125fa576125f96133bf565b5b81525060015f3373ffffffffffffffffffffffffffffffffffffffff1673ffffffffffffffffffffffffffffffffffffffff1681526020019081526020015f205f820151815f01908161264d91906139d8565b506020820151816001015f6101000a81548160ff02191690836003811115612678576126776133bf565b5b0217905550905050600333908060018154018082558091505060019003905f5260205f20015f9091909190916101000a81548173ffffffffffffffffffffffffffffffffffffffff021916908373ffffffffffffffffffffffffffffffffffffffff1602179055503373ffffffffffffffffffffffffffffffffffffffff167f5c8e9edc72d072388931db2631b495f2ce13d46af59a06e2a24e0e514db7904b826002604051612729929190613b0f565b60405180910390a250565b6001602052805f5260405f205f91509050805f0180546127539061380b565b80601f016020809104026020016040519081016040528092919081815260200182805461277f9061380b565b80156127ca5780601f106127a1576101008083540402835291602001916127ca565b820191905f5260205f20905b8154815290600101906020018083116127ad57829003601f168201915b505050505090806001015f9054906101000a900460ff16905082565b60025f9054906101000a900473ffffffffffffffffffffffffffffffffffffffff1673ffffffffffffffffffffffffffffffffffffffff163373ffffffffffffffffffffffffffffffffffffffff1614612875576040517f08c379a000000000000000000000000000000000000000000000000000000000815260040161286c906136f0565b60405180910390fd5b60016003811115612889576128886133bf565b5b60015f8373ffffffffffffffffffffffffffffffffffffffff1673ffffffffffffffffffffffffffffffffffffffff1681526020019081526020015f206001015f9054906101000a900460ff1660038111156128e8576128e76133bf565b5b14612928576040517f08c379a000000000000000000000000000000000000000000000000000000000815260040161291f90613758565b60405180910390fd5b5f600481111561293b5761293a6133bf565b5b5f808373ffffffffffffffffffffffffffffffffffffffff1673ffffffffffffffffffffffffffffffffffffffff1681526020019081526020015f205f9054906101000a900460ff166004811115612996576129956133bf565b5b146129d6576040517f08c379a00000000000000000000000000000000000000000000000000000000081526004016129cd906137c0565b60405180910390fd5b60045f808373ffffffffffffffffffffffffffffffffffffffff1673ffffffffffffffffffffffffffffffffffffffff1681526020019081526020015f205f6101000a81548160ff02191690836004811115612a3557612a346133bf565b5b0217905550600260015f8373ffffffffffffffffffffffffffffffffffffffff1673ffffffffffffffffffffffffffffffffffffffff1681526020019081526020015f206001015f6101000a81548160ff02191690836003811115612a9d57612a9c6133bf565b5b0217905550600760405180606001604052808373ffffffffffffffffffffffffffffffffffffffff168152602001600480811115612ade57612add6133bf565b5b815260200160015f8573ffffffffffffffffffffffffffffffffffffffff1673ffffffffffffffffffffffffffffffffffffffff1681526020019081526020015f205f018054612b2d9061380b565b80601f0160208091040260200160405190810160405280929190818152602001828054612b599061380b565b8015612ba45780601f10612b7b57610100808354040283529160200191612ba4565b820191905f5260205f20905b815481529060010190602001808311612b8757829003601f168201915b5050505050815250908060018154018082558091505060019003905f5260205f2090600202015f909190919091505f820151815f015f6101000a81548173ffffffffffffffffffffffffffffffffffffffff021916908373ffffffffffffffffffffffffffffffffffffffff1602179055506020820151815f0160146101000a81548160ff02191690836004811115612c4057612c3f6133bf565b5b02179055506040820151816001019081612c5a91906139d8565b505050612c6681612fbc565b8073ffffffffffffffffffffffffffffffffffffffff167f042f52f18ca9258767cef802b6283a39f6c1053fbd02bee367edc363da679f866004604051612cad91906134e7565b60405180910390a250565b60025f9054906101000a900473ffffffffffffffffffffffffffffffffffffffff1673ffffffffffffffffffffffffffffffffffffffff163373ffffffffffffffffffffffffffffffffffffffff1614612d47576040517f08c379a0000000000000000000000000000000000000000000000000000000008152600401612d3e906136f0565b60405180910390fd5b60016003811115612d5b57612d5a6133bf565b5b60015f8373ffffffffffffffffffffffffffffffffffffffff1673ffffffffffffffffffffffffffffffffffffffff1681526020019081526020015f206001015f9054906101000a900460ff166003811115612dba57612db96133bf565b5b14612dfa576040517f08c379a0000000000000000000000000000000000000000000000000000000008152600401612df190613bef565b60405180910390fd5b600360015f8373ffffffffffffffffffffffffffffffffffffffff1673ffffffffffffffffffffffffffffffffffffffff1681526020019081526020015f206001015f6101000a81548160ff02191690836003811115612e5d57612e5c6133bf565b5b0217905550612e6b81612fbc565b8073ffffffffffffffffffffffffffffffffffffffff167f82b1566ce0bdfb0cfb0387f61899ebef3513a2a7718d2a3ba352becb8f32ebdd60405160405180910390a250565b60058181548110612ec0575f80fd5b905f5260205f2090600202015f91509050805f015f9054906101000a900473ffffffffffffffffffffffffffffffffffffffff1690805f0160149054906101000a900460ff1690806001018054612f169061380b565b80601f0160208091040260200160405190810160405280929190818152602001828054612f429061380b565b8015612f8d5780601f10612f6457610100808354040283529160200191612f8d565b820191905f5260205f20905b815481529060010190602001808311612f7057829003601f168201915b5050505050905083565b60025f9054906101000a900473ffffffffffffffffffffffffffffffffffffffff1681565b5f5b600380549050811015613135578173ffffffffffffffffffffffffffffffffffffffff1660038281548110612ff657612ff5613c0d565b5b905f5260205f20015f9054906101000a900473ffffffffffffffffffffffffffffffffffffffff1673ffffffffffffffffffffffffffffffffffffffff1603613128576003600160038054905061304d9190613c67565b8154811061305e5761305d613c0d565b5b905f5260205f20015f9054906101000a900473ffffffffffffffffffffffffffffffffffffffff166003828154811061309a57613099613c0d565b5b905f5260205f20015f6101000a81548173ffffffffffffffffffffffffffffffffffffffff021916908373ffffffffffffffffffffffffffffffffffffffff16021790555060038054806130f1576130f0613c9a565b5b600190038181905f5260205f20015f6101000a81549073ffffffffffffffffffffffffffffffffffffffff02191690559055613135565b8080600101915050612fbe565b5050565b5f604051905090565b5f80fd5b5f80fd5b5f73ffffffffffffffffffffffffffffffffffffffff82169050919050565b5f6131738261314a565b9050919050565b61318381613169565b811461318d575f80fd5b50565b5f8135905061319e8161317a565b92915050565b5f602082840312156131b9576131b8613142565b5b5f6131c684828501613190565b91505092915050565b5f80fd5b5f80fd5b5f601f19601f8301169050919050565b7f4e487b71000000000000000000000000000000000000000000000000000000005f52604160045260245ffd5b61321d826131d7565b810181811067ffffffffffffffff8211171561323c5761323b6131e7565b5b80604052505050565b5f61324e613139565b905061325a8282613214565b919050565b5f67ffffffffffffffff821115613279576132786131e7565b5b613282826131d7565b9050602081019050919050565b828183375f83830152505050565b5f6132af6132aa8461325f565b613245565b9050828152602081018484840111156132cb576132ca6131d3565b5b6132d684828561328f565b509392505050565b5f82601f8301126132f2576132f16131cf565b5b813561330284826020860161329d565b91505092915050565b5f602082840312156133205761331f613142565b5b5f82013567ffffffffffffffff81111561333d5761333c613146565b5b613349848285016132de565b91505092915050565b5f819050919050565b61336481613352565b811461336e575f80fd5b50565b5f8135905061337f8161335b565b92915050565b5f6020828403121561339a57613399613142565b5b5f6133a784828501613371565b91505092915050565b6133b981613169565b82525050565b7f4e487b71000000000000000000000000000000000000000000000000000000005f52602160045260245ffd5b600581106133fd576133fc6133bf565b5b50565b5f81905061340d826133ec565b919050565b5f61341c82613400565b9050919050565b61342c81613412565b82525050565b5f81519050919050565b5f82825260208201905092915050565b8281835e5f83830152505050565b5f61346482613432565b61346e818561343c565b935061347e81856020860161344c565b613487816131d7565b840191505092915050565b5f6060820190506134a55f8301866133b0565b6134b26020830185613423565b81810360408301526134c4818461345a565b9050949350505050565b5f6020820190506134e15f8301846133b0565b92915050565b5f6020820190506134fa5f830184613423565b92915050565b5f6040820190508181035f830152613518818561345a565b9050818103602083015261352c818461345a565b90509392505050565b5f81519050919050565b5f82825260208201905092915050565b5f819050602082019050919050565b61356781613169565b82525050565b5f613578838361355e565b60208301905092915050565b5f602082019050919050565b5f61359a82613535565b6135a4818561353f565b93506135af8361354f565b805f5b838110156135df5781516135c6888261356d565b97506135d183613584565b9250506001810190506135b2565b5085935050505092915050565b5f6020820190508181035f8301526136048184613590565b905092915050565b6004811061361d5761361c6133bf565b5b50565b5f81905061362d8261360c565b919050565b5f61363c82613620565b9050919050565b61364c81613632565b82525050565b5f6040820190508181035f83015261366a818561345a565b90506136796020830184613643565b9392505050565b7f4f6e6c792061646d696e2063616e20706572666f726d207468697320616374695f8201527f6f6e000000000000000000000000000000000000000000000000000000000000602082015250565b5f6136da60228361343c565b91506136e582613680565b604082019050919050565b5f6020820190508181035f830152613707816136ce565b9050919050565b7f4e6f207265717565737420746f207665726966790000000000000000000000005f82015250565b5f61374260148361343c565b915061374d8261370e565b602082019050919050565b5f6020820190508181035f83015261376f81613736565b9050919050565b7f526f6c6520616c72656164792061737369676e656400000000000000000000005f82015250565b5f6137aa60158361343c565b91506137b582613776565b602082019050919050565b5f6020820190508181035f8301526137d78161379e565b9050919050565b7f4e487b71000000000000000000000000000000000000000000000000000000005f52602260045260245ffd5b5f600282049050600182168061382257607f821691505b602082108103613835576138346137de565b5b50919050565b5f819050815f5260205f209050919050565b5f6020601f8301049050919050565b5f82821b905092915050565b5f600883026138977fffffffffffffffffffffffffffffffffffffffffffffffffffffffffffffffff8261385c565b6138a1868361385c565b95508019841693508086168417925050509392505050565b5f819050919050565b5f6138dc6138d76138d284613352565b6138b9565b613352565b9050919050565b5f819050919050565b6138f5836138c2565b613909613901826138e3565b848454613868565b825550505050565b5f90565b61391d613911565b6139288184846138ec565b505050565b5b8181101561394b576139405f82613915565b60018101905061392e565b5050565b601f821115613990576139618161383b565b61396a8461384d565b81016020851015613979578190505b61398d6139858561384d565b83018261392d565b50505b505050565b5f82821c905092915050565b5f6139b05f1984600802613995565b1980831691505092915050565b5f6139c883836139a1565b9150826002028217905092915050565b6139e182613432565b67ffffffffffffffff8111156139fa576139f96131e7565b5b613a04825461380b565b613a0f82828561394f565b5f60209050601f831160018114613a40575f8415613a2e578287015190505b613a3885826139bd565b865550613a9f565b601f198416613a4e8661383b565b5f5b82811015613a7557848901518255600182019150602085019450602081019050613a50565b86831015613a925784890151613a8e601f8916826139a1565b8355505b6001600288020188555050505b505050505050565b7f526f6c65207265717565737420616c72656164792070656e64696e67000000005f82015250565b5f613adb601c8361343c565b9150613ae682613aa7565b602082019050919050565b5f6020820190508181035f830152613b0881613acf565b9050919050565b5f6040820190508181035f830152613b27818561345a565b9050613b366020830184613423565b9392505050565b7f5573657220686173206e6f2061737369676e656420726f6c65000000000000005f82015250565b5f613b7160198361343c565b9150613b7c82613b3d565b602082019050919050565b5f6020820190508181035f830152613b9e81613b65565b9050919050565b7f4e6f207265717565737420746f2072656a6563740000000000000000000000005f82015250565b5f613bd960148361343c565b9150613be482613ba5565b602082019050919050565b5f6020820190508181035f830152613c0681613bcd565b9050919050565b7f4e487b71000000000000000000000000000000000000000000000000000000005f52603260045260245ffd5b7f4e487b71000000000000000000000000000000000000000000000000000000005f52601160045260245ffd5b5f613c7182613352565b9150613c7c83613352565b9250828203905081811115613c9457613c93613c3a565b5b92915050565b7f4e487b71000000000000000000000000000000000000000000000000000000005f52603160045260245ffdfea2646970667358221220117fd183afe79abbe1c13b663f6216fa7e1d2cfe9ca2a1e0225792939bd0ba4164736f6c634300081a0033",
					"opcodes": "PUSH1 0x80 PUSH1 0x40 MSTORE CALLVALUE DUP1 ISZERO PUSH1 0xE JUMPI PUSH0 DUP1 REVERT JUMPDEST POP CALLER PUSH1 0x2 PUSH0 PUSH2 0x100 EXP DUP2 SLOAD DUP2 PUSH20 0xFFFFFFFFFFFFFFFFFFFFFFFFFFFFFFFFFFFFFFFF MUL NOT AND SWAP1 DUP4 PUSH20 0xFFFFFFFFFFFFFFFFFFFFFFFFFFFFFFFFFFFFFFFF AND MUL OR SWAP1 SSTORE POP PUSH2 0x3CFD DUP1 PUSH2 0x5C PUSH0 CODECOPY PUSH0 RETURN INVALID PUSH1 0x80 PUSH1 0x40 MSTORE CALLVALUE DUP1 ISZERO PUSH2 0xF JUMPI PUSH0 DUP1 REVERT JUMPDEST POP PUSH1 0x4 CALLDATASIZE LT PUSH2 0x134 JUMPI PUSH0 CALLDATALOAD PUSH1 0xE0 SHR DUP1 PUSH4 0x80E52E3F GT PUSH2 0xB6 JUMPI DUP1 PUSH4 0xC11DF8E7 GT PUSH2 0x7A JUMPI DUP1 PUSH4 0xC11DF8E7 EQ PUSH2 0x35F JUMPI DUP1 PUSH4 0xD1061FEF EQ PUSH2 0x37B JUMPI DUP1 PUSH4 0xDF2CA8D0 EQ PUSH2 0x3AC JUMPI DUP1 PUSH4 0xE1023B88 EQ PUSH2 0x3C8 JUMPI DUP1 PUSH4 0xF04F8DE7 EQ PUSH2 0x3E4 JUMPI DUP1 PUSH4 0xF851A440 EQ PUSH2 0x416 JUMPI PUSH2 0x134 JUMP JUMPDEST DUP1 PUSH4 0x80E52E3F EQ PUSH2 0x2BF JUMPI DUP1 PUSH4 0x893C94D6 EQ PUSH2 0x2DB JUMPI DUP1 PUSH4 0x8F81779F EQ PUSH2 0x2F7 JUMPI DUP1 PUSH4 0x99374642 EQ PUSH2 0x313 JUMPI DUP1 PUSH4 0xB3D41F95 EQ PUSH2 0x343 JUMPI PUSH2 0x134 JUMP JUMPDEST DUP1 PUSH4 0x44276733 GT PUSH2 0xFD JUMPI DUP1 PUSH4 0x44276733 EQ PUSH2 0x204 JUMPI DUP1 PUSH4 0x6EDC684F EQ PUSH2 0x234 JUMPI DUP1 PUSH4 0x7253575D EQ PUSH2 0x250 JUMPI DUP1 PUSH4 0x772E50BF EQ PUSH2 0x26F JUMPI DUP1 PUSH4 0x80A1F712 EQ PUSH2 0x2A1 JUMPI PUSH2 0x134 JUMP JUMPDEST DUP1 PUSH3 0xC00016 EQ PUSH2 0x138 JUMPI DUP1 PUSH4 0x14C9FB0C EQ PUSH2 0x154 JUMPI DUP1 PUSH4 0x1D5B9A73 EQ PUSH2 0x170 JUMPI DUP1 PUSH4 0x33B7FA5E EQ PUSH2 0x1A2 JUMPI DUP1 PUSH4 0x3C652A9A EQ PUSH2 0x1D4 JUMPI JUMPDEST PUSH0 DUP1 REVERT JUMPDEST PUSH2 0x152 PUSH1 0x4 DUP1 CALLDATASIZE SUB DUP2 ADD SWAP1 PUSH2 0x14D SWAP2 SWAP1 PUSH2 0x31A4 JUMP JUMPDEST PUSH2 0x434 JUMP JUMPDEST STOP JUMPDEST PUSH2 0x16E PUSH1 0x4 DUP1 CALLDATASIZE SUB DUP2 ADD SWAP1 PUSH2 0x169 SWAP2 SWAP1 PUSH2 0x330B JUMP JUMPDEST PUSH2 0x907 JUMP JUMPDEST STOP JUMPDEST PUSH2 0x18A PUSH1 0x4 DUP1 CALLDATASIZE SUB DUP2 ADD SWAP1 PUSH2 0x185 SWAP2 SWAP1 PUSH2 0x3385 JUMP JUMPDEST PUSH2 0xBC6 JUMP JUMPDEST PUSH1 0x40 MLOAD PUSH2 0x199 SWAP4 SWAP3 SWAP2 SWAP1 PUSH2 0x3492 JUMP JUMPDEST PUSH1 0x40 MLOAD DUP1 SWAP2 SUB SWAP1 RETURN JUMPDEST PUSH2 0x1BC PUSH1 0x4 DUP1 CALLDATASIZE SUB DUP2 ADD SWAP1 PUSH2 0x1B7 SWAP2 SWAP1 PUSH2 0x3385 JUMP JUMPDEST PUSH2 0xCAC JUMP JUMPDEST PUSH1 0x40 MLOAD PUSH2 0x1CB SWAP4 SWAP3 SWAP2 SWAP1 PUSH2 0x3492 JUMP JUMPDEST PUSH1 0x40 MLOAD DUP1 SWAP2 SUB SWAP1 RETURN JUMPDEST PUSH2 0x1EE PUSH1 0x4 DUP1 CALLDATASIZE SUB DUP2 ADD SWAP1 PUSH2 0x1E9 SWAP2 SWAP1 PUSH2 0x3385 JUMP JUMPDEST PUSH2 0xD92 JUMP JUMPDEST PUSH1 0x40 MLOAD PUSH2 0x1FB SWAP2 SWAP1 PUSH2 0x34CE JUMP JUMPDEST PUSH1 0x40 MLOAD DUP1 SWAP2 SUB SWAP1 RETURN JUMPDEST PUSH2 0x21E PUSH1 0x4 DUP1 CALLDATASIZE SUB DUP2 ADD SWAP1 PUSH2 0x219 SWAP2 SWAP1 PUSH2 0x31A4 JUMP JUMPDEST PUSH2 0xDCD JUMP JUMPDEST PUSH1 0x40 MLOAD PUSH2 0x22B SWAP2 SWAP1 PUSH2 0x34E7 JUMP JUMPDEST PUSH1 0x40 MLOAD DUP1 SWAP2 SUB SWAP1 RETURN JUMPDEST PUSH2 0x24E PUSH1 0x4 DUP1 CALLDATASIZE SUB DUP2 ADD SWAP1 PUSH2 0x249 SWAP2 SWAP1 PUSH2 0x330B JUMP JUMPDEST PUSH2 0xE1E JUMP JUMPDEST STOP JUMPDEST PUSH2 0x258 PUSH2 0x10DD JUMP JUMPDEST PUSH1 0x40 MLOAD PUSH2 0x266 SWAP3 SWAP2 SWAP1 PUSH2 0x3500 JUMP JUMPDEST PUSH1 0x40 MLOAD DUP1 SWAP2 SUB SWAP1 RETURN JUMPDEST PUSH2 0x289 PUSH1 0x4 DUP1 CALLDATASIZE SUB DUP2 ADD SWAP1 PUSH2 0x284 SWAP2 SWAP1 PUSH2 0x3385 JUMP JUMPDEST PUSH2 0x13B6 JUMP JUMPDEST PUSH1 0x40 MLOAD PUSH2 0x298 SWAP4 SWAP3 SWAP2 SWAP1 PUSH2 0x3492 JUMP JUMPDEST PUSH1 0x40 MLOAD DUP1 SWAP2 SUB SWAP1 RETURN JUMPDEST PUSH2 0x2A9 PUSH2 0x149C JUMP JUMPDEST PUSH1 0x40 MLOAD PUSH2 0x2B6 SWAP2 SWAP1 PUSH2 0x35EC JUMP JUMPDEST PUSH1 0x40 MLOAD DUP1 SWAP2 SUB SWAP1 RETURN JUMPDEST PUSH2 0x2D9 PUSH1 0x4 DUP1 CALLDATASIZE SUB DUP2 ADD SWAP1 PUSH2 0x2D4 SWAP2 SWAP1 PUSH2 0x31A4 JUMP JUMPDEST PUSH2 0x15B6 JUMP JUMPDEST STOP JUMPDEST PUSH2 0x2F5 PUSH1 0x4 DUP1 CALLDATASIZE SUB DUP2 ADD SWAP1 PUSH2 0x2F0 SWAP2 SWAP1 PUSH2 0x31A4 JUMP JUMPDEST PUSH2 0x17F4 JUMP JUMPDEST STOP JUMPDEST PUSH2 0x311 PUSH1 0x4 DUP1 CALLDATASIZE SUB DUP2 ADD SWAP1 PUSH2 0x30C SWAP2 SWAP1 PUSH2 0x31A4 JUMP JUMPDEST PUSH2 0x1CC7 JUMP JUMPDEST STOP JUMPDEST PUSH2 0x32D PUSH1 0x4 DUP1 CALLDATASIZE SUB DUP2 ADD SWAP1 PUSH2 0x328 SWAP2 SWAP1 PUSH2 0x31A4 JUMP JUMPDEST PUSH2 0x219A JUMP JUMPDEST PUSH1 0x40 MLOAD PUSH2 0x33A SWAP2 SWAP1 PUSH2 0x34E7 JUMP JUMPDEST PUSH1 0x40 MLOAD DUP1 SWAP2 SUB SWAP1 RETURN JUMPDEST PUSH2 0x35D PUSH1 0x4 DUP1 CALLDATASIZE SUB DUP2 ADD SWAP1 PUSH2 0x358 SWAP2 SWAP1 PUSH2 0x330B JUMP JUMPDEST PUSH2 0x21B6 JUMP JUMPDEST STOP JUMPDEST PUSH2 0x379 PUSH1 0x4 DUP1 CALLDATASIZE SUB DUP2 ADD SWAP1 PUSH2 0x374 SWAP2 SWAP1 PUSH2 0x330B JUMP JUMPDEST PUSH2 0x2475 JUMP JUMPDEST STOP JUMPDEST PUSH2 0x395 PUSH1 0x4 DUP1 CALLDATASIZE SUB DUP2 ADD SWAP1 PUSH2 0x390 SWAP2 SWAP1 PUSH2 0x31A4 JUMP JUMPDEST PUSH2 0x2734 JUMP JUMPDEST PUSH1 0x40 MLOAD PUSH2 0x3A3 SWAP3 SWAP2 SWAP1 PUSH2 0x3652 JUMP JUMPDEST PUSH1 0x40 MLOAD DUP1 SWAP2 SUB SWAP1 RETURN JUMPDEST PUSH2 0x3C6 PUSH1 0x4 DUP1 CALLDATASIZE SUB DUP2 ADD SWAP1 PUSH2 0x3C1 SWAP2 SWAP1 PUSH2 0x31A4 JUMP JUMPDEST PUSH2 0x27E6 JUMP JUMPDEST STOP JUMPDEST PUSH2 0x3E2 PUSH1 0x4 DUP1 CALLDATASIZE SUB DUP2 ADD SWAP1 PUSH2 0x3DD SWAP2 SWAP1 PUSH2 0x31A4 JUMP JUMPDEST PUSH2 0x2CB8 JUMP JUMPDEST STOP JUMPDEST PUSH2 0x3FE PUSH1 0x4 DUP1 CALLDATASIZE SUB DUP2 ADD SWAP1 PUSH2 0x3F9 SWAP2 SWAP1 PUSH2 0x3385 JUMP JUMPDEST PUSH2 0x2EB1 JUMP JUMPDEST PUSH1 0x40 MLOAD PUSH2 0x40D SWAP4 SWAP3 SWAP2 SWAP1 PUSH2 0x3492 JUMP JUMPDEST PUSH1 0x40 MLOAD DUP1 SWAP2 SUB SWAP1 RETURN JUMPDEST PUSH2 0x41E PUSH2 0x2F97 JUMP JUMPDEST PUSH1 0x40 MLOAD PUSH2 0x42B SWAP2 SWAP1 PUSH2 0x34CE JUMP JUMPDEST PUSH1 0x40 MLOAD DUP1 SWAP2 SUB SWAP1 RETURN JUMPDEST PUSH1 0x2 PUSH0 SWAP1 SLOAD SWAP1 PUSH2 0x100 EXP SWAP1 DIV PUSH20 0xFFFFFFFFFFFFFFFFFFFFFFFFFFFFFFFFFFFFFFFF AND PUSH20 0xFFFFFFFFFFFFFFFFFFFFFFFFFFFFFFFFFFFFFFFF AND CALLER PUSH20 0xFFFFFFFFFFFFFFFFFFFFFFFFFFFFFFFFFFFFFFFF AND EQ PUSH2 0x4C3 JUMPI PUSH1 0x40 MLOAD PUSH32 0x8C379A000000000000000000000000000000000000000000000000000000000 DUP2 MSTORE PUSH1 0x4 ADD PUSH2 0x4BA SWAP1 PUSH2 0x36F0 JUMP JUMPDEST PUSH1 0x40 MLOAD DUP1 SWAP2 SUB SWAP1 REVERT JUMPDEST PUSH1 0x1 PUSH1 0x3 DUP2 GT ISZERO PUSH2 0x4D7 JUMPI PUSH2 0x4D6 PUSH2 0x33BF JUMP JUMPDEST JUMPDEST PUSH1 0x1 PUSH0 DUP4 PUSH20 0xFFFFFFFFFFFFFFFFFFFFFFFFFFFFFFFFFFFFFFFF AND PUSH20 0xFFFFFFFFFFFFFFFFFFFFFFFFFFFFFFFFFFFFFFFF AND DUP2 MSTORE PUSH1 0x20 ADD SWAP1 DUP2 MSTORE PUSH1 0x20 ADD PUSH0 KECCAK256 PUSH1 0x1 ADD PUSH0 SWAP1 SLOAD SWAP1 PUSH2 0x100 EXP SWAP1 DIV PUSH1 0xFF AND PUSH1 0x3 DUP2 GT ISZERO PUSH2 0x536 JUMPI PUSH2 0x535 PUSH2 0x33BF JUMP JUMPDEST JUMPDEST EQ PUSH2 0x576 JUMPI PUSH1 0x40 MLOAD PUSH32 0x8C379A000000000000000000000000000000000000000000000000000000000 DUP2 MSTORE PUSH1 0x4 ADD PUSH2 0x56D SWAP1 PUSH2 0x3758 JUMP JUMPDEST PUSH1 0x40 MLOAD DUP1 SWAP2 SUB SWAP1 REVERT JUMPDEST PUSH0 PUSH1 0x4 DUP2 GT ISZERO PUSH2 0x589 JUMPI PUSH2 0x588 PUSH2 0x33BF JUMP JUMPDEST JUMPDEST PUSH0 DUP1 DUP4 PUSH20 0xFFFFFFFFFFFFFFFFFFFFFFFFFFFFFFFFFFFFFFFF AND PUSH20 0xFFFFFFFFFFFFFFFFFFFFFFFFFFFFFFFFFFFFFFFF AND DUP2 MSTORE PUSH1 0x20 ADD SWAP1 DUP2 MSTORE PUSH1 0x20 ADD PUSH0 KECCAK256 PUSH0 SWAP1 SLOAD SWAP1 PUSH2 0x100 EXP SWAP1 DIV PUSH1 0xFF AND PUSH1 0x4 DUP2 GT ISZERO PUSH2 0x5E4 JUMPI PUSH2 0x5E3 PUSH2 0x33BF JUMP JUMPDEST JUMPDEST EQ PUSH2 0x624 JUMPI PUSH1 0x40 MLOAD PUSH32 0x8C379A000000000000000000000000000000000000000000000000000000000 DUP2 MSTORE PUSH1 0x4 ADD PUSH2 0x61B SWAP1 PUSH2 0x37C0 JUMP JUMPDEST PUSH1 0x40 MLOAD DUP1 SWAP2 SUB SWAP1 REVERT JUMPDEST PUSH1 0x2 PUSH0 DUP1 DUP4 PUSH20 0xFFFFFFFFFFFFFFFFFFFFFFFFFFFFFFFFFFFFFFFF AND PUSH20 0xFFFFFFFFFFFFFFFFFFFFFFFFFFFFFFFFFFFFFFFF AND DUP2 MSTORE PUSH1 0x20 ADD SWAP1 DUP2 MSTORE PUSH1 0x20 ADD PUSH0 KECCAK256 PUSH0 PUSH2 0x100 EXP DUP2 SLOAD DUP2 PUSH1 0xFF MUL NOT AND SWAP1 DUP4 PUSH1 0x4 DUP2 GT ISZERO PUSH2 0x683 JUMPI PUSH2 0x682 PUSH2 0x33BF JUMP JUMPDEST JUMPDEST MUL OR SWAP1 SSTORE POP PUSH1 0x2 PUSH1 0x1 PUSH0 DUP4 PUSH20 0xFFFFFFFFFFFFFFFFFFFFFFFFFFFFFFFFFFFFFFFF AND PUSH20 0xFFFFFFFFFFFFFFFFFFFFFFFFFFFFFFFFFFFFFFFF AND DUP2 MSTORE PUSH1 0x20 ADD SWAP1 DUP2 MSTORE PUSH1 0x20 ADD PUSH0 KECCAK256 PUSH1 0x1 ADD PUSH0 PUSH2 0x100 EXP DUP2 SLOAD DUP2 PUSH1 0xFF MUL NOT AND SWAP1 DUP4 PUSH1 0x3 DUP2 GT ISZERO PUSH2 0x6EB JUMPI PUSH2 0x6EA PUSH2 0x33BF JUMP JUMPDEST JUMPDEST MUL OR SWAP1 SSTORE POP PUSH1 0x5 PUSH1 0x40 MLOAD DUP1 PUSH1 0x60 ADD PUSH1 0x40 MSTORE DUP1 DUP4 PUSH20 0xFFFFFFFFFFFFFFFFFFFFFFFFFFFFFFFFFFFFFFFF AND DUP2 MSTORE PUSH1 0x20 ADD PUSH1 0x2 PUSH1 0x4 DUP2 GT ISZERO PUSH2 0x72D JUMPI PUSH2 0x72C PUSH2 0x33BF JUMP JUMPDEST JUMPDEST DUP2 MSTORE PUSH1 0x20 ADD PUSH1 0x1 PUSH0 DUP6 PUSH20 0xFFFFFFFFFFFFFFFFFFFFFFFFFFFFFFFFFFFFFFFF AND PUSH20 0xFFFFFFFFFFFFFFFFFFFFFFFFFFFFFFFFFFFFFFFF AND DUP2 MSTORE PUSH1 0x20 ADD SWAP1 DUP2 MSTORE PUSH1 0x20 ADD PUSH0 KECCAK256 PUSH0 ADD DUP1 SLOAD PUSH2 0x77C SWAP1 PUSH2 0x380B JUMP JUMPDEST DUP1 PUSH1 0x1F ADD PUSH1 0x20 DUP1 SWAP2 DIV MUL PUSH1 0x20 ADD PUSH1 0x40 MLOAD SWAP1 DUP2 ADD PUSH1 0x40 MSTORE DUP1 SWAP3 SWAP2 SWAP1 DUP2 DUP2 MSTORE PUSH1 0x20 ADD DUP3 DUP1 SLOAD PUSH2 0x7A8 SWAP1 PUSH2 0x380B JUMP JUMPDEST DUP1 ISZERO PUSH2 0x7F3 JUMPI DUP1 PUSH1 0x1F LT PUSH2 0x7CA JUMPI PUSH2 0x100 DUP1 DUP4 SLOAD DIV MUL DUP4 MSTORE SWAP2 PUSH1 0x20 ADD SWAP2 PUSH2 0x7F3 JUMP JUMPDEST DUP3 ADD SWAP2 SWAP1 PUSH0 MSTORE PUSH1 0x20 PUSH0 KECCAK256 SWAP1 JUMPDEST DUP2 SLOAD DUP2 MSTORE SWAP1 PUSH1 0x1 ADD SWAP1 PUSH1 0x20 ADD DUP1 DUP4 GT PUSH2 0x7D6 JUMPI DUP3 SWAP1 SUB PUSH1 0x1F AND DUP3 ADD SWAP2 JUMPDEST POP POP POP POP POP DUP2 MSTORE POP SWAP1 DUP1 PUSH1 0x1 DUP2 SLOAD ADD DUP1 DUP3 SSTORE DUP1 SWAP2 POP POP PUSH1 0x1 SWAP1 SUB SWAP1 PUSH0 MSTORE PUSH1 0x20 PUSH0 KECCAK256 SWAP1 PUSH1 0x2 MUL ADD PUSH0 SWAP1 SWAP2 SWAP1 SWAP2 SWAP1 SWAP2 POP PUSH0 DUP3 ADD MLOAD DUP2 PUSH0 ADD PUSH0 PUSH2 0x100 EXP DUP2 SLOAD DUP2 PUSH20 0xFFFFFFFFFFFFFFFFFFFFFFFFFFFFFFFFFFFFFFFF MUL NOT AND SWAP1 DUP4 PUSH20 0xFFFFFFFFFFFFFFFFFFFFFFFFFFFFFFFFFFFFFFFF AND MUL OR SWAP1 SSTORE POP PUSH1 0x20 DUP3 ADD MLOAD DUP2 PUSH0 ADD PUSH1 0x14 PUSH2 0x100 EXP DUP2 SLOAD DUP2 PUSH1 0xFF MUL NOT AND SWAP1 DUP4 PUSH1 0x4 DUP2 GT ISZERO PUSH2 0x88F JUMPI PUSH2 0x88E PUSH2 0x33BF JUMP JUMPDEST JUMPDEST MUL OR SWAP1 SSTORE POP PUSH1 0x40 DUP3 ADD MLOAD DUP2 PUSH1 0x1 ADD SWAP1 DUP2 PUSH2 0x8A9 SWAP2 SWAP1 PUSH2 0x39D8 JUMP JUMPDEST POP POP POP PUSH2 0x8B5 DUP2 PUSH2 0x2FBC JUMP JUMPDEST DUP1 PUSH20 0xFFFFFFFFFFFFFFFFFFFFFFFFFFFFFFFFFFFFFFFF AND PUSH32 0x42F52F18CA9258767CEF802B6283A39F6C1053FBD02BEE367EDC363DA679F86 PUSH1 0x2 PUSH1 0x40 MLOAD PUSH2 0x8FC SWAP2 SWAP1 PUSH2 0x34E7 JUMP JUMPDEST PUSH1 0x40 MLOAD DUP1 SWAP2 SUB SWAP1 LOG2 POP JUMP JUMPDEST PUSH0 PUSH1 0x4 DUP2 GT ISZERO PUSH2 0x91A JUMPI PUSH2 0x919 PUSH2 0x33BF JUMP JUMPDEST JUMPDEST PUSH0 DUP1 CALLER PUSH20 0xFFFFFFFFFFFFFFFFFFFFFFFFFFFFFFFFFFFFFFFF AND PUSH20 0xFFFFFFFFFFFFFFFFFFFFFFFFFFFFFFFFFFFFFFFF AND DUP2 MSTORE PUSH1 0x20 ADD SWAP1 DUP2 MSTORE PUSH1 0x20 ADD PUSH0 KECCAK256 PUSH0 SWAP1 SLOAD SWAP1 PUSH2 0x100 EXP SWAP1 DIV PUSH1 0xFF AND PUSH1 0x4 DUP2 GT ISZERO PUSH2 0x975 JUMPI PUSH2 0x974 PUSH2 0x33BF JUMP JUMPDEST JUMPDEST EQ PUSH2 0x9B5 JUMPI PUSH1 0x40 MLOAD PUSH32 0x8C379A000000000000000000000000000000000000000000000000000000000 DUP2 MSTORE PUSH1 0x4 ADD PUSH2 0x9AC SWAP1 PUSH2 0x37C0 JUMP JUMPDEST PUSH1 0x40 MLOAD DUP1 SWAP2 SUB SWAP1 REVERT JUMPDEST PUSH0 PUSH1 0x3 DUP2 GT ISZERO PUSH2 0x9C8 JUMPI PUSH2 0x9C7 PUSH2 0x33BF JUMP JUMPDEST JUMPDEST PUSH1 0x1 PUSH0 CALLER PUSH20 0xFFFFFFFFFFFFFFFFFFFFFFFFFFFFFFFFFFFFFFFF AND PUSH20 0xFFFFFFFFFFFFFFFFFFFFFFFFFFFFFFFFFFFFFFFF AND DUP2 MSTORE PUSH1 0x20 ADD SWAP1 DUP2 MSTORE PUSH1 0x20 ADD PUSH0 KECCAK256 PUSH1 0x1 ADD PUSH0 SWAP1 SLOAD SWAP1 PUSH2 0x100 EXP SWAP1 DIV PUSH1 0xFF AND PUSH1 0x3 DUP2 GT ISZERO PUSH2 0xA27 JUMPI PUSH2 0xA26 PUSH2 0x33BF JUMP JUMPDEST JUMPDEST EQ PUSH2 0xA67 JUMPI PUSH1 0x40 MLOAD PUSH32 0x8C379A000000000000000000000000000000000000000000000000000000000 DUP2 MSTORE PUSH1 0x4 ADD PUSH2 0xA5E SWAP1 PUSH2 0x3AF1 JUMP JUMPDEST PUSH1 0x40 MLOAD DUP1 SWAP2 SUB SWAP1 REVERT JUMPDEST PUSH1 0x40 MLOAD DUP1 PUSH1 0x40 ADD PUSH1 0x40 MSTORE DUP1 DUP3 DUP2 MSTORE PUSH1 0x20 ADD PUSH1 0x1 PUSH1 0x3 DUP2 GT ISZERO PUSH2 0xA8C JUMPI PUSH2 0xA8B PUSH2 0x33BF JUMP JUMPDEST JUMPDEST DUP2 MSTORE POP PUSH1 0x1 PUSH0 CALLER PUSH20 0xFFFFFFFFFFFFFFFFFFFFFFFFFFFFFFFFFFFFFFFF AND PUSH20 0xFFFFFFFFFFFFFFFFFFFFFFFFFFFFFFFFFFFFFFFF AND DUP2 MSTORE PUSH1 0x20 ADD SWAP1 DUP2 MSTORE PUSH1 0x20 ADD PUSH0 KECCAK256 PUSH0 DUP3 ADD MLOAD DUP2 PUSH0 ADD SWAP1 DUP2 PUSH2 0xADF SWAP2 SWAP1 PUSH2 0x39D8 JUMP JUMPDEST POP PUSH1 0x20 DUP3 ADD MLOAD DUP2 PUSH1 0x1 ADD PUSH0 PUSH2 0x100 EXP DUP2 SLOAD DUP2 PUSH1 0xFF MUL NOT AND SWAP1 DUP4 PUSH1 0x3 DUP2 GT ISZERO PUSH2 0xB0A JUMPI PUSH2 0xB09 PUSH2 0x33BF JUMP JUMPDEST JUMPDEST MUL OR SWAP1 SSTORE POP SWAP1 POP POP PUSH1 0x3 CALLER SWAP1 DUP1 PUSH1 0x1 DUP2 SLOAD ADD DUP1 DUP3 SSTORE DUP1 SWAP2 POP POP PUSH1 0x1 SWAP1 SUB SWAP1 PUSH0 MSTORE PUSH1 0x20 PUSH0 KECCAK256 ADD PUSH0 SWAP1 SWAP2 SWAP1 SWAP2 SWAP1 SWAP2 PUSH2 0x100 EXP DUP2 SLOAD DUP2 PUSH20 0xFFFFFFFFFFFFFFFFFFFFFFFFFFFFFFFFFFFFFFFF MUL NOT AND SWAP1 DUP4 PUSH20 0xFFFFFFFFFFFFFFFFFFFFFFFFFFFFFFFFFFFFFFFF AND MUL OR SWAP1 SSTORE POP CALLER PUSH20 0xFFFFFFFFFFFFFFFFFFFFFFFFFFFFFFFFFFFFFFFF AND PUSH32 0x5C8E9EDC72D072388931DB2631B495F2CE13D46AF59A06E2A24E0E514DB7904B DUP3 PUSH1 0x1 PUSH1 0x40 MLOAD PUSH2 0xBBB SWAP3 SWAP2 SWAP1 PUSH2 0x3B0F JUMP JUMPDEST PUSH1 0x40 MLOAD DUP1 SWAP2 SUB SWAP1 LOG2 POP JUMP JUMPDEST PUSH1 0x4 DUP2 DUP2 SLOAD DUP2 LT PUSH2 0xBD5 JUMPI PUSH0 DUP1 REVERT JUMPDEST SWAP1 PUSH0 MSTORE PUSH1 0x20 PUSH0 KECCAK256 SWAP1 PUSH1 0x2 MUL ADD PUSH0 SWAP2 POP SWAP1 POP DUP1 PUSH0 ADD PUSH0 SWAP1 SLOAD SWAP1 PUSH2 0x100 EXP SWAP1 DIV PUSH20 0xFFFFFFFFFFFFFFFFFFFFFFFFFFFFFFFFFFFFFFFF AND SWAP1 DUP1 PUSH0 ADD PUSH1 0x14 SWAP1 SLOAD SWAP1 PUSH2 0x100 EXP SWAP1 DIV PUSH1 0xFF AND SWAP1 DUP1 PUSH1 0x1 ADD DUP1 SLOAD PUSH2 0xC2B SWAP1 PUSH2 0x380B JUMP JUMPDEST DUP1 PUSH1 0x1F ADD PUSH1 0x20 DUP1 SWAP2 DIV MUL PUSH1 0x20 ADD PUSH1 0x40 MLOAD SWAP1 DUP2 ADD PUSH1 0x40 MSTORE DUP1 SWAP3 SWAP2 SWAP1 DUP2 DUP2 MSTORE PUSH1 0x20 ADD DUP3 DUP1 SLOAD PUSH2 0xC57 SWAP1 PUSH2 0x380B JUMP JUMPDEST DUP1 ISZERO PUSH2 0xCA2 JUMPI DUP1 PUSH1 0x1F LT PUSH2 0xC79 JUMPI PUSH2 0x100 DUP1 DUP4 SLOAD DIV MUL DUP4 MSTORE SWAP2 PUSH1 0x20 ADD SWAP2 PUSH2 0xCA2 JUMP JUMPDEST DUP3 ADD SWAP2 SWAP1 PUSH0 MSTORE PUSH1 0x20 PUSH0 KECCAK256 SWAP1 JUMPDEST DUP2 SLOAD DUP2 MSTORE SWAP1 PUSH1 0x1 ADD SWAP1 PUSH1 0x20 ADD DUP1 DUP4 GT PUSH2 0xC85 JUMPI DUP3 SWAP1 SUB PUSH1 0x1F AND DUP3 ADD SWAP2 JUMPDEST POP POP POP POP POP SWAP1 POP DUP4 JUMP JUMPDEST PUSH1 0x7 DUP2 DUP2 SLOAD DUP2 LT PUSH2 0xCBB JUMPI PUSH0 DUP1 REVERT JUMPDEST SWAP1 PUSH0 MSTORE PUSH1 0x20 PUSH0 KECCAK256 SWAP1 PUSH1 0x2 MUL ADD PUSH0 SWAP2 POP SWAP1 POP DUP1 PUSH0 ADD PUSH0 SWAP1 SLOAD SWAP1 PUSH2 0x100 EXP SWAP1 DIV PUSH20 0xFFFFFFFFFFFFFFFFFFFFFFFFFFFFFFFFFFFFFFFF AND SWAP1 DUP1 PUSH0 ADD PUSH1 0x14 SWAP1 SLOAD SWAP1 PUSH2 0x100 EXP SWAP1 DIV PUSH1 0xFF AND SWAP1 DUP1 PUSH1 0x1 ADD DUP1 SLOAD PUSH2 0xD11 SWAP1 PUSH2 0x380B JUMP JUMPDEST DUP1 PUSH1 0x1F ADD PUSH1 0x20 DUP1 SWAP2 DIV MUL PUSH1 0x20 ADD PUSH1 0x40 MLOAD SWAP1 DUP2 ADD PUSH1 0x40 MSTORE DUP1 SWAP3 SWAP2 SWAP1 DUP2 DUP2 MSTORE PUSH1 0x20 ADD DUP3 DUP1 SLOAD PUSH2 0xD3D SWAP1 PUSH2 0x380B JUMP JUMPDEST DUP1 ISZERO PUSH2 0xD88 JUMPI DUP1 PUSH1 0x1F LT PUSH2 0xD5F JUMPI PUSH2 0x100 DUP1 DUP4 SLOAD DIV MUL DUP4 MSTORE SWAP2 PUSH1 0x20 ADD SWAP2 PUSH2 0xD88 JUMP JUMPDEST DUP3 ADD SWAP2 SWAP1 PUSH0 MSTORE PUSH1 0x20 PUSH0 KECCAK256 SWAP1 JUMPDEST DUP2 SLOAD DUP2 MSTORE SWAP1 PUSH1 0x1 ADD SWAP1 PUSH1 0x20 ADD DUP1 DUP4 GT PUSH2 0xD6B JUMPI DUP3 SWAP1 SUB PUSH1 0x1F AND DUP3 ADD SWAP2 JUMPDEST POP POP POP POP POP SWAP1 POP DUP4 JUMP JUMPDEST PUSH1 0x3 DUP2 DUP2 SLOAD DUP2 LT PUSH2 0xDA1 JUMPI PUSH0 DUP1 REVERT JUMPDEST SWAP1 PUSH0 MSTORE PUSH1 0x20 PUSH0 KECCAK256 ADD PUSH0 SWAP2 POP SLOAD SWAP1 PUSH2 0x100 EXP SWAP1 DIV PUSH20 0xFFFFFFFFFFFFFFFFFFFFFFFFFFFFFFFFFFFFFFFF AND DUP2 JUMP JUMPDEST PUSH0 DUP1 PUSH0 DUP4 PUSH20 0xFFFFFFFFFFFFFFFFFFFFFFFFFFFFFFFFFFFFFFFF AND PUSH20 0xFFFFFFFFFFFFFFFFFFFFFFFFFFFFFFFFFFFFFFFF AND DUP2 MSTORE PUSH1 0x20 ADD SWAP1 DUP2 MSTORE PUSH1 0x20 ADD PUSH0 KECCAK256 PUSH0 SWAP1 SLOAD SWAP1 PUSH2 0x100 EXP SWAP1 DIV PUSH1 0xFF AND SWAP1 POP SWAP2 SWAP1 POP JUMP JUMPDEST PUSH0 PUSH1 0x4 DUP2 GT ISZERO PUSH2 0xE31 JUMPI PUSH2 0xE30 PUSH2 0x33BF JUMP JUMPDEST JUMPDEST PUSH0 DUP1 CALLER PUSH20 0xFFFFFFFFFFFFFFFFFFFFFFFFFFFFFFFFFFFFFFFF AND PUSH20 0xFFFFFFFFFFFFFFFFFFFFFFFFFFFFFFFFFFFFFFFF AND DUP2 MSTORE PUSH1 0x20 ADD SWAP1 DUP2 MSTORE PUSH1 0x20 ADD PUSH0 KECCAK256 PUSH0 SWAP1 SLOAD SWAP1 PUSH2 0x100 EXP SWAP1 DIV PUSH1 0xFF AND PUSH1 0x4 DUP2 GT ISZERO PUSH2 0xE8C JUMPI PUSH2 0xE8B PUSH2 0x33BF JUMP JUMPDEST JUMPDEST EQ PUSH2 0xECC JUMPI PUSH1 0x40 MLOAD PUSH32 0x8C379A000000000000000000000000000000000000000000000000000000000 DUP2 MSTORE PUSH1 0x4 ADD PUSH2 0xEC3 SWAP1 PUSH2 0x37C0 JUMP JUMPDEST PUSH1 0x40 MLOAD DUP1 SWAP2 SUB SWAP1 REVERT JUMPDEST PUSH0 PUSH1 0x3 DUP2 GT ISZERO PUSH2 0xEDF JUMPI PUSH2 0xEDE PUSH2 0x33BF JUMP JUMPDEST JUMPDEST PUSH1 0x1 PUSH0 CALLER PUSH20 0xFFFFFFFFFFFFFFFFFFFFFFFFFFFFFFFFFFFFFFFF AND PUSH20 0xFFFFFFFFFFFFFFFFFFFFFFFFFFFFFFFFFFFFFFFF AND DUP2 MSTORE PUSH1 0x20 ADD SWAP1 DUP2 MSTORE PUSH1 0x20 ADD PUSH0 KECCAK256 PUSH1 0x1 ADD PUSH0 SWAP1 SLOAD SWAP1 PUSH2 0x100 EXP SWAP1 DIV PUSH1 0xFF AND PUSH1 0x3 DUP2 GT ISZERO PUSH2 0xF3E JUMPI PUSH2 0xF3D PUSH2 0x33BF JUMP JUMPDEST JUMPDEST EQ PUSH2 0xF7E JUMPI PUSH1 0x40 MLOAD PUSH32 0x8C379A000000000000000000000000000000000000000000000000000000000 DUP2 MSTORE PUSH1 0x4 ADD PUSH2 0xF75 SWAP1 PUSH2 0x3AF1 JUMP JUMPDEST PUSH1 0x40 MLOAD DUP1 SWAP2 SUB SWAP1 REVERT JUMPDEST PUSH1 0x40 MLOAD DUP1 PUSH1 0x40 ADD PUSH1 0x40 MSTORE DUP1 DUP3 DUP2 MSTORE PUSH1 0x20 ADD PUSH1 0x1 PUSH1 0x3 DUP2 GT ISZERO PUSH2 0xFA3 JUMPI PUSH2 0xFA2 PUSH2 0x33BF JUMP JUMPDEST JUMPDEST DUP2 MSTORE POP PUSH1 0x1 PUSH0 CALLER PUSH20 0xFFFFFFFFFFFFFFFFFFFFFFFFFFFFFFFFFFFFFFFF AND PUSH20 0xFFFFFFFFFFFFFFFFFFFFFFFFFFFFFFFFFFFFFFFF AND DUP2 MSTORE PUSH1 0x20 ADD SWAP1 DUP2 MSTORE PUSH1 0x20 ADD PUSH0 KECCAK256 PUSH0 DUP3 ADD MLOAD DUP2 PUSH0 ADD SWAP1 DUP2 PUSH2 0xFF6 SWAP2 SWAP1 PUSH2 0x39D8 JUMP JUMPDEST POP PUSH1 0x20 DUP3 ADD MLOAD DUP2 PUSH1 0x1 ADD PUSH0 PUSH2 0x100 EXP DUP2 SLOAD DUP2 PUSH1 0xFF MUL NOT AND SWAP1 DUP4 PUSH1 0x3 DUP2 GT ISZERO PUSH2 0x1021 JUMPI PUSH2 0x1020 PUSH2 0x33BF JUMP JUMPDEST JUMPDEST MUL OR SWAP1 SSTORE POP SWAP1 POP POP PUSH1 0x3 CALLER SWAP1 DUP1 PUSH1 0x1 DUP2 SLOAD ADD DUP1 DUP3 SSTORE DUP1 SWAP2 POP POP PUSH1 0x1 SWAP1 SUB SWAP1 PUSH0 MSTORE PUSH1 0x20 PUSH0 KECCAK256 ADD PUSH0 SWAP1 SWAP2 SWAP1 SWAP2 SWAP1 SWAP2 PUSH2 0x100 EXP DUP2 SLOAD DUP2 PUSH20 0xFFFFFFFFFFFFFFFFFFFFFFFFFFFFFFFFFFFFFFFF MUL NOT AND SWAP1 DUP4 PUSH20 0xFFFFFFFFFFFFFFFFFFFFFFFFFFFFFFFFFFFFFFFF AND MUL OR SWAP1 SSTORE POP CALLER PUSH20 0xFFFFFFFFFFFFFFFFFFFFFFFFFFFFFFFFFFFFFFFF AND PUSH32 0x5C8E9EDC72D072388931DB2631B495F2CE13D46AF59A06E2A24E0E514DB7904B DUP3 PUSH1 0x4 PUSH1 0x40 MLOAD PUSH2 0x10D2 SWAP3 SWAP2 SWAP1 PUSH2 0x3B0F JUMP JUMPDEST PUSH1 0x40 MLOAD DUP1 SWAP2 SUB SWAP1 LOG2 POP JUMP JUMPDEST PUSH1 0x60 DUP1 PUSH0 PUSH1 0x1 PUSH0 CALLER PUSH20 0xFFFFFFFFFFFFFFFFFFFFFFFFFFFFFFFFFFFFFFFF AND PUSH20 0xFFFFFFFFFFFFFFFFFFFFFFFFFFFFFFFFFFFFFFFF AND DUP2 MSTORE PUSH1 0x20 ADD SWAP1 DUP2 MSTORE PUSH1 0x20 ADD PUSH0 KECCAK256 PUSH1 0x40 MLOAD DUP1 PUSH1 0x40 ADD PUSH1 0x40 MSTORE SWAP1 DUP2 PUSH0 DUP3 ADD DUP1 SLOAD PUSH2 0x1138 SWAP1 PUSH2 0x380B JUMP JUMPDEST DUP1 PUSH1 0x1F ADD PUSH1 0x20 DUP1 SWAP2 DIV MUL PUSH1 0x20 ADD PUSH1 0x40 MLOAD SWAP1 DUP2 ADD PUSH1 0x40 MSTORE DUP1 SWAP3 SWAP2 SWAP1 DUP2 DUP2 MSTORE PUSH1 0x20 ADD DUP3 DUP1 SLOAD PUSH2 0x1164 SWAP1 PUSH2 0x380B JUMP JUMPDEST DUP1 ISZERO PUSH2 0x11AF JUMPI DUP1 PUSH1 0x1F LT PUSH2 0x1186 JUMPI PUSH2 0x100 DUP1 DUP4 SLOAD DIV MUL DUP4 MSTORE SWAP2 PUSH1 0x20 ADD SWAP2 PUSH2 0x11AF JUMP JUMPDEST DUP3 ADD SWAP2 SWAP1 PUSH0 MSTORE PUSH1 0x20 PUSH0 KECCAK256 SWAP1 JUMPDEST DUP2 SLOAD DUP2 MSTORE SWAP1 PUSH1 0x1 ADD SWAP1 PUSH1 0x20 ADD DUP1 DUP4 GT PUSH2 0x1192 JUMPI DUP3 SWAP1 SUB PUSH1 0x1F AND DUP3 ADD SWAP2 JUMPDEST POP POP POP POP POP DUP2 MSTORE PUSH1 0x20 ADD PUSH1 0x1 DUP3 ADD PUSH0 SWAP1 SLOAD SWAP1 PUSH2 0x100 EXP SWAP1 DIV PUSH1 0xFF AND PUSH1 0x3 DUP2 GT ISZERO PUSH2 0x11DC JUMPI PUSH2 0x11DB PUSH2 0x33BF JUMP JUMPDEST JUMPDEST PUSH1 0x3 DUP2 GT ISZERO PUSH2 0x11EE JUMPI PUSH2 0x11ED PUSH2 0x33BF JUMP JUMPDEST JUMPDEST DUP2 MSTORE POP POP SWAP1 POP PUSH1 0x60 PUSH0 PUSH1 0x3 DUP2 GT ISZERO PUSH2 0x1209 JUMPI PUSH2 0x1208 PUSH2 0x33BF JUMP JUMPDEST JUMPDEST DUP3 PUSH1 0x20 ADD MLOAD PUSH1 0x3 DUP2 GT ISZERO PUSH2 0x1220 JUMPI PUSH2 0x121F PUSH2 0x33BF JUMP JUMPDEST JUMPDEST SUB PUSH2 0x1262 JUMPI PUSH1 0x40 MLOAD DUP1 PUSH1 0x40 ADD PUSH1 0x40 MSTORE DUP1 PUSH1 0x4 DUP2 MSTORE PUSH1 0x20 ADD PUSH32 0x4E6F6E6500000000000000000000000000000000000000000000000000000000 DUP2 MSTORE POP SWAP1 POP PUSH2 0x13A7 JUMP JUMPDEST PUSH1 0x1 PUSH1 0x3 DUP2 GT ISZERO PUSH2 0x1276 JUMPI PUSH2 0x1275 PUSH2 0x33BF JUMP JUMPDEST JUMPDEST DUP3 PUSH1 0x20 ADD MLOAD PUSH1 0x3 DUP2 GT ISZERO PUSH2 0x128D JUMPI PUSH2 0x128C PUSH2 0x33BF JUMP JUMPDEST JUMPDEST SUB PUSH2 0x12CF JUMPI PUSH1 0x40 MLOAD DUP1 PUSH1 0x40 ADD PUSH1 0x40 MSTORE DUP1 PUSH1 0x7 DUP2 MSTORE PUSH1 0x20 ADD PUSH32 0x50656E64696E6700000000000000000000000000000000000000000000000000 DUP2 MSTORE POP SWAP1 POP PUSH2 0x13A6 JUMP JUMPDEST PUSH1 0x2 PUSH1 0x3 DUP2 GT ISZERO PUSH2 0x12E3 JUMPI PUSH2 0x12E2 PUSH2 0x33BF JUMP JUMPDEST JUMPDEST DUP3 PUSH1 0x20 ADD MLOAD PUSH1 0x3 DUP2 GT ISZERO PUSH2 0x12FA JUMPI PUSH2 0x12F9 PUSH2 0x33BF JUMP JUMPDEST JUMPDEST SUB PUSH2 0x133C JUMPI PUSH1 0x40 MLOAD DUP1 PUSH1 0x40 ADD PUSH1 0x40 MSTORE DUP1 PUSH1 0x8 DUP2 MSTORE PUSH1 0x20 ADD PUSH32 0x417070726F766564000000000000000000000000000000000000000000000000 DUP2 MSTORE POP SWAP1 POP PUSH2 0x13A5 JUMP JUMPDEST PUSH1 0x3 DUP1 DUP2 GT ISZERO PUSH2 0x134F JUMPI PUSH2 0x134E PUSH2 0x33BF JUMP JUMPDEST JUMPDEST DUP3 PUSH1 0x20 ADD MLOAD PUSH1 0x3 DUP2 GT ISZERO PUSH2 0x1366 JUMPI PUSH2 0x1365 PUSH2 0x33BF JUMP JUMPDEST JUMPDEST SUB PUSH2 0x13A4 JUMPI PUSH1 0x40 MLOAD DUP1 PUSH1 0x40 ADD PUSH1 0x40 MSTORE DUP1 PUSH1 0x8 DUP2 MSTORE PUSH1 0x20 ADD PUSH32 0x52656A6563746564000000000000000000000000000000000000000000000000 DUP2 MSTORE POP SWAP1 POP JUMPDEST JUMPDEST JUMPDEST JUMPDEST DUP1 DUP3 PUSH0 ADD MLOAD SWAP4 POP SWAP4 POP POP POP SWAP1 SWAP2 JUMP JUMPDEST PUSH1 0x6 DUP2 DUP2 SLOAD DUP2 LT PUSH2 0x13C5 JUMPI PUSH0 DUP1 REVERT JUMPDEST SWAP1 PUSH0 MSTORE PUSH1 0x20 PUSH0 KECCAK256 SWAP1 PUSH1 0x2 MUL ADD PUSH0 SWAP2 POP SWAP1 POP DUP1 PUSH0 ADD PUSH0 SWAP1 SLOAD SWAP1 PUSH2 0x100 EXP SWAP1 DIV PUSH20 0xFFFFFFFFFFFFFFFFFFFFFFFFFFFFFFFFFFFFFFFF AND SWAP1 DUP1 PUSH0 ADD PUSH1 0x14 SWAP1 SLOAD SWAP1 PUSH2 0x100 EXP SWAP1 DIV PUSH1 0xFF AND SWAP1 DUP1 PUSH1 0x1 ADD DUP1 SLOAD PUSH2 0x141B SWAP1 PUSH2 0x380B JUMP JUMPDEST DUP1 PUSH1 0x1F ADD PUSH1 0x20 DUP1 SWAP2 DIV MUL PUSH1 0x20 ADD PUSH1 0x40 MLOAD SWAP1 DUP2 ADD PUSH1 0x40 MSTORE DUP1 SWAP3 SWAP2 SWAP1 DUP2 DUP2 MSTORE PUSH1 0x20 ADD DUP3 DUP1 SLOAD PUSH2 0x1447 SWAP1 PUSH2 0x380B JUMP JUMPDEST DUP1 ISZERO PUSH2 0x1492 JUMPI DUP1 PUSH1 0x1F LT PUSH2 0x1469 JUMPI PUSH2 0x100 DUP1 DUP4 SLOAD DIV MUL DUP4 MSTORE SWAP2 PUSH1 0x20 ADD SWAP2 PUSH2 0x1492 JUMP JUMPDEST DUP3 ADD SWAP2 SWAP1 PUSH0 MSTORE PUSH1 0x20 PUSH0 KECCAK256 SWAP1 JUMPDEST DUP2 SLOAD DUP2 MSTORE SWAP1 PUSH1 0x1 ADD SWAP1 PUSH1 0x20 ADD DUP1 DUP4 GT PUSH2 0x1475 JUMPI DUP3 SWAP1 SUB PUSH1 0x1F AND DUP3 ADD SWAP2 JUMPDEST POP POP POP POP POP SWAP1 POP DUP4 JUMP JUMPDEST PUSH1 0x60 PUSH1 0x2 PUSH0 SWAP1 SLOAD SWAP1 PUSH2 0x100 EXP SWAP1 DIV PUSH20 0xFFFFFFFFFFFFFFFFFFFFFFFFFFFFFFFFFFFFFFFF AND PUSH20 0xFFFFFFFFFFFFFFFFFFFFFFFFFFFFFFFFFFFFFFFF AND CALLER PUSH20 0xFFFFFFFFFFFFFFFFFFFFFFFFFFFFFFFFFFFFFFFF AND EQ PUSH2 0x152D JUMPI PUSH1 0x40 MLOAD PUSH32 0x8C379A000000000000000000000000000000000000000000000000000000000 DUP2 MSTORE PUSH1 0x4 ADD PUSH2 0x1524 SWAP1 PUSH2 0x36F0 JUMP JUMPDEST PUSH1 0x40 MLOAD DUP1 SWAP2 SUB SWAP1 REVERT JUMPDEST PUSH1 0x3 DUP1 SLOAD DUP1 PUSH1 0x20 MUL PUSH1 0x20 ADD PUSH1 0x40 MLOAD SWAP1 DUP2 ADD PUSH1 0x40 MSTORE DUP1 SWAP3 SWAP2 SWAP1 DUP2 DUP2 MSTORE PUSH1 0x20 ADD DUP3 DUP1 SLOAD DUP1 ISZERO PUSH2 0x15AC JUMPI PUSH1 0x20 MUL DUP3 ADD SWAP2 SWAP1 PUSH0 MSTORE PUSH1 0x20 PUSH0 KECCAK256 SWAP1 JUMPDEST DUP2 PUSH0 SWAP1 SLOAD SWAP1 PUSH2 0x100 EXP SWAP1 DIV PUSH20 0xFFFFFFFFFFFFFFFFFFFFFFFFFFFFFFFFFFFFFFFF AND PUSH20 0xFFFFFFFFFFFFFFFFFFFFFFFFFFFFFFFFFFFFFFFF AND DUP2 MSTORE PUSH1 0x20 ADD SWAP1 PUSH1 0x1 ADD SWAP1 DUP1 DUP4 GT PUSH2 0x1563 JUMPI JUMPDEST POP POP POP POP POP SWAP1 POP SWAP1 JUMP JUMPDEST PUSH1 0x2 PUSH0 SWAP1 SLOAD SWAP1 PUSH2 0x100 EXP SWAP1 DIV PUSH20 0xFFFFFFFFFFFFFFFFFFFFFFFFFFFFFFFFFFFFFFFF AND PUSH20 0xFFFFFFFFFFFFFFFFFFFFFFFFFFFFFFFFFFFFFFFF AND CALLER PUSH20 0xFFFFFFFFFFFFFFFFFFFFFFFFFFFFFFFFFFFFFFFF AND EQ PUSH2 0x1645 JUMPI PUSH1 0x40 MLOAD PUSH32 0x8C379A000000000000000000000000000000000000000000000000000000000 DUP2 MSTORE PUSH1 0x4 ADD PUSH2 0x163C SWAP1 PUSH2 0x36F0 JUMP JUMPDEST PUSH1 0x40 MLOAD DUP1 SWAP2 SUB SWAP1 REVERT JUMPDEST PUSH0 PUSH1 0x4 DUP2 GT ISZERO PUSH2 0x1658 JUMPI PUSH2 0x1657 PUSH2 0x33BF JUMP JUMPDEST JUMPDEST PUSH0 DUP1 DUP4 PUSH20 0xFFFFFFFFFFFFFFFFFFFFFFFFFFFFFFFFFFFFFFFF AND PUSH20 0xFFFFFFFFFFFFFFFFFFFFFFFFFFFFFFFFFFFFFFFF AND DUP2 MSTORE PUSH1 0x20 ADD SWAP1 DUP2 MSTORE PUSH1 0x20 ADD PUSH0 KECCAK256 PUSH0 SWAP1 SLOAD SWAP1 PUSH2 0x100 EXP SWAP1 DIV PUSH1 0xFF AND PUSH1 0x4 DUP2 GT ISZERO PUSH2 0x16B3 JUMPI PUSH2 0x16B2 PUSH2 0x33BF JUMP JUMPDEST JUMPDEST SUB PUSH2 0x16F3 JUMPI PUSH1 0x40 MLOAD PUSH32 0x8C379A000000000000000000000000000000000000000000000000000000000 DUP2 MSTORE PUSH1 0x4 ADD PUSH2 0x16EA SWAP1 PUSH2 0x3B87 JUMP JUMPDEST PUSH1 0x40 MLOAD DUP1 SWAP2 SUB SWAP1 REVERT JUMPDEST PUSH0 DUP1 PUSH0 DUP4 PUSH20 0xFFFFFFFFFFFFFFFFFFFFFFFFFFFFFFFFFFFFFFFF AND PUSH20 0xFFFFFFFFFFFFFFFFFFFFFFFFFFFFFFFFFFFFFFFF AND DUP2 MSTORE PUSH1 0x20 ADD SWAP1 DUP2 MSTORE PUSH1 0x20 ADD PUSH0 KECCAK256 PUSH0 SWAP1 SLOAD SWAP1 PUSH2 0x100 EXP SWAP1 DIV PUSH1 0xFF AND SWAP1 POP PUSH0 DUP1 PUSH0 DUP5 PUSH20 0xFFFFFFFFFFFFFFFFFFFFFFFFFFFFFFFFFFFFFFFF AND PUSH20 0xFFFFFFFFFFFFFFFFFFFFFFFFFFFFFFFFFFFFFFFF AND DUP2 MSTORE PUSH1 0x20 ADD SWAP1 DUP2 MSTORE PUSH1 0x20 ADD PUSH0 KECCAK256 PUSH0 PUSH2 0x100 EXP DUP2 SLOAD DUP2 PUSH1 0xFF MUL NOT AND SWAP1 DUP4 PUSH1 0x4 DUP2 GT ISZERO PUSH2 0x179D JUMPI PUSH2 0x179C PUSH2 0x33BF JUMP JUMPDEST JUMPDEST MUL OR SWAP1 SSTORE POP DUP2 PUSH20 0xFFFFFFFFFFFFFFFFFFFFFFFFFFFFFFFFFFFFFFFF AND PUSH32 0x34A1009B84E077AEE5BC8197FAF7105E54F9BA6879E2A51A716E4156EA9AD769 DUP3 PUSH1 0x40 MLOAD PUSH2 0x17E8 SWAP2 SWAP1 PUSH2 0x34E7 JUMP JUMPDEST PUSH1 0x40 MLOAD DUP1 SWAP2 SUB SWAP1 LOG2 POP POP JUMP JUMPDEST PUSH1 0x2 PUSH0 SWAP1 SLOAD SWAP1 PUSH2 0x100 EXP SWAP1 DIV PUSH20 0xFFFFFFFFFFFFFFFFFFFFFFFFFFFFFFFFFFFFFFFF AND PUSH20 0xFFFFFFFFFFFFFFFFFFFFFFFFFFFFFFFFFFFFFFFF AND CALLER PUSH20 0xFFFFFFFFFFFFFFFFFFFFFFFFFFFFFFFFFFFFFFFF AND EQ PUSH2 0x1883 JUMPI PUSH1 0x40 MLOAD PUSH32 0x8C379A000000000000000000000000000000000000000000000000000000000 DUP2 MSTORE PUSH1 0x4 ADD PUSH2 0x187A SWAP1 PUSH2 0x36F0 JUMP JUMPDEST PUSH1 0x40 MLOAD DUP1 SWAP2 SUB SWAP1 REVERT JUMPDEST PUSH1 0x1 PUSH1 0x3 DUP2 GT ISZERO PUSH2 0x1897 JUMPI PUSH2 0x1896 PUSH2 0x33BF JUMP JUMPDEST JUMPDEST PUSH1 0x1 PUSH0 DUP4 PUSH20 0xFFFFFFFFFFFFFFFFFFFFFFFFFFFFFFFFFFFFFFFF AND PUSH20 0xFFFFFFFFFFFFFFFFFFFFFFFFFFFFFFFFFFFFFFFF AND DUP2 MSTORE PUSH1 0x20 ADD SWAP1 DUP2 MSTORE PUSH1 0x20 ADD PUSH0 KECCAK256 PUSH1 0x1 ADD PUSH0 SWAP1 SLOAD SWAP1 PUSH2 0x100 EXP SWAP1 DIV PUSH1 0xFF AND PUSH1 0x3 DUP2 GT ISZERO PUSH2 0x18F6 JUMPI PUSH2 0x18F5 PUSH2 0x33BF JUMP JUMPDEST JUMPDEST EQ PUSH2 0x1936 JUMPI PUSH1 0x40 MLOAD PUSH32 0x8C379A000000000000000000000000000000000000000000000000000000000 DUP2 MSTORE PUSH1 0x4 ADD PUSH2 0x192D SWAP1 PUSH2 0x3758 JUMP JUMPDEST PUSH1 0x40 MLOAD DUP1 SWAP2 SUB SWAP1 REVERT JUMPDEST PUSH0 PUSH1 0x4 DUP2 GT ISZERO PUSH2 0x1949 JUMPI PUSH2 0x1948 PUSH2 0x33BF JUMP JUMPDEST JUMPDEST PUSH0 DUP1 DUP4 PUSH20 0xFFFFFFFFFFFFFFFFFFFFFFFFFFFFFFFFFFFFFFFF AND PUSH20 0xFFFFFFFFFFFFFFFFFFFFFFFFFFFFFFFFFFFFFFFF AND DUP2 MSTORE PUSH1 0x20 ADD SWAP1 DUP2 MSTORE PUSH1 0x20 ADD PUSH0 KECCAK256 PUSH0 SWAP1 SLOAD SWAP1 PUSH2 0x100 EXP SWAP1 DIV PUSH1 0xFF AND PUSH1 0x4 DUP2 GT ISZERO PUSH2 0x19A4 JUMPI PUSH2 0x19A3 PUSH2 0x33BF JUMP JUMPDEST JUMPDEST EQ PUSH2 0x19E4 JUMPI PUSH1 0x40 MLOAD PUSH32 0x8C379A000000000000000000000000000000000000000000000000000000000 DUP2 MSTORE PUSH1 0x4 ADD PUSH2 0x19DB SWAP1 PUSH2 0x37C0 JUMP JUMPDEST PUSH1 0x40 MLOAD DUP1 SWAP2 SUB SWAP1 REVERT JUMPDEST PUSH1 0x3 PUSH0 DUP1 DUP4 PUSH20 0xFFFFFFFFFFFFFFFFFFFFFFFFFFFFFFFFFFFFFFFF AND PUSH20 0xFFFFFFFFFFFFFFFFFFFFFFFFFFFFFFFFFFFFFFFF AND DUP2 MSTORE PUSH1 0x20 ADD SWAP1 DUP2 MSTORE PUSH1 0x20 ADD PUSH0 KECCAK256 PUSH0 PUSH2 0x100 EXP DUP2 SLOAD DUP2 PUSH1 0xFF MUL NOT AND SWAP1 DUP4 PUSH1 0x4 DUP2 GT ISZERO PUSH2 0x1A43 JUMPI PUSH2 0x1A42 PUSH2 0x33BF JUMP JUMPDEST JUMPDEST MUL OR SWAP1 SSTORE POP PUSH1 0x2 PUSH1 0x1 PUSH0 DUP4 PUSH20 0xFFFFFFFFFFFFFFFFFFFFFFFFFFFFFFFFFFFFFFFF AND PUSH20 0xFFFFFFFFFFFFFFFFFFFFFFFFFFFFFFFFFFFFFFFF AND DUP2 MSTORE PUSH1 0x20 ADD SWAP1 DUP2 MSTORE PUSH1 0x20 ADD PUSH0 KECCAK256 PUSH1 0x1 ADD PUSH0 PUSH2 0x100 EXP DUP2 SLOAD DUP2 PUSH1 0xFF MUL NOT AND SWAP1 DUP4 PUSH1 0x3 DUP2 GT ISZERO PUSH2 0x1AAB JUMPI PUSH2 0x1AAA PUSH2 0x33BF JUMP JUMPDEST JUMPDEST MUL OR SWAP1 SSTORE POP PUSH1 0x6 PUSH1 0x40 MLOAD DUP1 PUSH1 0x60 ADD PUSH1 0x40 MSTORE DUP1 DUP4 PUSH20 0xFFFFFFFFFFFFFFFFFFFFFFFFFFFFFFFFFFFFFFFF AND DUP2 MSTORE PUSH1 0x20 ADD PUSH1 0x3 PUSH1 0x4 DUP2 GT ISZERO PUSH2 0x1AED JUMPI PUSH2 0x1AEC PUSH2 0x33BF JUMP JUMPDEST JUMPDEST DUP2 MSTORE PUSH1 0x20 ADD PUSH1 0x1 PUSH0 DUP6 PUSH20 0xFFFFFFFFFFFFFFFFFFFFFFFFFFFFFFFFFFFFFFFF AND PUSH20 0xFFFFFFFFFFFFFFFFFFFFFFFFFFFFFFFFFFFFFFFF AND DUP2 MSTORE PUSH1 0x20 ADD SWAP1 DUP2 MSTORE PUSH1 0x20 ADD PUSH0 KECCAK256 PUSH0 ADD DUP1 SLOAD PUSH2 0x1B3C SWAP1 PUSH2 0x380B JUMP JUMPDEST DUP1 PUSH1 0x1F ADD PUSH1 0x20 DUP1 SWAP2 DIV MUL PUSH1 0x20 ADD PUSH1 0x40 MLOAD SWAP1 DUP2 ADD PUSH1 0x40 MSTORE DUP1 SWAP3 SWAP2 SWAP1 DUP2 DUP2 MSTORE PUSH1 0x20 ADD DUP3 DUP1 SLOAD PUSH2 0x1B68 SWAP1 PUSH2 0x380B JUMP JUMPDEST DUP1 ISZERO PUSH2 0x1BB3 JUMPI DUP1 PUSH1 0x1F LT PUSH2 0x1B8A JUMPI PUSH2 0x100 DUP1 DUP4 SLOAD DIV MUL DUP4 MSTORE SWAP2 PUSH1 0x20 ADD SWAP2 PUSH2 0x1BB3 JUMP JUMPDEST DUP3 ADD SWAP2 SWAP1 PUSH0 MSTORE PUSH1 0x20 PUSH0 KECCAK256 SWAP1 JUMPDEST DUP2 SLOAD DUP2 MSTORE SWAP1 PUSH1 0x1 ADD SWAP1 PUSH1 0x20 ADD DUP1 DUP4 GT PUSH2 0x1B96 JUMPI DUP3 SWAP1 SUB PUSH1 0x1F AND DUP3 ADD SWAP2 JUMPDEST POP POP POP POP POP DUP2 MSTORE POP SWAP1 DUP1 PUSH1 0x1 DUP2 SLOAD ADD DUP1 DUP3 SSTORE DUP1 SWAP2 POP POP PUSH1 0x1 SWAP1 SUB SWAP1 PUSH0 MSTORE PUSH1 0x20 PUSH0 KECCAK256 SWAP1 PUSH1 0x2 MUL ADD PUSH0 SWAP1 SWAP2 SWAP1 SWAP2 SWAP1 SWAP2 POP PUSH0 DUP3 ADD MLOAD DUP2 PUSH0 ADD PUSH0 PUSH2 0x100 EXP DUP2 SLOAD DUP2 PUSH20 0xFFFFFFFFFFFFFFFFFFFFFFFFFFFFFFFFFFFFFFFF MUL NOT AND SWAP1 DUP4 PUSH20 0xFFFFFFFFFFFFFFFFFFFFFFFFFFFFFFFFFFFFFFFF AND MUL OR SWAP1 SSTORE POP PUSH1 0x20 DUP3 ADD MLOAD DUP2 PUSH0 ADD PUSH1 0x14 PUSH2 0x100 EXP DUP2 SLOAD DUP2 PUSH1 0xFF MUL NOT AND SWAP1 DUP4 PUSH1 0x4 DUP2 GT ISZERO PUSH2 0x1C4F JUMPI PUSH2 0x1C4E PUSH2 0x33BF JUMP JUMPDEST JUMPDEST MUL OR SWAP1 SSTORE POP PUSH1 0x40 DUP3 ADD MLOAD DUP2 PUSH1 0x1 ADD SWAP1 DUP2 PUSH2 0x1C69 SWAP2 SWAP1 PUSH2 0x39D8 JUMP JUMPDEST POP POP POP PUSH2 0x1C75 DUP2 PUSH2 0x2FBC JUMP JUMPDEST DUP1 PUSH20 0xFFFFFFFFFFFFFFFFFFFFFFFFFFFFFFFFFFFFFFFF AND PUSH32 0x42F52F18CA9258767CEF802B6283A39F6C1053FBD02BEE367EDC363DA679F86 PUSH1 0x3 PUSH1 0x40 MLOAD PUSH2 0x1CBC SWAP2 SWAP1 PUSH2 0x34E7 JUMP JUMPDEST PUSH1 0x40 MLOAD DUP1 SWAP2 SUB SWAP1 LOG2 POP JUMP JUMPDEST PUSH1 0x2 PUSH0 SWAP1 SLOAD SWAP1 PUSH2 0x100 EXP SWAP1 DIV PUSH20 0xFFFFFFFFFFFFFFFFFFFFFFFFFFFFFFFFFFFFFFFF AND PUSH20 0xFFFFFFFFFFFFFFFFFFFFFFFFFFFFFFFFFFFFFFFF AND CALLER PUSH20 0xFFFFFFFFFFFFFFFFFFFFFFFFFFFFFFFFFFFFFFFF AND EQ PUSH2 0x1D56 JUMPI PUSH1 0x40 MLOAD PUSH32 0x8C379A000000000000000000000000000000000000000000000000000000000 DUP2 MSTORE PUSH1 0x4 ADD PUSH2 0x1D4D SWAP1 PUSH2 0x36F0 JUMP JUMPDEST PUSH1 0x40 MLOAD DUP1 SWAP2 SUB SWAP1 REVERT JUMPDEST PUSH1 0x1 PUSH1 0x3 DUP2 GT ISZERO PUSH2 0x1D6A JUMPI PUSH2 0x1D69 PUSH2 0x33BF JUMP JUMPDEST JUMPDEST PUSH1 0x1 PUSH0 DUP4 PUSH20 0xFFFFFFFFFFFFFFFFFFFFFFFFFFFFFFFFFFFFFFFF AND PUSH20 0xFFFFFFFFFFFFFFFFFFFFFFFFFFFFFFFFFFFFFFFF AND DUP2 MSTORE PUSH1 0x20 ADD SWAP1 DUP2 MSTORE PUSH1 0x20 ADD PUSH0 KECCAK256 PUSH1 0x1 ADD PUSH0 SWAP1 SLOAD SWAP1 PUSH2 0x100 EXP SWAP1 DIV PUSH1 0xFF AND PUSH1 0x3 DUP2 GT ISZERO PUSH2 0x1DC9 JUMPI PUSH2 0x1DC8 PUSH2 0x33BF JUMP JUMPDEST JUMPDEST EQ PUSH2 0x1E09 JUMPI PUSH1 0x40 MLOAD PUSH32 0x8C379A000000000000000000000000000000000000000000000000000000000 DUP2 MSTORE PUSH1 0x4 ADD PUSH2 0x1E00 SWAP1 PUSH2 0x3758 JUMP JUMPDEST PUSH1 0x40 MLOAD DUP1 SWAP2 SUB SWAP1 REVERT JUMPDEST PUSH0 PUSH1 0x4 DUP2 GT ISZERO PUSH2 0x1E1C JUMPI PUSH2 0x1E1B PUSH2 0x33BF JUMP JUMPDEST JUMPDEST PUSH0 DUP1 DUP4 PUSH20 0xFFFFFFFFFFFFFFFFFFFFFFFFFFFFFFFFFFFFFFFF AND PUSH20 0xFFFFFFFFFFFFFFFFFFFFFFFFFFFFFFFFFFFFFFFF AND DUP2 MSTORE PUSH1 0x20 ADD SWAP1 DUP2 MSTORE PUSH1 0x20 ADD PUSH0 KECCAK256 PUSH0 SWAP1 SLOAD SWAP1 PUSH2 0x100 EXP SWAP1 DIV PUSH1 0xFF AND PUSH1 0x4 DUP2 GT ISZERO PUSH2 0x1E77 JUMPI PUSH2 0x1E76 PUSH2 0x33BF JUMP JUMPDEST JUMPDEST EQ PUSH2 0x1EB7 JUMPI PUSH1 0x40 MLOAD PUSH32 0x8C379A000000000000000000000000000000000000000000000000000000000 DUP2 MSTORE PUSH1 0x4 ADD PUSH2 0x1EAE SWAP1 PUSH2 0x37C0 JUMP JUMPDEST PUSH1 0x40 MLOAD DUP1 SWAP2 SUB SWAP1 REVERT JUMPDEST PUSH1 0x1 PUSH0 DUP1 DUP4 PUSH20 0xFFFFFFFFFFFFFFFFFFFFFFFFFFFFFFFFFFFFFFFF AND PUSH20 0xFFFFFFFFFFFFFFFFFFFFFFFFFFFFFFFFFFFFFFFF AND DUP2 MSTORE PUSH1 0x20 ADD SWAP1 DUP2 MSTORE PUSH1 0x20 ADD PUSH0 KECCAK256 PUSH0 PUSH2 0x100 EXP DUP2 SLOAD DUP2 PUSH1 0xFF MUL NOT AND SWAP1 DUP4 PUSH1 0x4 DUP2 GT ISZERO PUSH2 0x1F16 JUMPI PUSH2 0x1F15 PUSH2 0x33BF JUMP JUMPDEST JUMPDEST MUL OR SWAP1 SSTORE POP PUSH1 0x2 PUSH1 0x1 PUSH0 DUP4 PUSH20 0xFFFFFFFFFFFFFFFFFFFFFFFFFFFFFFFFFFFFFFFF AND PUSH20 0xFFFFFFFFFFFFFFFFFFFFFFFFFFFFFFFFFFFFFFFF AND DUP2 MSTORE PUSH1 0x20 ADD SWAP1 DUP2 MSTORE PUSH1 0x20 ADD PUSH0 KECCAK256 PUSH1 0x1 ADD PUSH0 PUSH2 0x100 EXP DUP2 SLOAD DUP2 PUSH1 0xFF MUL NOT AND SWAP1 DUP4 PUSH1 0x3 DUP2 GT ISZERO PUSH2 0x1F7E JUMPI PUSH2 0x1F7D PUSH2 0x33BF JUMP JUMPDEST JUMPDEST MUL OR SWAP1 SSTORE POP PUSH1 0x4 PUSH1 0x40 MLOAD DUP1 PUSH1 0x60 ADD PUSH1 0x40 MSTORE DUP1 DUP4 PUSH20 0xFFFFFFFFFFFFFFFFFFFFFFFFFFFFFFFFFFFFFFFF AND DUP2 MSTORE PUSH1 0x20 ADD PUSH1 0x1 PUSH1 0x4 DUP2 GT ISZERO PUSH2 0x1FC0 JUMPI PUSH2 0x1FBF PUSH2 0x33BF JUMP JUMPDEST JUMPDEST DUP2 MSTORE PUSH1 0x20 ADD PUSH1 0x1 PUSH0 DUP6 PUSH20 0xFFFFFFFFFFFFFFFFFFFFFFFFFFFFFFFFFFFFFFFF AND PUSH20 0xFFFFFFFFFFFFFFFFFFFFFFFFFFFFFFFFFFFFFFFF AND DUP2 MSTORE PUSH1 0x20 ADD SWAP1 DUP2 MSTORE PUSH1 0x20 ADD PUSH0 KECCAK256 PUSH0 ADD DUP1 SLOAD PUSH2 0x200F SWAP1 PUSH2 0x380B JUMP JUMPDEST DUP1 PUSH1 0x1F ADD PUSH1 0x20 DUP1 SWAP2 DIV MUL PUSH1 0x20 ADD PUSH1 0x40 MLOAD SWAP1 DUP2 ADD PUSH1 0x40 MSTORE DUP1 SWAP3 SWAP2 SWAP1 DUP2 DUP2 MSTORE PUSH1 0x20 ADD DUP3 DUP1 SLOAD PUSH2 0x203B SWAP1 PUSH2 0x380B JUMP JUMPDEST DUP1 ISZERO PUSH2 0x2086 JUMPI DUP1 PUSH1 0x1F LT PUSH2 0x205D JUMPI PUSH2 0x100 DUP1 DUP4 SLOAD DIV MUL DUP4 MSTORE SWAP2 PUSH1 0x20 ADD SWAP2 PUSH2 0x2086 JUMP JUMPDEST DUP3 ADD SWAP2 SWAP1 PUSH0 MSTORE PUSH1 0x20 PUSH0 KECCAK256 SWAP1 JUMPDEST DUP2 SLOAD DUP2 MSTORE SWAP1 PUSH1 0x1 ADD SWAP1 PUSH1 0x20 ADD DUP1 DUP4 GT PUSH2 0x2069 JUMPI DUP3 SWAP1 SUB PUSH1 0x1F AND DUP3 ADD SWAP2 JUMPDEST POP POP POP POP POP DUP2 MSTORE POP SWAP1 DUP1 PUSH1 0x1 DUP2 SLOAD ADD DUP1 DUP3 SSTORE DUP1 SWAP2 POP POP PUSH1 0x1 SWAP1 SUB SWAP1 PUSH0 MSTORE PUSH1 0x20 PUSH0 KECCAK256 SWAP1 PUSH1 0x2 MUL ADD PUSH0 SWAP1 SWAP2 SWAP1 SWAP2 SWAP1 SWAP2 POP PUSH0 DUP3 ADD MLOAD DUP2 PUSH0 ADD PUSH0 PUSH2 0x100 EXP DUP2 SLOAD DUP2 PUSH20 0xFFFFFFFFFFFFFFFFFFFFFFFFFFFFFFFFFFFFFFFF MUL NOT AND SWAP1 DUP4 PUSH20 0xFFFFFFFFFFFFFFFFFFFFFFFFFFFFFFFFFFFFFFFF AND MUL OR SWAP1 SSTORE POP PUSH1 0x20 DUP3 ADD MLOAD DUP2 PUSH0 ADD PUSH1 0x14 PUSH2 0x100 EXP DUP2 SLOAD DUP2 PUSH1 0xFF MUL NOT AND SWAP1 DUP4 PUSH1 0x4 DUP2 GT ISZERO PUSH2 0x2122 JUMPI PUSH2 0x2121 PUSH2 0x33BF JUMP JUMPDEST JUMPDEST MUL OR SWAP1 SSTORE POP PUSH1 0x40 DUP3 ADD MLOAD DUP2 PUSH1 0x1 ADD SWAP1 DUP2 PUSH2 0x213C SWAP2 SWAP1 PUSH2 0x39D8 JUMP JUMPDEST POP POP POP PUSH2 0x2148 DUP2 PUSH2 0x2FBC JUMP JUMPDEST DUP1 PUSH20 0xFFFFFFFFFFFFFFFFFFFFFFFFFFFFFFFFFFFFFFFF AND PUSH32 0x42F52F18CA9258767CEF802B6283A39F6C1053FBD02BEE367EDC363DA679F86 PUSH1 0x1 PUSH1 0x40 MLOAD PUSH2 0x218F SWAP2 SWAP1 PUSH2 0x34E7 JUMP JUMPDEST PUSH1 0x40 MLOAD DUP1 SWAP2 SUB SWAP1 LOG2 POP JUMP JUMPDEST PUSH0 PUSH1 0x20 MSTORE DUP1 PUSH0 MSTORE PUSH1 0x40 PUSH0 KECCAK256 PUSH0 SWAP2 POP SLOAD SWAP1 PUSH2 0x100 EXP SWAP1 DIV PUSH1 0xFF AND DUP2 JUMP JUMPDEST PUSH0 PUSH1 0x4 DUP2 GT ISZERO PUSH2 0x21C9 JUMPI PUSH2 0x21C8 PUSH2 0x33BF JUMP JUMPDEST JUMPDEST PUSH0 DUP1 CALLER PUSH20 0xFFFFFFFFFFFFFFFFFFFFFFFFFFFFFFFFFFFFFFFF AND PUSH20 0xFFFFFFFFFFFFFFFFFFFFFFFFFFFFFFFFFFFFFFFF AND DUP2 MSTORE PUSH1 0x20 ADD SWAP1 DUP2 MSTORE PUSH1 0x20 ADD PUSH0 KECCAK256 PUSH0 SWAP1 SLOAD SWAP1 PUSH2 0x100 EXP SWAP1 DIV PUSH1 0xFF AND PUSH1 0x4 DUP2 GT ISZERO PUSH2 0x2224 JUMPI PUSH2 0x2223 PUSH2 0x33BF JUMP JUMPDEST JUMPDEST EQ PUSH2 0x2264 JUMPI PUSH1 0x40 MLOAD PUSH32 0x8C379A000000000000000000000000000000000000000000000000000000000 DUP2 MSTORE PUSH1 0x4 ADD PUSH2 0x225B SWAP1 PUSH2 0x37C0 JUMP JUMPDEST PUSH1 0x40 MLOAD DUP1 SWAP2 SUB SWAP1 REVERT JUMPDEST PUSH0 PUSH1 0x3 DUP2 GT ISZERO PUSH2 0x2277 JUMPI PUSH2 0x2276 PUSH2 0x33BF JUMP JUMPDEST JUMPDEST PUSH1 0x1 PUSH0 CALLER PUSH20 0xFFFFFFFFFFFFFFFFFFFFFFFFFFFFFFFFFFFFFFFF AND PUSH20 0xFFFFFFFFFFFFFFFFFFFFFFFFFFFFFFFFFFFFFFFF AND DUP2 MSTORE PUSH1 0x20 ADD SWAP1 DUP2 MSTORE PUSH1 0x20 ADD PUSH0 KECCAK256 PUSH1 0x1 ADD PUSH0 SWAP1 SLOAD SWAP1 PUSH2 0x100 EXP SWAP1 DIV PUSH1 0xFF AND PUSH1 0x3 DUP2 GT ISZERO PUSH2 0x22D6 JUMPI PUSH2 0x22D5 PUSH2 0x33BF JUMP JUMPDEST JUMPDEST EQ PUSH2 0x2316 JUMPI PUSH1 0x40 MLOAD PUSH32 0x8C379A000000000000000000000000000000000000000000000000000000000 DUP2 MSTORE PUSH1 0x4 ADD PUSH2 0x230D SWAP1 PUSH2 0x3AF1 JUMP JUMPDEST PUSH1 0x40 MLOAD DUP1 SWAP2 SUB SWAP1 REVERT JUMPDEST PUSH1 0x40 MLOAD DUP1 PUSH1 0x40 ADD PUSH1 0x40 MSTORE DUP1 DUP3 DUP2 MSTORE PUSH1 0x20 ADD PUSH1 0x1 PUSH1 0x3 DUP2 GT ISZERO PUSH2 0x233B JUMPI PUSH2 0x233A PUSH2 0x33BF JUMP JUMPDEST JUMPDEST DUP2 MSTORE POP PUSH1 0x1 PUSH0 CALLER PUSH20 0xFFFFFFFFFFFFFFFFFFFFFFFFFFFFFFFFFFFFFFFF AND PUSH20 0xFFFFFFFFFFFFFFFFFFFFFFFFFFFFFFFFFFFFFFFF AND DUP2 MSTORE PUSH1 0x20 ADD SWAP1 DUP2 MSTORE PUSH1 0x20 ADD PUSH0 KECCAK256 PUSH0 DUP3 ADD MLOAD DUP2 PUSH0 ADD SWAP1 DUP2 PUSH2 0x238E SWAP2 SWAP1 PUSH2 0x39D8 JUMP JUMPDEST POP PUSH1 0x20 DUP3 ADD MLOAD DUP2 PUSH1 0x1 ADD PUSH0 PUSH2 0x100 EXP DUP2 SLOAD DUP2 PUSH1 0xFF MUL NOT AND SWAP1 DUP4 PUSH1 0x3 DUP2 GT ISZERO PUSH2 0x23B9 JUMPI PUSH2 0x23B8 PUSH2 0x33BF JUMP JUMPDEST JUMPDEST MUL OR SWAP1 SSTORE POP SWAP1 POP POP PUSH1 0x3 CALLER SWAP1 DUP1 PUSH1 0x1 DUP2 SLOAD ADD DUP1 DUP3 SSTORE DUP1 SWAP2 POP POP PUSH1 0x1 SWAP1 SUB SWAP1 PUSH0 MSTORE PUSH1 0x20 PUSH0 KECCAK256 ADD PUSH0 SWAP1 SWAP2 SWAP1 SWAP2 SWAP1 SWAP2 PUSH2 0x100 EXP DUP2 SLOAD DUP2 PUSH20 0xFFFFFFFFFFFFFFFFFFFFFFFFFFFFFFFFFFFFFFFF MUL NOT AND SWAP1 DUP4 PUSH20 0xFFFFFFFFFFFFFFFFFFFFFFFFFFFFFFFFFFFFFFFF AND MUL OR SWAP1 SSTORE POP CALLER PUSH20 0xFFFFFFFFFFFFFFFFFFFFFFFFFFFFFFFFFFFFFFFF AND PUSH32 0x5C8E9EDC72D072388931DB2631B495F2CE13D46AF59A06E2A24E0E514DB7904B DUP3 PUSH1 0x3 PUSH1 0x40 MLOAD PUSH2 0x246A SWAP3 SWAP2 SWAP1 PUSH2 0x3B0F JUMP JUMPDEST PUSH1 0x40 MLOAD DUP1 SWAP2 SUB SWAP1 LOG2 POP JUMP JUMPDEST PUSH0 PUSH1 0x4 DUP2 GT ISZERO PUSH2 0x2488 JUMPI PUSH2 0x2487 PUSH2 0x33BF JUMP JUMPDEST JUMPDEST PUSH0 DUP1 CALLER PUSH20 0xFFFFFFFFFFFFFFFFFFFFFFFFFFFFFFFFFFFFFFFF AND PUSH20 0xFFFFFFFFFFFFFFFFFFFFFFFFFFFFFFFFFFFFFFFF AND DUP2 MSTORE PUSH1 0x20 ADD SWAP1 DUP2 MSTORE PUSH1 0x20 ADD PUSH0 KECCAK256 PUSH0 SWAP1 SLOAD SWAP1 PUSH2 0x100 EXP SWAP1 DIV PUSH1 0xFF AND PUSH1 0x4 DUP2 GT ISZERO PUSH2 0x24E3 JUMPI PUSH2 0x24E2 PUSH2 0x33BF JUMP JUMPDEST JUMPDEST EQ PUSH2 0x2523 JUMPI PUSH1 0x40 MLOAD PUSH32 0x8C379A000000000000000000000000000000000000000000000000000000000 DUP2 MSTORE PUSH1 0x4 ADD PUSH2 0x251A SWAP1 PUSH2 0x37C0 JUMP JUMPDEST PUSH1 0x40 MLOAD DUP1 SWAP2 SUB SWAP1 REVERT JUMPDEST PUSH0 PUSH1 0x3 DUP2 GT ISZERO PUSH2 0x2536 JUMPI PUSH2 0x2535 PUSH2 0x33BF JUMP JUMPDEST JUMPDEST PUSH1 0x1 PUSH0 CALLER PUSH20 0xFFFFFFFFFFFFFFFFFFFFFFFFFFFFFFFFFFFFFFFF AND PUSH20 0xFFFFFFFFFFFFFFFFFFFFFFFFFFFFFFFFFFFFFFFF AND DUP2 MSTORE PUSH1 0x20 ADD SWAP1 DUP2 MSTORE PUSH1 0x20 ADD PUSH0 KECCAK256 PUSH1 0x1 ADD PUSH0 SWAP1 SLOAD SWAP1 PUSH2 0x100 EXP SWAP1 DIV PUSH1 0xFF AND PUSH1 0x3 DUP2 GT ISZERO PUSH2 0x2595 JUMPI PUSH2 0x2594 PUSH2 0x33BF JUMP JUMPDEST JUMPDEST EQ PUSH2 0x25D5 JUMPI PUSH1 0x40 MLOAD PUSH32 0x8C379A000000000000000000000000000000000000000000000000000000000 DUP2 MSTORE PUSH1 0x4 ADD PUSH2 0x25CC SWAP1 PUSH2 0x3AF1 JUMP JUMPDEST PUSH1 0x40 MLOAD DUP1 SWAP2 SUB SWAP1 REVERT JUMPDEST PUSH1 0x40 MLOAD DUP1 PUSH1 0x40 ADD PUSH1 0x40 MSTORE DUP1 DUP3 DUP2 MSTORE PUSH1 0x20 ADD PUSH1 0x1 PUSH1 0x3 DUP2 GT ISZERO PUSH2 0x25FA JUMPI PUSH2 0x25F9 PUSH2 0x33BF JUMP JUMPDEST JUMPDEST DUP2 MSTORE POP PUSH1 0x1 PUSH0 CALLER PUSH20 0xFFFFFFFFFFFFFFFFFFFFFFFFFFFFFFFFFFFFFFFF AND PUSH20 0xFFFFFFFFFFFFFFFFFFFFFFFFFFFFFFFFFFFFFFFF AND DUP2 MSTORE PUSH1 0x20 ADD SWAP1 DUP2 MSTORE PUSH1 0x20 ADD PUSH0 KECCAK256 PUSH0 DUP3 ADD MLOAD DUP2 PUSH0 ADD SWAP1 DUP2 PUSH2 0x264D SWAP2 SWAP1 PUSH2 0x39D8 JUMP JUMPDEST POP PUSH1 0x20 DUP3 ADD MLOAD DUP2 PUSH1 0x1 ADD PUSH0 PUSH2 0x100 EXP DUP2 SLOAD DUP2 PUSH1 0xFF MUL NOT AND SWAP1 DUP4 PUSH1 0x3 DUP2 GT ISZERO PUSH2 0x2678 JUMPI PUSH2 0x2677 PUSH2 0x33BF JUMP JUMPDEST JUMPDEST MUL OR SWAP1 SSTORE POP SWAP1 POP POP PUSH1 0x3 CALLER SWAP1 DUP1 PUSH1 0x1 DUP2 SLOAD ADD DUP1 DUP3 SSTORE DUP1 SWAP2 POP POP PUSH1 0x1 SWAP1 SUB SWAP1 PUSH0 MSTORE PUSH1 0x20 PUSH0 KECCAK256 ADD PUSH0 SWAP1 SWAP2 SWAP1 SWAP2 SWAP1 SWAP2 PUSH2 0x100 EXP DUP2 SLOAD DUP2 PUSH20 0xFFFFFFFFFFFFFFFFFFFFFFFFFFFFFFFFFFFFFFFF MUL NOT AND SWAP1 DUP4 PUSH20 0xFFFFFFFFFFFFFFFFFFFFFFFFFFFFFFFFFFFFFFFF AND MUL OR SWAP1 SSTORE POP CALLER PUSH20 0xFFFFFFFFFFFFFFFFFFFFFFFFFFFFFFFFFFFFFFFF AND PUSH32 0x5C8E9EDC72D072388931DB2631B495F2CE13D46AF59A06E2A24E0E514DB7904B DUP3 PUSH1 0x2 PUSH1 0x40 MLOAD PUSH2 0x2729 SWAP3 SWAP2 SWAP1 PUSH2 0x3B0F JUMP JUMPDEST PUSH1 0x40 MLOAD DUP1 SWAP2 SUB SWAP1 LOG2 POP JUMP JUMPDEST PUSH1 0x1 PUSH1 0x20 MSTORE DUP1 PUSH0 MSTORE PUSH1 0x40 PUSH0 KECCAK256 PUSH0 SWAP2 POP SWAP1 POP DUP1 PUSH0 ADD DUP1 SLOAD PUSH2 0x2753 SWAP1 PUSH2 0x380B JUMP JUMPDEST DUP1 PUSH1 0x1F ADD PUSH1 0x20 DUP1 SWAP2 DIV MUL PUSH1 0x20 ADD PUSH1 0x40 MLOAD SWAP1 DUP2 ADD PUSH1 0x40 MSTORE DUP1 SWAP3 SWAP2 SWAP1 DUP2 DUP2 MSTORE PUSH1 0x20 ADD DUP3 DUP1 SLOAD PUSH2 0x277F SWAP1 PUSH2 0x380B JUMP JUMPDEST DUP1 ISZERO PUSH2 0x27CA JUMPI DUP1 PUSH1 0x1F LT PUSH2 0x27A1 JUMPI PUSH2 0x100 DUP1 DUP4 SLOAD DIV MUL DUP4 MSTORE SWAP2 PUSH1 0x20 ADD SWAP2 PUSH2 0x27CA JUMP JUMPDEST DUP3 ADD SWAP2 SWAP1 PUSH0 MSTORE PUSH1 0x20 PUSH0 KECCAK256 SWAP1 JUMPDEST DUP2 SLOAD DUP2 MSTORE SWAP1 PUSH1 0x1 ADD SWAP1 PUSH1 0x20 ADD DUP1 DUP4 GT PUSH2 0x27AD JUMPI DUP3 SWAP1 SUB PUSH1 0x1F AND DUP3 ADD SWAP2 JUMPDEST POP POP POP POP POP SWAP1 DUP1 PUSH1 0x1 ADD PUSH0 SWAP1 SLOAD SWAP1 PUSH2 0x100 EXP SWAP1 DIV PUSH1 0xFF AND SWAP1 POP DUP3 JUMP JUMPDEST PUSH1 0x2 PUSH0 SWAP1 SLOAD SWAP1 PUSH2 0x100 EXP SWAP1 DIV PUSH20 0xFFFFFFFFFFFFFFFFFFFFFFFFFFFFFFFFFFFFFFFF AND PUSH20 0xFFFFFFFFFFFFFFFFFFFFFFFFFFFFFFFFFFFFFFFF AND CALLER PUSH20 0xFFFFFFFFFFFFFFFFFFFFFFFFFFFFFFFFFFFFFFFF AND EQ PUSH2 0x2875 JUMPI PUSH1 0x40 MLOAD PUSH32 0x8C379A000000000000000000000000000000000000000000000000000000000 DUP2 MSTORE PUSH1 0x4 ADD PUSH2 0x286C SWAP1 PUSH2 0x36F0 JUMP JUMPDEST PUSH1 0x40 MLOAD DUP1 SWAP2 SUB SWAP1 REVERT JUMPDEST PUSH1 0x1 PUSH1 0x3 DUP2 GT ISZERO PUSH2 0x2889 JUMPI PUSH2 0x2888 PUSH2 0x33BF JUMP JUMPDEST JUMPDEST PUSH1 0x1 PUSH0 DUP4 PUSH20 0xFFFFFFFFFFFFFFFFFFFFFFFFFFFFFFFFFFFFFFFF AND PUSH20 0xFFFFFFFFFFFFFFFFFFFFFFFFFFFFFFFFFFFFFFFF AND DUP2 MSTORE PUSH1 0x20 ADD SWAP1 DUP2 MSTORE PUSH1 0x20 ADD PUSH0 KECCAK256 PUSH1 0x1 ADD PUSH0 SWAP1 SLOAD SWAP1 PUSH2 0x100 EXP SWAP1 DIV PUSH1 0xFF AND PUSH1 0x3 DUP2 GT ISZERO PUSH2 0x28E8 JUMPI PUSH2 0x28E7 PUSH2 0x33BF JUMP JUMPDEST JUMPDEST EQ PUSH2 0x2928 JUMPI PUSH1 0x40 MLOAD PUSH32 0x8C379A000000000000000000000000000000000000000000000000000000000 DUP2 MSTORE PUSH1 0x4 ADD PUSH2 0x291F SWAP1 PUSH2 0x3758 JUMP JUMPDEST PUSH1 0x40 MLOAD DUP1 SWAP2 SUB SWAP1 REVERT JUMPDEST PUSH0 PUSH1 0x4 DUP2 GT ISZERO PUSH2 0x293B JUMPI PUSH2 0x293A PUSH2 0x33BF JUMP JUMPDEST JUMPDEST PUSH0 DUP1 DUP4 PUSH20 0xFFFFFFFFFFFFFFFFFFFFFFFFFFFFFFFFFFFFFFFF AND PUSH20 0xFFFFFFFFFFFFFFFFFFFFFFFFFFFFFFFFFFFFFFFF AND DUP2 MSTORE PUSH1 0x20 ADD SWAP1 DUP2 MSTORE PUSH1 0x20 ADD PUSH0 KECCAK256 PUSH0 SWAP1 SLOAD SWAP1 PUSH2 0x100 EXP SWAP1 DIV PUSH1 0xFF AND PUSH1 0x4 DUP2 GT ISZERO PUSH2 0x2996 JUMPI PUSH2 0x2995 PUSH2 0x33BF JUMP JUMPDEST JUMPDEST EQ PUSH2 0x29D6 JUMPI PUSH1 0x40 MLOAD PUSH32 0x8C379A000000000000000000000000000000000000000000000000000000000 DUP2 MSTORE PUSH1 0x4 ADD PUSH2 0x29CD SWAP1 PUSH2 0x37C0 JUMP JUMPDEST PUSH1 0x40 MLOAD DUP1 SWAP2 SUB SWAP1 REVERT JUMPDEST PUSH1 0x4 PUSH0 DUP1 DUP4 PUSH20 0xFFFFFFFFFFFFFFFFFFFFFFFFFFFFFFFFFFFFFFFF AND PUSH20 0xFFFFFFFFFFFFFFFFFFFFFFFFFFFFFFFFFFFFFFFF AND DUP2 MSTORE PUSH1 0x20 ADD SWAP1 DUP2 MSTORE PUSH1 0x20 ADD PUSH0 KECCAK256 PUSH0 PUSH2 0x100 EXP DUP2 SLOAD DUP2 PUSH1 0xFF MUL NOT AND SWAP1 DUP4 PUSH1 0x4 DUP2 GT ISZERO PUSH2 0x2A35 JUMPI PUSH2 0x2A34 PUSH2 0x33BF JUMP JUMPDEST JUMPDEST MUL OR SWAP1 SSTORE POP PUSH1 0x2 PUSH1 0x1 PUSH0 DUP4 PUSH20 0xFFFFFFFFFFFFFFFFFFFFFFFFFFFFFFFFFFFFFFFF AND PUSH20 0xFFFFFFFFFFFFFFFFFFFFFFFFFFFFFFFFFFFFFFFF AND DUP2 MSTORE PUSH1 0x20 ADD SWAP1 DUP2 MSTORE PUSH1 0x20 ADD PUSH0 KECCAK256 PUSH1 0x1 ADD PUSH0 PUSH2 0x100 EXP DUP2 SLOAD DUP2 PUSH1 0xFF MUL NOT AND SWAP1 DUP4 PUSH1 0x3 DUP2 GT ISZERO PUSH2 0x2A9D JUMPI PUSH2 0x2A9C PUSH2 0x33BF JUMP JUMPDEST JUMPDEST MUL OR SWAP1 SSTORE POP PUSH1 0x7 PUSH1 0x40 MLOAD DUP1 PUSH1 0x60 ADD PUSH1 0x40 MSTORE DUP1 DUP4 PUSH20 0xFFFFFFFFFFFFFFFFFFFFFFFFFFFFFFFFFFFFFFFF AND DUP2 MSTORE PUSH1 0x20 ADD PUSH1 0x4 DUP1 DUP2 GT ISZERO PUSH2 0x2ADE JUMPI PUSH2 0x2ADD PUSH2 0x33BF JUMP JUMPDEST JUMPDEST DUP2 MSTORE PUSH1 0x20 ADD PUSH1 0x1 PUSH0 DUP6 PUSH20 0xFFFFFFFFFFFFFFFFFFFFFFFFFFFFFFFFFFFFFFFF AND PUSH20 0xFFFFFFFFFFFFFFFFFFFFFFFFFFFFFFFFFFFFFFFF AND DUP2 MSTORE PUSH1 0x20 ADD SWAP1 DUP2 MSTORE PUSH1 0x20 ADD PUSH0 KECCAK256 PUSH0 ADD DUP1 SLOAD PUSH2 0x2B2D SWAP1 PUSH2 0x380B JUMP JUMPDEST DUP1 PUSH1 0x1F ADD PUSH1 0x20 DUP1 SWAP2 DIV MUL PUSH1 0x20 ADD PUSH1 0x40 MLOAD SWAP1 DUP2 ADD PUSH1 0x40 MSTORE DUP1 SWAP3 SWAP2 SWAP1 DUP2 DUP2 MSTORE PUSH1 0x20 ADD DUP3 DUP1 SLOAD PUSH2 0x2B59 SWAP1 PUSH2 0x380B JUMP JUMPDEST DUP1 ISZERO PUSH2 0x2BA4 JUMPI DUP1 PUSH1 0x1F LT PUSH2 0x2B7B JUMPI PUSH2 0x100 DUP1 DUP4 SLOAD DIV MUL DUP4 MSTORE SWAP2 PUSH1 0x20 ADD SWAP2 PUSH2 0x2BA4 JUMP JUMPDEST DUP3 ADD SWAP2 SWAP1 PUSH0 MSTORE PUSH1 0x20 PUSH0 KECCAK256 SWAP1 JUMPDEST DUP2 SLOAD DUP2 MSTORE SWAP1 PUSH1 0x1 ADD SWAP1 PUSH1 0x20 ADD DUP1 DUP4 GT PUSH2 0x2B87 JUMPI DUP3 SWAP1 SUB PUSH1 0x1F AND DUP3 ADD SWAP2 JUMPDEST POP POP POP POP POP DUP2 MSTORE POP SWAP1 DUP1 PUSH1 0x1 DUP2 SLOAD ADD DUP1 DUP3 SSTORE DUP1 SWAP2 POP POP PUSH1 0x1 SWAP1 SUB SWAP1 PUSH0 MSTORE PUSH1 0x20 PUSH0 KECCAK256 SWAP1 PUSH1 0x2 MUL ADD PUSH0 SWAP1 SWAP2 SWAP1 SWAP2 SWAP1 SWAP2 POP PUSH0 DUP3 ADD MLOAD DUP2 PUSH0 ADD PUSH0 PUSH2 0x100 EXP DUP2 SLOAD DUP2 PUSH20 0xFFFFFFFFFFFFFFFFFFFFFFFFFFFFFFFFFFFFFFFF MUL NOT AND SWAP1 DUP4 PUSH20 0xFFFFFFFFFFFFFFFFFFFFFFFFFFFFFFFFFFFFFFFF AND MUL OR SWAP1 SSTORE POP PUSH1 0x20 DUP3 ADD MLOAD DUP2 PUSH0 ADD PUSH1 0x14 PUSH2 0x100 EXP DUP2 SLOAD DUP2 PUSH1 0xFF MUL NOT AND SWAP1 DUP4 PUSH1 0x4 DUP2 GT ISZERO PUSH2 0x2C40 JUMPI PUSH2 0x2C3F PUSH2 0x33BF JUMP JUMPDEST JUMPDEST MUL OR SWAP1 SSTORE POP PUSH1 0x40 DUP3 ADD MLOAD DUP2 PUSH1 0x1 ADD SWAP1 DUP2 PUSH2 0x2C5A SWAP2 SWAP1 PUSH2 0x39D8 JUMP JUMPDEST POP POP POP PUSH2 0x2C66 DUP2 PUSH2 0x2FBC JUMP JUMPDEST DUP1 PUSH20 0xFFFFFFFFFFFFFFFFFFFFFFFFFFFFFFFFFFFFFFFF AND PUSH32 0x42F52F18CA9258767CEF802B6283A39F6C1053FBD02BEE367EDC363DA679F86 PUSH1 0x4 PUSH1 0x40 MLOAD PUSH2 0x2CAD SWAP2 SWAP1 PUSH2 0x34E7 JUMP JUMPDEST PUSH1 0x40 MLOAD DUP1 SWAP2 SUB SWAP1 LOG2 POP JUMP JUMPDEST PUSH1 0x2 PUSH0 SWAP1 SLOAD SWAP1 PUSH2 0x100 EXP SWAP1 DIV PUSH20 0xFFFFFFFFFFFFFFFFFFFFFFFFFFFFFFFFFFFFFFFF AND PUSH20 0xFFFFFFFFFFFFFFFFFFFFFFFFFFFFFFFFFFFFFFFF AND CALLER PUSH20 0xFFFFFFFFFFFFFFFFFFFFFFFFFFFFFFFFFFFFFFFF AND EQ PUSH2 0x2D47 JUMPI PUSH1 0x40 MLOAD PUSH32 0x8C379A000000000000000000000000000000000000000000000000000000000 DUP2 MSTORE PUSH1 0x4 ADD PUSH2 0x2D3E SWAP1 PUSH2 0x36F0 JUMP JUMPDEST PUSH1 0x40 MLOAD DUP1 SWAP2 SUB SWAP1 REVERT JUMPDEST PUSH1 0x1 PUSH1 0x3 DUP2 GT ISZERO PUSH2 0x2D5B JUMPI PUSH2 0x2D5A PUSH2 0x33BF JUMP JUMPDEST JUMPDEST PUSH1 0x1 PUSH0 DUP4 PUSH20 0xFFFFFFFFFFFFFFFFFFFFFFFFFFFFFFFFFFFFFFFF AND PUSH20 0xFFFFFFFFFFFFFFFFFFFFFFFFFFFFFFFFFFFFFFFF AND DUP2 MSTORE PUSH1 0x20 ADD SWAP1 DUP2 MSTORE PUSH1 0x20 ADD PUSH0 KECCAK256 PUSH1 0x1 ADD PUSH0 SWAP1 SLOAD SWAP1 PUSH2 0x100 EXP SWAP1 DIV PUSH1 0xFF AND PUSH1 0x3 DUP2 GT ISZERO PUSH2 0x2DBA JUMPI PUSH2 0x2DB9 PUSH2 0x33BF JUMP JUMPDEST JUMPDEST EQ PUSH2 0x2DFA JUMPI PUSH1 0x40 MLOAD PUSH32 0x8C379A000000000000000000000000000000000000000000000000000000000 DUP2 MSTORE PUSH1 0x4 ADD PUSH2 0x2DF1 SWAP1 PUSH2 0x3BEF JUMP JUMPDEST PUSH1 0x40 MLOAD DUP1 SWAP2 SUB SWAP1 REVERT JUMPDEST PUSH1 0x3 PUSH1 0x1 PUSH0 DUP4 PUSH20 0xFFFFFFFFFFFFFFFFFFFFFFFFFFFFFFFFFFFFFFFF AND PUSH20 0xFFFFFFFFFFFFFFFFFFFFFFFFFFFFFFFFFFFFFFFF AND DUP2 MSTORE PUSH1 0x20 ADD SWAP1 DUP2 MSTORE PUSH1 0x20 ADD PUSH0 KECCAK256 PUSH1 0x1 ADD PUSH0 PUSH2 0x100 EXP DUP2 SLOAD DUP2 PUSH1 0xFF MUL NOT AND SWAP1 DUP4 PUSH1 0x3 DUP2 GT ISZERO PUSH2 0x2E5D JUMPI PUSH2 0x2E5C PUSH2 0x33BF JUMP JUMPDEST JUMPDEST MUL OR SWAP1 SSTORE POP PUSH2 0x2E6B DUP2 PUSH2 0x2FBC JUMP JUMPDEST DUP1 PUSH20 0xFFFFFFFFFFFFFFFFFFFFFFFFFFFFFFFFFFFFFFFF AND PUSH32 0x82B1566CE0BDFB0CFB0387F61899EBEF3513A2A7718D2A3BA352BECB8F32EBDD PUSH1 0x40 MLOAD PUSH1 0x40 MLOAD DUP1 SWAP2 SUB SWAP1 LOG2 POP JUMP JUMPDEST PUSH1 0x5 DUP2 DUP2 SLOAD DUP2 LT PUSH2 0x2EC0 JUMPI PUSH0 DUP1 REVERT JUMPDEST SWAP1 PUSH0 MSTORE PUSH1 0x20 PUSH0 KECCAK256 SWAP1 PUSH1 0x2 MUL ADD PUSH0 SWAP2 POP SWAP1 POP DUP1 PUSH0 ADD PUSH0 SWAP1 SLOAD SWAP1 PUSH2 0x100 EXP SWAP1 DIV PUSH20 0xFFFFFFFFFFFFFFFFFFFFFFFFFFFFFFFFFFFFFFFF AND SWAP1 DUP1 PUSH0 ADD PUSH1 0x14 SWAP1 SLOAD SWAP1 PUSH2 0x100 EXP SWAP1 DIV PUSH1 0xFF AND SWAP1 DUP1 PUSH1 0x1 ADD DUP1 SLOAD PUSH2 0x2F16 SWAP1 PUSH2 0x380B JUMP JUMPDEST DUP1 PUSH1 0x1F ADD PUSH1 0x20 DUP1 SWAP2 DIV MUL PUSH1 0x20 ADD PUSH1 0x40 MLOAD SWAP1 DUP2 ADD PUSH1 0x40 MSTORE DUP1 SWAP3 SWAP2 SWAP1 DUP2 DUP2 MSTORE PUSH1 0x20 ADD DUP3 DUP1 SLOAD PUSH2 0x2F42 SWAP1 PUSH2 0x380B JUMP JUMPDEST DUP1 ISZERO PUSH2 0x2F8D JUMPI DUP1 PUSH1 0x1F LT PUSH2 0x2F64 JUMPI PUSH2 0x100 DUP1 DUP4 SLOAD DIV MUL DUP4 MSTORE SWAP2 PUSH1 0x20 ADD SWAP2 PUSH2 0x2F8D JUMP JUMPDEST DUP3 ADD SWAP2 SWAP1 PUSH0 MSTORE PUSH1 0x20 PUSH0 KECCAK256 SWAP1 JUMPDEST DUP2 SLOAD DUP2 MSTORE SWAP1 PUSH1 0x1 ADD SWAP1 PUSH1 0x20 ADD DUP1 DUP4 GT PUSH2 0x2F70 JUMPI DUP3 SWAP1 SUB PUSH1 0x1F AND DUP3 ADD SWAP2 JUMPDEST POP POP POP POP POP SWAP1 POP DUP4 JUMP JUMPDEST PUSH1 0x2 PUSH0 SWAP1 SLOAD SWAP1 PUSH2 0x100 EXP SWAP1 DIV PUSH20 0xFFFFFFFFFFFFFFFFFFFFFFFFFFFFFFFFFFFFFFFF AND DUP2 JUMP JUMPDEST PUSH0 JUMPDEST PUSH1 0x3 DUP1 SLOAD SWAP1 POP DUP2 LT ISZERO PUSH2 0x3135 JUMPI DUP2 PUSH20 0xFFFFFFFFFFFFFFFFFFFFFFFFFFFFFFFFFFFFFFFF AND PUSH1 0x3 DUP3 DUP2 SLOAD DUP2 LT PUSH2 0x2FF6 JUMPI PUSH2 0x2FF5 PUSH2 0x3C0D JUMP JUMPDEST JUMPDEST SWAP1 PUSH0 MSTORE PUSH1 0x20 PUSH0 KECCAK256 ADD PUSH0 SWAP1 SLOAD SWAP1 PUSH2 0x100 EXP SWAP1 DIV PUSH20 0xFFFFFFFFFFFFFFFFFFFFFFFFFFFFFFFFFFFFFFFF AND PUSH20 0xFFFFFFFFFFFFFFFFFFFFFFFFFFFFFFFFFFFFFFFF AND SUB PUSH2 0x3128 JUMPI PUSH1 0x3 PUSH1 0x1 PUSH1 0x3 DUP1 SLOAD SWAP1 POP PUSH2 0x304D SWAP2 SWAP1 PUSH2 0x3C67 JUMP JUMPDEST DUP2 SLOAD DUP2 LT PUSH2 0x305E JUMPI PUSH2 0x305D PUSH2 0x3C0D JUMP JUMPDEST JUMPDEST SWAP1 PUSH0 MSTORE PUSH1 0x20 PUSH0 KECCAK256 ADD PUSH0 SWAP1 SLOAD SWAP1 PUSH2 0x100 EXP SWAP1 DIV PUSH20 0xFFFFFFFFFFFFFFFFFFFFFFFFFFFFFFFFFFFFFFFF AND PUSH1 0x3 DUP3 DUP2 SLOAD DUP2 LT PUSH2 0x309A JUMPI PUSH2 0x3099 PUSH2 0x3C0D JUMP JUMPDEST JUMPDEST SWAP1 PUSH0 MSTORE PUSH1 0x20 PUSH0 KECCAK256 ADD PUSH0 PUSH2 0x100 EXP DUP2 SLOAD DUP2 PUSH20 0xFFFFFFFFFFFFFFFFFFFFFFFFFFFFFFFFFFFFFFFF MUL NOT AND SWAP1 DUP4 PUSH20 0xFFFFFFFFFFFFFFFFFFFFFFFFFFFFFFFFFFFFFFFF AND MUL OR SWAP1 SSTORE POP PUSH1 0x3 DUP1 SLOAD DUP1 PUSH2 0x30F1 JUMPI PUSH2 0x30F0 PUSH2 0x3C9A JUMP JUMPDEST JUMPDEST PUSH1 0x1 SWAP1 SUB DUP2 DUP2 SWAP1 PUSH0 MSTORE PUSH1 0x20 PUSH0 KECCAK256 ADD PUSH0 PUSH2 0x100 EXP DUP2 SLOAD SWAP1 PUSH20 0xFFFFFFFFFFFFFFFFFFFFFFFFFFFFFFFFFFFFFFFF MUL NOT AND SWAP1 SSTORE SWAP1 SSTORE PUSH2 0x3135 JUMP JUMPDEST DUP1 DUP1 PUSH1 0x1 ADD SWAP2 POP POP PUSH2 0x2FBE JUMP JUMPDEST POP POP JUMP JUMPDEST PUSH0 PUSH1 0x40 MLOAD SWAP1 POP SWAP1 JUMP JUMPDEST PUSH0 DUP1 REVERT JUMPDEST PUSH0 DUP1 REVERT JUMPDEST PUSH0 PUSH20 0xFFFFFFFFFFFFFFFFFFFFFFFFFFFFFFFFFFFFFFFF DUP3 AND SWAP1 POP SWAP2 SWAP1 POP JUMP JUMPDEST PUSH0 PUSH2 0x3173 DUP3 PUSH2 0x314A JUMP JUMPDEST SWAP1 POP SWAP2 SWAP1 POP JUMP JUMPDEST PUSH2 0x3183 DUP2 PUSH2 0x3169 JUMP JUMPDEST DUP2 EQ PUSH2 0x318D JUMPI PUSH0 DUP1 REVERT JUMPDEST POP JUMP JUMPDEST PUSH0 DUP2 CALLDATALOAD SWAP1 POP PUSH2 0x319E DUP2 PUSH2 0x317A JUMP JUMPDEST SWAP3 SWAP2 POP POP JUMP JUMPDEST PUSH0 PUSH1 0x20 DUP3 DUP5 SUB SLT ISZERO PUSH2 0x31B9 JUMPI PUSH2 0x31B8 PUSH2 0x3142 JUMP JUMPDEST JUMPDEST PUSH0 PUSH2 0x31C6 DUP5 DUP3 DUP6 ADD PUSH2 0x3190 JUMP JUMPDEST SWAP2 POP POP SWAP3 SWAP2 POP POP JUMP JUMPDEST PUSH0 DUP1 REVERT JUMPDEST PUSH0 DUP1 REVERT JUMPDEST PUSH0 PUSH1 0x1F NOT PUSH1 0x1F DUP4 ADD AND SWAP1 POP SWAP2 SWAP1 POP JUMP JUMPDEST PUSH32 0x4E487B7100000000000000000000000000000000000000000000000000000000 PUSH0 MSTORE PUSH1 0x41 PUSH1 0x4 MSTORE PUSH1 0x24 PUSH0 REVERT JUMPDEST PUSH2 0x321D DUP3 PUSH2 0x31D7 JUMP JUMPDEST DUP2 ADD DUP2 DUP2 LT PUSH8 0xFFFFFFFFFFFFFFFF DUP3 GT OR ISZERO PUSH2 0x323C JUMPI PUSH2 0x323B PUSH2 0x31E7 JUMP JUMPDEST JUMPDEST DUP1 PUSH1 0x40 MSTORE POP POP POP JUMP JUMPDEST PUSH0 PUSH2 0x324E PUSH2 0x3139 JUMP JUMPDEST SWAP1 POP PUSH2 0x325A DUP3 DUP3 PUSH2 0x3214 JUMP JUMPDEST SWAP2 SWAP1 POP JUMP JUMPDEST PUSH0 PUSH8 0xFFFFFFFFFFFFFFFF DUP3 GT ISZERO PUSH2 0x3279 JUMPI PUSH2 0x3278 PUSH2 0x31E7 JUMP JUMPDEST JUMPDEST PUSH2 0x3282 DUP3 PUSH2 0x31D7 JUMP JUMPDEST SWAP1 POP PUSH1 0x20 DUP2 ADD SWAP1 POP SWAP2 SWAP1 POP JUMP JUMPDEST DUP3 DUP2 DUP4 CALLDATACOPY PUSH0 DUP4 DUP4 ADD MSTORE POP POP POP JUMP JUMPDEST PUSH0 PUSH2 0x32AF PUSH2 0x32AA DUP5 PUSH2 0x325F JUMP JUMPDEST PUSH2 0x3245 JUMP JUMPDEST SWAP1 POP DUP3 DUP2 MSTORE PUSH1 0x20 DUP2 ADD DUP5 DUP5 DUP5 ADD GT ISZERO PUSH2 0x32CB JUMPI PUSH2 0x32CA PUSH2 0x31D3 JUMP JUMPDEST JUMPDEST PUSH2 0x32D6 DUP5 DUP3 DUP6 PUSH2 0x328F JUMP JUMPDEST POP SWAP4 SWAP3 POP POP POP JUMP JUMPDEST PUSH0 DUP3 PUSH1 0x1F DUP4 ADD SLT PUSH2 0x32F2 JUMPI PUSH2 0x32F1 PUSH2 0x31CF JUMP JUMPDEST JUMPDEST DUP2 CALLDATALOAD PUSH2 0x3302 DUP5 DUP3 PUSH1 0x20 DUP7 ADD PUSH2 0x329D JUMP JUMPDEST SWAP2 POP POP SWAP3 SWAP2 POP POP JUMP JUMPDEST PUSH0 PUSH1 0x20 DUP3 DUP5 SUB SLT ISZERO PUSH2 0x3320 JUMPI PUSH2 0x331F PUSH2 0x3142 JUMP JUMPDEST JUMPDEST PUSH0 DUP3 ADD CALLDATALOAD PUSH8 0xFFFFFFFFFFFFFFFF DUP2 GT ISZERO PUSH2 0x333D JUMPI PUSH2 0x333C PUSH2 0x3146 JUMP JUMPDEST JUMPDEST PUSH2 0x3349 DUP5 DUP3 DUP6 ADD PUSH2 0x32DE JUMP JUMPDEST SWAP2 POP POP SWAP3 SWAP2 POP POP JUMP JUMPDEST PUSH0 DUP2 SWAP1 POP SWAP2 SWAP1 POP JUMP JUMPDEST PUSH2 0x3364 DUP2 PUSH2 0x3352 JUMP JUMPDEST DUP2 EQ PUSH2 0x336E JUMPI PUSH0 DUP1 REVERT JUMPDEST POP JUMP JUMPDEST PUSH0 DUP2 CALLDATALOAD SWAP1 POP PUSH2 0x337F DUP2 PUSH2 0x335B JUMP JUMPDEST SWAP3 SWAP2 POP POP JUMP JUMPDEST PUSH0 PUSH1 0x20 DUP3 DUP5 SUB SLT ISZERO PUSH2 0x339A JUMPI PUSH2 0x3399 PUSH2 0x3142 JUMP JUMPDEST JUMPDEST PUSH0 PUSH2 0x33A7 DUP5 DUP3 DUP6 ADD PUSH2 0x3371 JUMP JUMPDEST SWAP2 POP POP SWAP3 SWAP2 POP POP JUMP JUMPDEST PUSH2 0x33B9 DUP2 PUSH2 0x3169 JUMP JUMPDEST DUP3 MSTORE POP POP JUMP JUMPDEST PUSH32 0x4E487B7100000000000000000000000000000000000000000000000000000000 PUSH0 MSTORE PUSH1 0x21 PUSH1 0x4 MSTORE PUSH1 0x24 PUSH0 REVERT JUMPDEST PUSH1 0x5 DUP2 LT PUSH2 0x33FD JUMPI PUSH2 0x33FC PUSH2 0x33BF JUMP JUMPDEST JUMPDEST POP JUMP JUMPDEST PUSH0 DUP2 SWAP1 POP PUSH2 0x340D DUP3 PUSH2 0x33EC JUMP JUMPDEST SWAP2 SWAP1 POP JUMP JUMPDEST PUSH0 PUSH2 0x341C DUP3 PUSH2 0x3400 JUMP JUMPDEST SWAP1 POP SWAP2 SWAP1 POP JUMP JUMPDEST PUSH2 0x342C DUP2 PUSH2 0x3412 JUMP JUMPDEST DUP3 MSTORE POP POP JUMP JUMPDEST PUSH0 DUP2 MLOAD SWAP1 POP SWAP2 SWAP1 POP JUMP JUMPDEST PUSH0 DUP3 DUP3 MSTORE PUSH1 0x20 DUP3 ADD SWAP1 POP SWAP3 SWAP2 POP POP JUMP JUMPDEST DUP3 DUP2 DUP4 MCOPY PUSH0 DUP4 DUP4 ADD MSTORE POP POP POP JUMP JUMPDEST PUSH0 PUSH2 0x3464 DUP3 PUSH2 0x3432 JUMP JUMPDEST PUSH2 0x346E DUP2 DUP6 PUSH2 0x343C JUMP JUMPDEST SWAP4 POP PUSH2 0x347E DUP2 DUP6 PUSH1 0x20 DUP7 ADD PUSH2 0x344C JUMP JUMPDEST PUSH2 0x3487 DUP2 PUSH2 0x31D7 JUMP JUMPDEST DUP5 ADD SWAP2 POP POP SWAP3 SWAP2 POP POP JUMP JUMPDEST PUSH0 PUSH1 0x60 DUP3 ADD SWAP1 POP PUSH2 0x34A5 PUSH0 DUP4 ADD DUP7 PUSH2 0x33B0 JUMP JUMPDEST PUSH2 0x34B2 PUSH1 0x20 DUP4 ADD DUP6 PUSH2 0x3423 JUMP JUMPDEST DUP2 DUP2 SUB PUSH1 0x40 DUP4 ADD MSTORE PUSH2 0x34C4 DUP2 DUP5 PUSH2 0x345A JUMP JUMPDEST SWAP1 POP SWAP5 SWAP4 POP POP POP POP JUMP JUMPDEST PUSH0 PUSH1 0x20 DUP3 ADD SWAP1 POP PUSH2 0x34E1 PUSH0 DUP4 ADD DUP5 PUSH2 0x33B0 JUMP JUMPDEST SWAP3 SWAP2 POP POP JUMP JUMPDEST PUSH0 PUSH1 0x20 DUP3 ADD SWAP1 POP PUSH2 0x34FA PUSH0 DUP4 ADD DUP5 PUSH2 0x3423 JUMP JUMPDEST SWAP3 SWAP2 POP POP JUMP JUMPDEST PUSH0 PUSH1 0x40 DUP3 ADD SWAP1 POP DUP2 DUP2 SUB PUSH0 DUP4 ADD MSTORE PUSH2 0x3518 DUP2 DUP6 PUSH2 0x345A JUMP JUMPDEST SWAP1 POP DUP2 DUP2 SUB PUSH1 0x20 DUP4 ADD MSTORE PUSH2 0x352C DUP2 DUP5 PUSH2 0x345A JUMP JUMPDEST SWAP1 POP SWAP4 SWAP3 POP POP POP JUMP JUMPDEST PUSH0 DUP2 MLOAD SWAP1 POP SWAP2 SWAP1 POP JUMP JUMPDEST PUSH0 DUP3 DUP3 MSTORE PUSH1 0x20 DUP3 ADD SWAP1 POP SWAP3 SWAP2 POP POP JUMP JUMPDEST PUSH0 DUP2 SWAP1 POP PUSH1 0x20 DUP3 ADD SWAP1 POP SWAP2 SWAP1 POP JUMP JUMPDEST PUSH2 0x3567 DUP2 PUSH2 0x3169 JUMP JUMPDEST DUP3 MSTORE POP POP JUMP JUMPDEST PUSH0 PUSH2 0x3578 DUP4 DUP4 PUSH2 0x355E JUMP JUMPDEST PUSH1 0x20 DUP4 ADD SWAP1 POP SWAP3 SWAP2 POP POP JUMP JUMPDEST PUSH0 PUSH1 0x20 DUP3 ADD SWAP1 POP SWAP2 SWAP1 POP JUMP JUMPDEST PUSH0 PUSH2 0x359A DUP3 PUSH2 0x3535 JUMP JUMPDEST PUSH2 0x35A4 DUP2 DUP6 PUSH2 0x353F JUMP JUMPDEST SWAP4 POP PUSH2 0x35AF DUP4 PUSH2 0x354F JUMP JUMPDEST DUP1 PUSH0 JUMPDEST DUP4 DUP2 LT ISZERO PUSH2 0x35DF JUMPI DUP2 MLOAD PUSH2 0x35C6 DUP9 DUP3 PUSH2 0x356D JUMP JUMPDEST SWAP8 POP PUSH2 0x35D1 DUP4 PUSH2 0x3584 JUMP JUMPDEST SWAP3 POP POP PUSH1 0x1 DUP2 ADD SWAP1 POP PUSH2 0x35B2 JUMP JUMPDEST POP DUP6 SWAP4 POP POP POP POP SWAP3 SWAP2 POP POP JUMP JUMPDEST PUSH0 PUSH1 0x20 DUP3 ADD SWAP1 POP DUP2 DUP2 SUB PUSH0 DUP4 ADD MSTORE PUSH2 0x3604 DUP2 DUP5 PUSH2 0x3590 JUMP JUMPDEST SWAP1 POP SWAP3 SWAP2 POP POP JUMP JUMPDEST PUSH1 0x4 DUP2 LT PUSH2 0x361D JUMPI PUSH2 0x361C PUSH2 0x33BF JUMP JUMPDEST JUMPDEST POP JUMP JUMPDEST PUSH0 DUP2 SWAP1 POP PUSH2 0x362D DUP3 PUSH2 0x360C JUMP JUMPDEST SWAP2 SWAP1 POP JUMP JUMPDEST PUSH0 PUSH2 0x363C DUP3 PUSH2 0x3620 JUMP JUMPDEST SWAP1 POP SWAP2 SWAP1 POP JUMP JUMPDEST PUSH2 0x364C DUP2 PUSH2 0x3632 JUMP JUMPDEST DUP3 MSTORE POP POP JUMP JUMPDEST PUSH0 PUSH1 0x40 DUP3 ADD SWAP1 POP DUP2 DUP2 SUB PUSH0 DUP4 ADD MSTORE PUSH2 0x366A DUP2 DUP6 PUSH2 0x345A JUMP JUMPDEST SWAP1 POP PUSH2 0x3679 PUSH1 0x20 DUP4 ADD DUP5 PUSH2 0x3643 JUMP JUMPDEST SWAP4 SWAP3 POP POP POP JUMP JUMPDEST PUSH32 0x4F6E6C792061646D696E2063616E20706572666F726D20746869732061637469 PUSH0 DUP3 ADD MSTORE PUSH32 0x6F6E000000000000000000000000000000000000000000000000000000000000 PUSH1 0x20 DUP3 ADD MSTORE POP JUMP JUMPDEST PUSH0 PUSH2 0x36DA PUSH1 0x22 DUP4 PUSH2 0x343C JUMP JUMPDEST SWAP2 POP PUSH2 0x36E5 DUP3 PUSH2 0x3680 JUMP JUMPDEST PUSH1 0x40 DUP3 ADD SWAP1 POP SWAP2 SWAP1 POP JUMP JUMPDEST PUSH0 PUSH1 0x20 DUP3 ADD SWAP1 POP DUP2 DUP2 SUB PUSH0 DUP4 ADD MSTORE PUSH2 0x3707 DUP2 PUSH2 0x36CE JUMP JUMPDEST SWAP1 POP SWAP2 SWAP1 POP JUMP JUMPDEST PUSH32 0x4E6F207265717565737420746F20766572696679000000000000000000000000 PUSH0 DUP3 ADD MSTORE POP JUMP JUMPDEST PUSH0 PUSH2 0x3742 PUSH1 0x14 DUP4 PUSH2 0x343C JUMP JUMPDEST SWAP2 POP PUSH2 0x374D DUP3 PUSH2 0x370E JUMP JUMPDEST PUSH1 0x20 DUP3 ADD SWAP1 POP SWAP2 SWAP1 POP JUMP JUMPDEST PUSH0 PUSH1 0x20 DUP3 ADD SWAP1 POP DUP2 DUP2 SUB PUSH0 DUP4 ADD MSTORE PUSH2 0x376F DUP2 PUSH2 0x3736 JUMP JUMPDEST SWAP1 POP SWAP2 SWAP1 POP JUMP JUMPDEST PUSH32 0x526F6C6520616C72656164792061737369676E65640000000000000000000000 PUSH0 DUP3 ADD MSTORE POP JUMP JUMPDEST PUSH0 PUSH2 0x37AA PUSH1 0x15 DUP4 PUSH2 0x343C JUMP JUMPDEST SWAP2 POP PUSH2 0x37B5 DUP3 PUSH2 0x3776 JUMP JUMPDEST PUSH1 0x20 DUP3 ADD SWAP1 POP SWAP2 SWAP1 POP JUMP JUMPDEST PUSH0 PUSH1 0x20 DUP3 ADD SWAP1 POP DUP2 DUP2 SUB PUSH0 DUP4 ADD MSTORE PUSH2 0x37D7 DUP2 PUSH2 0x379E JUMP JUMPDEST SWAP1 POP SWAP2 SWAP1 POP JUMP JUMPDEST PUSH32 0x4E487B7100000000000000000000000000000000000000000000000000000000 PUSH0 MSTORE PUSH1 0x22 PUSH1 0x4 MSTORE PUSH1 0x24 PUSH0 REVERT JUMPDEST PUSH0 PUSH1 0x2 DUP3 DIV SWAP1 POP PUSH1 0x1 DUP3 AND DUP1 PUSH2 0x3822 JUMPI PUSH1 0x7F DUP3 AND SWAP2 POP JUMPDEST PUSH1 0x20 DUP3 LT DUP2 SUB PUSH2 0x3835 JUMPI PUSH2 0x3834 PUSH2 0x37DE JUMP JUMPDEST JUMPDEST POP SWAP2 SWAP1 POP JUMP JUMPDEST PUSH0 DUP2 SWAP1 POP DUP2 PUSH0 MSTORE PUSH1 0x20 PUSH0 KECCAK256 SWAP1 POP SWAP2 SWAP1 POP JUMP JUMPDEST PUSH0 PUSH1 0x20 PUSH1 0x1F DUP4 ADD DIV SWAP1 POP SWAP2 SWAP1 POP JUMP JUMPDEST PUSH0 DUP3 DUP3 SHL SWAP1 POP SWAP3 SWAP2 POP POP JUMP JUMPDEST PUSH0 PUSH1 0x8 DUP4 MUL PUSH2 0x3897 PUSH32 0xFFFFFFFFFFFFFFFFFFFFFFFFFFFFFFFFFFFFFFFFFFFFFFFFFFFFFFFFFFFFFFFF DUP3 PUSH2 0x385C JUMP JUMPDEST PUSH2 0x38A1 DUP7 DUP4 PUSH2 0x385C JUMP JUMPDEST SWAP6 POP DUP1 NOT DUP5 AND SWAP4 POP DUP1 DUP7 AND DUP5 OR SWAP3 POP POP POP SWAP4 SWAP3 POP POP POP JUMP JUMPDEST PUSH0 DUP2 SWAP1 POP SWAP2 SWAP1 POP JUMP JUMPDEST PUSH0 PUSH2 0x38DC PUSH2 0x38D7 PUSH2 0x38D2 DUP5 PUSH2 0x3352 JUMP JUMPDEST PUSH2 0x38B9 JUMP JUMPDEST PUSH2 0x3352 JUMP JUMPDEST SWAP1 POP SWAP2 SWAP1 POP JUMP JUMPDEST PUSH0 DUP2 SWAP1 POP SWAP2 SWAP1 POP JUMP JUMPDEST PUSH2 0x38F5 DUP4 PUSH2 0x38C2 JUMP JUMPDEST PUSH2 0x3909 PUSH2 0x3901 DUP3 PUSH2 0x38E3 JUMP JUMPDEST DUP5 DUP5 SLOAD PUSH2 0x3868 JUMP JUMPDEST DUP3 SSTORE POP POP POP POP JUMP JUMPDEST PUSH0 SWAP1 JUMP JUMPDEST PUSH2 0x391D PUSH2 0x3911 JUMP JUMPDEST PUSH2 0x3928 DUP2 DUP5 DUP5 PUSH2 0x38EC JUMP JUMPDEST POP POP POP JUMP JUMPDEST JUMPDEST DUP2 DUP2 LT ISZERO PUSH2 0x394B JUMPI PUSH2 0x3940 PUSH0 DUP3 PUSH2 0x3915 JUMP JUMPDEST PUSH1 0x1 DUP2 ADD SWAP1 POP PUSH2 0x392E JUMP JUMPDEST POP POP JUMP JUMPDEST PUSH1 0x1F DUP3 GT ISZERO PUSH2 0x3990 JUMPI PUSH2 0x3961 DUP2 PUSH2 0x383B JUMP JUMPDEST PUSH2 0x396A DUP5 PUSH2 0x384D JUMP JUMPDEST DUP2 ADD PUSH1 0x20 DUP6 LT ISZERO PUSH2 0x3979 JUMPI DUP2 SWAP1 POP JUMPDEST PUSH2 0x398D PUSH2 0x3985 DUP6 PUSH2 0x384D JUMP JUMPDEST DUP4 ADD DUP3 PUSH2 0x392D JUMP JUMPDEST POP POP JUMPDEST POP POP POP JUMP JUMPDEST PUSH0 DUP3 DUP3 SHR SWAP1 POP SWAP3 SWAP2 POP POP JUMP JUMPDEST PUSH0 PUSH2 0x39B0 PUSH0 NOT DUP5 PUSH1 0x8 MUL PUSH2 0x3995 JUMP JUMPDEST NOT DUP1 DUP4 AND SWAP2 POP POP SWAP3 SWAP2 POP POP JUMP JUMPDEST PUSH0 PUSH2 0x39C8 DUP4 DUP4 PUSH2 0x39A1 JUMP JUMPDEST SWAP2 POP DUP3 PUSH1 0x2 MUL DUP3 OR SWAP1 POP SWAP3 SWAP2 POP POP JUMP JUMPDEST PUSH2 0x39E1 DUP3 PUSH2 0x3432 JUMP JUMPDEST PUSH8 0xFFFFFFFFFFFFFFFF DUP2 GT ISZERO PUSH2 0x39FA JUMPI PUSH2 0x39F9 PUSH2 0x31E7 JUMP JUMPDEST JUMPDEST PUSH2 0x3A04 DUP3 SLOAD PUSH2 0x380B JUMP JUMPDEST PUSH2 0x3A0F DUP3 DUP3 DUP6 PUSH2 0x394F JUMP JUMPDEST PUSH0 PUSH1 0x20 SWAP1 POP PUSH1 0x1F DUP4 GT PUSH1 0x1 DUP2 EQ PUSH2 0x3A40 JUMPI PUSH0 DUP5 ISZERO PUSH2 0x3A2E JUMPI DUP3 DUP8 ADD MLOAD SWAP1 POP JUMPDEST PUSH2 0x3A38 DUP6 DUP3 PUSH2 0x39BD JUMP JUMPDEST DUP7 SSTORE POP PUSH2 0x3A9F JUMP JUMPDEST PUSH1 0x1F NOT DUP5 AND PUSH2 0x3A4E DUP7 PUSH2 0x383B JUMP JUMPDEST PUSH0 JUMPDEST DUP3 DUP2 LT ISZERO PUSH2 0x3A75 JUMPI DUP5 DUP10 ADD MLOAD DUP3 SSTORE PUSH1 0x1 DUP3 ADD SWAP2 POP PUSH1 0x20 DUP6 ADD SWAP5 POP PUSH1 0x20 DUP2 ADD SWAP1 POP PUSH2 0x3A50 JUMP JUMPDEST DUP7 DUP4 LT ISZERO PUSH2 0x3A92 JUMPI DUP5 DUP10 ADD MLOAD PUSH2 0x3A8E PUSH1 0x1F DUP10 AND DUP3 PUSH2 0x39A1 JUMP JUMPDEST DUP4 SSTORE POP JUMPDEST PUSH1 0x1 PUSH1 0x2 DUP9 MUL ADD DUP9 SSTORE POP POP POP JUMPDEST POP POP POP POP POP POP JUMP JUMPDEST PUSH32 0x526F6C65207265717565737420616C72656164792070656E64696E6700000000 PUSH0 DUP3 ADD MSTORE POP JUMP JUMPDEST PUSH0 PUSH2 0x3ADB PUSH1 0x1C DUP4 PUSH2 0x343C JUMP JUMPDEST SWAP2 POP PUSH2 0x3AE6 DUP3 PUSH2 0x3AA7 JUMP JUMPDEST PUSH1 0x20 DUP3 ADD SWAP1 POP SWAP2 SWAP1 POP JUMP JUMPDEST PUSH0 PUSH1 0x20 DUP3 ADD SWAP1 POP DUP2 DUP2 SUB PUSH0 DUP4 ADD MSTORE PUSH2 0x3B08 DUP2 PUSH2 0x3ACF JUMP JUMPDEST SWAP1 POP SWAP2 SWAP1 POP JUMP JUMPDEST PUSH0 PUSH1 0x40 DUP3 ADD SWAP1 POP DUP2 DUP2 SUB PUSH0 DUP4 ADD MSTORE PUSH2 0x3B27 DUP2 DUP6 PUSH2 0x345A JUMP JUMPDEST SWAP1 POP PUSH2 0x3B36 PUSH1 0x20 DUP4 ADD DUP5 PUSH2 0x3423 JUMP JUMPDEST SWAP4 SWAP3 POP POP POP JUMP JUMPDEST PUSH32 0x5573657220686173206E6F2061737369676E656420726F6C6500000000000000 PUSH0 DUP3 ADD MSTORE POP JUMP JUMPDEST PUSH0 PUSH2 0x3B71 PUSH1 0x19 DUP4 PUSH2 0x343C JUMP JUMPDEST SWAP2 POP PUSH2 0x3B7C DUP3 PUSH2 0x3B3D JUMP JUMPDEST PUSH1 0x20 DUP3 ADD SWAP1 POP SWAP2 SWAP1 POP JUMP JUMPDEST PUSH0 PUSH1 0x20 DUP3 ADD SWAP1 POP DUP2 DUP2 SUB PUSH0 DUP4 ADD MSTORE PUSH2 0x3B9E DUP2 PUSH2 0x3B65 JUMP JUMPDEST SWAP1 POP SWAP2 SWAP1 POP JUMP JUMPDEST PUSH32 0x4E6F207265717565737420746F2072656A656374000000000000000000000000 PUSH0 DUP3 ADD MSTORE POP JUMP JUMPDEST PUSH0 PUSH2 0x3BD9 PUSH1 0x14 DUP4 PUSH2 0x343C JUMP JUMPDEST SWAP2 POP PUSH2 0x3BE4 DUP3 PUSH2 0x3BA5 JUMP JUMPDEST PUSH1 0x20 DUP3 ADD SWAP1 POP SWAP2 SWAP1 POP JUMP JUMPDEST PUSH0 PUSH1 0x20 DUP3 ADD SWAP1 POP DUP2 DUP2 SUB PUSH0 DUP4 ADD MSTORE PUSH2 0x3C06 DUP2 PUSH2 0x3BCD JUMP JUMPDEST SWAP1 POP SWAP2 SWAP1 POP JUMP JUMPDEST PUSH32 0x4E487B7100000000000000000000000000000000000000000000000000000000 PUSH0 MSTORE PUSH1 0x32 PUSH1 0x4 MSTORE PUSH1 0x24 PUSH0 REVERT JUMPDEST PUSH32 0x4E487B7100000000000000000000000000000000000000000000000000000000 PUSH0 MSTORE PUSH1 0x11 PUSH1 0x4 MSTORE PUSH1 0x24 PUSH0 REVERT JUMPDEST PUSH0 PUSH2 0x3C71 DUP3 PUSH2 0x3352 JUMP JUMPDEST SWAP2 POP PUSH2 0x3C7C DUP4 PUSH2 0x3352 JUMP JUMPDEST SWAP3 POP DUP3 DUP3 SUB SWAP1 POP DUP2 DUP2 GT ISZERO PUSH2 0x3C94 JUMPI PUSH2 0x3C93 PUSH2 0x3C3A JUMP JUMPDEST JUMPDEST SWAP3 SWAP2 POP POP JUMP JUMPDEST PUSH32 0x4E487B7100000000000000000000000000000000000000000000000000000000 PUSH0 MSTORE PUSH1 0x31 PUSH1 0x4 MSTORE PUSH1 0x24 PUSH0 REVERT INVALID LOG2 PUSH5 0x6970667358 0x22 SLT KECCAK256 GT PUSH32 0xD183AFE79ABBE1C13B663F6216FA7E1D2CFE9CA2A1E0225792939BD0BA416473 PUSH16 0x6C634300081A00330000000000000000 "
				},
				"gasEstimates": {
					"creation": {
						"codeDepositCost": "3122600",
						"executionCost": "27707",
						"totalCost": "3150307"
					},
					"external": {
						"admin()": "2640",
						"getPendingRequests()": "infinite",
						"getRequestStatus()": "infinite",
						"getRole(address)": "2981",
						"pendingRequests(uint256)": "5056",
						"rejectRole(address)": "infinite",
						"requestDataAuditorRole(string)": "infinite",
						"requestHospitalRole(string)": "infinite",
						"requestIPFSNodeRole(string)": "infinite",
						"requestResearcherRole(string)": "infinite",
						"revokeRole(address)": "33212",
						"roleRequests(address)": "infinite",
						"roles(address)": "3009",
						"verifiedAuditors(uint256)": "infinite",
						"verifiedHospitals(uint256)": "infinite",
						"verifiedIPFSNodes(uint256)": "infinite",
						"verifiedResearchers(uint256)": "infinite",
						"verifyDataAuditorRole(address)": "infinite",
						"verifyHospitalRole(address)": "infinite",
						"verifyIPFSNodeRole(address)": "infinite",
						"verifyResearcherRole(address)": "infinite"
					},
					"internal": {
						"_removePendingRequest(address)": "infinite"
					}
				},
				"methodIdentifiers": {
					"admin()": "f851a440",
					"getPendingRequests()": "80a1f712",
					"getRequestStatus()": "7253575d",
					"getRole(address)": "44276733",
					"pendingRequests(uint256)": "3c652a9a",
					"rejectRole(address)": "e1023b88",
					"requestDataAuditorRole(string)": "c11df8e7",
					"requestHospitalRole(string)": "14c9fb0c",
					"requestIPFSNodeRole(string)": "6edc684f",
					"requestResearcherRole(string)": "b3d41f95",
					"revokeRole(address)": "80e52e3f",
					"roleRequests(address)": "d1061fef",
					"roles(address)": "99374642",
					"verifiedAuditors(uint256)": "f04f8de7",
					"verifiedHospitals(uint256)": "1d5b9a73",
					"verifiedIPFSNodes(uint256)": "33b7fa5e",
					"verifiedResearchers(uint256)": "772e50bf",
					"verifyDataAuditorRole(address)": "00c00016",
					"verifyHospitalRole(address)": "8f81779f",
					"verifyIPFSNodeRole(address)": "df2ca8d0",
					"verifyResearcherRole(address)": "893c94d6"
				}
			},
			"storageLayout": {
				"storage": [
					{
						"astId": 31,
						"contract": "MTP/RoleManagement.sol:RoleManagement",
						"label": "roles",
						"offset": 0,
						"slot": "0",
						"type": "t_mapping(t_address,t_enum(Role)7)"
					},
					{
						"astId": 36,
						"contract": "MTP/RoleManagement.sol:RoleManagement",
						"label": "roleRequests",
						"offset": 0,
						"slot": "1",
						"type": "t_mapping(t_address,t_struct(RoleRequest)18_storage)"
					},
					{
						"astId": 38,
						"contract": "MTP/RoleManagement.sol:RoleManagement",
						"label": "admin",
						"offset": 0,
						"slot": "2",
						"type": "t_address"
					},
					{
						"astId": 41,
						"contract": "MTP/RoleManagement.sol:RoleManagement",
						"label": "pendingRequests",
						"offset": 0,
						"slot": "3",
						"type": "t_array(t_address)dyn_storage"
					},
					{
						"astId": 45,
						"contract": "MTP/RoleManagement.sol:RoleManagement",
						"label": "verifiedHospitals",
						"offset": 0,
						"slot": "4",
						"type": "t_array(t_struct(VerifiedRole)26_storage)dyn_storage"
					},
					{
						"astId": 49,
						"contract": "MTP/RoleManagement.sol:RoleManagement",
						"label": "verifiedAuditors",
						"offset": 0,
						"slot": "5",
						"type": "t_array(t_struct(VerifiedRole)26_storage)dyn_storage"
					},
					{
						"astId": 53,
						"contract": "MTP/RoleManagement.sol:RoleManagement",
						"label": "verifiedResearchers",
						"offset": 0,
						"slot": "6",
						"type": "t_array(t_struct(VerifiedRole)26_storage)dyn_storage"
					},
					{
						"astId": 57,
						"contract": "MTP/RoleManagement.sol:RoleManagement",
						"label": "verifiedIPFSNodes",
						"offset": 0,
						"slot": "7",
						"type": "t_array(t_struct(VerifiedRole)26_storage)dyn_storage"
					}
				],
				"types": {
					"t_address": {
						"encoding": "inplace",
						"label": "address",
						"numberOfBytes": "20"
					},
					"t_array(t_address)dyn_storage": {
						"base": "t_address",
						"encoding": "dynamic_array",
						"label": "address[]",
						"numberOfBytes": "32"
					},
					"t_array(t_struct(VerifiedRole)26_storage)dyn_storage": {
						"base": "t_struct(VerifiedRole)26_storage",
						"encoding": "dynamic_array",
						"label": "struct RoleManagement.VerifiedRole[]",
						"numberOfBytes": "32"
					},
					"t_enum(RequestStatus)12": {
						"encoding": "inplace",
						"label": "enum RoleManagement.RequestStatus",
						"numberOfBytes": "1"
					},
					"t_enum(Role)7": {
						"encoding": "inplace",
						"label": "enum RoleManagement.Role",
						"numberOfBytes": "1"
					},
					"t_mapping(t_address,t_enum(Role)7)": {
						"encoding": "mapping",
						"key": "t_address",
						"label": "mapping(address => enum RoleManagement.Role)",
						"numberOfBytes": "32",
						"value": "t_enum(Role)7"
					},
					"t_mapping(t_address,t_struct(RoleRequest)18_storage)": {
						"encoding": "mapping",
						"key": "t_address",
						"label": "mapping(address => struct RoleManagement.RoleRequest)",
						"numberOfBytes": "32",
						"value": "t_struct(RoleRequest)18_storage"
					},
					"t_string_storage": {
						"encoding": "bytes",
						"label": "string",
						"numberOfBytes": "32"
					},
					"t_struct(RoleRequest)18_storage": {
						"encoding": "inplace",
						"label": "struct RoleManagement.RoleRequest",
						"members": [
							{
								"astId": 14,
								"contract": "MTP/RoleManagement.sol:RoleManagement",
								"label": "registrationId",
								"offset": 0,
								"slot": "0",
								"type": "t_string_storage"
							},
							{
								"astId": 17,
								"contract": "MTP/RoleManagement.sol:RoleManagement",
								"label": "status",
								"offset": 0,
								"slot": "1",
								"type": "t_enum(RequestStatus)12"
							}
						],
						"numberOfBytes": "64"
					},
					"t_struct(VerifiedRole)26_storage": {
						"encoding": "inplace",
						"label": "struct RoleManagement.VerifiedRole",
						"members": [
							{
								"astId": 20,
								"contract": "MTP/RoleManagement.sol:RoleManagement",
								"label": "userAddress",
								"offset": 0,
								"slot": "0",
								"type": "t_address"
							},
							{
								"astId": 23,
								"contract": "MTP/RoleManagement.sol:RoleManagement",
								"label": "role",
								"offset": 20,
								"slot": "0",
								"type": "t_enum(Role)7"
							},
							{
								"astId": 25,
								"contract": "MTP/RoleManagement.sol:RoleManagement",
								"label": "registrationId",
								"offset": 0,
								"slot": "1",
								"type": "t_string_storage"
							}
						],
						"numberOfBytes": "64"
					}
				}
			},
			"userdoc": {
				"kind": "user",
				"methods": {},
				"version": 1
			}
		}
	}
}